{
  "_format": "hh-sol-artifact-1",
  "contractName": "MockPoolManager",
  "sourceName": "contracts/mocks/MockPoolManager.sol",
  "abi": [
    {
      "inputs": [
        {
          "components": [
            {
              "internalType": "address",
              "name": "poolDeployer",
              "type": "address"
            },
            {
              "internalType": "address",
              "name": "hooks",
              "type": "address"
            },
            {
              "internalType": "Currency",
              "name": "currency0",
              "type": "address"
            },
            {
              "internalType": "Currency",
              "name": "currency1",
              "type": "address"
            },
            {
              "internalType": "uint24",
              "name": "fee",
              "type": "uint24"
            },
            {
              "internalType": "int24",
              "name": "tickSpacing",
              "type": "int24"
            }
          ],
          "internalType": "struct PoolKey",
          "name": "key",
          "type": "tuple"
        },
        {
          "internalType": "uint32",
          "name": "twapInterval",
          "type": "uint32"
        }
      ],
      "name": "getOracleData",
      "outputs": [
        {
          "internalType": "bytes",
          "name": "",
          "type": "bytes"
        }
      ],
      "stateMutability": "view",
      "type": "function"
    },
    {
      "inputs": [
        {
          "internalType": "bytes32",
          "name": "",
          "type": "bytes32"
        }
      ],
      "name": "mockPrices",
      "outputs": [
        {
          "internalType": "uint256",
          "name": "",
          "type": "uint256"
        }
      ],
      "stateMutability": "view",
      "type": "function"
    },
    {
      "inputs": [
        {
          "internalType": "address",
          "name": "token0",
          "type": "address"
        },
        {
          "internalType": "address",
          "name": "token1",
          "type": "address"
        },
        {
          "internalType": "uint256",
          "name": "price",
          "type": "uint256"
        }
      ],
      "name": "setMockPrice",
      "outputs": [],
      "stateMutability": "nonpayable",
      "type": "function"
    },
    {
      "inputs": [
        {
          "components": [
            {
              "internalType": "address",
              "name": "poolDeployer",
              "type": "address"
            },
            {
              "internalType": "address",
              "name": "hooks",
              "type": "address"
            },
            {
              "internalType": "Currency",
              "name": "currency0",
              "type": "address"
            },
            {
              "internalType": "Currency",
              "name": "currency1",
              "type": "address"
            },
            {
              "internalType": "uint24",
              "name": "fee",
              "type": "uint24"
            },
            {
              "internalType": "int24",
              "name": "tickSpacing",
              "type": "int24"
            }
          ],
          "internalType": "struct PoolKey",
          "name": "key",
          "type": "tuple"
        },
        {
          "components": [
            {
              "internalType": "bool",
              "name": "zeroForOne",
              "type": "bool"
            },
            {
              "internalType": "int256",
              "name": "amountSpecified",
              "type": "int256"
            },
            {
              "internalType": "uint160",
              "name": "sqrtPriceLimitX96",
              "type": "uint160"
            }
          ],
          "internalType": "struct IPoolManager.SwapParams",
          "name": "params",
          "type": "tuple"
        },
        {
          "internalType": "bytes",
          "name": "data",
          "type": "bytes"
        }
      ],
      "name": "swap",
      "outputs": [
        {
          "internalType": "BalanceDelta",
          "name": "",
          "type": "int256"
        }
      ],
      "stateMutability": "nonpayable",
      "type": "function"
    }
  ],
  "bytecode": "0x6080806040523461001657610284908161001c8239f35b600080fdfe608060408181526004918236101561001657600080fd5b600090813560e01c908163121395ba1461019f575080631b13f9061461012f578063eacb0366146101045763f5dcc3f31461005057600080fd5b346100fd57366003190160e081126101005760c0136100fd5760c43563ffffffff8116036100fd5781519060209068056bc75e2d63100000828401528183528383019483861067ffffffffffffffff8711176100ea5750848452818552825191826060850152815b8381106100d657505082820160800152601f01601f19168101030190f35b8082918601608083820151910152016100b8565b906041602492634e487b7160e01b835252fd5b80fd5b5080fd5b50913461012b57602036600319011261012b57602092829135815280845220549051908152f35b8280fd5b50913461012b57366003190161014081126101975760c01361012b5760603660c319011261012b57610124359067ffffffffffffffff9081831161019b573660238401121561019b578201359081116101975736910160240111610100576020905160018152f35b8380fd5b8480fd5b83858492346101975760603660031901126101975773ffffffffffffffffffffffffffffffffffffffff918035838116810361024a57602435938416840361024a5760208301936bffffffffffffffffffffffff19809260601b16855260601b16603483015260288252606082019082821067ffffffffffffffff831117610237575083525190208252816020526044359082205580f35b856041602492634e487b7160e01b835252fd5b8580fdfea2646970667358221220b8d7071a921413637931aa342ce5014d95f2041fdd777fa48949e76054775c8a64736f6c63430008140033",
  "linkReferences": {},
  "deployedLinkReferences": {}
}