{"abi":[{"type":"constructor","inputs":[{"name":"_poolManager","type":"address","internalType":"contract IPoolManager"},{"name":"_worldIdRouter","type":"address","internalType":"contract IWorldID"},{"name":"_quoteToken","type":"address","internalType":"address"},{"name":"_initialOwner","type":"address","internalType":"address"}],"stateMutability":"nonpayable"},{"type":"function","name":"addMarket","inputs":[{"name":"maturityTimestamp","type":"uint256","internalType":"uint256"}],"outputs":[],"stateMutability":"nonpayable"},{"type":"function","name":"afterInitialize","inputs":[{"name":"sender","type":"address","internalType":"address"},{"name":"key","type":"tuple","internalType":"struct PoolKey","components":[{"name":"currency0","type":"address","internalType":"Currency"},{"name":"currency1","type":"address","internalType":"Currency"},{"name":"fee","type":"uint24","internalType":"uint24"},{"name":"tickSpacing","type":"int24","internalType":"int24"},{"name":"hooks","type":"address","internalType":"contract IHooks"}]},{"name":"sqrtPriceX96","type":"uint160","internalType":"uint160"},{"name":"tick","type":"int24","internalType":"int24"}],"outputs":[{"name":"","type":"bytes4","internalType":"bytes4"}],"stateMutability":"nonpayable"},{"type":"function","name":"getHookPermissions","inputs":[],"outputs":[{"name":"","type":"tuple","internalType":"struct Hooks.Permissions","components":[{"name":"beforeInitialize","type":"bool","internalType":"bool"},{"name":"afterInitialize","type":"bool","internalType":"bool"},{"name":"beforeAddLiquidity","type":"bool","internalType":"bool"},{"name":"afterAddLiquidity","type":"bool","internalType":"bool"},{"name":"beforeRemoveLiquidity","type":"bool","internalType":"bool"},{"name":"afterRemoveLiquidity","type":"bool","internalType":"bool"},{"name":"beforeSwap","type":"bool","internalType":"bool"},{"name":"afterSwap","type":"bool","internalType":"bool"},{"name":"beforeDonate","type":"bool","internalType":"bool"},{"name":"afterDonate","type":"bool","internalType":"bool"},{"name":"beforeSwapReturnDelta","type":"bool","internalType":"bool"},{"name":"afterSwapReturnDelta","type":"bool","internalType":"bool"},{"name":"afterAddLiquidityReturnDelta","type":"bool","internalType":"bool"},{"name":"afterRemoveLiquidityReturnDelta","type":"bool","internalType":"bool"}]}],"stateMutability":"pure"},{"type":"function","name":"owner","inputs":[],"outputs":[{"name":"","type":"address","internalType":"address"}],"stateMutability":"view"},{"type":"function","name":"poolKey","inputs":[],"outputs":[{"name":"currency0","type":"address","internalType":"Currency"},{"name":"currency1","type":"address","internalType":"Currency"},{"name":"fee","type":"uint24","internalType":"uint24"},{"name":"tickSpacing","type":"int24","internalType":"int24"},{"name":"hooks","type":"address","internalType":"contract IHooks"}],"stateMutability":"view"},{"type":"function","name":"poolManager","inputs":[],"outputs":[{"name":"","type":"address","internalType":"contract IPoolManager"}],"stateMutability":"view"},{"type":"function","name":"quoteToken","inputs":[],"outputs":[{"name":"","type":"address","internalType":"address"}],"stateMutability":"view"},{"type":"function","name":"renounceOwnership","inputs":[],"outputs":[],"stateMutability":"nonpayable"},{"type":"function","name":"setCollateralAllowed","inputs":[{"name":"token","type":"address","internalType":"address"},{"name":"allowed","type":"bool","internalType":"bool"}],"outputs":[],"stateMutability":"nonpayable"},{"type":"function","name":"transferOwnership","inputs":[{"name":"newOwner","type":"address","internalType":"address"}],"outputs":[],"stateMutability":"nonpayable"},{"type":"function","name":"worldIdRouter","inputs":[],"outputs":[{"name":"","type":"address","internalType":"contract IWorldID"}],"stateMutability":"view"},{"type":"event","name":"OwnershipTransferred","inputs":[{"name":"previousOwner","type":"address","indexed":true,"internalType":"address"},{"name":"newOwner","type":"address","indexed":true,"internalType":"address"}],"anonymous":false},{"type":"event","name":"PoolKeySet","inputs":[{"name":"key","type":"tuple","indexed":false,"internalType":"struct PoolKey","components":[{"name":"currency0","type":"address","internalType":"Currency"},{"name":"currency1","type":"address","internalType":"Currency"},{"name":"fee","type":"uint24","internalType":"uint24"},{"name":"tickSpacing","type":"int24","internalType":"int24"},{"name":"hooks","type":"address","internalType":"contract IHooks"}]}],"anonymous":false},{"type":"error","name":"OwnableInvalidOwner","inputs":[{"name":"owner","type":"address","internalType":"address"}]},{"type":"error","name":"OwnableUnauthorizedAccount","inputs":[{"name":"account","type":"address","internalType":"address"}]}],"bytecode":{"object":"0x60e03461011c57601f61085d38819003918201601f19168301916001600160401b038311848410176101205780849260809460405283398101031261011c578051906001600160a01b038216820361011c576020810151916001600160a01b038316830361011c5761007f606061007860408501610134565b9301610134565b6080919091526001600160a01b0316918215610109575f80546001600160a01b031981168517825560405194916001600160a01b03909116907f8be0079c531659141344cd1fd0a4f28419497f9722a3daafe3b4186f6b6457e09080a360a05260c0526107149081610149823960805181610183015260a0518161033c015260c051816105a80152f35b631e4fbdf760e01b5f525f60045260245ffd5b5f80fd5b634e487b7160e01b5f52604160045260245ffd5b51906001600160a01b038216820361011c5756fe6080806040526004361015610012575f80fd5b5f3560e01c908163182148ef146105cc57508063217a4b70146105895780636fe7e6eb146103dc578063715018a6146103855780638da5cb5b146103605780639f50b66d1461031d578063c4e833ce146101c0578063d06bf8a5146101a7578063dc4c90d314610164578063deed34db146101355763f2fde38b14610095575f80fd5b34610131576020366003190112610131576001600160a01b036100b661062b565b6100be61069f565b168015610105576001600160a01b035f54826001600160a01b03198216175f55167f8be0079c531659141344cd1fd0a4f28419497f9722a3daafe3b4186f6b6457e05f80a3005b7f1e4fbdf7000000000000000000000000000000000000000000000000000000005f525f60045260245ffd5b5f80fd5b346101315760403660031901126101315761014e61062b565b50602435801515036101315761016261069f565b005b34610131575f3660031901126101315760206040516001600160a01b037f0000000000000000000000000000000000000000000000000000000000000000168152f35b346101315760203660031901126101315761016261069f565b34610131575f366003190112610131575f6101a06101dc610651565b8281528260208201528260408201528260608201528260808201528260a08201528260c08201528260e0820152826101008201528261012082015282610140820152826101608201528261018082015201526101c0602061023b610651565b5f81528181019060018252604081015f8152606082015f8152608083015f815260a084015f815260c085015f815260e08601905f82526101008701925f84526101208801945f86526101408901965f88526101608a01985f8a526101a06101808c019b5f8d52019b5f8d526040519d8e915f835251151591015251151560408d015251151560608c015251151560808b015251151560a08a015251151560c089015251151560e08801525115156101008701525115156101208601525115156101408501525115156101608401525115156101808301525115156101a0820152f35b34610131575f3660031901126101315760206040516001600160a01b037f0000000000000000000000000000000000000000000000000000000000000000168152f35b34610131575f3660031901126101315760206001600160a01b035f5416604051908152f35b34610131575f3660031901126101315761039d61069f565b5f6001600160a01b0381546001600160a01b031981168355167f8be0079c531659141344cd1fd0a4f28419497f9722a3daafe3b4186f6b6457e08280a3005b3461013157610100366003190112610131576103f661062b565b5060a03660231901126101315760c4356001600160a01b038116036101315761041d610641565b506024356001600160a01b03811680820361013157806001600160a01b03196001541617600155604435916001600160a01b03831680840361013157806001600160a01b0319600254161760025560643562ffffff8116908181036101315760025491608435918260020b93848403610131577fffffffffffff000000000000ffffffffffffffffffffffffffffffffffffffff76ffffff00000000000000000000000000000000000000008560b81b79ffffff0000000000000000000000000000000000000000000000169360a01b169116171760025560a435936001600160a01b038516809503610131577fe54330d463931a9c09a3a8aa62426498212833c904ea12e3fdbc1c463523ec259760a097866001600160a01b031960035416176003556040519750875250602086015260408501525060608301526080820152a160206040517f6fe7e6eb000000000000000000000000000000000000000000000000000000008152f35b34610131575f3660031901126101315760206040516001600160a01b037f0000000000000000000000000000000000000000000000000000000000000000168152f35b34610131575f3660031901126101315760a0906001600160a01b03600154166002546001600160a01b03600354169183526001600160a01b038116602084015262ffffff81851c16604084015260b81c60020b60608301526080820152f35b600435906001600160a01b038216820361013157565b60e435908160020b820361013157565b604051906101c0820182811067ffffffffffffffff82111761067257604052565b7f4e487b71000000000000000000000000000000000000000000000000000000005f52604160045260245ffd5b6001600160a01b035f541633036106b257565b7f118cdaa7000000000000000000000000000000000000000000000000000000005f523360045260245ffdfea2646970667358221220e78cf832f75e54da8f56e7fda17d26c39f6f7178a7979c0a57e2764761536bf664736f6c634300081a0033","linkReferences":{}},"methodIdentifiers":{"addMarket(uint256)":"d06bf8a5","afterInitialize(address,(address,address,uint24,int24,address),uint160,int24)":"6fe7e6eb","getHookPermissions()":"c4e833ce","owner()":"8da5cb5b","poolKey()":"182148ef","poolManager()":"dc4c90d3","quoteToken()":"217a4b70","renounceOwnership()":"715018a6","setCollateralAllowed(address,bool)":"deed34db","transferOwnership(address)":"f2fde38b","worldIdRouter()":"9f50b66d"},"id":38}