{"contracts/AuctionRepoHook.sol":{"AuctionRepoHook":{"abi":[{"inputs":[{"internalType":"contract IPoolManager","name":"_poolManager","type":"address"},{"internalType":"contract IWorldID","name":"_worldIdRouter","type":"address"},{"internalType":"address","name":"_quoteToken","type":"address"},{"internalType":"address","name":"_initialOwner","type":"address"}],"stateMutability":"nonpayable","type":"constructor"},{"inputs":[{"internalType":"address","name":"owner","type":"address"}],"name":"OwnableInvalidOwner","type":"error"},{"inputs":[{"internalType":"address","name":"account","type":"address"}],"name":"OwnableUnauthorizedAccount","type":"error"},{"inputs":[],"name":"ReentrancyGuardReentrantCall","type":"error"},{"inputs":[{"internalType":"address","name":"token","type":"address"}],"name":"SafeERC20FailedOperation","type":"error"},{"anonymous":false,"inputs":[{"indexed":false,"internalType":"uint256","name":"maturityTimestamp","type":"uint256"},{"indexed":false,"internalType":"uint256","name":"clearingRateBPS","type":"uint256"},{"indexed":false,"internalType":"uint256","name":"matchedVolume","type":"uint256"},{"indexed":false,"internalType":"uint256","name":"matchedRequestCount","type":"uint256"},{"indexed":false,"internalType":"uint256","name":"matchedOfferCount","type":"uint256"}],"name":"AuctionExecuted","type":"event"},{"anonymous":false,"inputs":[{"indexed":true,"internalType":"uint256","name":"requestId","type":"uint256"},{"indexed":true,"internalType":"address","name":"borrower","type":"address"},{"indexed":false,"internalType":"address","name":"collateralToken","type":"address"},{"indexed":false,"internalType":"uint256","name":"collateralAmount","type":"uint256"},{"indexed":false,"internalType":"uint256","name":"quoteAmountRequested","type":"uint256"},{"indexed":false,"internalType":"uint256","name":"maxRateBPS","type":"uint256"},{"indexed":false,"internalType":"uint256","name":"maturityTimestamp","type":"uint256"},{"indexed":false,"internalType":"uint256","name":"borrowerNullifier","type":"uint256"}],"name":"BorrowRequestSubmitted","type":"event"},{"anonymous":false,"inputs":[{"indexed":true,"internalType":"address","name":"token","type":"address"},{"indexed":false,"internalType":"bool","name":"allowed","type":"bool"}],"name":"CollateralAllowed","type":"event"},{"anonymous":false,"inputs":[{"indexed":true,"internalType":"uint256","name":"nullifierHash","type":"uint256"}],"name":"DefaulterBlacklisted","type":"event"},{"anonymous":false,"inputs":[{"indexed":false,"internalType":"uint256","name":"initialLTV","type":"uint256"},{"indexed":false,"internalType":"uint256","name":"liquidationThreshold","type":"uint256"}],"name":"LTVUpdated","type":"event"},{"anonymous":false,"inputs":[{"indexed":true,"internalType":"uint256","name":"offerId","type":"uint256"},{"indexed":true,"internalType":"address","name":"lender","type":"address"},{"indexed":false,"internalType":"uint256","name":"quoteAmount","type":"uint256"},{"indexed":false,"internalType":"uint256","name":"minRateBPS","type":"uint256"},{"indexed":false,"internalType":"uint256","name":"maturityTimestamp","type":"uint256"},{"indexed":false,"internalType":"uint256","name":"lenderNullifier","type":"uint256"}],"name":"LendOfferSubmitted","type":"event"},{"anonymous":false,"inputs":[{"indexed":true,"internalType":"uint256","name":"loanId","type":"uint256"},{"indexed":false,"internalType":"uint256","name":"startTimestamp","type":"uint256"}],"name":"LoanClaimed","type":"event"},{"anonymous":false,"inputs":[{"indexed":true,"internalType":"uint256","name":"loanId","type":"uint256"},{"indexed":true,"internalType":"address","name":"lender","type":"address"},{"indexed":true,"internalType":"address","name":"borrower","type":"address"},{"indexed":false,"internalType":"uint256","name":"quoteAmount","type":"uint256"},{"indexed":false,"internalType":"uint256","name":"rateBPS","type":"uint256"},{"indexed":false,"internalType":"uint256","name":"maturityTimestamp","type":"uint256"}],"name":"LoanCreated","type":"event"},{"anonymous":false,"inputs":[{"indexed":true,"internalType":"uint256","name":"loanId","type":"uint256"},{"indexed":false,"internalType":"uint256","name":"collateralSold","type":"uint256"},{"indexed":false,"internalType":"uint256","name":"quoteReceived","type":"uint256"}],"name":"LoanLiquidated","type":"event"},{"anonymous":false,"inputs":[{"indexed":true,"internalType":"uint256","name":"loanId","type":"uint256"},{"indexed":false,"internalType":"uint256","name":"repaymentAmount","type":"uint256"}],"name":"LoanRepaid","type":"event"},{"anonymous":false,"inputs":[{"indexed":false,"internalType":"uint256","name":"maturityTimestamp","type":"uint256"}],"name":"MarketAdded","type":"event"},{"anonymous":false,"inputs":[{"indexed":true,"internalType":"address","name":"previousOwner","type":"address"},{"indexed":true,"internalType":"address","name":"newOwner","type":"address"}],"name":"OwnershipTransferred","type":"event"},{"anonymous":false,"inputs":[{"components":[{"internalType":"address","name":"poolDeployer","type":"address"},{"internalType":"address","name":"hooks","type":"address"},{"internalType":"Currency","name":"currency0","type":"address"},{"internalType":"Currency","name":"currency1","type":"address"},{"internalType":"uint24","name":"fee","type":"uint24"},{"internalType":"int24","name":"tickSpacing","type":"int24"}],"indexed":false,"internalType":"struct PoolKey","name":"key","type":"tuple"}],"name":"PoolKeySet","type":"event"},{"anonymous":false,"inputs":[{"indexed":true,"internalType":"uint256","name":"nullifierHash","type":"uint256"}],"name":"UserUnblacklisted","type":"event"},{"inputs":[],"name":"BPS_DENOMINATOR","outputs":[{"internalType":"uint256","name":"","type":"uint256"}],"stateMutability":"view","type":"function"},{"inputs":[],"name":"MAX_RATE_BPS","outputs":[{"internalType":"uint256","name":"","type":"uint256"}],"stateMutability":"view","type":"function"},{"inputs":[],"name":"MIN_AUCTION_INTERVAL","outputs":[{"internalType":"uint256","name":"","type":"uint256"}],"stateMutability":"view","type":"function"},{"inputs":[],"name":"TWAP_INTERVAL","outputs":[{"internalType":"uint256","name":"","type":"uint256"}],"stateMutability":"view","type":"function"},{"inputs":[],"name":"YEAR_IN_SECONDS","outputs":[{"internalType":"uint256","name":"","type":"uint256"}],"stateMutability":"view","type":"function"},{"inputs":[{"internalType":"uint256","name":"","type":"uint256"}],"name":"activeMarkets","outputs":[{"internalType":"uint256","name":"","type":"uint256"}],"stateMutability":"view","type":"function"},{"inputs":[{"internalType":"uint256","name":"maturityTimestamp","type":"uint256"}],"name":"addMarket","outputs":[],"stateMutability":"nonpayable","type":"function"},{"inputs":[{"internalType":"address","name":"","type":"address"},{"components":[{"internalType":"address","name":"poolDeployer","type":"address"},{"internalType":"address","name":"hooks","type":"address"},{"internalType":"Currency","name":"currency0","type":"address"},{"internalType":"Currency","name":"currency1","type":"address"},{"internalType":"uint24","name":"fee","type":"uint24"},{"internalType":"int24","name":"tickSpacing","type":"int24"}],"internalType":"struct PoolKey","name":"","type":"tuple"},{"internalType":"uint256","name":"","type":"uint256"},{"internalType":"uint256","name":"","type":"uint256"},{"internalType":"bytes","name":"","type":"bytes"}],"name":"afterDonate","outputs":[{"internalType":"bytes4","name":"","type":"bytes4"}],"stateMutability":"nonpayable","type":"function"},{"inputs":[{"components":[{"internalType":"address","name":"poolDeployer","type":"address"},{"internalType":"address","name":"hooks","type":"address"},{"internalType":"Currency","name":"currency0","type":"address"},{"internalType":"Currency","name":"currency1","type":"address"},{"internalType":"uint24","name":"fee","type":"uint24"},{"internalType":"int24","name":"tickSpacing","type":"int24"}],"internalType":"struct PoolKey","name":"key","type":"tuple"},{"internalType":"uint160","name":"","type":"uint160"},{"internalType":"int24","name":"","type":"int24"},{"internalType":"bytes","name":"","type":"bytes"}],"name":"afterInitialize","outputs":[{"internalType":"bytes4","name":"","type":"bytes4"}],"stateMutability":"nonpayable","type":"function"},{"inputs":[{"internalType":"address","name":"","type":"address"},{"components":[{"internalType":"address","name":"poolDeployer","type":"address"},{"internalType":"address","name":"hooks","type":"address"},{"internalType":"Currency","name":"currency0","type":"address"},{"internalType":"Currency","name":"currency1","type":"address"},{"internalType":"uint24","name":"fee","type":"uint24"},{"internalType":"int24","name":"tickSpacing","type":"int24"}],"internalType":"struct PoolKey","name":"","type":"tuple"},{"components":[{"internalType":"int24","name":"tickLower","type":"int24"},{"internalType":"int24","name":"tickUpper","type":"int24"},{"internalType":"int256","name":"liquidityDelta","type":"int256"}],"internalType":"struct IPoolManager.ModifyPositionParams","name":"","type":"tuple"},{"internalType":"BalanceDelta","name":"","type":"int256"},{"internalType":"bytes","name":"","type":"bytes"}],"name":"afterModifyPosition","outputs":[{"internalType":"bytes4","name":"","type":"bytes4"}],"stateMutability":"nonpayable","type":"function"},{"inputs":[{"internalType":"address","name":"","type":"address"},{"components":[{"internalType":"address","name":"poolDeployer","type":"address"},{"internalType":"address","name":"hooks","type":"address"},{"internalType":"Currency","name":"currency0","type":"address"},{"internalType":"Currency","name":"currency1","type":"address"},{"internalType":"uint24","name":"fee","type":"uint24"},{"internalType":"int24","name":"tickSpacing","type":"int24"}],"internalType":"struct PoolKey","name":"","type":"tuple"},{"components":[{"internalType":"bool","name":"zeroForOne","type":"bool"},{"internalType":"int256","name":"amountSpecified","type":"int256"},{"internalType":"uint160","name":"sqrtPriceLimitX96","type":"uint160"}],"internalType":"struct IPoolManager.SwapParams","name":"","type":"tuple"},{"internalType":"BalanceDelta","name":"","type":"int256"},{"internalType":"bytes","name":"","type":"bytes"}],"name":"afterSwap","outputs":[{"internalType":"bytes4","name":"","type":"bytes4"}],"stateMutability":"nonpayable","type":"function"},{"inputs":[{"internalType":"address","name":"","type":"address"},{"components":[{"internalType":"address","name":"poolDeployer","type":"address"},{"internalType":"address","name":"hooks","type":"address"},{"internalType":"Currency","name":"currency0","type":"address"},{"internalType":"Currency","name":"currency1","type":"address"},{"internalType":"uint24","name":"fee","type":"uint24"},{"internalType":"int24","name":"tickSpacing","type":"int24"}],"internalType":"struct PoolKey","name":"","type":"tuple"},{"internalType":"uint256","name":"","type":"uint256"},{"internalType":"uint256","name":"","type":"uint256"},{"internalType":"bytes","name":"","type":"bytes"}],"name":"beforeDonate","outputs":[{"internalType":"bytes4","name":"","type":"bytes4"}],"stateMutability":"nonpayable","type":"function"},{"inputs":[{"internalType":"address","name":"","type":"address"},{"components":[{"internalType":"address","name":"poolDeployer","type":"address"},{"internalType":"address","name":"hooks","type":"address"},{"internalType":"Currency","name":"currency0","type":"address"},{"internalType":"Currency","name":"currency1","type":"address"},{"internalType":"uint24","name":"fee","type":"uint24"},{"internalType":"int24","name":"tickSpacing","type":"int24"}],"internalType":"struct PoolKey","name":"","type":"tuple"},{"internalType":"uint160","name":"","type":"uint160"},{"internalType":"bytes","name":"","type":"bytes"}],"name":"beforeInitialize","outputs":[{"internalType":"bytes4","name":"","type":"bytes4"}],"stateMutability":"nonpayable","type":"function"},{"inputs":[{"internalType":"address","name":"","type":"address"},{"components":[{"internalType":"address","name":"poolDeployer","type":"address"},{"internalType":"address","name":"hooks","type":"address"},{"internalType":"Currency","name":"currency0","type":"address"},{"internalType":"Currency","name":"currency1","type":"address"},{"internalType":"uint24","name":"fee","type":"uint24"},{"internalType":"int24","name":"tickSpacing","type":"int24"}],"internalType":"struct PoolKey","name":"","type":"tuple"},{"components":[{"internalType":"int24","name":"tickLower","type":"int24"},{"internalType":"int24","name":"tickUpper","type":"int24"},{"internalType":"int256","name":"liquidityDelta","type":"int256"}],"internalType":"struct IPoolManager.ModifyPositionParams","name":"","type":"tuple"},{"internalType":"bytes","name":"","type":"bytes"}],"name":"beforeModifyPosition","outputs":[{"internalType":"bytes4","name":"","type":"bytes4"}],"stateMutability":"nonpayable","type":"function"},{"inputs":[{"internalType":"address","name":"","type":"address"},{"components":[{"internalType":"address","name":"poolDeployer","type":"address"},{"internalType":"address","name":"hooks","type":"address"},{"internalType":"Currency","name":"currency0","type":"address"},{"internalType":"Currency","name":"currency1","type":"address"},{"internalType":"uint24","name":"fee","type":"uint24"},{"internalType":"int24","name":"tickSpacing","type":"int24"}],"internalType":"struct PoolKey","name":"","type":"tuple"},{"components":[{"internalType":"bool","name":"zeroForOne","type":"bool"},{"internalType":"int256","name":"amountSpecified","type":"int256"},{"internalType":"uint160","name":"sqrtPriceLimitX96","type":"uint160"}],"internalType":"struct IPoolManager.SwapParams","name":"","type":"tuple"},{"internalType":"bytes","name":"","type":"bytes"}],"name":"beforeSwap","outputs":[{"internalType":"bytes4","name":"","type":"bytes4"}],"stateMutability":"nonpayable","type":"function"},{"inputs":[{"internalType":"uint256","name":"","type":"uint256"}],"name":"borrowRequests","outputs":[{"internalType":"uint256","name":"requestId","type":"uint256"},{"internalType":"address","name":"borrower","type":"address"},{"internalType":"address","name":"collateralToken","type":"address"},{"internalType":"uint256","name":"collateralAmount","type":"uint256"},{"internalType":"uint256","name":"quoteAmountRequested","type":"uint256"},{"internalType":"uint256","name":"maxRateBPS","type":"uint256"},{"internalType":"uint256","name":"maturityTimestamp","type":"uint256"},{"internalType":"uint256","name":"borrowerNullifier","type":"uint256"},{"internalType":"bool","name":"matched","type":"bool"}],"stateMutability":"view","type":"function"},{"inputs":[{"internalType":"uint256","name":"loanId","type":"uint256"}],"name":"claimLoan","outputs":[],"stateMutability":"nonpayable","type":"function"},{"inputs":[],"name":"getHookPermissions","outputs":[{"components":[{"internalType":"bool","name":"beforeInitialize","type":"bool"},{"internalType":"bool","name":"afterInitialize","type":"bool"},{"internalType":"bool","name":"beforeModifyPosition","type":"bool"},{"internalType":"bool","name":"afterModifyPosition","type":"bool"},{"internalType":"bool","name":"beforeSwap","type":"bool"},{"internalType":"bool","name":"afterSwap","type":"bool"},{"internalType":"bool","name":"beforeDonate","type":"bool"},{"internalType":"bool","name":"afterDonate","type":"bool"}],"internalType":"struct Hooks.Permissions","name":"","type":"tuple"}],"stateMutability":"pure","type":"function"},{"inputs":[],"name":"initialLTV","outputs":[{"internalType":"uint256","name":"","type":"uint256"}],"stateMutability":"view","type":"function"},{"inputs":[{"internalType":"address","name":"","type":"address"}],"name":"isCollateralAllowed","outputs":[{"internalType":"bool","name":"","type":"bool"}],"stateMutability":"view","type":"function"},{"inputs":[{"internalType":"uint256","name":"","type":"uint256"}],"name":"isNullifierBlacklisted","outputs":[{"internalType":"bool","name":"","type":"bool"}],"stateMutability":"view","type":"function"},{"inputs":[{"internalType":"uint256","name":"","type":"uint256"}],"name":"lendOffers","outputs":[{"internalType":"uint256","name":"offerId","type":"uint256"},{"internalType":"address","name":"lender","type":"address"},{"internalType":"uint256","name":"quoteAmount","type":"uint256"},{"internalType":"uint256","name":"minRateBPS","type":"uint256"},{"internalType":"uint256","name":"maturityTimestamp","type":"uint256"},{"internalType":"uint256","name":"lenderNullifier","type":"uint256"},{"internalType":"bool","name":"matched","type":"bool"}],"stateMutability":"view","type":"function"},{"inputs":[{"internalType":"uint256","name":"loanId","type":"uint256"}],"name":"liquidatePosition","outputs":[],"stateMutability":"nonpayable","type":"function"},{"inputs":[],"name":"liquidationThreshold","outputs":[{"internalType":"uint256","name":"","type":"uint256"}],"stateMutability":"view","type":"function"},{"inputs":[{"internalType":"uint256","name":"","type":"uint256"}],"name":"loans","outputs":[{"internalType":"uint256","name":"loanId","type":"uint256"},{"internalType":"address","name":"lender","type":"address"},{"internalType":"address","name":"borrower","type":"address"},{"internalType":"address","name":"collateralToken","type":"address"},{"internalType":"uint256","name":"collateralAmount","type":"uint256"},{"internalType":"uint256","name":"quoteAmount","type":"uint256"},{"internalType":"uint256","name":"rateBPS","type":"uint256"},{"internalType":"uint256","name":"startTimestamp","type":"uint256"},{"internalType":"uint256","name":"maturityTimestamp","type":"uint256"},{"internalType":"uint256","name":"lenderNullifier","type":"uint256"},{"internalType":"uint256","name":"borrowerNullifier","type":"uint256"},{"internalType":"enum AuctionRepoHook.LoanStatus","name":"status","type":"uint8"}],"stateMutability":"view","type":"function"},{"inputs":[{"internalType":"uint256","name":"","type":"uint256"}],"name":"markets","outputs":[{"internalType":"uint256","name":"lastAuctionTimestamp","type":"uint256"},{"internalType":"uint256","name":"lastClearingRateBPS","type":"uint256"},{"internalType":"uint256","name":"totalOfferedAmount","type":"uint256"},{"internalType":"uint256","name":"totalRequestedAmount","type":"uint256"},{"internalType":"uint256","name":"activeLoanCount","type":"uint256"},{"internalType":"uint256","name":"totalLoanVolume","type":"uint256"},{"internalType":"uint256","name":"defaultCount","type":"uint256"}],"stateMutability":"view","type":"function"},{"inputs":[],"name":"nextLoanId","outputs":[{"internalType":"uint256","name":"","type":"uint256"}],"stateMutability":"view","type":"function"},{"inputs":[],"name":"nextOfferId","outputs":[{"internalType":"uint256","name":"","type":"uint256"}],"stateMutability":"view","type":"function"},{"inputs":[],"name":"nextRequestId","outputs":[{"internalType":"uint256","name":"","type":"uint256"}],"stateMutability":"view","type":"function"},{"inputs":[],"name":"owner","outputs":[{"internalType":"address","name":"","type":"address"}],"stateMutability":"view","type":"function"},{"inputs":[{"internalType":"uint256","name":"nullifierHash","type":"uint256"}],"name":"ownerAddToBlacklist","outputs":[],"stateMutability":"nonpayable","type":"function"},{"inputs":[{"internalType":"uint256","name":"nullifierHash","type":"uint256"}],"name":"ownerRemoveFromBlacklist","outputs":[],"stateMutability":"nonpayable","type":"function"},{"inputs":[],"name":"poolKey","outputs":[{"internalType":"address","name":"poolDeployer","type":"address"},{"internalType":"address","name":"hooks","type":"address"},{"internalType":"Currency","name":"currency0","type":"address"},{"internalType":"Currency","name":"currency1","type":"address"},{"internalType":"uint24","name":"fee","type":"uint24"},{"internalType":"int24","name":"tickSpacing","type":"int24"}],"stateMutability":"view","type":"function"},{"inputs":[],"name":"poolManager","outputs":[{"internalType":"contract IPoolManager","name":"","type":"address"}],"stateMutability":"view","type":"function"},{"inputs":[],"name":"quoteToken","outputs":[{"internalType":"address","name":"","type":"address"}],"stateMutability":"view","type":"function"},{"inputs":[],"name":"renounceOwnership","outputs":[],"stateMutability":"nonpayable","type":"function"},{"inputs":[{"internalType":"uint256","name":"loanId","type":"uint256"}],"name":"repayLoan","outputs":[],"stateMutability":"nonpayable","type":"function"},{"inputs":[{"internalType":"uint256","name":"maturityTimestamp","type":"uint256"}],"name":"runAuction","outputs":[],"stateMutability":"nonpayable","type":"function"},{"inputs":[{"internalType":"address","name":"token","type":"address"},{"internalType":"bool","name":"allowed","type":"bool"}],"name":"setCollateralAllowed","outputs":[],"stateMutability":"nonpayable","type":"function"},{"inputs":[{"internalType":"uint256","name":"_initialLTV","type":"uint256"},{"internalType":"uint256","name":"_liquidationThreshold","type":"uint256"}],"name":"setLTVParams","outputs":[],"stateMutability":"nonpayable","type":"function"},{"inputs":[{"internalType":"address","name":"collateralToken","type":"address"},{"internalType":"uint256","name":"collateralAmount","type":"uint256"},{"internalType":"uint256","name":"quoteAmountRequested","type":"uint256"},{"internalType":"uint256","name":"maxRateBPS","type":"uint256"},{"internalType":"uint256","name":"maturityTimestamp","type":"uint256"},{"internalType":"address","name":"signal","type":"address"},{"internalType":"uint256","name":"root","type":"uint256"},{"internalType":"uint256","name":"nullifierHash","type":"uint256"},{"internalType":"uint256[8]","name":"proof","type":"uint256[8]"}],"name":"submitBorrowRequest","outputs":[],"stateMutability":"nonpayable","type":"function"},{"inputs":[{"internalType":"uint256","name":"quoteAmount","type":"uint256"},{"internalType":"uint256","name":"minRateBPS","type":"uint256"},{"internalType":"uint256","name":"maturityTimestamp","type":"uint256"},{"internalType":"address","name":"signal","type":"address"},{"internalType":"uint256","name":"root","type":"uint256"},{"internalType":"uint256","name":"nullifierHash","type":"uint256"},{"internalType":"uint256[8]","name":"proof","type":"uint256[8]"}],"name":"submitLendOffer","outputs":[],"stateMutability":"nonpayable","type":"function"},{"inputs":[{"internalType":"address","name":"newOwner","type":"address"}],"name":"transferOwnership","outputs":[],"stateMutability":"nonpayable","type":"function"},{"inputs":[],"name":"worldIdRouter","outputs":[{"internalType":"contract IWorldID","name":"","type":"address"}],"stateMutability":"view","type":"function"}],"evm":{"bytecode":{"linkReferences":{},"object":"60e034620001cf57601f6200350238819003918201601f19168301916001600160401b03831184841017620001d457808492608094604052833981010312620001cf5780516001600160a01b038082168203620001cf576020830151918183168303620001cf5781906200008460606200007c60408801620001ea565b9601620001ea565b9060805216908115620001b657600080546001600160a01b03198116841782556040519391908316907f8be0079c531659141344cd1fd0a4f28419497f9722a3daafe3b4186f6b6457e09080a360018055611b586002556121346003556001600d556001600f55600160115583161562000169575060a05260c0526040516133029081620002008239608051816105c5015260a051818181610e6501528181611447015281816115f20152611662015260c0518181816108240152818161092f01528181610d0701528181610f21015281816111a0015281816127740152612a700152f35b62461bcd60e51b815260206004820152602260248201527f51756f746520746f6b656e2063616e6e6f74206265207a65726f206164647265604482015261737360f01b6064820152608490fd5b604051631e4fbdf760e01b815260006004820152602490fd5b600080fd5b634e487b7160e01b600052604160045260246000fd5b51906001600160a01b0382168203620001cf5756fe60c080604052600436101561001357600080fd5b60003560e01c9081630127e45614612af657508063182148ef14612a94578063217a4b7014612a5057806323962ace146129ca5780633adfe6d0146129935780634031234c1461297557806344577bea1461293857806350d282fc146128a357806352494c9b1461287d57806353a469b3146126d95780635f5d0655146126bb5780636a7eb0b11461269e5780636a84a98514612680578063715018a6146126275780637847ea53146126085780637d40d0f814611bf75780637f21bc6214611ab957806387c5145914611a9b5780638da5cb5b14611a745780639e2214c21461152a5780639f1105761461146b5780639f50b66d14611427578063a17bbfbc1461111c578063a41e1020146110ff578063a880a273146110e1578063aa23dd4314610dd1578063ab7b1c8914610c33578063b0c0c26414610c16578063b1283e7714610ba9578063b7f6916314610b78578063c1ef3c4b14610b3a578063c4e833ce14610a5f578063cb06732014610a20578063cdddd4e514610758578063d06bf8a5146105e9578063dc4c90d3146105a5578063deed34db146104d1578063df57968114610493578063df991fd914610455578063e1a4521814610438578063e1ec3c6814610360578063eef964fa146102e5578063f2fde38b146102465763fc8060031461020357600080fd5b346102415761021136612c3c565b50505050505060206040517ffc806003000000000000000000000000000000000000000000000000000000008152f35b600080fd5b346102415760203660031901126102415761025f612b31565b610267612cf9565b6001600160a01b038091169081156102b457600054826001600160a01b0319821617600055167f8be0079c531659141344cd1fd0a4f28419497f9722a3daafe3b4186f6b6457e0600080a3005b60246040517f1e4fbdf700000000000000000000000000000000000000000000000000000000815260006004820152fd5b3461024157602036600319011261024157600435600052600c60205260e060406000208054906001600160a01b03600182015416906002810154600382015460048301549160ff600660058601549501541694604051968752602087015260408601526060850152608084015260a0830152151560c0820152f35b34610241576020366003190112610241576004356000526010602052604060002080546001600160a01b0391826001820154169280600283015416906003830154166004830154600584015460068501549060078601549260088701549460098801549660ff600b600a8b01549a0154169a6040519a8b5260208b015260408a01526060890152608088015260a087015260c086015260e085015261010084015261012083015261014082015260058210156104225761018091610160820152f35b634e487b7160e01b600052602160045260246000fd5b346102415760003660031901126102415760206040516127108152f35b346102415761046336612ca0565b50505050505060206040517fdf991fd9000000000000000000000000000000000000000000000000000000008152f35b34610241576104a136612ca0565b50505050505060206040517fdf579681000000000000000000000000000000000000000000000000000000008152f35b34610241576040366003190112610241576104ea612b31565b6024359081151590818303610241576001600160a01b039061050a612cf9565b16918215610561577fe7b5ed3c2b0c67f2d4e8978e894ef5549cf69733dec0d3bcd515c7ddb03da76791610558602092856000526005845260406000209060ff801983541691151516179055565b604051908152a2005b606460405162461bcd60e51b815260206004820152601560248201527f496e76616c696420746f6b656e206164647265737300000000000000000000006044820152fd5b346102415760003660031901126102415760206040516001600160a01b037f0000000000000000000000000000000000000000000000000000000000000000168152f35b34610241576020806003193601126102415760043590610607612cf9565b610612428311612dcc565b81600052600a81526040600020546107145760405161063081612d3d565b4281526006828201600081526040830160008152606084016000815260808501906000825260a08601926000845260c08701946000865289600052600a895260406000209751885551600188015551600287015551600386015551600485015551600584015551910155600b5491680100000000000000008310156106fe576106e08360017fe9628085f7f14effecb9d76beea18cca6c1a2e6e92c301968a994d4070d5cdcf9501600b55612bef565b81549060031b9083821b91600019901b1916179055604051908152a1005b634e487b7160e01b600052604160045260246000fd5b6064906040519062461bcd60e51b82526004820152601560248201527f4d61726b657420616c72656164792065786973747300000000000000000000006044820152fd5b34610241576020806003193601126102415760043590610776612fba565b8160005260108152604060002061078f81541515613028565b600b81019160ff83541660058110156104225760016107ae91146130d9565b60088201928354421191821561096f575b6107c8846131fb565b946004850194855494606486029486860460641487151715610959577f5398b7a5b8c8e1f6623af066668e947737efd1695f29634f60bba23a20b7ec4198604098888289106109165761086a916001600160a01b039361085c857f00000000000000000000000000000000000000000000000000000000000000001691610856818860018d01541685613073565b8c613124565b806108fe575b505054613124565b806108df575b50505b600460ff198254161790558254600052600a8452600487600020016108988154613131565b90556108b0575b50508351928352820152a260018055005b600a6108bd910154613273565b54600052600a8152600684600020016108d68154612ead565b9055868061089f565b816108f7926003870154169060028701541690613073565b8a80610870565b61090f918660028b01541690613073565b8e80610862565b505050610954866001600160a01b0380600187015416907f000000000000000000000000000000000000000000000000000000000000000016613073565b610873565b634e487b7160e01b600052601160045260246000fd5b600484015460648102908082046064149015171561095957610990856131fb565b9061271091828102928184041490151715610959576109ae91613008565b600354106107bf576084906040519062461bcd60e51b82526004820152602160248201527f4c6f616e206e6f7420656c696769626c6520666f72206c69717569646174696f60448201527f6e000000000000000000000000000000000000000000000000000000000000006064820152fd5b34610241576020366003190112610241576001600160a01b03610a41612b31565b166000526005602052602060ff604060002054166040519015158152f35b3461024157600036600319011261024157600060e0604051610a8081612d59565b8281528260208201528260408201528260608201528260808201528260a08201528260c08201520152610100604051610ab881612d59565b600081526020810190600182526040810190600082526060810160008152608082016000815260a08301916000835260e060c0850194600086520194600086526040519660008852511515602088015251151560408701525115156060860152511515608085015251151560a084015251151560c083015251151560e0820152f35b3461024157610b4836612c3c565b50505050505060206040517fc1ef3c4b000000000000000000000000000000000000000000000000000000008152f35b34610241576020366003190112610241576004356000526004602052602060ff604060002054166040519015158152f35b3461024157602036600319011261024157600435600052600a60205260e06040600020805490600181015490600281015460038201546004830154916006600585015494015494604051968752602087015260408601526060850152608084015260a083015260c0820152f35b346102415760003660031901126102415760206040516113888152f35b3461024157602036600319011261024157600435610c4f612fba565b8060005260106020526040600020610c6981541515613028565b600b810160ff8154166005811015610422576001610c8791146130d9565b600882019182544211610d8d577f040cee90ee4799897c30ca04e5feb6fa43dbba9b6d084b4b257cdafd84ba013e92602092610d59610cf6610ccd600786015442613124565b64496cebb800610cef600588015492610cea60068a015485612ff5565b612ff5565b0490612ebc565b936001600160a01b0390610d4086837f000000000000000000000000000000000000000000000000000000000000000016610d3382303384612ec9565b8460018501541690613073565b6004826003830154169260028301541691015491613073565b600260ff1982541617905554600052600a82526004604060002001610d7e8154613131565b9055604051908152a260018055005b606460405162461bcd60e51b815260206004820152601260248201527f4c6f616e2070617374206d6174757269747900000000000000000000000000006044820152fd5b34610241576101c036600319011261024157600435602435604435610df4612b47565b9060a43590366101c41161024157610e0a612fba565b841561109d57610e1e611388851115612e17565b80600052602093600a8552610e396040600020541515612e62565b610e44428311612dcc565b826000526004855260ff60406000205416611059576001600160a01b0393847f00000000000000000000000000000000000000000000000000000000000000001690813b156102415785610164600092604051948593849263fa0795fb60e01b8452166004830152608435602483015288604483015261010060c460648401375afa908161104a575b50610f16576064856040519062461bcd60e51b82526004820152601660248201527f496e76616c696420576f726c642049442070726f6f66000000000000000000006044820152fd5b8594610f46863033887f000000000000000000000000000000000000000000000000000000000000000016612ec9565b610fee600d5495610f5687612ead565b600d5560068760405192610f6984612d3d565b818452858401338152604085018c8152606086019089825260808701928b845260a08801948d865260c089019660008852600052600c8b52604060002098518955600189019151166001600160a01b031982541617905551600287015551600386015551600485015551600584015551151591019060ff801983541691151516179055565b82600052600a81526002604060002001611009878254612ebc565b9055604051958652850152604084015260608301527f101be5bb48fc561c063568755bf3321ec63b4bc6f7ace2d9019a6bde5fb7447f60803393a360018055005b61105390612d76565b87610ecd565b6064856040519062461bcd60e51b82526004820152601360248201527f5573657220697320626c61636b6c6973746564000000000000000000000000006044820152fd5b606460405162461bcd60e51b815260206004820152601760248201527f416d6f756e74206d75737420626520706f7369746976650000000000000000006044820152fd5b34610241576000366003190112610241576020600254604051908152f35b346102415760003660031901126102415760206040516107088152f35b3461024157366003190161012081126102415760c013610241576001600160a01b0360c435818116036102415760e4358060020b03610241576101043567ffffffffffffffff811161024157611176903690600401612b5d565b5050611180612d8a565b81309116036113e35760075481811661139f578161119c612da0565b16827f00000000000000000000000000000000000000000000000000000000000000001680911490811561138c575b50156113485760043590828216809203610241576001600160a01b03199182600654161760065581836111fc612d8a565b169116176007558161120c612da0565b169060085416176008558061121f612db6565b166009549060843562ffffff8116928382036102415760a435928360020b938481036102415776ffffff00000000000000000000000000000000000000007fffffffffffff00000000000000000000000000000000000000000000000000009160b81b79ffffff0000000000000000000000000000000000000000000000169460a01b16921617171760095560405190836112b8612b31565b16825260243584811680910361024157602083015260443592848416809403610241577f50610696e9fe8816208f4f19f070f264b06b4ad02c040485c0e5fa4ef433208a9460c094604085015261130d612b47565b166060840152608083015260a0820152a160206040517fa17bbfbc000000000000000000000000000000000000000000000000000000008152f35b606460405162461bcd60e51b815260206004820152601d60248201527f506f6f6c206d75737420696e636c7564652071756f746520746f6b656e0000006044820152fd5b905082611397612db6565b1614836111cb565b606460405162461bcd60e51b815260206004820152601360248201527f506f6f6c4b657920616c726561647920736574000000000000000000000000006044820152fd5b606460405162461bcd60e51b815260206004820152601b60248201527f496e76616c696420686f6f6b206164647265737320696e206b657900000000006044820152fd5b346102415760003660031901126102415760206040516001600160a01b037f0000000000000000000000000000000000000000000000000000000000000000168152f35b3461024157602036600319011261024157600435611487612cf9565b61149281151561313e565b80600052600460205260ff60406000205416156114e657806000526004602052604060002060ff1981541690557f31c881e4e925d1768cc34e510541d44008b23b46a60e3027463f39c50658c163600080a2005b606460405162461bcd60e51b815260206004820152600f60248201527f4e6f7420626c61636b6c697374656400000000000000000000000000000000006044820152fd5b346102415761020036600319011261024157611544612b31565b60a4356001600160a01b038116810361024157366102041161024157611568612fba565b6001600160a01b038216600052600560205260ff6040600020541615611a3057602435156119c6576044351561195c576115a86113886064351115612e17565b608435600052600a6020526115c36040600020541515612e62565b6115d04260843511612dcc565b60e435600052600460205260ff60406000205416611918576001600160a01b037f0000000000000000000000000000000000000000000000000000000000000000163b15610241576001600160a01b036040519163fa0795fb60e01b835216600482015260c435602482015260e435604482015261010090816101046064830137600081610164816001600160a01b037f0000000000000000000000000000000000000000000000000000000000000000165afa9081611909575b506116d457606460405162461bcd60e51b815260206004820152601660248201527f496e76616c696420576f726c642049442070726f6f66000000000000000000006044820152fd5b6064602435026024358104606403610959576116f66127109160025490612ff5565b046044351161189f5761171660243530336001600160a01b038616612ec9565b600f549061172382612ead565b600f55604051610120810181811067ffffffffffffffff8211176106fe5761181a926008916040528483526020830190338252604084016001600160a01b038816815260608501602435815260808601604435815260a0870191606435835260c0880193608435855260e089019560e4358752890196600088528b600052600e602052604060002099518a556001600160a01b0360018b01915116906001600160a01b031991828254161790556001600160a01b0360028b019251169082541617905551600388015551600487015551600586015551600685015551600784015551151591019060ff801983541691151516179055565b608435600052600a602052600360406000200161183a6044358254612ebc565b90556001600160a01b0360405192168252602435602083015260443560408301526064356060830152608435608083015260e43560a08301527f16775be402cdf037bdabd450b0ce3f4a08962decfde296b59dbd1c0221329c0360c03393a360018055005b608460405162461bcd60e51b815260206004820152602a60248201527f496e73756666696369656e7420636f6c6c61746572616c20666f72207265717560448201527f6573746564206c6f616e000000000000000000000000000000000000000000006064820152fd5b61191290612d76565b8361168b565b606460405162461bcd60e51b815260206004820152601360248201527f5573657220697320626c61636b6c6973746564000000000000000000000000006044820152fd5b608460405162461bcd60e51b815260206004820152602160248201527f52657175657374656420616d6f756e74206d75737420626520706f736974697660448201527f65000000000000000000000000000000000000000000000000000000000000006064820152fd5b608460405162461bcd60e51b815260206004820152602260248201527f436f6c6c61746572616c20616d6f756e74206d75737420626520706f7369746960448201527f76650000000000000000000000000000000000000000000000000000000000006064820152fd5b606460405162461bcd60e51b815260206004820152601660248201527f436f6c6c61746572616c206e6f7420616c6c6f776564000000000000000000006044820152fd5b346102415760003660031901126102415760206001600160a01b0360005416604051908152f35b34610241576000366003190112610241576020601154604051908152f35b3461024157604036600319011261024157600435602435611ad8612cf9565b80821015611b8d576127108111611b2357816040917febf7eddb4e03548e462e5c4eea29b2fe5e922ed494fbd1ee2ef8fc337cd55be1936002558060035582519182526020820152a1005b608460405162461bcd60e51b815260206004820152602860248201527f4c69717569646174696f6e207468726573686f6c642063616e6e6f742065786360448201527f65656420313030250000000000000000000000000000000000000000000000006064820152fd5b608460405162461bcd60e51b815260206004820152603360248201527f496e697469616c204c5456206d757374206265206c657373207468616e206c6960448201527f717569646174696f6e207468726573686f6c64000000000000000000000000006064820152fd5b3461024157602036600319011261024157611c10612cf9565b600435600052600a60205260406000208054611c2d811515612e62565b610e1081018091116109595742106125c45742600435111561258057600d54906000908160015b8481106125295750600f549060015b8281106124d25750611c77611c7d916131a1565b936131a1565b936000908160015b82811061247d5750505060015b82811061242857505050815115158061241e575b156123da576000925b8251841015611d595760018401808511610959575b8351811015611d4857611d1290611cdb86866131e7565b51600052600c806020526003806040600020015491611cfa84896131e7565b516000526020526040600020015410611d1757612ead565b611cc4565b611d2181866131e7565b51611d2c87876131e7565b51611d3783886131e7565b52611d4287876131e7565b52612ead565b5092611d5390612ead565b92611caf565b826000925b8251841015611dd75760018401808511610959575b8351811015611dc657611dc190611d8a86866131e7565b51600052600e806020526005806040600020015491611da984896131e7565b516000526020526040600020015411611d1757612ead565b611d73565b5092611dd190612ead565b92611d5e565b90826000916000926000916000926000916000945b8151861015611f1957611dff86836131e7565b51600052600c6020526003604060002001549460009860009460005b89811115611ee457506000955b8a51871015611ed057611e3b878c6131e7565b51600052600e602052886005604060002001541015600014611e8c57611e80611e8691611e68898e6131e7565b51600052600e60205260046040600020015490612ebc565b96612ead565b95611e28565b91969a9095509a939a9792979691965b8180821091180218898111611ec3575b5050611eb790612ead565b94979097969296611dec565b98509550611eb78a611eac565b91969a9095509a939a979297969196611e9c565b9a611f0e611f1491611ef68e896131e7565b51600052600c60205260026040600020015490612ebc565b9b612ead565b611e1b565b879389918882611f76575b7f34570f9fb64342ea477acfdfd825e34c70ea3a3673ad98a12b4e87f2f390805060a0898989898360018b428155015551916040519360043585526020850152604084015260608301526080820152a1005b60009750929550869450909284919082908286835b881515806123d0575b806123c6575b1561236a575b83518110806123a2575b15611fbd57611fb890612ead565b611fa0565b969798835188101561236a575b8851811080612346575b15611fe757611fe290612ead565b611fca565b9897969987518a101561230657611ffe8b856131e7565b51600052600c60205260406000206120168b8a6131e7565b51600052600e602052604060002086156122fa575b88156122ee575b8887108988180289188b808210911802808c1860a0528b03612057575b505099611f8b565b90809d9a9896601161206d815480608052612ead565b90556001600160a01b03600183015416916001600160a01b03600185015416906001600160a01b036002860154169060056120bc6120b160a05160038a0154612ff5565b600489015490613008565b91015491600787015493604051968761018081011067ffffffffffffffff6101808a0111176106fe5761018088016040526080518852602088015260408701526060860152608085015260a05160a08501528a60c0850152600060e08501526004356101008501526101208401526101408301526000610160830152608051600052601060205261016060406000209280518455600184016001600160a01b03602083015116906001600160a01b03199182825416179055600285016001600160a01b036040840151168282541617905560038501906001600160a01b03606084015116908254161790556080810151600485015560a0810151600585015560c0810151600685015560e0810151600785015561010081015160088501556101208101516009850155610140810151600a8501550151916005831015610422576122256122399261222f92600b61223f9660ff8019838501541691161791015560a05190613124565b9860a05190613124565b9960a05190613124565b9a612ead565b9c6001600160a01b036001820154166001600160a01b036001840154169060405160a05181528a602082015260043560408201527f6850239cc8fa897edd78465a234c3240b84bbfb1c55cac4b85364de88ce71095606060805192a486156122cf575b5087156122b0575b8061204f565b600801805460ff19166001179055986122c890612ead565b988c6122aa565b600601805460ff191660011790559a6122e790612ead565b9a8d6122a2565b60048101549850612032565b6002820154965061202b565b9650965096509250505060a094508360017f34570f9fb64342ea477acfdfd825e34c70ea3a3673ad98a12b4e87f2f3908050975b95975082949650611f24565b50612351818a6131e7565b51600052600e6020528560056040600020015410611fd4565b50965096509250505060a09491508360017f34570f9fb64342ea477acfdfd825e34c70ea3a3673ad98a12b4e87f2f39080509761233a565b506123ad81856131e7565b51600052600c6020528560036040600020015411611faa565b5087518a10611f9a565b5083518110611f94565b606460405162461bcd60e51b815260206004820152601260248201527f4e6f206f726465727320746f206d6174636800000000000000000000000000006044820152fd5b5082511515611ca6565b8061245491600052600e602052604060002060ff60088201541615908161246d575b5061245957612ead565b611c92565b80611d4261246685612ead565b94896131e7565b600601546004351490508861244a565b806124a991600052600c602052604060002060ff6006820154161590816124c2575b506124ae57612ead565b611c85565b80611d426124bb85612ead565b948a6131e7565b905060048035910154148a61249f565b80600052600e602052604060002060ff600882015416159081612519575b50612504575b6124ff90612ead565b611c63565b936125116124ff91612ead565b9490506124f6565b60060154600435149050876124f0565b80600052600c602052604060002060ff600682015416159081612570575b5061255b575b61255690612ead565b611c54565b9061256861255691612ead565b91905061254d565b9050600480359101541486612547565b606460405162461bcd60e51b815260206004820152601660248201527f4d61726b6574206d6174757269747920706173736564000000000000000000006044820152fd5b606460405162461bcd60e51b815260206004820152601c60248201527f41756374696f6e20696e74657276616c206e6f7420656c6170736564000000006044820152fd5b346102415760003660031901126102415760206040516301e133808152f35b3461024157600036600319011261024157612640612cf9565b60006001600160a01b0381546001600160a01b031981168355167f8be0079c531659141344cd1fd0a4f28419497f9722a3daafe3b4186f6b6457e08280a3005b34610241576000366003190112610241576020600f54604051908152f35b34610241576000366003190112610241576020604051610e108152f35b34610241576000366003190112610241576020600d54604051908152f35b346102415760208060031936011261024157600435906126f7612fba565b8160005260108152604060002061271081541515613028565b6001600160a01b0390816002820154169133830361283957600b82019060ff8254166005811015610422576127f557916008916127997fa658ab2fd84b9837db23df49b16ad4f921c59b21e0dbd646e9b5b3f25cf4f9bf96959460058401958654917f000000000000000000000000000000000000000000000000000000000000000016613073565b600160ff1982541617905542600782015501908154600052600a835260046040600020016127c78154612ead565b9055549054600052600a82526127e66005604060002001918254612ebc565b9055604051428152a260018055005b6064856040519062461bcd60e51b82526004820152601a60248201527f4c6f616e206e6f7420696e2070656e64696e67207374617475730000000000006044820152fd5b6064846040519062461bcd60e51b82526004820152601760248201527f4f6e6c7920626f72726f7765722063616e20636c61696d0000000000000000006044820152fd5b3461024157602036600319011261024157612896612cf9565b6128a1600435613273565b005b3461024157602036600319011261024157600435600052600e60205261012060406000208054906001600160a01b039081600182015416916002820154166003820154600483015460058401549160068501549360ff600860078801549701541696604051988952602089015260408801526060870152608086015260a085015260c084015260e08301521515610100820152f35b346102415761294636612b8b565b505050505060206040517f44577bea000000000000000000000000000000000000000000000000000000008152f35b34610241576000366003190112610241576020600354604051908152f35b3461024157602036600319011261024157600435600b54811015610241576129bc602091612bef565b90546040519160031b1c8152f35b3461024157610120366003190112610241576129e4612b31565b5060c03660231901126102415760e4356001600160a01b03811603610241576101043567ffffffffffffffff811161024157612a24903690600401612b5d565b505060206040517f23962ace000000000000000000000000000000000000000000000000000000008152f35b346102415760003660031901126102415760206040516001600160a01b037f0000000000000000000000000000000000000000000000000000000000000000168152f35b346102415760003660031901126102415760c06001600160a01b03806006541690806007541690806008541660095492604051948552602085015260408401528116606083015262ffffff8160a01c16608083015260b81c60020b60a0820152f35b3461024157602090612b0736612b8b565b50505050507f0127e456000000000000000000000000000000000000000000000000000000008152f35b600435906001600160a01b038216820361024157565b606435906001600160a01b038216820361024157565b9181601f840112156102415782359167ffffffffffffffff8311610241576020838186019501011161024157565b90610160600319830112610241576004356001600160a01b0381168103610241579160c060231982011261024157602491606060e3198301126102415760e491610144359067ffffffffffffffff821161024157612beb91600401612b5d565b9091565b600b54811015612c2657600b6000527f0175b7a638427703f0dbe7bb9bbf987a2551717b34e79f33b5b1008d1fa01db90190600090565b634e487b7160e01b600052603260045260246000fd5b610180600319820112610241576004356001600160a01b0381168103610241579160c060231983011261024157602491606060e3198201126102415760e4916101443591610164359067ffffffffffffffff821161024157612beb91600401612b5d565b610140600319820112610241576004356001600160a01b0381168103610241579160c06023198301126102415760249160e435916101043591610124359067ffffffffffffffff821161024157612beb91600401612b5d565b6001600160a01b03600054163303612d0d57565b60246040517f118cdaa7000000000000000000000000000000000000000000000000000000008152336004820152fd5b60e0810190811067ffffffffffffffff8211176106fe57604052565b610100810190811067ffffffffffffffff8211176106fe57604052565b67ffffffffffffffff81116106fe57604052565b6024356001600160a01b03811681036102415790565b6044356001600160a01b03811681036102415790565b6064356001600160a01b03811681036102415790565b15612dd357565b606460405162461bcd60e51b815260206004820152601e60248201527f4d61747572697479206d75737420626520696e207468652066757475726500006044820152fd5b15612e1e57565b606460405162461bcd60e51b815260206004820152601460248201527f526174652065786365656473206d6178696d756d0000000000000000000000006044820152fd5b15612e6957565b606460405162461bcd60e51b815260206004820152601560248201527f4d61726b657420646f6573206e6f7420657869737400000000000000000000006044820152fd5b60001981146109595760010190565b9190820180921161095957565b9290604051927f23b872dd0000000000000000000000000000000000000000000000000000000060208501526001600160a01b03809216602485015216604483015260648201526064815260a081019181831067ffffffffffffffff8411176106fe57612f3892604052612f3a565b565b906000602091828151910182855af115612fae576000513d612fa557506001600160a01b0381163b155b612f6b5750565b6024906001600160a01b03604051917f5274afe7000000000000000000000000000000000000000000000000000000008352166004820152fd5b60011415612f64565b6040513d6000823e3d90fd5b600260015414612fcb576002600155565b60046040517f3ee5aeb5000000000000000000000000000000000000000000000000000000008152fd5b8181029291811591840414171561095957565b8115613012570490565b634e487b7160e01b600052601260045260246000fd5b1561302f57565b606460405162461bcd60e51b815260206004820152601360248201527f4c6f616e20646f6573206e6f74206578697374000000000000000000000000006044820152fd5b916001600160a01b03604051927fa9059cbb000000000000000000000000000000000000000000000000000000006020850152166024830152604482015260448152608081019181831067ffffffffffffffff8411176106fe57612f3892604052612f3a565b156130e057565b606460405162461bcd60e51b815260206004820152600f60248201527f4c6f616e206e6f742061637469766500000000000000000000000000000000006044820152fd5b9190820391821161095957565b8015610959576000190190565b1561314557565b606460405162461bcd60e51b815260206004820152601160248201527f496e76616c6964206e756c6c69666965720000000000000000000000000000006044820152fd5b67ffffffffffffffff81116106fe5760051b60200190565b906131ab82613189565b60405190601f1990601f018116820167ffffffffffffffff8111838210176106fe576040528382526131dd8294613189565b0190602036910137565b8051821015612c265760209160051b010190565b600781015480158015613258575b6132515764496cebb800610cef61324e93610cea600661323761322c8742613124565b966008850154613124565b600584015496818082109118021892015485612ff5565b90565b5050600090565b5060ff600b8301541660058110156104225760011415613209565b61327e81151561313e565b8060005260046020526040600020805460ff81161561329c57505050565b60ff191660011790557f03422edde3b4dfad5fea7909eebed1b0370e6232a638f83bc4aa4d9b4275598e600080a256fea2646970667358221220046dd886aaf21cbf3028905e4e2c437359bd37bd83cb8d734f1f8a03ee3cfdb264736f6c63430008140033","opcodes":"PUSH1 0xE0 CALLVALUE PUSH3 0x1CF JUMPI PUSH1 0x1F PUSH3 0x3502 CODESIZE DUP2 SWAP1 SUB SWAP2 DUP3 ADD PUSH1 0x1F NOT AND DUP4 ADD SWAP2 PUSH1 0x1 PUSH1 0x1 PUSH1 0x40 SHL SUB DUP4 GT DUP5 DUP5 LT OR PUSH3 0x1D4 JUMPI DUP1 DUP5 SWAP3 PUSH1 0x80 SWAP5 PUSH1 0x40 MSTORE DUP4 CODECOPY DUP2 ADD SUB SLT PUSH3 0x1CF JUMPI DUP1 MLOAD PUSH1 0x1 PUSH1 0x1 PUSH1 0xA0 SHL SUB DUP1 DUP3 AND DUP3 SUB PUSH3 0x1CF JUMPI PUSH1 0x20 DUP4 ADD MLOAD SWAP2 DUP2 DUP4 AND DUP4 SUB PUSH3 0x1CF JUMPI DUP2 SWAP1 PUSH3 0x84 PUSH1 0x60 PUSH3 0x7C PUSH1 0x40 DUP9 ADD PUSH3 0x1EA JUMP JUMPDEST SWAP7 ADD PUSH3 0x1EA JUMP JUMPDEST SWAP1 PUSH1 0x80 MSTORE AND SWAP1 DUP2 ISZERO PUSH3 0x1B6 JUMPI PUSH1 0x0 DUP1 SLOAD PUSH1 0x1 PUSH1 0x1 PUSH1 0xA0 SHL SUB NOT DUP2 AND DUP5 OR DUP3 SSTORE PUSH1 0x40 MLOAD SWAP4 SWAP2 SWAP1 DUP4 AND SWAP1 PUSH32 0x8BE0079C531659141344CD1FD0A4F28419497F9722A3DAAFE3B4186F6B6457E0 SWAP1 DUP1 LOG3 PUSH1 0x1 DUP1 SSTORE PUSH2 0x1B58 PUSH1 0x2 SSTORE PUSH2 0x2134 PUSH1 0x3 SSTORE PUSH1 0x1 PUSH1 0xD SSTORE PUSH1 0x1 PUSH1 0xF SSTORE PUSH1 0x1 PUSH1 0x11 SSTORE DUP4 AND ISZERO PUSH3 0x169 JUMPI POP PUSH1 0xA0 MSTORE PUSH1 0xC0 MSTORE PUSH1 0x40 MLOAD PUSH2 0x3302 SWAP1 DUP2 PUSH3 0x200 DUP3 CODECOPY PUSH1 0x80 MLOAD DUP2 PUSH2 0x5C5 ADD MSTORE PUSH1 0xA0 MLOAD DUP2 DUP2 DUP2 PUSH2 0xE65 ADD MSTORE DUP2 DUP2 PUSH2 0x1447 ADD MSTORE DUP2 DUP2 PUSH2 0x15F2 ADD MSTORE PUSH2 0x1662 ADD MSTORE PUSH1 0xC0 MLOAD DUP2 DUP2 DUP2 PUSH2 0x824 ADD MSTORE DUP2 DUP2 PUSH2 0x92F ADD MSTORE DUP2 DUP2 PUSH2 0xD07 ADD MSTORE DUP2 DUP2 PUSH2 0xF21 ADD MSTORE DUP2 DUP2 PUSH2 0x11A0 ADD MSTORE DUP2 DUP2 PUSH2 0x2774 ADD MSTORE PUSH2 0x2A70 ADD MSTORE RETURN JUMPDEST PUSH3 0x461BCD PUSH1 0xE5 SHL DUP2 MSTORE PUSH1 0x20 PUSH1 0x4 DUP3 ADD MSTORE PUSH1 0x22 PUSH1 0x24 DUP3 ADD MSTORE PUSH32 0x51756F746520746F6B656E2063616E6E6F74206265207A65726F206164647265 PUSH1 0x44 DUP3 ADD MSTORE PUSH2 0x7373 PUSH1 0xF0 SHL PUSH1 0x64 DUP3 ADD MSTORE PUSH1 0x84 SWAP1 REVERT JUMPDEST PUSH1 0x40 MLOAD PUSH4 0x1E4FBDF7 PUSH1 0xE0 SHL DUP2 MSTORE PUSH1 0x0 PUSH1 0x4 DUP3 ADD MSTORE PUSH1 0x24 SWAP1 REVERT JUMPDEST PUSH1 0x0 DUP1 REVERT JUMPDEST PUSH4 0x4E487B71 PUSH1 0xE0 SHL PUSH1 0x0 MSTORE PUSH1 0x41 PUSH1 0x4 MSTORE PUSH1 0x24 PUSH1 0x0 REVERT JUMPDEST MLOAD SWAP1 PUSH1 0x1 PUSH1 0x1 PUSH1 0xA0 SHL SUB DUP3 AND DUP3 SUB PUSH3 0x1CF JUMPI JUMP INVALID PUSH1 0xC0 DUP1 PUSH1 0x40 MSTORE PUSH1 0x4 CALLDATASIZE LT ISZERO PUSH2 0x13 JUMPI PUSH1 0x0 DUP1 REVERT JUMPDEST PUSH1 0x0 CALLDATALOAD PUSH1 0xE0 SHR SWAP1 DUP2 PUSH4 0x127E456 EQ PUSH2 0x2AF6 JUMPI POP DUP1 PUSH4 0x182148EF EQ PUSH2 0x2A94 JUMPI DUP1 PUSH4 0x217A4B70 EQ PUSH2 0x2A50 JUMPI DUP1 PUSH4 0x23962ACE EQ PUSH2 0x29CA JUMPI DUP1 PUSH4 0x3ADFE6D0 EQ PUSH2 0x2993 JUMPI DUP1 PUSH4 0x4031234C EQ PUSH2 0x2975 JUMPI DUP1 PUSH4 0x44577BEA EQ PUSH2 0x2938 JUMPI DUP1 PUSH4 0x50D282FC EQ PUSH2 0x28A3 JUMPI DUP1 PUSH4 0x52494C9B EQ PUSH2 0x287D JUMPI DUP1 PUSH4 0x53A469B3 EQ PUSH2 0x26D9 JUMPI DUP1 PUSH4 0x5F5D0655 EQ PUSH2 0x26BB JUMPI DUP1 PUSH4 0x6A7EB0B1 EQ PUSH2 0x269E JUMPI DUP1 PUSH4 0x6A84A985 EQ PUSH2 0x2680 JUMPI DUP1 PUSH4 0x715018A6 EQ PUSH2 0x2627 JUMPI DUP1 PUSH4 0x7847EA53 EQ PUSH2 0x2608 JUMPI DUP1 PUSH4 0x7D40D0F8 EQ PUSH2 0x1BF7 JUMPI DUP1 PUSH4 0x7F21BC62 EQ PUSH2 0x1AB9 JUMPI DUP1 PUSH4 0x87C51459 EQ PUSH2 0x1A9B JUMPI DUP1 PUSH4 0x8DA5CB5B EQ PUSH2 0x1A74 JUMPI DUP1 PUSH4 0x9E2214C2 EQ PUSH2 0x152A JUMPI DUP1 PUSH4 0x9F110576 EQ PUSH2 0x146B JUMPI DUP1 PUSH4 0x9F50B66D EQ PUSH2 0x1427 JUMPI DUP1 PUSH4 0xA17BBFBC EQ PUSH2 0x111C JUMPI DUP1 PUSH4 0xA41E1020 EQ PUSH2 0x10FF JUMPI DUP1 PUSH4 0xA880A273 EQ PUSH2 0x10E1 JUMPI DUP1 PUSH4 0xAA23DD43 EQ PUSH2 0xDD1 JUMPI DUP1 PUSH4 0xAB7B1C89 EQ PUSH2 0xC33 JUMPI DUP1 PUSH4 0xB0C0C264 EQ PUSH2 0xC16 JUMPI DUP1 PUSH4 0xB1283E77 EQ PUSH2 0xBA9 JUMPI DUP1 PUSH4 0xB7F69163 EQ PUSH2 0xB78 JUMPI DUP1 PUSH4 0xC1EF3C4B EQ PUSH2 0xB3A JUMPI DUP1 PUSH4 0xC4E833CE EQ PUSH2 0xA5F JUMPI DUP1 PUSH4 0xCB067320 EQ PUSH2 0xA20 JUMPI DUP1 PUSH4 0xCDDDD4E5 EQ PUSH2 0x758 JUMPI DUP1 PUSH4 0xD06BF8A5 EQ PUSH2 0x5E9 JUMPI DUP1 PUSH4 0xDC4C90D3 EQ PUSH2 0x5A5 JUMPI DUP1 PUSH4 0xDEED34DB EQ PUSH2 0x4D1 JUMPI DUP1 PUSH4 0xDF579681 EQ PUSH2 0x493 JUMPI DUP1 PUSH4 0xDF991FD9 EQ PUSH2 0x455 JUMPI DUP1 PUSH4 0xE1A45218 EQ PUSH2 0x438 JUMPI DUP1 PUSH4 0xE1EC3C68 EQ PUSH2 0x360 JUMPI DUP1 PUSH4 0xEEF964FA EQ PUSH2 0x2E5 JUMPI DUP1 PUSH4 0xF2FDE38B EQ PUSH2 0x246 JUMPI PUSH4 0xFC806003 EQ PUSH2 0x203 JUMPI PUSH1 0x0 DUP1 REVERT JUMPDEST CALLVALUE PUSH2 0x241 JUMPI PUSH2 0x211 CALLDATASIZE PUSH2 0x2C3C JUMP JUMPDEST POP POP POP POP POP POP PUSH1 0x20 PUSH1 0x40 MLOAD PUSH32 0xFC80600300000000000000000000000000000000000000000000000000000000 DUP2 MSTORE RETURN JUMPDEST PUSH1 0x0 DUP1 REVERT JUMPDEST CALLVALUE PUSH2 0x241 JUMPI PUSH1 0x20 CALLDATASIZE PUSH1 0x3 NOT ADD SLT PUSH2 0x241 JUMPI PUSH2 0x25F PUSH2 0x2B31 JUMP JUMPDEST PUSH2 0x267 PUSH2 0x2CF9 JUMP JUMPDEST PUSH1 0x1 PUSH1 0x1 PUSH1 0xA0 SHL SUB DUP1 SWAP2 AND SWAP1 DUP2 ISZERO PUSH2 0x2B4 JUMPI PUSH1 0x0 SLOAD DUP3 PUSH1 0x1 PUSH1 0x1 PUSH1 0xA0 SHL SUB NOT DUP3 AND OR PUSH1 0x0 SSTORE AND PUSH32 0x8BE0079C531659141344CD1FD0A4F28419497F9722A3DAAFE3B4186F6B6457E0 PUSH1 0x0 DUP1 LOG3 STOP JUMPDEST PUSH1 0x24 PUSH1 0x40 MLOAD PUSH32 0x1E4FBDF700000000000000000000000000000000000000000000000000000000 DUP2 MSTORE PUSH1 0x0 PUSH1 0x4 DUP3 ADD MSTORE REVERT JUMPDEST CALLVALUE PUSH2 0x241 JUMPI PUSH1 0x20 CALLDATASIZE PUSH1 0x3 NOT ADD SLT PUSH2 0x241 JUMPI PUSH1 0x4 CALLDATALOAD PUSH1 0x0 MSTORE PUSH1 0xC PUSH1 0x20 MSTORE PUSH1 0xE0 PUSH1 0x40 PUSH1 0x0 KECCAK256 DUP1 SLOAD SWAP1 PUSH1 0x1 PUSH1 0x1 PUSH1 0xA0 SHL SUB PUSH1 0x1 DUP3 ADD SLOAD AND SWAP1 PUSH1 0x2 DUP2 ADD SLOAD PUSH1 0x3 DUP3 ADD SLOAD PUSH1 0x4 DUP4 ADD SLOAD SWAP2 PUSH1 0xFF PUSH1 0x6 PUSH1 0x5 DUP7 ADD SLOAD SWAP6 ADD SLOAD AND SWAP5 PUSH1 0x40 MLOAD SWAP7 DUP8 MSTORE PUSH1 0x20 DUP8 ADD MSTORE PUSH1 0x40 DUP7 ADD MSTORE PUSH1 0x60 DUP6 ADD MSTORE PUSH1 0x80 DUP5 ADD MSTORE PUSH1 0xA0 DUP4 ADD MSTORE ISZERO ISZERO PUSH1 0xC0 DUP3 ADD MSTORE RETURN JUMPDEST CALLVALUE PUSH2 0x241 JUMPI PUSH1 0x20 CALLDATASIZE PUSH1 0x3 NOT ADD SLT PUSH2 0x241 JUMPI PUSH1 0x4 CALLDATALOAD PUSH1 0x0 MSTORE PUSH1 0x10 PUSH1 0x20 MSTORE PUSH1 0x40 PUSH1 0x0 KECCAK256 DUP1 SLOAD PUSH1 0x1 PUSH1 0x1 PUSH1 0xA0 SHL SUB SWAP2 DUP3 PUSH1 0x1 DUP3 ADD SLOAD AND SWAP3 DUP1 PUSH1 0x2 DUP4 ADD SLOAD AND SWAP1 PUSH1 0x3 DUP4 ADD SLOAD AND PUSH1 0x4 DUP4 ADD SLOAD PUSH1 0x5 DUP5 ADD SLOAD PUSH1 0x6 DUP6 ADD SLOAD SWAP1 PUSH1 0x7 DUP7 ADD SLOAD SWAP3 PUSH1 0x8 DUP8 ADD SLOAD SWAP5 PUSH1 0x9 DUP9 ADD SLOAD SWAP7 PUSH1 0xFF PUSH1 0xB PUSH1 0xA DUP12 ADD SLOAD SWAP11 ADD SLOAD AND SWAP11 PUSH1 0x40 MLOAD SWAP11 DUP12 MSTORE PUSH1 0x20 DUP12 ADD MSTORE PUSH1 0x40 DUP11 ADD MSTORE PUSH1 0x60 DUP10 ADD MSTORE PUSH1 0x80 DUP9 ADD MSTORE PUSH1 0xA0 DUP8 ADD MSTORE PUSH1 0xC0 DUP7 ADD MSTORE PUSH1 0xE0 DUP6 ADD MSTORE PUSH2 0x100 DUP5 ADD MSTORE PUSH2 0x120 DUP4 ADD MSTORE PUSH2 0x140 DUP3 ADD MSTORE PUSH1 0x5 DUP3 LT ISZERO PUSH2 0x422 JUMPI PUSH2 0x180 SWAP2 PUSH2 0x160 DUP3 ADD MSTORE RETURN JUMPDEST PUSH4 0x4E487B71 PUSH1 0xE0 SHL PUSH1 0x0 MSTORE PUSH1 0x21 PUSH1 0x4 MSTORE PUSH1 0x24 PUSH1 0x0 REVERT JUMPDEST CALLVALUE PUSH2 0x241 JUMPI PUSH1 0x0 CALLDATASIZE PUSH1 0x3 NOT ADD SLT PUSH2 0x241 JUMPI PUSH1 0x20 PUSH1 0x40 MLOAD PUSH2 0x2710 DUP2 MSTORE RETURN JUMPDEST CALLVALUE PUSH2 0x241 JUMPI PUSH2 0x463 CALLDATASIZE PUSH2 0x2CA0 JUMP JUMPDEST POP POP POP POP POP POP PUSH1 0x20 PUSH1 0x40 MLOAD PUSH32 0xDF991FD900000000000000000000000000000000000000000000000000000000 DUP2 MSTORE RETURN JUMPDEST CALLVALUE PUSH2 0x241 JUMPI PUSH2 0x4A1 CALLDATASIZE PUSH2 0x2CA0 JUMP JUMPDEST POP POP POP POP POP POP PUSH1 0x20 PUSH1 0x40 MLOAD PUSH32 0xDF57968100000000000000000000000000000000000000000000000000000000 DUP2 MSTORE RETURN JUMPDEST CALLVALUE PUSH2 0x241 JUMPI PUSH1 0x40 CALLDATASIZE PUSH1 0x3 NOT ADD SLT PUSH2 0x241 JUMPI PUSH2 0x4EA PUSH2 0x2B31 JUMP JUMPDEST PUSH1 0x24 CALLDATALOAD SWAP1 DUP2 ISZERO ISZERO SWAP1 DUP2 DUP4 SUB PUSH2 0x241 JUMPI PUSH1 0x1 PUSH1 0x1 PUSH1 0xA0 SHL SUB SWAP1 PUSH2 0x50A PUSH2 0x2CF9 JUMP JUMPDEST AND SWAP2 DUP3 ISZERO PUSH2 0x561 JUMPI PUSH32 0xE7B5ED3C2B0C67F2D4E8978E894EF5549CF69733DEC0D3BCD515C7DDB03DA767 SWAP2 PUSH2 0x558 PUSH1 0x20 SWAP3 DUP6 PUSH1 0x0 MSTORE PUSH1 0x5 DUP5 MSTORE PUSH1 0x40 PUSH1 0x0 KECCAK256 SWAP1 PUSH1 0xFF DUP1 NOT DUP4 SLOAD AND SWAP2 ISZERO ISZERO AND OR SWAP1 SSTORE JUMP JUMPDEST PUSH1 0x40 MLOAD SWAP1 DUP2 MSTORE LOG2 STOP JUMPDEST PUSH1 0x64 PUSH1 0x40 MLOAD PUSH3 0x461BCD PUSH1 0xE5 SHL DUP2 MSTORE PUSH1 0x20 PUSH1 0x4 DUP3 ADD MSTORE PUSH1 0x15 PUSH1 0x24 DUP3 ADD MSTORE PUSH32 0x496E76616C696420746F6B656E20616464726573730000000000000000000000 PUSH1 0x44 DUP3 ADD MSTORE REVERT JUMPDEST CALLVALUE PUSH2 0x241 JUMPI PUSH1 0x0 CALLDATASIZE PUSH1 0x3 NOT ADD SLT PUSH2 0x241 JUMPI PUSH1 0x20 PUSH1 0x40 MLOAD PUSH1 0x1 PUSH1 0x1 PUSH1 0xA0 SHL SUB PUSH32 0x0 AND DUP2 MSTORE RETURN JUMPDEST CALLVALUE PUSH2 0x241 JUMPI PUSH1 0x20 DUP1 PUSH1 0x3 NOT CALLDATASIZE ADD SLT PUSH2 0x241 JUMPI PUSH1 0x4 CALLDATALOAD SWAP1 PUSH2 0x607 PUSH2 0x2CF9 JUMP JUMPDEST PUSH2 0x612 TIMESTAMP DUP4 GT PUSH2 0x2DCC JUMP JUMPDEST DUP2 PUSH1 0x0 MSTORE PUSH1 0xA DUP2 MSTORE PUSH1 0x40 PUSH1 0x0 KECCAK256 SLOAD PUSH2 0x714 JUMPI PUSH1 0x40 MLOAD PUSH2 0x630 DUP2 PUSH2 0x2D3D JUMP JUMPDEST TIMESTAMP DUP2 MSTORE PUSH1 0x6 DUP3 DUP3 ADD PUSH1 0x0 DUP2 MSTORE PUSH1 0x40 DUP4 ADD PUSH1 0x0 DUP2 MSTORE PUSH1 0x60 DUP5 ADD PUSH1 0x0 DUP2 MSTORE PUSH1 0x80 DUP6 ADD SWAP1 PUSH1 0x0 DUP3 MSTORE PUSH1 0xA0 DUP7 ADD SWAP3 PUSH1 0x0 DUP5 MSTORE PUSH1 0xC0 DUP8 ADD SWAP5 PUSH1 0x0 DUP7 MSTORE DUP10 PUSH1 0x0 MSTORE PUSH1 0xA DUP10 MSTORE PUSH1 0x40 PUSH1 0x0 KECCAK256 SWAP8 MLOAD DUP9 SSTORE MLOAD PUSH1 0x1 DUP9 ADD SSTORE MLOAD PUSH1 0x2 DUP8 ADD SSTORE MLOAD PUSH1 0x3 DUP7 ADD SSTORE MLOAD PUSH1 0x4 DUP6 ADD SSTORE MLOAD PUSH1 0x5 DUP5 ADD SSTORE MLOAD SWAP2 ADD SSTORE PUSH1 0xB SLOAD SWAP2 PUSH9 0x10000000000000000 DUP4 LT ISZERO PUSH2 0x6FE JUMPI PUSH2 0x6E0 DUP4 PUSH1 0x1 PUSH32 0xE9628085F7F14EFFECB9D76BEEA18CCA6C1A2E6E92C301968A994D4070D5CDCF SWAP6 ADD PUSH1 0xB SSTORE PUSH2 0x2BEF JUMP JUMPDEST DUP2 SLOAD SWAP1 PUSH1 0x3 SHL SWAP1 DUP4 DUP3 SHL SWAP2 PUSH1 0x0 NOT SWAP1 SHL NOT AND OR SWAP1 SSTORE PUSH1 0x40 MLOAD SWAP1 DUP2 MSTORE LOG1 STOP JUMPDEST PUSH4 0x4E487B71 PUSH1 0xE0 SHL PUSH1 0x0 MSTORE PUSH1 0x41 PUSH1 0x4 MSTORE PUSH1 0x24 PUSH1 0x0 REVERT JUMPDEST PUSH1 0x64 SWAP1 PUSH1 0x40 MLOAD SWAP1 PUSH3 0x461BCD PUSH1 0xE5 SHL DUP3 MSTORE PUSH1 0x4 DUP3 ADD MSTORE PUSH1 0x15 PUSH1 0x24 DUP3 ADD MSTORE PUSH32 0x4D61726B657420616C7265616479206578697374730000000000000000000000 PUSH1 0x44 DUP3 ADD MSTORE REVERT JUMPDEST CALLVALUE PUSH2 0x241 JUMPI PUSH1 0x20 DUP1 PUSH1 0x3 NOT CALLDATASIZE ADD SLT PUSH2 0x241 JUMPI PUSH1 0x4 CALLDATALOAD SWAP1 PUSH2 0x776 PUSH2 0x2FBA JUMP JUMPDEST DUP2 PUSH1 0x0 MSTORE PUSH1 0x10 DUP2 MSTORE PUSH1 0x40 PUSH1 0x0 KECCAK256 PUSH2 0x78F DUP2 SLOAD ISZERO ISZERO PUSH2 0x3028 JUMP JUMPDEST PUSH1 0xB DUP2 ADD SWAP2 PUSH1 0xFF DUP4 SLOAD AND PUSH1 0x5 DUP2 LT ISZERO PUSH2 0x422 JUMPI PUSH1 0x1 PUSH2 0x7AE SWAP2 EQ PUSH2 0x30D9 JUMP JUMPDEST PUSH1 0x8 DUP3 ADD SWAP3 DUP4 SLOAD TIMESTAMP GT SWAP2 DUP3 ISZERO PUSH2 0x96F JUMPI JUMPDEST PUSH2 0x7C8 DUP5 PUSH2 0x31FB JUMP JUMPDEST SWAP5 PUSH1 0x4 DUP6 ADD SWAP5 DUP6 SLOAD SWAP5 PUSH1 0x64 DUP7 MUL SWAP5 DUP7 DUP7 DIV PUSH1 0x64 EQ DUP8 ISZERO OR ISZERO PUSH2 0x959 JUMPI PUSH32 0x5398B7A5B8C8E1F6623AF066668E947737EFD1695F29634F60BBA23A20B7EC41 SWAP9 PUSH1 0x40 SWAP9 DUP9 DUP3 DUP10 LT PUSH2 0x916 JUMPI PUSH2 0x86A SWAP2 PUSH1 0x1 PUSH1 0x1 PUSH1 0xA0 SHL SUB SWAP4 PUSH2 0x85C DUP6 PUSH32 0x0 AND SWAP2 PUSH2 0x856 DUP2 DUP9 PUSH1 0x1 DUP14 ADD SLOAD AND DUP6 PUSH2 0x3073 JUMP JUMPDEST DUP13 PUSH2 0x3124 JUMP JUMPDEST DUP1 PUSH2 0x8FE JUMPI JUMPDEST POP POP SLOAD PUSH2 0x3124 JUMP JUMPDEST DUP1 PUSH2 0x8DF JUMPI JUMPDEST POP POP JUMPDEST PUSH1 0x4 PUSH1 0xFF NOT DUP3 SLOAD AND OR SWAP1 SSTORE DUP3 SLOAD PUSH1 0x0 MSTORE PUSH1 0xA DUP5 MSTORE PUSH1 0x4 DUP8 PUSH1 0x0 KECCAK256 ADD PUSH2 0x898 DUP2 SLOAD PUSH2 0x3131 JUMP JUMPDEST SWAP1 SSTORE PUSH2 0x8B0 JUMPI JUMPDEST POP POP DUP4 MLOAD SWAP3 DUP4 MSTORE DUP3 ADD MSTORE LOG2 PUSH1 0x1 DUP1 SSTORE STOP JUMPDEST PUSH1 0xA PUSH2 0x8BD SWAP2 ADD SLOAD PUSH2 0x3273 JUMP JUMPDEST SLOAD PUSH1 0x0 MSTORE PUSH1 0xA DUP2 MSTORE PUSH1 0x6 DUP5 PUSH1 0x0 KECCAK256 ADD PUSH2 0x8D6 DUP2 SLOAD PUSH2 0x2EAD JUMP JUMPDEST SWAP1 SSTORE DUP7 DUP1 PUSH2 0x89F JUMP JUMPDEST DUP2 PUSH2 0x8F7 SWAP3 PUSH1 0x3 DUP8 ADD SLOAD AND SWAP1 PUSH1 0x2 DUP8 ADD SLOAD AND SWAP1 PUSH2 0x3073 JUMP JUMPDEST DUP11 DUP1 PUSH2 0x870 JUMP JUMPDEST PUSH2 0x90F SWAP2 DUP7 PUSH1 0x2 DUP12 ADD SLOAD AND SWAP1 PUSH2 0x3073 JUMP JUMPDEST DUP15 DUP1 PUSH2 0x862 JUMP JUMPDEST POP POP POP PUSH2 0x954 DUP7 PUSH1 0x1 PUSH1 0x1 PUSH1 0xA0 SHL SUB DUP1 PUSH1 0x1 DUP8 ADD SLOAD AND SWAP1 PUSH32 0x0 AND PUSH2 0x3073 JUMP JUMPDEST PUSH2 0x873 JUMP JUMPDEST PUSH4 0x4E487B71 PUSH1 0xE0 SHL PUSH1 0x0 MSTORE PUSH1 0x11 PUSH1 0x4 MSTORE PUSH1 0x24 PUSH1 0x0 REVERT JUMPDEST PUSH1 0x4 DUP5 ADD SLOAD PUSH1 0x64 DUP2 MUL SWAP1 DUP1 DUP3 DIV PUSH1 0x64 EQ SWAP1 ISZERO OR ISZERO PUSH2 0x959 JUMPI PUSH2 0x990 DUP6 PUSH2 0x31FB JUMP JUMPDEST SWAP1 PUSH2 0x2710 SWAP2 DUP3 DUP2 MUL SWAP3 DUP2 DUP5 DIV EQ SWAP1 ISZERO OR ISZERO PUSH2 0x959 JUMPI PUSH2 0x9AE SWAP2 PUSH2 0x3008 JUMP JUMPDEST PUSH1 0x3 SLOAD LT PUSH2 0x7BF JUMPI PUSH1 0x84 SWAP1 PUSH1 0x40 MLOAD SWAP1 PUSH3 0x461BCD PUSH1 0xE5 SHL DUP3 MSTORE PUSH1 0x4 DUP3 ADD MSTORE PUSH1 0x21 PUSH1 0x24 DUP3 ADD MSTORE PUSH32 0x4C6F616E206E6F7420656C696769626C6520666F72206C69717569646174696F PUSH1 0x44 DUP3 ADD MSTORE PUSH32 0x6E00000000000000000000000000000000000000000000000000000000000000 PUSH1 0x64 DUP3 ADD MSTORE REVERT JUMPDEST CALLVALUE PUSH2 0x241 JUMPI PUSH1 0x20 CALLDATASIZE PUSH1 0x3 NOT ADD SLT PUSH2 0x241 JUMPI PUSH1 0x1 PUSH1 0x1 PUSH1 0xA0 SHL SUB PUSH2 0xA41 PUSH2 0x2B31 JUMP JUMPDEST AND PUSH1 0x0 MSTORE PUSH1 0x5 PUSH1 0x20 MSTORE PUSH1 0x20 PUSH1 0xFF PUSH1 0x40 PUSH1 0x0 KECCAK256 SLOAD AND PUSH1 0x40 MLOAD SWAP1 ISZERO ISZERO DUP2 MSTORE RETURN JUMPDEST CALLVALUE PUSH2 0x241 JUMPI PUSH1 0x0 CALLDATASIZE PUSH1 0x3 NOT ADD SLT PUSH2 0x241 JUMPI PUSH1 0x0 PUSH1 0xE0 PUSH1 0x40 MLOAD PUSH2 0xA80 DUP2 PUSH2 0x2D59 JUMP JUMPDEST DUP3 DUP2 MSTORE DUP3 PUSH1 0x20 DUP3 ADD MSTORE DUP3 PUSH1 0x40 DUP3 ADD MSTORE DUP3 PUSH1 0x60 DUP3 ADD MSTORE DUP3 PUSH1 0x80 DUP3 ADD MSTORE DUP3 PUSH1 0xA0 DUP3 ADD MSTORE DUP3 PUSH1 0xC0 DUP3 ADD MSTORE ADD MSTORE PUSH2 0x100 PUSH1 0x40 MLOAD PUSH2 0xAB8 DUP2 PUSH2 0x2D59 JUMP JUMPDEST PUSH1 0x0 DUP2 MSTORE PUSH1 0x20 DUP2 ADD SWAP1 PUSH1 0x1 DUP3 MSTORE PUSH1 0x40 DUP2 ADD SWAP1 PUSH1 0x0 DUP3 MSTORE PUSH1 0x60 DUP2 ADD PUSH1 0x0 DUP2 MSTORE PUSH1 0x80 DUP3 ADD PUSH1 0x0 DUP2 MSTORE PUSH1 0xA0 DUP4 ADD SWAP2 PUSH1 0x0 DUP4 MSTORE PUSH1 0xE0 PUSH1 0xC0 DUP6 ADD SWAP5 PUSH1 0x0 DUP7 MSTORE ADD SWAP5 PUSH1 0x0 DUP7 MSTORE PUSH1 0x40 MLOAD SWAP7 PUSH1 0x0 DUP9 MSTORE MLOAD ISZERO ISZERO PUSH1 0x20 DUP9 ADD MSTORE MLOAD ISZERO ISZERO PUSH1 0x40 DUP8 ADD MSTORE MLOAD ISZERO ISZERO PUSH1 0x60 DUP7 ADD MSTORE MLOAD ISZERO ISZERO PUSH1 0x80 DUP6 ADD MSTORE MLOAD ISZERO ISZERO PUSH1 0xA0 DUP5 ADD MSTORE MLOAD ISZERO ISZERO PUSH1 0xC0 DUP4 ADD MSTORE MLOAD ISZERO ISZERO PUSH1 0xE0 DUP3 ADD MSTORE RETURN JUMPDEST CALLVALUE PUSH2 0x241 JUMPI PUSH2 0xB48 CALLDATASIZE PUSH2 0x2C3C JUMP JUMPDEST POP POP POP POP POP POP PUSH1 0x20 PUSH1 0x40 MLOAD PUSH32 0xC1EF3C4B00000000000000000000000000000000000000000000000000000000 DUP2 MSTORE RETURN JUMPDEST CALLVALUE PUSH2 0x241 JUMPI PUSH1 0x20 CALLDATASIZE PUSH1 0x3 NOT ADD SLT PUSH2 0x241 JUMPI PUSH1 0x4 CALLDATALOAD PUSH1 0x0 MSTORE PUSH1 0x4 PUSH1 0x20 MSTORE PUSH1 0x20 PUSH1 0xFF PUSH1 0x40 PUSH1 0x0 KECCAK256 SLOAD AND PUSH1 0x40 MLOAD SWAP1 ISZERO ISZERO DUP2 MSTORE RETURN JUMPDEST CALLVALUE PUSH2 0x241 JUMPI PUSH1 0x20 CALLDATASIZE PUSH1 0x3 NOT ADD SLT PUSH2 0x241 JUMPI PUSH1 0x4 CALLDATALOAD PUSH1 0x0 MSTORE PUSH1 0xA PUSH1 0x20 MSTORE PUSH1 0xE0 PUSH1 0x40 PUSH1 0x0 KECCAK256 DUP1 SLOAD SWAP1 PUSH1 0x1 DUP2 ADD SLOAD SWAP1 PUSH1 0x2 DUP2 ADD SLOAD PUSH1 0x3 DUP3 ADD SLOAD PUSH1 0x4 DUP4 ADD SLOAD SWAP2 PUSH1 0x6 PUSH1 0x5 DUP6 ADD SLOAD SWAP5 ADD SLOAD SWAP5 PUSH1 0x40 MLOAD SWAP7 DUP8 MSTORE PUSH1 0x20 DUP8 ADD MSTORE PUSH1 0x40 DUP7 ADD MSTORE PUSH1 0x60 DUP6 ADD MSTORE PUSH1 0x80 DUP5 ADD MSTORE PUSH1 0xA0 DUP4 ADD MSTORE PUSH1 0xC0 DUP3 ADD MSTORE RETURN JUMPDEST CALLVALUE PUSH2 0x241 JUMPI PUSH1 0x0 CALLDATASIZE PUSH1 0x3 NOT ADD SLT PUSH2 0x241 JUMPI PUSH1 0x20 PUSH1 0x40 MLOAD PUSH2 0x1388 DUP2 MSTORE RETURN JUMPDEST CALLVALUE PUSH2 0x241 JUMPI PUSH1 0x20 CALLDATASIZE PUSH1 0x3 NOT ADD SLT PUSH2 0x241 JUMPI PUSH1 0x4 CALLDATALOAD PUSH2 0xC4F PUSH2 0x2FBA JUMP JUMPDEST DUP1 PUSH1 0x0 MSTORE PUSH1 0x10 PUSH1 0x20 MSTORE PUSH1 0x40 PUSH1 0x0 KECCAK256 PUSH2 0xC69 DUP2 SLOAD ISZERO ISZERO PUSH2 0x3028 JUMP JUMPDEST PUSH1 0xB DUP2 ADD PUSH1 0xFF DUP2 SLOAD AND PUSH1 0x5 DUP2 LT ISZERO PUSH2 0x422 JUMPI PUSH1 0x1 PUSH2 0xC87 SWAP2 EQ PUSH2 0x30D9 JUMP JUMPDEST PUSH1 0x8 DUP3 ADD SWAP2 DUP3 SLOAD TIMESTAMP GT PUSH2 0xD8D JUMPI PUSH32 0x40CEE90EE4799897C30CA04E5FEB6FA43DBBA9B6D084B4B257CDAFD84BA013E SWAP3 PUSH1 0x20 SWAP3 PUSH2 0xD59 PUSH2 0xCF6 PUSH2 0xCCD PUSH1 0x7 DUP7 ADD SLOAD TIMESTAMP PUSH2 0x3124 JUMP JUMPDEST PUSH5 0x496CEBB800 PUSH2 0xCEF PUSH1 0x5 DUP9 ADD SLOAD SWAP3 PUSH2 0xCEA PUSH1 0x6 DUP11 ADD SLOAD DUP6 PUSH2 0x2FF5 JUMP JUMPDEST PUSH2 0x2FF5 JUMP JUMPDEST DIV SWAP1 PUSH2 0x2EBC JUMP JUMPDEST SWAP4 PUSH1 0x1 PUSH1 0x1 PUSH1 0xA0 SHL SUB SWAP1 PUSH2 0xD40 DUP7 DUP4 PUSH32 0x0 AND PUSH2 0xD33 DUP3 ADDRESS CALLER DUP5 PUSH2 0x2EC9 JUMP JUMPDEST DUP5 PUSH1 0x1 DUP6 ADD SLOAD AND SWAP1 PUSH2 0x3073 JUMP JUMPDEST PUSH1 0x4 DUP3 PUSH1 0x3 DUP4 ADD SLOAD AND SWAP3 PUSH1 0x2 DUP4 ADD SLOAD AND SWAP2 ADD SLOAD SWAP2 PUSH2 0x3073 JUMP JUMPDEST PUSH1 0x2 PUSH1 0xFF NOT DUP3 SLOAD AND OR SWAP1 SSTORE SLOAD PUSH1 0x0 MSTORE PUSH1 0xA DUP3 MSTORE PUSH1 0x4 PUSH1 0x40 PUSH1 0x0 KECCAK256 ADD PUSH2 0xD7E DUP2 SLOAD PUSH2 0x3131 JUMP JUMPDEST SWAP1 SSTORE PUSH1 0x40 MLOAD SWAP1 DUP2 MSTORE LOG2 PUSH1 0x1 DUP1 SSTORE STOP JUMPDEST PUSH1 0x64 PUSH1 0x40 MLOAD PUSH3 0x461BCD PUSH1 0xE5 SHL DUP2 MSTORE PUSH1 0x20 PUSH1 0x4 DUP3 ADD MSTORE PUSH1 0x12 PUSH1 0x24 DUP3 ADD MSTORE PUSH32 0x4C6F616E2070617374206D617475726974790000000000000000000000000000 PUSH1 0x44 DUP3 ADD MSTORE REVERT JUMPDEST CALLVALUE PUSH2 0x241 JUMPI PUSH2 0x1C0 CALLDATASIZE PUSH1 0x3 NOT ADD SLT PUSH2 0x241 JUMPI PUSH1 0x4 CALLDATALOAD PUSH1 0x24 CALLDATALOAD PUSH1 0x44 CALLDATALOAD PUSH2 0xDF4 PUSH2 0x2B47 JUMP JUMPDEST SWAP1 PUSH1 0xA4 CALLDATALOAD SWAP1 CALLDATASIZE PUSH2 0x1C4 GT PUSH2 0x241 JUMPI PUSH2 0xE0A PUSH2 0x2FBA JUMP JUMPDEST DUP5 ISZERO PUSH2 0x109D JUMPI PUSH2 0xE1E PUSH2 0x1388 DUP6 GT ISZERO PUSH2 0x2E17 JUMP JUMPDEST DUP1 PUSH1 0x0 MSTORE PUSH1 0x20 SWAP4 PUSH1 0xA DUP6 MSTORE PUSH2 0xE39 PUSH1 0x40 PUSH1 0x0 KECCAK256 SLOAD ISZERO ISZERO PUSH2 0x2E62 JUMP JUMPDEST PUSH2 0xE44 TIMESTAMP DUP4 GT PUSH2 0x2DCC JUMP JUMPDEST DUP3 PUSH1 0x0 MSTORE PUSH1 0x4 DUP6 MSTORE PUSH1 0xFF PUSH1 0x40 PUSH1 0x0 KECCAK256 SLOAD AND PUSH2 0x1059 JUMPI PUSH1 0x1 PUSH1 0x1 PUSH1 0xA0 SHL SUB SWAP4 DUP5 PUSH32 0x0 AND SWAP1 DUP2 EXTCODESIZE ISZERO PUSH2 0x241 JUMPI DUP6 PUSH2 0x164 PUSH1 0x0 SWAP3 PUSH1 0x40 MLOAD SWAP5 DUP6 SWAP4 DUP5 SWAP3 PUSH4 0xFA0795FB PUSH1 0xE0 SHL DUP5 MSTORE AND PUSH1 0x4 DUP4 ADD MSTORE PUSH1 0x84 CALLDATALOAD PUSH1 0x24 DUP4 ADD MSTORE DUP9 PUSH1 0x44 DUP4 ADD MSTORE PUSH2 0x100 PUSH1 0xC4 PUSH1 0x64 DUP5 ADD CALLDATACOPY GAS STATICCALL SWAP1 DUP2 PUSH2 0x104A JUMPI JUMPDEST POP PUSH2 0xF16 JUMPI PUSH1 0x64 DUP6 PUSH1 0x40 MLOAD SWAP1 PUSH3 0x461BCD PUSH1 0xE5 SHL DUP3 MSTORE PUSH1 0x4 DUP3 ADD MSTORE PUSH1 0x16 PUSH1 0x24 DUP3 ADD MSTORE PUSH32 0x496E76616C696420576F726C642049442070726F6F6600000000000000000000 PUSH1 0x44 DUP3 ADD MSTORE REVERT JUMPDEST DUP6 SWAP5 PUSH2 0xF46 DUP7 ADDRESS CALLER DUP9 PUSH32 0x0 AND PUSH2 0x2EC9 JUMP JUMPDEST PUSH2 0xFEE PUSH1 0xD SLOAD SWAP6 PUSH2 0xF56 DUP8 PUSH2 0x2EAD JUMP JUMPDEST PUSH1 0xD SSTORE PUSH1 0x6 DUP8 PUSH1 0x40 MLOAD SWAP3 PUSH2 0xF69 DUP5 PUSH2 0x2D3D JUMP JUMPDEST DUP2 DUP5 MSTORE DUP6 DUP5 ADD CALLER DUP2 MSTORE PUSH1 0x40 DUP6 ADD DUP13 DUP2 MSTORE PUSH1 0x60 DUP7 ADD SWAP1 DUP10 DUP3 MSTORE PUSH1 0x80 DUP8 ADD SWAP3 DUP12 DUP5 MSTORE PUSH1 0xA0 DUP9 ADD SWAP5 DUP14 DUP7 MSTORE PUSH1 0xC0 DUP10 ADD SWAP7 PUSH1 0x0 DUP9 MSTORE PUSH1 0x0 MSTORE PUSH1 0xC DUP12 MSTORE PUSH1 0x40 PUSH1 0x0 KECCAK256 SWAP9 MLOAD DUP10 SSTORE PUSH1 0x1 DUP10 ADD SWAP2 MLOAD AND PUSH1 0x1 PUSH1 0x1 PUSH1 0xA0 SHL SUB NOT DUP3 SLOAD AND OR SWAP1 SSTORE MLOAD PUSH1 0x2 DUP8 ADD SSTORE MLOAD PUSH1 0x3 DUP7 ADD SSTORE MLOAD PUSH1 0x4 DUP6 ADD SSTORE MLOAD PUSH1 0x5 DUP5 ADD SSTORE MLOAD ISZERO ISZERO SWAP2 ADD SWAP1 PUSH1 0xFF DUP1 NOT DUP4 SLOAD AND SWAP2 ISZERO ISZERO AND OR SWAP1 SSTORE JUMP JUMPDEST DUP3 PUSH1 0x0 MSTORE PUSH1 0xA DUP2 MSTORE PUSH1 0x2 PUSH1 0x40 PUSH1 0x0 KECCAK256 ADD PUSH2 0x1009 DUP8 DUP3 SLOAD PUSH2 0x2EBC JUMP JUMPDEST SWAP1 SSTORE PUSH1 0x40 MLOAD SWAP6 DUP7 MSTORE DUP6 ADD MSTORE PUSH1 0x40 DUP5 ADD MSTORE PUSH1 0x60 DUP4 ADD MSTORE PUSH32 0x101BE5BB48FC561C063568755BF3321EC63B4BC6F7ACE2D9019A6BDE5FB7447F PUSH1 0x80 CALLER SWAP4 LOG3 PUSH1 0x1 DUP1 SSTORE STOP JUMPDEST PUSH2 0x1053 SWAP1 PUSH2 0x2D76 JUMP JUMPDEST DUP8 PUSH2 0xECD JUMP JUMPDEST PUSH1 0x64 DUP6 PUSH1 0x40 MLOAD SWAP1 PUSH3 0x461BCD PUSH1 0xE5 SHL DUP3 MSTORE PUSH1 0x4 DUP3 ADD MSTORE PUSH1 0x13 PUSH1 0x24 DUP3 ADD MSTORE PUSH32 0x5573657220697320626C61636B6C697374656400000000000000000000000000 PUSH1 0x44 DUP3 ADD MSTORE REVERT JUMPDEST PUSH1 0x64 PUSH1 0x40 MLOAD PUSH3 0x461BCD PUSH1 0xE5 SHL DUP2 MSTORE PUSH1 0x20 PUSH1 0x4 DUP3 ADD MSTORE PUSH1 0x17 PUSH1 0x24 DUP3 ADD MSTORE PUSH32 0x416D6F756E74206D75737420626520706F736974697665000000000000000000 PUSH1 0x44 DUP3 ADD MSTORE REVERT JUMPDEST CALLVALUE PUSH2 0x241 JUMPI PUSH1 0x0 CALLDATASIZE PUSH1 0x3 NOT ADD SLT PUSH2 0x241 JUMPI PUSH1 0x20 PUSH1 0x2 SLOAD PUSH1 0x40 MLOAD SWAP1 DUP2 MSTORE RETURN JUMPDEST CALLVALUE PUSH2 0x241 JUMPI PUSH1 0x0 CALLDATASIZE PUSH1 0x3 NOT ADD SLT PUSH2 0x241 JUMPI PUSH1 0x20 PUSH1 0x40 MLOAD PUSH2 0x708 DUP2 MSTORE RETURN JUMPDEST CALLVALUE PUSH2 0x241 JUMPI CALLDATASIZE PUSH1 0x3 NOT ADD PUSH2 0x120 DUP2 SLT PUSH2 0x241 JUMPI PUSH1 0xC0 SGT PUSH2 0x241 JUMPI PUSH1 0x1 PUSH1 0x1 PUSH1 0xA0 SHL SUB PUSH1 0xC4 CALLDATALOAD DUP2 DUP2 AND SUB PUSH2 0x241 JUMPI PUSH1 0xE4 CALLDATALOAD DUP1 PUSH1 0x2 SIGNEXTEND SUB PUSH2 0x241 JUMPI PUSH2 0x104 CALLDATALOAD PUSH8 0xFFFFFFFFFFFFFFFF DUP2 GT PUSH2 0x241 JUMPI PUSH2 0x1176 SWAP1 CALLDATASIZE SWAP1 PUSH1 0x4 ADD PUSH2 0x2B5D JUMP JUMPDEST POP POP PUSH2 0x1180 PUSH2 0x2D8A JUMP JUMPDEST DUP2 ADDRESS SWAP2 AND SUB PUSH2 0x13E3 JUMPI PUSH1 0x7 SLOAD DUP2 DUP2 AND PUSH2 0x139F JUMPI DUP2 PUSH2 0x119C PUSH2 0x2DA0 JUMP JUMPDEST AND DUP3 PUSH32 0x0 AND DUP1 SWAP2 EQ SWAP1 DUP2 ISZERO PUSH2 0x138C JUMPI JUMPDEST POP ISZERO PUSH2 0x1348 JUMPI PUSH1 0x4 CALLDATALOAD SWAP1 DUP3 DUP3 AND DUP1 SWAP3 SUB PUSH2 0x241 JUMPI PUSH1 0x1 PUSH1 0x1 PUSH1 0xA0 SHL SUB NOT SWAP2 DUP3 PUSH1 0x6 SLOAD AND OR PUSH1 0x6 SSTORE DUP2 DUP4 PUSH2 0x11FC PUSH2 0x2D8A JUMP JUMPDEST AND SWAP2 AND OR PUSH1 0x7 SSTORE DUP2 PUSH2 0x120C PUSH2 0x2DA0 JUMP JUMPDEST AND SWAP1 PUSH1 0x8 SLOAD AND OR PUSH1 0x8 SSTORE DUP1 PUSH2 0x121F PUSH2 0x2DB6 JUMP JUMPDEST AND PUSH1 0x9 SLOAD SWAP1 PUSH1 0x84 CALLDATALOAD PUSH3 0xFFFFFF DUP2 AND SWAP3 DUP4 DUP3 SUB PUSH2 0x241 JUMPI PUSH1 0xA4 CALLDATALOAD SWAP3 DUP4 PUSH1 0x2 SIGNEXTEND SWAP4 DUP5 DUP2 SUB PUSH2 0x241 JUMPI PUSH23 0xFFFFFF0000000000000000000000000000000000000000 PUSH32 0xFFFFFFFFFFFF0000000000000000000000000000000000000000000000000000 SWAP2 PUSH1 0xB8 SHL PUSH26 0xFFFFFF0000000000000000000000000000000000000000000000 AND SWAP5 PUSH1 0xA0 SHL AND SWAP3 AND OR OR OR PUSH1 0x9 SSTORE PUSH1 0x40 MLOAD SWAP1 DUP4 PUSH2 0x12B8 PUSH2 0x2B31 JUMP JUMPDEST AND DUP3 MSTORE PUSH1 0x24 CALLDATALOAD DUP5 DUP2 AND DUP1 SWAP2 SUB PUSH2 0x241 JUMPI PUSH1 0x20 DUP4 ADD MSTORE PUSH1 0x44 CALLDATALOAD SWAP3 DUP5 DUP5 AND DUP1 SWAP5 SUB PUSH2 0x241 JUMPI PUSH32 0x50610696E9FE8816208F4F19F070F264B06B4AD02C040485C0E5FA4EF433208A SWAP5 PUSH1 0xC0 SWAP5 PUSH1 0x40 DUP6 ADD MSTORE PUSH2 0x130D PUSH2 0x2B47 JUMP JUMPDEST AND PUSH1 0x60 DUP5 ADD MSTORE PUSH1 0x80 DUP4 ADD MSTORE PUSH1 0xA0 DUP3 ADD MSTORE LOG1 PUSH1 0x20 PUSH1 0x40 MLOAD PUSH32 0xA17BBFBC00000000000000000000000000000000000000000000000000000000 DUP2 MSTORE RETURN JUMPDEST PUSH1 0x64 PUSH1 0x40 MLOAD PUSH3 0x461BCD PUSH1 0xE5 SHL DUP2 MSTORE PUSH1 0x20 PUSH1 0x4 DUP3 ADD MSTORE PUSH1 0x1D PUSH1 0x24 DUP3 ADD MSTORE PUSH32 0x506F6F6C206D75737420696E636C7564652071756F746520746F6B656E000000 PUSH1 0x44 DUP3 ADD MSTORE REVERT JUMPDEST SWAP1 POP DUP3 PUSH2 0x1397 PUSH2 0x2DB6 JUMP JUMPDEST AND EQ DUP4 PUSH2 0x11CB JUMP JUMPDEST PUSH1 0x64 PUSH1 0x40 MLOAD PUSH3 0x461BCD PUSH1 0xE5 SHL DUP2 MSTORE PUSH1 0x20 PUSH1 0x4 DUP3 ADD MSTORE PUSH1 0x13 PUSH1 0x24 DUP3 ADD MSTORE PUSH32 0x506F6F6C4B657920616C72656164792073657400000000000000000000000000 PUSH1 0x44 DUP3 ADD MSTORE REVERT JUMPDEST PUSH1 0x64 PUSH1 0x40 MLOAD PUSH3 0x461BCD PUSH1 0xE5 SHL DUP2 MSTORE PUSH1 0x20 PUSH1 0x4 DUP3 ADD MSTORE PUSH1 0x1B PUSH1 0x24 DUP3 ADD MSTORE PUSH32 0x496E76616C696420686F6F6B206164647265737320696E206B65790000000000 PUSH1 0x44 DUP3 ADD MSTORE REVERT JUMPDEST CALLVALUE PUSH2 0x241 JUMPI PUSH1 0x0 CALLDATASIZE PUSH1 0x3 NOT ADD SLT PUSH2 0x241 JUMPI PUSH1 0x20 PUSH1 0x40 MLOAD PUSH1 0x1 PUSH1 0x1 PUSH1 0xA0 SHL SUB PUSH32 0x0 AND DUP2 MSTORE RETURN JUMPDEST CALLVALUE PUSH2 0x241 JUMPI PUSH1 0x20 CALLDATASIZE PUSH1 0x3 NOT ADD SLT PUSH2 0x241 JUMPI PUSH1 0x4 CALLDATALOAD PUSH2 0x1487 PUSH2 0x2CF9 JUMP JUMPDEST PUSH2 0x1492 DUP2 ISZERO ISZERO PUSH2 0x313E JUMP JUMPDEST DUP1 PUSH1 0x0 MSTORE PUSH1 0x4 PUSH1 0x20 MSTORE PUSH1 0xFF PUSH1 0x40 PUSH1 0x0 KECCAK256 SLOAD AND ISZERO PUSH2 0x14E6 JUMPI DUP1 PUSH1 0x0 MSTORE PUSH1 0x4 PUSH1 0x20 MSTORE PUSH1 0x40 PUSH1 0x0 KECCAK256 PUSH1 0xFF NOT DUP2 SLOAD AND SWAP1 SSTORE PUSH32 0x31C881E4E925D1768CC34E510541D44008B23B46A60E3027463F39C50658C163 PUSH1 0x0 DUP1 LOG2 STOP JUMPDEST PUSH1 0x64 PUSH1 0x40 MLOAD PUSH3 0x461BCD PUSH1 0xE5 SHL DUP2 MSTORE PUSH1 0x20 PUSH1 0x4 DUP3 ADD MSTORE PUSH1 0xF PUSH1 0x24 DUP3 ADD MSTORE PUSH32 0x4E6F7420626C61636B6C69737465640000000000000000000000000000000000 PUSH1 0x44 DUP3 ADD MSTORE REVERT JUMPDEST CALLVALUE PUSH2 0x241 JUMPI PUSH2 0x200 CALLDATASIZE PUSH1 0x3 NOT ADD SLT PUSH2 0x241 JUMPI PUSH2 0x1544 PUSH2 0x2B31 JUMP JUMPDEST PUSH1 0xA4 CALLDATALOAD PUSH1 0x1 PUSH1 0x1 PUSH1 0xA0 SHL SUB DUP2 AND DUP2 SUB PUSH2 0x241 JUMPI CALLDATASIZE PUSH2 0x204 GT PUSH2 0x241 JUMPI PUSH2 0x1568 PUSH2 0x2FBA JUMP JUMPDEST PUSH1 0x1 PUSH1 0x1 PUSH1 0xA0 SHL SUB DUP3 AND PUSH1 0x0 MSTORE PUSH1 0x5 PUSH1 0x20 MSTORE PUSH1 0xFF PUSH1 0x40 PUSH1 0x0 KECCAK256 SLOAD AND ISZERO PUSH2 0x1A30 JUMPI PUSH1 0x24 CALLDATALOAD ISZERO PUSH2 0x19C6 JUMPI PUSH1 0x44 CALLDATALOAD ISZERO PUSH2 0x195C JUMPI PUSH2 0x15A8 PUSH2 0x1388 PUSH1 0x64 CALLDATALOAD GT ISZERO PUSH2 0x2E17 JUMP JUMPDEST PUSH1 0x84 CALLDATALOAD PUSH1 0x0 MSTORE PUSH1 0xA PUSH1 0x20 MSTORE PUSH2 0x15C3 PUSH1 0x40 PUSH1 0x0 KECCAK256 SLOAD ISZERO ISZERO PUSH2 0x2E62 JUMP JUMPDEST PUSH2 0x15D0 TIMESTAMP PUSH1 0x84 CALLDATALOAD GT PUSH2 0x2DCC JUMP JUMPDEST PUSH1 0xE4 CALLDATALOAD PUSH1 0x0 MSTORE PUSH1 0x4 PUSH1 0x20 MSTORE PUSH1 0xFF PUSH1 0x40 PUSH1 0x0 KECCAK256 SLOAD AND PUSH2 0x1918 JUMPI PUSH1 0x1 PUSH1 0x1 PUSH1 0xA0 SHL SUB PUSH32 0x0 AND EXTCODESIZE ISZERO PUSH2 0x241 JUMPI PUSH1 0x1 PUSH1 0x1 PUSH1 0xA0 SHL SUB PUSH1 0x40 MLOAD SWAP2 PUSH4 0xFA0795FB PUSH1 0xE0 SHL DUP4 MSTORE AND PUSH1 0x4 DUP3 ADD MSTORE PUSH1 0xC4 CALLDATALOAD PUSH1 0x24 DUP3 ADD MSTORE PUSH1 0xE4 CALLDATALOAD PUSH1 0x44 DUP3 ADD MSTORE PUSH2 0x100 SWAP1 DUP2 PUSH2 0x104 PUSH1 0x64 DUP4 ADD CALLDATACOPY PUSH1 0x0 DUP2 PUSH2 0x164 DUP2 PUSH1 0x1 PUSH1 0x1 PUSH1 0xA0 SHL SUB PUSH32 0x0 AND GAS STATICCALL SWAP1 DUP2 PUSH2 0x1909 JUMPI JUMPDEST POP PUSH2 0x16D4 JUMPI PUSH1 0x64 PUSH1 0x40 MLOAD PUSH3 0x461BCD PUSH1 0xE5 SHL DUP2 MSTORE PUSH1 0x20 PUSH1 0x4 DUP3 ADD MSTORE PUSH1 0x16 PUSH1 0x24 DUP3 ADD MSTORE PUSH32 0x496E76616C696420576F726C642049442070726F6F6600000000000000000000 PUSH1 0x44 DUP3 ADD MSTORE REVERT JUMPDEST PUSH1 0x64 PUSH1 0x24 CALLDATALOAD MUL PUSH1 0x24 CALLDATALOAD DUP2 DIV PUSH1 0x64 SUB PUSH2 0x959 JUMPI PUSH2 0x16F6 PUSH2 0x2710 SWAP2 PUSH1 0x2 SLOAD SWAP1 PUSH2 0x2FF5 JUMP JUMPDEST DIV PUSH1 0x44 CALLDATALOAD GT PUSH2 0x189F JUMPI PUSH2 0x1716 PUSH1 0x24 CALLDATALOAD ADDRESS CALLER PUSH1 0x1 PUSH1 0x1 PUSH1 0xA0 SHL SUB DUP7 AND PUSH2 0x2EC9 JUMP JUMPDEST PUSH1 0xF SLOAD SWAP1 PUSH2 0x1723 DUP3 PUSH2 0x2EAD JUMP JUMPDEST PUSH1 0xF SSTORE PUSH1 0x40 MLOAD PUSH2 0x120 DUP2 ADD DUP2 DUP2 LT PUSH8 0xFFFFFFFFFFFFFFFF DUP3 GT OR PUSH2 0x6FE JUMPI PUSH2 0x181A SWAP3 PUSH1 0x8 SWAP2 PUSH1 0x40 MSTORE DUP5 DUP4 MSTORE PUSH1 0x20 DUP4 ADD SWAP1 CALLER DUP3 MSTORE PUSH1 0x40 DUP5 ADD PUSH1 0x1 PUSH1 0x1 PUSH1 0xA0 SHL SUB DUP9 AND DUP2 MSTORE PUSH1 0x60 DUP6 ADD PUSH1 0x24 CALLDATALOAD DUP2 MSTORE PUSH1 0x80 DUP7 ADD PUSH1 0x44 CALLDATALOAD DUP2 MSTORE PUSH1 0xA0 DUP8 ADD SWAP2 PUSH1 0x64 CALLDATALOAD DUP4 MSTORE PUSH1 0xC0 DUP9 ADD SWAP4 PUSH1 0x84 CALLDATALOAD DUP6 MSTORE PUSH1 0xE0 DUP10 ADD SWAP6 PUSH1 0xE4 CALLDATALOAD DUP8 MSTORE DUP10 ADD SWAP7 PUSH1 0x0 DUP9 MSTORE DUP12 PUSH1 0x0 MSTORE PUSH1 0xE PUSH1 0x20 MSTORE PUSH1 0x40 PUSH1 0x0 KECCAK256 SWAP10 MLOAD DUP11 SSTORE PUSH1 0x1 PUSH1 0x1 PUSH1 0xA0 SHL SUB PUSH1 0x1 DUP12 ADD SWAP2 MLOAD AND SWAP1 PUSH1 0x1 PUSH1 0x1 PUSH1 0xA0 SHL SUB NOT SWAP2 DUP3 DUP3 SLOAD AND OR SWAP1 SSTORE PUSH1 0x1 PUSH1 0x1 PUSH1 0xA0 SHL SUB PUSH1 0x2 DUP12 ADD SWAP3 MLOAD AND SWAP1 DUP3 SLOAD AND OR SWAP1 SSTORE MLOAD PUSH1 0x3 DUP9 ADD SSTORE MLOAD PUSH1 0x4 DUP8 ADD SSTORE MLOAD PUSH1 0x5 DUP7 ADD SSTORE MLOAD PUSH1 0x6 DUP6 ADD SSTORE MLOAD PUSH1 0x7 DUP5 ADD SSTORE MLOAD ISZERO ISZERO SWAP2 ADD SWAP1 PUSH1 0xFF DUP1 NOT DUP4 SLOAD AND SWAP2 ISZERO ISZERO AND OR SWAP1 SSTORE JUMP JUMPDEST PUSH1 0x84 CALLDATALOAD PUSH1 0x0 MSTORE PUSH1 0xA PUSH1 0x20 MSTORE PUSH1 0x3 PUSH1 0x40 PUSH1 0x0 KECCAK256 ADD PUSH2 0x183A PUSH1 0x44 CALLDATALOAD DUP3 SLOAD PUSH2 0x2EBC JUMP JUMPDEST SWAP1 SSTORE PUSH1 0x1 PUSH1 0x1 PUSH1 0xA0 SHL SUB PUSH1 0x40 MLOAD SWAP3 AND DUP3 MSTORE PUSH1 0x24 CALLDATALOAD PUSH1 0x20 DUP4 ADD MSTORE PUSH1 0x44 CALLDATALOAD PUSH1 0x40 DUP4 ADD MSTORE PUSH1 0x64 CALLDATALOAD PUSH1 0x60 DUP4 ADD MSTORE PUSH1 0x84 CALLDATALOAD PUSH1 0x80 DUP4 ADD MSTORE PUSH1 0xE4 CALLDATALOAD PUSH1 0xA0 DUP4 ADD MSTORE PUSH32 0x16775BE402CDF037BDABD450B0CE3F4A08962DECFDE296B59DBD1C0221329C03 PUSH1 0xC0 CALLER SWAP4 LOG3 PUSH1 0x1 DUP1 SSTORE STOP JUMPDEST PUSH1 0x84 PUSH1 0x40 MLOAD PUSH3 0x461BCD PUSH1 0xE5 SHL DUP2 MSTORE PUSH1 0x20 PUSH1 0x4 DUP3 ADD MSTORE PUSH1 0x2A PUSH1 0x24 DUP3 ADD MSTORE PUSH32 0x496E73756666696369656E7420636F6C6C61746572616C20666F722072657175 PUSH1 0x44 DUP3 ADD MSTORE PUSH32 0x6573746564206C6F616E00000000000000000000000000000000000000000000 PUSH1 0x64 DUP3 ADD MSTORE REVERT JUMPDEST PUSH2 0x1912 SWAP1 PUSH2 0x2D76 JUMP JUMPDEST DUP4 PUSH2 0x168B JUMP JUMPDEST PUSH1 0x64 PUSH1 0x40 MLOAD PUSH3 0x461BCD PUSH1 0xE5 SHL DUP2 MSTORE PUSH1 0x20 PUSH1 0x4 DUP3 ADD MSTORE PUSH1 0x13 PUSH1 0x24 DUP3 ADD MSTORE PUSH32 0x5573657220697320626C61636B6C697374656400000000000000000000000000 PUSH1 0x44 DUP3 ADD MSTORE REVERT JUMPDEST PUSH1 0x84 PUSH1 0x40 MLOAD PUSH3 0x461BCD PUSH1 0xE5 SHL DUP2 MSTORE PUSH1 0x20 PUSH1 0x4 DUP3 ADD MSTORE PUSH1 0x21 PUSH1 0x24 DUP3 ADD MSTORE PUSH32 0x52657175657374656420616D6F756E74206D75737420626520706F7369746976 PUSH1 0x44 DUP3 ADD MSTORE PUSH32 0x6500000000000000000000000000000000000000000000000000000000000000 PUSH1 0x64 DUP3 ADD MSTORE REVERT JUMPDEST PUSH1 0x84 PUSH1 0x40 MLOAD PUSH3 0x461BCD PUSH1 0xE5 SHL DUP2 MSTORE PUSH1 0x20 PUSH1 0x4 DUP3 ADD MSTORE PUSH1 0x22 PUSH1 0x24 DUP3 ADD MSTORE PUSH32 0x436F6C6C61746572616C20616D6F756E74206D75737420626520706F73697469 PUSH1 0x44 DUP3 ADD MSTORE PUSH32 0x7665000000000000000000000000000000000000000000000000000000000000 PUSH1 0x64 DUP3 ADD MSTORE REVERT JUMPDEST PUSH1 0x64 PUSH1 0x40 MLOAD PUSH3 0x461BCD PUSH1 0xE5 SHL DUP2 MSTORE PUSH1 0x20 PUSH1 0x4 DUP3 ADD MSTORE PUSH1 0x16 PUSH1 0x24 DUP3 ADD MSTORE PUSH32 0x436F6C6C61746572616C206E6F7420616C6C6F77656400000000000000000000 PUSH1 0x44 DUP3 ADD MSTORE REVERT JUMPDEST CALLVALUE PUSH2 0x241 JUMPI PUSH1 0x0 CALLDATASIZE PUSH1 0x3 NOT ADD SLT PUSH2 0x241 JUMPI PUSH1 0x20 PUSH1 0x1 PUSH1 0x1 PUSH1 0xA0 SHL SUB PUSH1 0x0 SLOAD AND PUSH1 0x40 MLOAD SWAP1 DUP2 MSTORE RETURN JUMPDEST CALLVALUE PUSH2 0x241 JUMPI PUSH1 0x0 CALLDATASIZE PUSH1 0x3 NOT ADD SLT PUSH2 0x241 JUMPI PUSH1 0x20 PUSH1 0x11 SLOAD PUSH1 0x40 MLOAD SWAP1 DUP2 MSTORE RETURN JUMPDEST CALLVALUE PUSH2 0x241 JUMPI PUSH1 0x40 CALLDATASIZE PUSH1 0x3 NOT ADD SLT PUSH2 0x241 JUMPI PUSH1 0x4 CALLDATALOAD PUSH1 0x24 CALLDATALOAD PUSH2 0x1AD8 PUSH2 0x2CF9 JUMP JUMPDEST DUP1 DUP3 LT ISZERO PUSH2 0x1B8D JUMPI PUSH2 0x2710 DUP2 GT PUSH2 0x1B23 JUMPI DUP2 PUSH1 0x40 SWAP2 PUSH32 0xEBF7EDDB4E03548E462E5C4EEA29B2FE5E922ED494FBD1EE2EF8FC337CD55BE1 SWAP4 PUSH1 0x2 SSTORE DUP1 PUSH1 0x3 SSTORE DUP3 MLOAD SWAP2 DUP3 MSTORE PUSH1 0x20 DUP3 ADD MSTORE LOG1 STOP JUMPDEST PUSH1 0x84 PUSH1 0x40 MLOAD PUSH3 0x461BCD PUSH1 0xE5 SHL DUP2 MSTORE PUSH1 0x20 PUSH1 0x4 DUP3 ADD MSTORE PUSH1 0x28 PUSH1 0x24 DUP3 ADD MSTORE PUSH32 0x4C69717569646174696F6E207468726573686F6C642063616E6E6F7420657863 PUSH1 0x44 DUP3 ADD MSTORE PUSH32 0x6565642031303025000000000000000000000000000000000000000000000000 PUSH1 0x64 DUP3 ADD MSTORE REVERT JUMPDEST PUSH1 0x84 PUSH1 0x40 MLOAD PUSH3 0x461BCD PUSH1 0xE5 SHL DUP2 MSTORE PUSH1 0x20 PUSH1 0x4 DUP3 ADD MSTORE PUSH1 0x33 PUSH1 0x24 DUP3 ADD MSTORE PUSH32 0x496E697469616C204C5456206D757374206265206C657373207468616E206C69 PUSH1 0x44 DUP3 ADD MSTORE PUSH32 0x717569646174696F6E207468726573686F6C6400000000000000000000000000 PUSH1 0x64 DUP3 ADD MSTORE REVERT JUMPDEST CALLVALUE PUSH2 0x241 JUMPI PUSH1 0x20 CALLDATASIZE PUSH1 0x3 NOT ADD SLT PUSH2 0x241 JUMPI PUSH2 0x1C10 PUSH2 0x2CF9 JUMP JUMPDEST PUSH1 0x4 CALLDATALOAD PUSH1 0x0 MSTORE PUSH1 0xA PUSH1 0x20 MSTORE PUSH1 0x40 PUSH1 0x0 KECCAK256 DUP1 SLOAD PUSH2 0x1C2D DUP2 ISZERO ISZERO PUSH2 0x2E62 JUMP JUMPDEST PUSH2 0xE10 DUP2 ADD DUP1 SWAP2 GT PUSH2 0x959 JUMPI TIMESTAMP LT PUSH2 0x25C4 JUMPI TIMESTAMP PUSH1 0x4 CALLDATALOAD GT ISZERO PUSH2 0x2580 JUMPI PUSH1 0xD SLOAD SWAP1 PUSH1 0x0 SWAP1 DUP2 PUSH1 0x1 JUMPDEST DUP5 DUP2 LT PUSH2 0x2529 JUMPI POP PUSH1 0xF SLOAD SWAP1 PUSH1 0x1 JUMPDEST DUP3 DUP2 LT PUSH2 0x24D2 JUMPI POP PUSH2 0x1C77 PUSH2 0x1C7D SWAP2 PUSH2 0x31A1 JUMP JUMPDEST SWAP4 PUSH2 0x31A1 JUMP JUMPDEST SWAP4 PUSH1 0x0 SWAP1 DUP2 PUSH1 0x1 JUMPDEST DUP3 DUP2 LT PUSH2 0x247D JUMPI POP POP POP PUSH1 0x1 JUMPDEST DUP3 DUP2 LT PUSH2 0x2428 JUMPI POP POP POP DUP2 MLOAD ISZERO ISZERO DUP1 PUSH2 0x241E JUMPI JUMPDEST ISZERO PUSH2 0x23DA JUMPI PUSH1 0x0 SWAP3 JUMPDEST DUP3 MLOAD DUP5 LT ISZERO PUSH2 0x1D59 JUMPI PUSH1 0x1 DUP5 ADD DUP1 DUP6 GT PUSH2 0x959 JUMPI JUMPDEST DUP4 MLOAD DUP2 LT ISZERO PUSH2 0x1D48 JUMPI PUSH2 0x1D12 SWAP1 PUSH2 0x1CDB DUP7 DUP7 PUSH2 0x31E7 JUMP JUMPDEST MLOAD PUSH1 0x0 MSTORE PUSH1 0xC DUP1 PUSH1 0x20 MSTORE PUSH1 0x3 DUP1 PUSH1 0x40 PUSH1 0x0 KECCAK256 ADD SLOAD SWAP2 PUSH2 0x1CFA DUP5 DUP10 PUSH2 0x31E7 JUMP JUMPDEST MLOAD PUSH1 0x0 MSTORE PUSH1 0x20 MSTORE PUSH1 0x40 PUSH1 0x0 KECCAK256 ADD SLOAD LT PUSH2 0x1D17 JUMPI PUSH2 0x2EAD JUMP JUMPDEST PUSH2 0x1CC4 JUMP JUMPDEST PUSH2 0x1D21 DUP2 DUP7 PUSH2 0x31E7 JUMP JUMPDEST MLOAD PUSH2 0x1D2C DUP8 DUP8 PUSH2 0x31E7 JUMP JUMPDEST MLOAD PUSH2 0x1D37 DUP4 DUP9 PUSH2 0x31E7 JUMP JUMPDEST MSTORE PUSH2 0x1D42 DUP8 DUP8 PUSH2 0x31E7 JUMP JUMPDEST MSTORE PUSH2 0x2EAD JUMP JUMPDEST POP SWAP3 PUSH2 0x1D53 SWAP1 PUSH2 0x2EAD JUMP JUMPDEST SWAP3 PUSH2 0x1CAF JUMP JUMPDEST DUP3 PUSH1 0x0 SWAP3 JUMPDEST DUP3 MLOAD DUP5 LT ISZERO PUSH2 0x1DD7 JUMPI PUSH1 0x1 DUP5 ADD DUP1 DUP6 GT PUSH2 0x959 JUMPI JUMPDEST DUP4 MLOAD DUP2 LT ISZERO PUSH2 0x1DC6 JUMPI PUSH2 0x1DC1 SWAP1 PUSH2 0x1D8A DUP7 DUP7 PUSH2 0x31E7 JUMP JUMPDEST MLOAD PUSH1 0x0 MSTORE PUSH1 0xE DUP1 PUSH1 0x20 MSTORE PUSH1 0x5 DUP1 PUSH1 0x40 PUSH1 0x0 KECCAK256 ADD SLOAD SWAP2 PUSH2 0x1DA9 DUP5 DUP10 PUSH2 0x31E7 JUMP JUMPDEST MLOAD PUSH1 0x0 MSTORE PUSH1 0x20 MSTORE PUSH1 0x40 PUSH1 0x0 KECCAK256 ADD SLOAD GT PUSH2 0x1D17 JUMPI PUSH2 0x2EAD JUMP JUMPDEST PUSH2 0x1D73 JUMP JUMPDEST POP SWAP3 PUSH2 0x1DD1 SWAP1 PUSH2 0x2EAD JUMP JUMPDEST SWAP3 PUSH2 0x1D5E JUMP JUMPDEST SWAP1 DUP3 PUSH1 0x0 SWAP2 PUSH1 0x0 SWAP3 PUSH1 0x0 SWAP2 PUSH1 0x0 SWAP3 PUSH1 0x0 SWAP2 PUSH1 0x0 SWAP5 JUMPDEST DUP2 MLOAD DUP7 LT ISZERO PUSH2 0x1F19 JUMPI PUSH2 0x1DFF DUP7 DUP4 PUSH2 0x31E7 JUMP JUMPDEST MLOAD PUSH1 0x0 MSTORE PUSH1 0xC PUSH1 0x20 MSTORE PUSH1 0x3 PUSH1 0x40 PUSH1 0x0 KECCAK256 ADD SLOAD SWAP5 PUSH1 0x0 SWAP9 PUSH1 0x0 SWAP5 PUSH1 0x0 JUMPDEST DUP10 DUP2 GT ISZERO PUSH2 0x1EE4 JUMPI POP PUSH1 0x0 SWAP6 JUMPDEST DUP11 MLOAD DUP8 LT ISZERO PUSH2 0x1ED0 JUMPI PUSH2 0x1E3B DUP8 DUP13 PUSH2 0x31E7 JUMP JUMPDEST MLOAD PUSH1 0x0 MSTORE PUSH1 0xE PUSH1 0x20 MSTORE DUP9 PUSH1 0x5 PUSH1 0x40 PUSH1 0x0 KECCAK256 ADD SLOAD LT ISZERO PUSH1 0x0 EQ PUSH2 0x1E8C JUMPI PUSH2 0x1E80 PUSH2 0x1E86 SWAP2 PUSH2 0x1E68 DUP10 DUP15 PUSH2 0x31E7 JUMP JUMPDEST MLOAD PUSH1 0x0 MSTORE PUSH1 0xE PUSH1 0x20 MSTORE PUSH1 0x4 PUSH1 0x40 PUSH1 0x0 KECCAK256 ADD SLOAD SWAP1 PUSH2 0x2EBC JUMP JUMPDEST SWAP7 PUSH2 0x2EAD JUMP JUMPDEST SWAP6 PUSH2 0x1E28 JUMP JUMPDEST SWAP2 SWAP7 SWAP11 SWAP1 SWAP6 POP SWAP11 SWAP4 SWAP11 SWAP8 SWAP3 SWAP8 SWAP7 SWAP2 SWAP7 JUMPDEST DUP2 DUP1 DUP3 LT SWAP2 XOR MUL XOR DUP10 DUP2 GT PUSH2 0x1EC3 JUMPI JUMPDEST POP POP PUSH2 0x1EB7 SWAP1 PUSH2 0x2EAD JUMP JUMPDEST SWAP5 SWAP8 SWAP1 SWAP8 SWAP7 SWAP3 SWAP7 PUSH2 0x1DEC JUMP JUMPDEST SWAP9 POP SWAP6 POP PUSH2 0x1EB7 DUP11 PUSH2 0x1EAC JUMP JUMPDEST SWAP2 SWAP7 SWAP11 SWAP1 SWAP6 POP SWAP11 SWAP4 SWAP11 SWAP8 SWAP3 SWAP8 SWAP7 SWAP2 SWAP7 PUSH2 0x1E9C JUMP JUMPDEST SWAP11 PUSH2 0x1F0E PUSH2 0x1F14 SWAP2 PUSH2 0x1EF6 DUP15 DUP10 PUSH2 0x31E7 JUMP JUMPDEST MLOAD PUSH1 0x0 MSTORE PUSH1 0xC PUSH1 0x20 MSTORE PUSH1 0x2 PUSH1 0x40 PUSH1 0x0 KECCAK256 ADD SLOAD SWAP1 PUSH2 0x2EBC JUMP JUMPDEST SWAP12 PUSH2 0x2EAD JUMP JUMPDEST PUSH2 0x1E1B JUMP JUMPDEST DUP8 SWAP4 DUP10 SWAP2 DUP9 DUP3 PUSH2 0x1F76 JUMPI JUMPDEST PUSH32 0x34570F9FB64342EA477ACFDFD825E34C70EA3A3673AD98A12B4E87F2F3908050 PUSH1 0xA0 DUP10 DUP10 DUP10 DUP10 DUP4 PUSH1 0x1 DUP12 TIMESTAMP DUP2 SSTORE ADD SSTORE MLOAD SWAP2 PUSH1 0x40 MLOAD SWAP4 PUSH1 0x4 CALLDATALOAD DUP6 MSTORE PUSH1 0x20 DUP6 ADD MSTORE PUSH1 0x40 DUP5 ADD MSTORE PUSH1 0x60 DUP4 ADD MSTORE PUSH1 0x80 DUP3 ADD MSTORE LOG1 STOP JUMPDEST PUSH1 0x0 SWAP8 POP SWAP3 SWAP6 POP DUP7 SWAP5 POP SWAP1 SWAP3 DUP5 SWAP2 SWAP1 DUP3 SWAP1 DUP3 DUP7 DUP4 JUMPDEST DUP9 ISZERO ISZERO DUP1 PUSH2 0x23D0 JUMPI JUMPDEST DUP1 PUSH2 0x23C6 JUMPI JUMPDEST ISZERO PUSH2 0x236A JUMPI JUMPDEST DUP4 MLOAD DUP2 LT DUP1 PUSH2 0x23A2 JUMPI JUMPDEST ISZERO PUSH2 0x1FBD JUMPI PUSH2 0x1FB8 SWAP1 PUSH2 0x2EAD JUMP JUMPDEST PUSH2 0x1FA0 JUMP JUMPDEST SWAP7 SWAP8 SWAP9 DUP4 MLOAD DUP9 LT ISZERO PUSH2 0x236A JUMPI JUMPDEST DUP9 MLOAD DUP2 LT DUP1 PUSH2 0x2346 JUMPI JUMPDEST ISZERO PUSH2 0x1FE7 JUMPI PUSH2 0x1FE2 SWAP1 PUSH2 0x2EAD JUMP JUMPDEST PUSH2 0x1FCA JUMP JUMPDEST SWAP9 SWAP8 SWAP7 SWAP10 DUP8 MLOAD DUP11 LT ISZERO PUSH2 0x2306 JUMPI PUSH2 0x1FFE DUP12 DUP6 PUSH2 0x31E7 JUMP JUMPDEST MLOAD PUSH1 0x0 MSTORE PUSH1 0xC PUSH1 0x20 MSTORE PUSH1 0x40 PUSH1 0x0 KECCAK256 PUSH2 0x2016 DUP12 DUP11 PUSH2 0x31E7 JUMP JUMPDEST MLOAD PUSH1 0x0 MSTORE PUSH1 0xE PUSH1 0x20 MSTORE PUSH1 0x40 PUSH1 0x0 KECCAK256 DUP7 ISZERO PUSH2 0x22FA JUMPI JUMPDEST DUP9 ISZERO PUSH2 0x22EE JUMPI JUMPDEST DUP9 DUP8 LT DUP10 DUP9 XOR MUL DUP10 XOR DUP12 DUP1 DUP3 LT SWAP2 XOR MUL DUP1 DUP13 XOR PUSH1 0xA0 MSTORE DUP12 SUB PUSH2 0x2057 JUMPI JUMPDEST POP POP SWAP10 PUSH2 0x1F8B JUMP JUMPDEST SWAP1 DUP1 SWAP14 SWAP11 SWAP9 SWAP7 PUSH1 0x11 PUSH2 0x206D DUP2 SLOAD DUP1 PUSH1 0x80 MSTORE PUSH2 0x2EAD JUMP JUMPDEST SWAP1 SSTORE PUSH1 0x1 PUSH1 0x1 PUSH1 0xA0 SHL SUB PUSH1 0x1 DUP4 ADD SLOAD AND SWAP2 PUSH1 0x1 PUSH1 0x1 PUSH1 0xA0 SHL SUB PUSH1 0x1 DUP6 ADD SLOAD AND SWAP1 PUSH1 0x1 PUSH1 0x1 PUSH1 0xA0 SHL SUB PUSH1 0x2 DUP7 ADD SLOAD AND SWAP1 PUSH1 0x5 PUSH2 0x20BC PUSH2 0x20B1 PUSH1 0xA0 MLOAD PUSH1 0x3 DUP11 ADD SLOAD PUSH2 0x2FF5 JUMP JUMPDEST PUSH1 0x4 DUP10 ADD SLOAD SWAP1 PUSH2 0x3008 JUMP JUMPDEST SWAP2 ADD SLOAD SWAP2 PUSH1 0x7 DUP8 ADD SLOAD SWAP4 PUSH1 0x40 MLOAD SWAP7 DUP8 PUSH2 0x180 DUP2 ADD LT PUSH8 0xFFFFFFFFFFFFFFFF PUSH2 0x180 DUP11 ADD GT OR PUSH2 0x6FE JUMPI PUSH2 0x180 DUP9 ADD PUSH1 0x40 MSTORE PUSH1 0x80 MLOAD DUP9 MSTORE PUSH1 0x20 DUP9 ADD MSTORE PUSH1 0x40 DUP8 ADD MSTORE PUSH1 0x60 DUP7 ADD MSTORE PUSH1 0x80 DUP6 ADD MSTORE PUSH1 0xA0 MLOAD PUSH1 0xA0 DUP6 ADD MSTORE DUP11 PUSH1 0xC0 DUP6 ADD MSTORE PUSH1 0x0 PUSH1 0xE0 DUP6 ADD MSTORE PUSH1 0x4 CALLDATALOAD PUSH2 0x100 DUP6 ADD MSTORE PUSH2 0x120 DUP5 ADD MSTORE PUSH2 0x140 DUP4 ADD MSTORE PUSH1 0x0 PUSH2 0x160 DUP4 ADD MSTORE PUSH1 0x80 MLOAD PUSH1 0x0 MSTORE PUSH1 0x10 PUSH1 0x20 MSTORE PUSH2 0x160 PUSH1 0x40 PUSH1 0x0 KECCAK256 SWAP3 DUP1 MLOAD DUP5 SSTORE PUSH1 0x1 DUP5 ADD PUSH1 0x1 PUSH1 0x1 PUSH1 0xA0 SHL SUB PUSH1 0x20 DUP4 ADD MLOAD AND SWAP1 PUSH1 0x1 PUSH1 0x1 PUSH1 0xA0 SHL SUB NOT SWAP2 DUP3 DUP3 SLOAD AND OR SWAP1 SSTORE PUSH1 0x2 DUP6 ADD PUSH1 0x1 PUSH1 0x1 PUSH1 0xA0 SHL SUB PUSH1 0x40 DUP5 ADD MLOAD AND DUP3 DUP3 SLOAD AND OR SWAP1 SSTORE PUSH1 0x3 DUP6 ADD SWAP1 PUSH1 0x1 PUSH1 0x1 PUSH1 0xA0 SHL SUB PUSH1 0x60 DUP5 ADD MLOAD AND SWAP1 DUP3 SLOAD AND OR SWAP1 SSTORE PUSH1 0x80 DUP2 ADD MLOAD PUSH1 0x4 DUP6 ADD SSTORE PUSH1 0xA0 DUP2 ADD MLOAD PUSH1 0x5 DUP6 ADD SSTORE PUSH1 0xC0 DUP2 ADD MLOAD PUSH1 0x6 DUP6 ADD SSTORE PUSH1 0xE0 DUP2 ADD MLOAD PUSH1 0x7 DUP6 ADD SSTORE PUSH2 0x100 DUP2 ADD MLOAD PUSH1 0x8 DUP6 ADD SSTORE PUSH2 0x120 DUP2 ADD MLOAD PUSH1 0x9 DUP6 ADD SSTORE PUSH2 0x140 DUP2 ADD MLOAD PUSH1 0xA DUP6 ADD SSTORE ADD MLOAD SWAP2 PUSH1 0x5 DUP4 LT ISZERO PUSH2 0x422 JUMPI PUSH2 0x2225 PUSH2 0x2239 SWAP3 PUSH2 0x222F SWAP3 PUSH1 0xB PUSH2 0x223F SWAP7 PUSH1 0xFF DUP1 NOT DUP4 DUP6 ADD SLOAD AND SWAP2 AND OR SWAP2 ADD SSTORE PUSH1 0xA0 MLOAD SWAP1 PUSH2 0x3124 JUMP JUMPDEST SWAP9 PUSH1 0xA0 MLOAD SWAP1 PUSH2 0x3124 JUMP JUMPDEST SWAP10 PUSH1 0xA0 MLOAD SWAP1 PUSH2 0x3124 JUMP JUMPDEST SWAP11 PUSH2 0x2EAD JUMP JUMPDEST SWAP13 PUSH1 0x1 PUSH1 0x1 PUSH1 0xA0 SHL SUB PUSH1 0x1 DUP3 ADD SLOAD AND PUSH1 0x1 PUSH1 0x1 PUSH1 0xA0 SHL SUB PUSH1 0x1 DUP5 ADD SLOAD AND SWAP1 PUSH1 0x40 MLOAD PUSH1 0xA0 MLOAD DUP2 MSTORE DUP11 PUSH1 0x20 DUP3 ADD MSTORE PUSH1 0x4 CALLDATALOAD PUSH1 0x40 DUP3 ADD MSTORE PUSH32 0x6850239CC8FA897EDD78465A234C3240B84BBFB1C55CAC4B85364DE88CE71095 PUSH1 0x60 PUSH1 0x80 MLOAD SWAP3 LOG4 DUP7 ISZERO PUSH2 0x22CF JUMPI JUMPDEST POP DUP8 ISZERO PUSH2 0x22B0 JUMPI JUMPDEST DUP1 PUSH2 0x204F JUMP JUMPDEST PUSH1 0x8 ADD DUP1 SLOAD PUSH1 0xFF NOT AND PUSH1 0x1 OR SWAP1 SSTORE SWAP9 PUSH2 0x22C8 SWAP1 PUSH2 0x2EAD JUMP JUMPDEST SWAP9 DUP13 PUSH2 0x22AA JUMP JUMPDEST PUSH1 0x6 ADD DUP1 SLOAD PUSH1 0xFF NOT AND PUSH1 0x1 OR SWAP1 SSTORE SWAP11 PUSH2 0x22E7 SWAP1 PUSH2 0x2EAD JUMP JUMPDEST SWAP11 DUP14 PUSH2 0x22A2 JUMP JUMPDEST PUSH1 0x4 DUP2 ADD SLOAD SWAP9 POP PUSH2 0x2032 JUMP JUMPDEST PUSH1 0x2 DUP3 ADD SLOAD SWAP7 POP PUSH2 0x202B JUMP JUMPDEST SWAP7 POP SWAP7 POP SWAP7 POP SWAP3 POP POP POP PUSH1 0xA0 SWAP5 POP DUP4 PUSH1 0x1 PUSH32 0x34570F9FB64342EA477ACFDFD825E34C70EA3A3673AD98A12B4E87F2F3908050 SWAP8 JUMPDEST SWAP6 SWAP8 POP DUP3 SWAP5 SWAP7 POP PUSH2 0x1F24 JUMP JUMPDEST POP PUSH2 0x2351 DUP2 DUP11 PUSH2 0x31E7 JUMP JUMPDEST MLOAD PUSH1 0x0 MSTORE PUSH1 0xE PUSH1 0x20 MSTORE DUP6 PUSH1 0x5 PUSH1 0x40 PUSH1 0x0 KECCAK256 ADD SLOAD LT PUSH2 0x1FD4 JUMP JUMPDEST POP SWAP7 POP SWAP7 POP SWAP3 POP POP POP PUSH1 0xA0 SWAP5 SWAP2 POP DUP4 PUSH1 0x1 PUSH32 0x34570F9FB64342EA477ACFDFD825E34C70EA3A3673AD98A12B4E87F2F3908050 SWAP8 PUSH2 0x233A JUMP JUMPDEST POP PUSH2 0x23AD DUP2 DUP6 PUSH2 0x31E7 JUMP JUMPDEST MLOAD PUSH1 0x0 MSTORE PUSH1 0xC PUSH1 0x20 MSTORE DUP6 PUSH1 0x3 PUSH1 0x40 PUSH1 0x0 KECCAK256 ADD SLOAD GT PUSH2 0x1FAA JUMP JUMPDEST POP DUP8 MLOAD DUP11 LT PUSH2 0x1F9A JUMP JUMPDEST POP DUP4 MLOAD DUP2 LT PUSH2 0x1F94 JUMP JUMPDEST PUSH1 0x64 PUSH1 0x40 MLOAD PUSH3 0x461BCD PUSH1 0xE5 SHL DUP2 MSTORE PUSH1 0x20 PUSH1 0x4 DUP3 ADD MSTORE PUSH1 0x12 PUSH1 0x24 DUP3 ADD MSTORE PUSH32 0x4E6F206F726465727320746F206D617463680000000000000000000000000000 PUSH1 0x44 DUP3 ADD MSTORE REVERT JUMPDEST POP DUP3 MLOAD ISZERO ISZERO PUSH2 0x1CA6 JUMP JUMPDEST DUP1 PUSH2 0x2454 SWAP2 PUSH1 0x0 MSTORE PUSH1 0xE PUSH1 0x20 MSTORE PUSH1 0x40 PUSH1 0x0 KECCAK256 PUSH1 0xFF PUSH1 0x8 DUP3 ADD SLOAD AND ISZERO SWAP1 DUP2 PUSH2 0x246D JUMPI JUMPDEST POP PUSH2 0x2459 JUMPI PUSH2 0x2EAD JUMP JUMPDEST PUSH2 0x1C92 JUMP JUMPDEST DUP1 PUSH2 0x1D42 PUSH2 0x2466 DUP6 PUSH2 0x2EAD JUMP JUMPDEST SWAP5 DUP10 PUSH2 0x31E7 JUMP JUMPDEST PUSH1 0x6 ADD SLOAD PUSH1 0x4 CALLDATALOAD EQ SWAP1 POP DUP9 PUSH2 0x244A JUMP JUMPDEST DUP1 PUSH2 0x24A9 SWAP2 PUSH1 0x0 MSTORE PUSH1 0xC PUSH1 0x20 MSTORE PUSH1 0x40 PUSH1 0x0 KECCAK256 PUSH1 0xFF PUSH1 0x6 DUP3 ADD SLOAD AND ISZERO SWAP1 DUP2 PUSH2 0x24C2 JUMPI JUMPDEST POP PUSH2 0x24AE JUMPI PUSH2 0x2EAD JUMP JUMPDEST PUSH2 0x1C85 JUMP JUMPDEST DUP1 PUSH2 0x1D42 PUSH2 0x24BB DUP6 PUSH2 0x2EAD JUMP JUMPDEST SWAP5 DUP11 PUSH2 0x31E7 JUMP JUMPDEST SWAP1 POP PUSH1 0x4 DUP1 CALLDATALOAD SWAP2 ADD SLOAD EQ DUP11 PUSH2 0x249F JUMP JUMPDEST DUP1 PUSH1 0x0 MSTORE PUSH1 0xE PUSH1 0x20 MSTORE PUSH1 0x40 PUSH1 0x0 KECCAK256 PUSH1 0xFF PUSH1 0x8 DUP3 ADD SLOAD AND ISZERO SWAP1 DUP2 PUSH2 0x2519 JUMPI JUMPDEST POP PUSH2 0x2504 JUMPI JUMPDEST PUSH2 0x24FF SWAP1 PUSH2 0x2EAD JUMP JUMPDEST PUSH2 0x1C63 JUMP JUMPDEST SWAP4 PUSH2 0x2511 PUSH2 0x24FF SWAP2 PUSH2 0x2EAD JUMP JUMPDEST SWAP5 SWAP1 POP PUSH2 0x24F6 JUMP JUMPDEST PUSH1 0x6 ADD SLOAD PUSH1 0x4 CALLDATALOAD EQ SWAP1 POP DUP8 PUSH2 0x24F0 JUMP JUMPDEST DUP1 PUSH1 0x0 MSTORE PUSH1 0xC PUSH1 0x20 MSTORE PUSH1 0x40 PUSH1 0x0 KECCAK256 PUSH1 0xFF PUSH1 0x6 DUP3 ADD SLOAD AND ISZERO SWAP1 DUP2 PUSH2 0x2570 JUMPI JUMPDEST POP PUSH2 0x255B JUMPI JUMPDEST PUSH2 0x2556 SWAP1 PUSH2 0x2EAD JUMP JUMPDEST PUSH2 0x1C54 JUMP JUMPDEST SWAP1 PUSH2 0x2568 PUSH2 0x2556 SWAP2 PUSH2 0x2EAD JUMP JUMPDEST SWAP2 SWAP1 POP PUSH2 0x254D JUMP JUMPDEST SWAP1 POP PUSH1 0x4 DUP1 CALLDATALOAD SWAP2 ADD SLOAD EQ DUP7 PUSH2 0x2547 JUMP JUMPDEST PUSH1 0x64 PUSH1 0x40 MLOAD PUSH3 0x461BCD PUSH1 0xE5 SHL DUP2 MSTORE PUSH1 0x20 PUSH1 0x4 DUP3 ADD MSTORE PUSH1 0x16 PUSH1 0x24 DUP3 ADD MSTORE PUSH32 0x4D61726B6574206D617475726974792070617373656400000000000000000000 PUSH1 0x44 DUP3 ADD MSTORE REVERT JUMPDEST PUSH1 0x64 PUSH1 0x40 MLOAD PUSH3 0x461BCD PUSH1 0xE5 SHL DUP2 MSTORE PUSH1 0x20 PUSH1 0x4 DUP3 ADD MSTORE PUSH1 0x1C PUSH1 0x24 DUP3 ADD MSTORE PUSH32 0x41756374696F6E20696E74657276616C206E6F7420656C617073656400000000 PUSH1 0x44 DUP3 ADD MSTORE REVERT JUMPDEST CALLVALUE PUSH2 0x241 JUMPI PUSH1 0x0 CALLDATASIZE PUSH1 0x3 NOT ADD SLT PUSH2 0x241 JUMPI PUSH1 0x20 PUSH1 0x40 MLOAD PUSH4 0x1E13380 DUP2 MSTORE RETURN JUMPDEST CALLVALUE PUSH2 0x241 JUMPI PUSH1 0x0 CALLDATASIZE PUSH1 0x3 NOT ADD SLT PUSH2 0x241 JUMPI PUSH2 0x2640 PUSH2 0x2CF9 JUMP JUMPDEST PUSH1 0x0 PUSH1 0x1 PUSH1 0x1 PUSH1 0xA0 SHL SUB DUP2 SLOAD PUSH1 0x1 PUSH1 0x1 PUSH1 0xA0 SHL SUB NOT DUP2 AND DUP4 SSTORE AND PUSH32 0x8BE0079C531659141344CD1FD0A4F28419497F9722A3DAAFE3B4186F6B6457E0 DUP3 DUP1 LOG3 STOP JUMPDEST CALLVALUE PUSH2 0x241 JUMPI PUSH1 0x0 CALLDATASIZE PUSH1 0x3 NOT ADD SLT PUSH2 0x241 JUMPI PUSH1 0x20 PUSH1 0xF SLOAD PUSH1 0x40 MLOAD SWAP1 DUP2 MSTORE RETURN JUMPDEST CALLVALUE PUSH2 0x241 JUMPI PUSH1 0x0 CALLDATASIZE PUSH1 0x3 NOT ADD SLT PUSH2 0x241 JUMPI PUSH1 0x20 PUSH1 0x40 MLOAD PUSH2 0xE10 DUP2 MSTORE RETURN JUMPDEST CALLVALUE PUSH2 0x241 JUMPI PUSH1 0x0 CALLDATASIZE PUSH1 0x3 NOT ADD SLT PUSH2 0x241 JUMPI PUSH1 0x20 PUSH1 0xD SLOAD PUSH1 0x40 MLOAD SWAP1 DUP2 MSTORE RETURN JUMPDEST CALLVALUE PUSH2 0x241 JUMPI PUSH1 0x20 DUP1 PUSH1 0x3 NOT CALLDATASIZE ADD SLT PUSH2 0x241 JUMPI PUSH1 0x4 CALLDATALOAD SWAP1 PUSH2 0x26F7 PUSH2 0x2FBA JUMP JUMPDEST DUP2 PUSH1 0x0 MSTORE PUSH1 0x10 DUP2 MSTORE PUSH1 0x40 PUSH1 0x0 KECCAK256 PUSH2 0x2710 DUP2 SLOAD ISZERO ISZERO PUSH2 0x3028 JUMP JUMPDEST PUSH1 0x1 PUSH1 0x1 PUSH1 0xA0 SHL SUB SWAP1 DUP2 PUSH1 0x2 DUP3 ADD SLOAD AND SWAP2 CALLER DUP4 SUB PUSH2 0x2839 JUMPI PUSH1 0xB DUP3 ADD SWAP1 PUSH1 0xFF DUP3 SLOAD AND PUSH1 0x5 DUP2 LT ISZERO PUSH2 0x422 JUMPI PUSH2 0x27F5 JUMPI SWAP2 PUSH1 0x8 SWAP2 PUSH2 0x2799 PUSH32 0xA658AB2FD84B9837DB23DF49B16AD4F921C59B21E0DBD646E9B5B3F25CF4F9BF SWAP7 SWAP6 SWAP5 PUSH1 0x5 DUP5 ADD SWAP6 DUP7 SLOAD SWAP2 PUSH32 0x0 AND PUSH2 0x3073 JUMP JUMPDEST PUSH1 0x1 PUSH1 0xFF NOT DUP3 SLOAD AND OR SWAP1 SSTORE TIMESTAMP PUSH1 0x7 DUP3 ADD SSTORE ADD SWAP1 DUP2 SLOAD PUSH1 0x0 MSTORE PUSH1 0xA DUP4 MSTORE PUSH1 0x4 PUSH1 0x40 PUSH1 0x0 KECCAK256 ADD PUSH2 0x27C7 DUP2 SLOAD PUSH2 0x2EAD JUMP JUMPDEST SWAP1 SSTORE SLOAD SWAP1 SLOAD PUSH1 0x0 MSTORE PUSH1 0xA DUP3 MSTORE PUSH2 0x27E6 PUSH1 0x5 PUSH1 0x40 PUSH1 0x0 KECCAK256 ADD SWAP2 DUP3 SLOAD PUSH2 0x2EBC JUMP JUMPDEST SWAP1 SSTORE PUSH1 0x40 MLOAD TIMESTAMP DUP2 MSTORE LOG2 PUSH1 0x1 DUP1 SSTORE STOP JUMPDEST PUSH1 0x64 DUP6 PUSH1 0x40 MLOAD SWAP1 PUSH3 0x461BCD PUSH1 0xE5 SHL DUP3 MSTORE PUSH1 0x4 DUP3 ADD MSTORE PUSH1 0x1A PUSH1 0x24 DUP3 ADD MSTORE PUSH32 0x4C6F616E206E6F7420696E2070656E64696E6720737461747573000000000000 PUSH1 0x44 DUP3 ADD MSTORE REVERT JUMPDEST PUSH1 0x64 DUP5 PUSH1 0x40 MLOAD SWAP1 PUSH3 0x461BCD PUSH1 0xE5 SHL DUP3 MSTORE PUSH1 0x4 DUP3 ADD MSTORE PUSH1 0x17 PUSH1 0x24 DUP3 ADD MSTORE PUSH32 0x4F6E6C7920626F72726F7765722063616E20636C61696D000000000000000000 PUSH1 0x44 DUP3 ADD MSTORE REVERT JUMPDEST CALLVALUE PUSH2 0x241 JUMPI PUSH1 0x20 CALLDATASIZE PUSH1 0x3 NOT ADD SLT PUSH2 0x241 JUMPI PUSH2 0x2896 PUSH2 0x2CF9 JUMP JUMPDEST PUSH2 0x28A1 PUSH1 0x4 CALLDATALOAD PUSH2 0x3273 JUMP JUMPDEST STOP JUMPDEST CALLVALUE PUSH2 0x241 JUMPI PUSH1 0x20 CALLDATASIZE PUSH1 0x3 NOT ADD SLT PUSH2 0x241 JUMPI PUSH1 0x4 CALLDATALOAD PUSH1 0x0 MSTORE PUSH1 0xE PUSH1 0x20 MSTORE PUSH2 0x120 PUSH1 0x40 PUSH1 0x0 KECCAK256 DUP1 SLOAD SWAP1 PUSH1 0x1 PUSH1 0x1 PUSH1 0xA0 SHL SUB SWAP1 DUP2 PUSH1 0x1 DUP3 ADD SLOAD AND SWAP2 PUSH1 0x2 DUP3 ADD SLOAD AND PUSH1 0x3 DUP3 ADD SLOAD PUSH1 0x4 DUP4 ADD SLOAD PUSH1 0x5 DUP5 ADD SLOAD SWAP2 PUSH1 0x6 DUP6 ADD SLOAD SWAP4 PUSH1 0xFF PUSH1 0x8 PUSH1 0x7 DUP9 ADD SLOAD SWAP8 ADD SLOAD AND SWAP7 PUSH1 0x40 MLOAD SWAP9 DUP10 MSTORE PUSH1 0x20 DUP10 ADD MSTORE PUSH1 0x40 DUP9 ADD MSTORE PUSH1 0x60 DUP8 ADD MSTORE PUSH1 0x80 DUP7 ADD MSTORE PUSH1 0xA0 DUP6 ADD MSTORE PUSH1 0xC0 DUP5 ADD MSTORE PUSH1 0xE0 DUP4 ADD MSTORE ISZERO ISZERO PUSH2 0x100 DUP3 ADD MSTORE RETURN JUMPDEST CALLVALUE PUSH2 0x241 JUMPI PUSH2 0x2946 CALLDATASIZE PUSH2 0x2B8B JUMP JUMPDEST POP POP POP POP POP PUSH1 0x20 PUSH1 0x40 MLOAD PUSH32 0x44577BEA00000000000000000000000000000000000000000000000000000000 DUP2 MSTORE RETURN JUMPDEST CALLVALUE PUSH2 0x241 JUMPI PUSH1 0x0 CALLDATASIZE PUSH1 0x3 NOT ADD SLT PUSH2 0x241 JUMPI PUSH1 0x20 PUSH1 0x3 SLOAD PUSH1 0x40 MLOAD SWAP1 DUP2 MSTORE RETURN JUMPDEST CALLVALUE PUSH2 0x241 JUMPI PUSH1 0x20 CALLDATASIZE PUSH1 0x3 NOT ADD SLT PUSH2 0x241 JUMPI PUSH1 0x4 CALLDATALOAD PUSH1 0xB SLOAD DUP2 LT ISZERO PUSH2 0x241 JUMPI PUSH2 0x29BC PUSH1 0x20 SWAP2 PUSH2 0x2BEF JUMP JUMPDEST SWAP1 SLOAD PUSH1 0x40 MLOAD SWAP2 PUSH1 0x3 SHL SHR DUP2 MSTORE RETURN JUMPDEST CALLVALUE PUSH2 0x241 JUMPI PUSH2 0x120 CALLDATASIZE PUSH1 0x3 NOT ADD SLT PUSH2 0x241 JUMPI PUSH2 0x29E4 PUSH2 0x2B31 JUMP JUMPDEST POP PUSH1 0xC0 CALLDATASIZE PUSH1 0x23 NOT ADD SLT PUSH2 0x241 JUMPI PUSH1 0xE4 CALLDATALOAD PUSH1 0x1 PUSH1 0x1 PUSH1 0xA0 SHL SUB DUP2 AND SUB PUSH2 0x241 JUMPI PUSH2 0x104 CALLDATALOAD PUSH8 0xFFFFFFFFFFFFFFFF DUP2 GT PUSH2 0x241 JUMPI PUSH2 0x2A24 SWAP1 CALLDATASIZE SWAP1 PUSH1 0x4 ADD PUSH2 0x2B5D JUMP JUMPDEST POP POP PUSH1 0x20 PUSH1 0x40 MLOAD PUSH32 0x23962ACE00000000000000000000000000000000000000000000000000000000 DUP2 MSTORE RETURN JUMPDEST CALLVALUE PUSH2 0x241 JUMPI PUSH1 0x0 CALLDATASIZE PUSH1 0x3 NOT ADD SLT PUSH2 0x241 JUMPI PUSH1 0x20 PUSH1 0x40 MLOAD PUSH1 0x1 PUSH1 0x1 PUSH1 0xA0 SHL SUB PUSH32 0x0 AND DUP2 MSTORE RETURN JUMPDEST CALLVALUE PUSH2 0x241 JUMPI PUSH1 0x0 CALLDATASIZE PUSH1 0x3 NOT ADD SLT PUSH2 0x241 JUMPI PUSH1 0xC0 PUSH1 0x1 PUSH1 0x1 PUSH1 0xA0 SHL SUB DUP1 PUSH1 0x6 SLOAD AND SWAP1 DUP1 PUSH1 0x7 SLOAD AND SWAP1 DUP1 PUSH1 0x8 SLOAD AND PUSH1 0x9 SLOAD SWAP3 PUSH1 0x40 MLOAD SWAP5 DUP6 MSTORE PUSH1 0x20 DUP6 ADD MSTORE PUSH1 0x40 DUP5 ADD MSTORE DUP2 AND PUSH1 0x60 DUP4 ADD MSTORE PUSH3 0xFFFFFF DUP2 PUSH1 0xA0 SHR AND PUSH1 0x80 DUP4 ADD MSTORE PUSH1 0xB8 SHR PUSH1 0x2 SIGNEXTEND PUSH1 0xA0 DUP3 ADD MSTORE RETURN JUMPDEST CALLVALUE PUSH2 0x241 JUMPI PUSH1 0x20 SWAP1 PUSH2 0x2B07 CALLDATASIZE PUSH2 0x2B8B JUMP JUMPDEST POP POP POP POP POP PUSH32 0x127E45600000000000000000000000000000000000000000000000000000000 DUP2 MSTORE RETURN JUMPDEST PUSH1 0x4 CALLDATALOAD SWAP1 PUSH1 0x1 PUSH1 0x1 PUSH1 0xA0 SHL SUB DUP3 AND DUP3 SUB PUSH2 0x241 JUMPI JUMP JUMPDEST PUSH1 0x64 CALLDATALOAD SWAP1 PUSH1 0x1 PUSH1 0x1 PUSH1 0xA0 SHL SUB DUP3 AND DUP3 SUB PUSH2 0x241 JUMPI JUMP JUMPDEST SWAP2 DUP2 PUSH1 0x1F DUP5 ADD SLT ISZERO PUSH2 0x241 JUMPI DUP3 CALLDATALOAD SWAP2 PUSH8 0xFFFFFFFFFFFFFFFF DUP4 GT PUSH2 0x241 JUMPI PUSH1 0x20 DUP4 DUP2 DUP7 ADD SWAP6 ADD ADD GT PUSH2 0x241 JUMPI JUMP JUMPDEST SWAP1 PUSH2 0x160 PUSH1 0x3 NOT DUP4 ADD SLT PUSH2 0x241 JUMPI PUSH1 0x4 CALLDATALOAD PUSH1 0x1 PUSH1 0x1 PUSH1 0xA0 SHL SUB DUP2 AND DUP2 SUB PUSH2 0x241 JUMPI SWAP2 PUSH1 0xC0 PUSH1 0x23 NOT DUP3 ADD SLT PUSH2 0x241 JUMPI PUSH1 0x24 SWAP2 PUSH1 0x60 PUSH1 0xE3 NOT DUP4 ADD SLT PUSH2 0x241 JUMPI PUSH1 0xE4 SWAP2 PUSH2 0x144 CALLDATALOAD SWAP1 PUSH8 0xFFFFFFFFFFFFFFFF DUP3 GT PUSH2 0x241 JUMPI PUSH2 0x2BEB SWAP2 PUSH1 0x4 ADD PUSH2 0x2B5D JUMP JUMPDEST SWAP1 SWAP2 JUMP JUMPDEST PUSH1 0xB SLOAD DUP2 LT ISZERO PUSH2 0x2C26 JUMPI PUSH1 0xB PUSH1 0x0 MSTORE PUSH32 0x175B7A638427703F0DBE7BB9BBF987A2551717B34E79F33B5B1008D1FA01DB9 ADD SWAP1 PUSH1 0x0 SWAP1 JUMP JUMPDEST PUSH4 0x4E487B71 PUSH1 0xE0 SHL PUSH1 0x0 MSTORE PUSH1 0x32 PUSH1 0x4 MSTORE PUSH1 0x24 PUSH1 0x0 REVERT JUMPDEST PUSH2 0x180 PUSH1 0x3 NOT DUP3 ADD SLT PUSH2 0x241 JUMPI PUSH1 0x4 CALLDATALOAD PUSH1 0x1 PUSH1 0x1 PUSH1 0xA0 SHL SUB DUP2 AND DUP2 SUB PUSH2 0x241 JUMPI SWAP2 PUSH1 0xC0 PUSH1 0x23 NOT DUP4 ADD SLT PUSH2 0x241 JUMPI PUSH1 0x24 SWAP2 PUSH1 0x60 PUSH1 0xE3 NOT DUP3 ADD SLT PUSH2 0x241 JUMPI PUSH1 0xE4 SWAP2 PUSH2 0x144 CALLDATALOAD SWAP2 PUSH2 0x164 CALLDATALOAD SWAP1 PUSH8 0xFFFFFFFFFFFFFFFF DUP3 GT PUSH2 0x241 JUMPI PUSH2 0x2BEB SWAP2 PUSH1 0x4 ADD PUSH2 0x2B5D JUMP JUMPDEST PUSH2 0x140 PUSH1 0x3 NOT DUP3 ADD SLT PUSH2 0x241 JUMPI PUSH1 0x4 CALLDATALOAD PUSH1 0x1 PUSH1 0x1 PUSH1 0xA0 SHL SUB DUP2 AND DUP2 SUB PUSH2 0x241 JUMPI SWAP2 PUSH1 0xC0 PUSH1 0x23 NOT DUP4 ADD SLT PUSH2 0x241 JUMPI PUSH1 0x24 SWAP2 PUSH1 0xE4 CALLDATALOAD SWAP2 PUSH2 0x104 CALLDATALOAD SWAP2 PUSH2 0x124 CALLDATALOAD SWAP1 PUSH8 0xFFFFFFFFFFFFFFFF DUP3 GT PUSH2 0x241 JUMPI PUSH2 0x2BEB SWAP2 PUSH1 0x4 ADD PUSH2 0x2B5D JUMP JUMPDEST PUSH1 0x1 PUSH1 0x1 PUSH1 0xA0 SHL SUB PUSH1 0x0 SLOAD AND CALLER SUB PUSH2 0x2D0D JUMPI JUMP JUMPDEST PUSH1 0x24 PUSH1 0x40 MLOAD PUSH32 0x118CDAA700000000000000000000000000000000000000000000000000000000 DUP2 MSTORE CALLER PUSH1 0x4 DUP3 ADD MSTORE REVERT JUMPDEST PUSH1 0xE0 DUP2 ADD SWAP1 DUP2 LT PUSH8 0xFFFFFFFFFFFFFFFF DUP3 GT OR PUSH2 0x6FE JUMPI PUSH1 0x40 MSTORE JUMP JUMPDEST PUSH2 0x100 DUP2 ADD SWAP1 DUP2 LT PUSH8 0xFFFFFFFFFFFFFFFF DUP3 GT OR PUSH2 0x6FE JUMPI PUSH1 0x40 MSTORE JUMP JUMPDEST PUSH8 0xFFFFFFFFFFFFFFFF DUP2 GT PUSH2 0x6FE JUMPI PUSH1 0x40 MSTORE JUMP JUMPDEST PUSH1 0x24 CALLDATALOAD PUSH1 0x1 PUSH1 0x1 PUSH1 0xA0 SHL SUB DUP2 AND DUP2 SUB PUSH2 0x241 JUMPI SWAP1 JUMP JUMPDEST PUSH1 0x44 CALLDATALOAD PUSH1 0x1 PUSH1 0x1 PUSH1 0xA0 SHL SUB DUP2 AND DUP2 SUB PUSH2 0x241 JUMPI SWAP1 JUMP JUMPDEST PUSH1 0x64 CALLDATALOAD PUSH1 0x1 PUSH1 0x1 PUSH1 0xA0 SHL SUB DUP2 AND DUP2 SUB PUSH2 0x241 JUMPI SWAP1 JUMP JUMPDEST ISZERO PUSH2 0x2DD3 JUMPI JUMP JUMPDEST PUSH1 0x64 PUSH1 0x40 MLOAD PUSH3 0x461BCD PUSH1 0xE5 SHL DUP2 MSTORE PUSH1 0x20 PUSH1 0x4 DUP3 ADD MSTORE PUSH1 0x1E PUSH1 0x24 DUP3 ADD MSTORE PUSH32 0x4D61747572697479206D75737420626520696E20746865206675747572650000 PUSH1 0x44 DUP3 ADD MSTORE REVERT JUMPDEST ISZERO PUSH2 0x2E1E JUMPI JUMP JUMPDEST PUSH1 0x64 PUSH1 0x40 MLOAD PUSH3 0x461BCD PUSH1 0xE5 SHL DUP2 MSTORE PUSH1 0x20 PUSH1 0x4 DUP3 ADD MSTORE PUSH1 0x14 PUSH1 0x24 DUP3 ADD MSTORE PUSH32 0x526174652065786365656473206D6178696D756D000000000000000000000000 PUSH1 0x44 DUP3 ADD MSTORE REVERT JUMPDEST ISZERO PUSH2 0x2E69 JUMPI JUMP JUMPDEST PUSH1 0x64 PUSH1 0x40 MLOAD PUSH3 0x461BCD PUSH1 0xE5 SHL DUP2 MSTORE PUSH1 0x20 PUSH1 0x4 DUP3 ADD MSTORE PUSH1 0x15 PUSH1 0x24 DUP3 ADD MSTORE PUSH32 0x4D61726B657420646F6573206E6F742065786973740000000000000000000000 PUSH1 0x44 DUP3 ADD MSTORE REVERT JUMPDEST PUSH1 0x0 NOT DUP2 EQ PUSH2 0x959 JUMPI PUSH1 0x1 ADD SWAP1 JUMP JUMPDEST SWAP2 SWAP1 DUP3 ADD DUP1 SWAP3 GT PUSH2 0x959 JUMPI JUMP JUMPDEST SWAP3 SWAP1 PUSH1 0x40 MLOAD SWAP3 PUSH32 0x23B872DD00000000000000000000000000000000000000000000000000000000 PUSH1 0x20 DUP6 ADD MSTORE PUSH1 0x1 PUSH1 0x1 PUSH1 0xA0 SHL SUB DUP1 SWAP3 AND PUSH1 0x24 DUP6 ADD MSTORE AND PUSH1 0x44 DUP4 ADD MSTORE PUSH1 0x64 DUP3 ADD MSTORE PUSH1 0x64 DUP2 MSTORE PUSH1 0xA0 DUP2 ADD SWAP2 DUP2 DUP4 LT PUSH8 0xFFFFFFFFFFFFFFFF DUP5 GT OR PUSH2 0x6FE JUMPI PUSH2 0x2F38 SWAP3 PUSH1 0x40 MSTORE PUSH2 0x2F3A JUMP JUMPDEST JUMP JUMPDEST SWAP1 PUSH1 0x0 PUSH1 0x20 SWAP2 DUP3 DUP2 MLOAD SWAP2 ADD DUP3 DUP6 GAS CALL ISZERO PUSH2 0x2FAE JUMPI PUSH1 0x0 MLOAD RETURNDATASIZE PUSH2 0x2FA5 JUMPI POP PUSH1 0x1 PUSH1 0x1 PUSH1 0xA0 SHL SUB DUP2 AND EXTCODESIZE ISZERO JUMPDEST PUSH2 0x2F6B JUMPI POP JUMP JUMPDEST PUSH1 0x24 SWAP1 PUSH1 0x1 PUSH1 0x1 PUSH1 0xA0 SHL SUB PUSH1 0x40 MLOAD SWAP2 PUSH32 0x5274AFE700000000000000000000000000000000000000000000000000000000 DUP4 MSTORE AND PUSH1 0x4 DUP3 ADD MSTORE REVERT JUMPDEST PUSH1 0x1 EQ ISZERO PUSH2 0x2F64 JUMP JUMPDEST PUSH1 0x40 MLOAD RETURNDATASIZE PUSH1 0x0 DUP3 RETURNDATACOPY RETURNDATASIZE SWAP1 REVERT JUMPDEST PUSH1 0x2 PUSH1 0x1 SLOAD EQ PUSH2 0x2FCB JUMPI PUSH1 0x2 PUSH1 0x1 SSTORE JUMP JUMPDEST PUSH1 0x4 PUSH1 0x40 MLOAD PUSH32 0x3EE5AEB500000000000000000000000000000000000000000000000000000000 DUP2 MSTORE REVERT JUMPDEST DUP2 DUP2 MUL SWAP3 SWAP2 DUP2 ISZERO SWAP2 DUP5 DIV EQ OR ISZERO PUSH2 0x959 JUMPI JUMP JUMPDEST DUP2 ISZERO PUSH2 0x3012 JUMPI DIV SWAP1 JUMP JUMPDEST PUSH4 0x4E487B71 PUSH1 0xE0 SHL PUSH1 0x0 MSTORE PUSH1 0x12 PUSH1 0x4 MSTORE PUSH1 0x24 PUSH1 0x0 REVERT JUMPDEST ISZERO PUSH2 0x302F JUMPI JUMP JUMPDEST PUSH1 0x64 PUSH1 0x40 MLOAD PUSH3 0x461BCD PUSH1 0xE5 SHL DUP2 MSTORE PUSH1 0x20 PUSH1 0x4 DUP3 ADD MSTORE PUSH1 0x13 PUSH1 0x24 DUP3 ADD MSTORE PUSH32 0x4C6F616E20646F6573206E6F7420657869737400000000000000000000000000 PUSH1 0x44 DUP3 ADD MSTORE REVERT JUMPDEST SWAP2 PUSH1 0x1 PUSH1 0x1 PUSH1 0xA0 SHL SUB PUSH1 0x40 MLOAD SWAP3 PUSH32 0xA9059CBB00000000000000000000000000000000000000000000000000000000 PUSH1 0x20 DUP6 ADD MSTORE AND PUSH1 0x24 DUP4 ADD MSTORE PUSH1 0x44 DUP3 ADD MSTORE PUSH1 0x44 DUP2 MSTORE PUSH1 0x80 DUP2 ADD SWAP2 DUP2 DUP4 LT PUSH8 0xFFFFFFFFFFFFFFFF DUP5 GT OR PUSH2 0x6FE JUMPI PUSH2 0x2F38 SWAP3 PUSH1 0x40 MSTORE PUSH2 0x2F3A JUMP JUMPDEST ISZERO PUSH2 0x30E0 JUMPI JUMP JUMPDEST PUSH1 0x64 PUSH1 0x40 MLOAD PUSH3 0x461BCD PUSH1 0xE5 SHL DUP2 MSTORE PUSH1 0x20 PUSH1 0x4 DUP3 ADD MSTORE PUSH1 0xF PUSH1 0x24 DUP3 ADD MSTORE PUSH32 0x4C6F616E206E6F74206163746976650000000000000000000000000000000000 PUSH1 0x44 DUP3 ADD MSTORE REVERT JUMPDEST SWAP2 SWAP1 DUP3 SUB SWAP2 DUP3 GT PUSH2 0x959 JUMPI JUMP JUMPDEST DUP1 ISZERO PUSH2 0x959 JUMPI PUSH1 0x0 NOT ADD SWAP1 JUMP JUMPDEST ISZERO PUSH2 0x3145 JUMPI JUMP JUMPDEST PUSH1 0x64 PUSH1 0x40 MLOAD PUSH3 0x461BCD PUSH1 0xE5 SHL DUP2 MSTORE PUSH1 0x20 PUSH1 0x4 DUP3 ADD MSTORE PUSH1 0x11 PUSH1 0x24 DUP3 ADD MSTORE PUSH32 0x496E76616C6964206E756C6C6966696572000000000000000000000000000000 PUSH1 0x44 DUP3 ADD MSTORE REVERT JUMPDEST PUSH8 0xFFFFFFFFFFFFFFFF DUP2 GT PUSH2 0x6FE JUMPI PUSH1 0x5 SHL PUSH1 0x20 ADD SWAP1 JUMP JUMPDEST SWAP1 PUSH2 0x31AB DUP3 PUSH2 0x3189 JUMP JUMPDEST PUSH1 0x40 MLOAD SWAP1 PUSH1 0x1F NOT SWAP1 PUSH1 0x1F ADD DUP2 AND DUP3 ADD PUSH8 0xFFFFFFFFFFFFFFFF DUP2 GT DUP4 DUP3 LT OR PUSH2 0x6FE JUMPI PUSH1 0x40 MSTORE DUP4 DUP3 MSTORE PUSH2 0x31DD DUP3 SWAP5 PUSH2 0x3189 JUMP JUMPDEST ADD SWAP1 PUSH1 0x20 CALLDATASIZE SWAP2 ADD CALLDATACOPY JUMP JUMPDEST DUP1 MLOAD DUP3 LT ISZERO PUSH2 0x2C26 JUMPI PUSH1 0x20 SWAP2 PUSH1 0x5 SHL ADD ADD SWAP1 JUMP JUMPDEST PUSH1 0x7 DUP2 ADD SLOAD DUP1 ISZERO DUP1 ISZERO PUSH2 0x3258 JUMPI JUMPDEST PUSH2 0x3251 JUMPI PUSH5 0x496CEBB800 PUSH2 0xCEF PUSH2 0x324E SWAP4 PUSH2 0xCEA PUSH1 0x6 PUSH2 0x3237 PUSH2 0x322C DUP8 TIMESTAMP PUSH2 0x3124 JUMP JUMPDEST SWAP7 PUSH1 0x8 DUP6 ADD SLOAD PUSH2 0x3124 JUMP JUMPDEST PUSH1 0x5 DUP5 ADD SLOAD SWAP7 DUP2 DUP1 DUP3 LT SWAP2 XOR MUL XOR SWAP3 ADD SLOAD DUP6 PUSH2 0x2FF5 JUMP JUMPDEST SWAP1 JUMP JUMPDEST POP POP PUSH1 0x0 SWAP1 JUMP JUMPDEST POP PUSH1 0xFF PUSH1 0xB DUP4 ADD SLOAD AND PUSH1 0x5 DUP2 LT ISZERO PUSH2 0x422 JUMPI PUSH1 0x1 EQ ISZERO PUSH2 0x3209 JUMP JUMPDEST PUSH2 0x327E DUP2 ISZERO ISZERO PUSH2 0x313E JUMP JUMPDEST DUP1 PUSH1 0x0 MSTORE PUSH1 0x4 PUSH1 0x20 MSTORE PUSH1 0x40 PUSH1 0x0 KECCAK256 DUP1 SLOAD PUSH1 0xFF DUP2 AND ISZERO PUSH2 0x329C JUMPI POP POP POP JUMP JUMPDEST PUSH1 0xFF NOT AND PUSH1 0x1 OR SWAP1 SSTORE PUSH32 0x3422EDDE3B4DFAD5FEA7909EEBED1B0370E6232A638F83BC4AA4D9B4275598E PUSH1 0x0 DUP1 LOG2 JUMP INVALID LOG2 PUSH5 0x6970667358 0x22 SLT KECCAK256 DIV PUSH14 0xD886AAF21CBF3028905E4E2C4373 MSIZE 0xBD CALLDATACOPY 0xBD DUP4 0xCB DUP14 PUSH20 0x4F1F8A03EE3CFDB264736F6C6343000814003300 "},"methodIdentifiers":{"BPS_DENOMINATOR()":"e1a45218","MAX_RATE_BPS()":"b0c0c264","MIN_AUCTION_INTERVAL()":"6a7eb0b1","TWAP_INTERVAL()":"a41e1020","YEAR_IN_SECONDS()":"7847ea53","activeMarkets(uint256)":"3adfe6d0","addMarket(uint256)":"d06bf8a5","afterDonate(address,(address,address,address,address,uint24,int24),uint256,uint256,bytes)":"df579681","afterInitialize((address,address,address,address,uint24,int24),uint160,int24,bytes)":"a17bbfbc","afterModifyPosition(address,(address,address,address,address,uint24,int24),(int24,int24,int256),int256,bytes)":"c1ef3c4b","afterSwap(address,(address,address,address,address,uint24,int24),(bool,int256,uint160),int256,bytes)":"fc806003","beforeDonate(address,(address,address,address,address,uint24,int24),uint256,uint256,bytes)":"df991fd9","beforeInitialize(address,(address,address,address,address,uint24,int24),uint160,bytes)":"23962ace","beforeModifyPosition(address,(address,address,address,address,uint24,int24),(int24,int24,int256),bytes)":"0127e456","beforeSwap(address,(address,address,address,address,uint24,int24),(bool,int256,uint160),bytes)":"44577bea","borrowRequests(uint256)":"50d282fc","claimLoan(uint256)":"53a469b3","getHookPermissions()":"c4e833ce","initialLTV()":"a880a273","isCollateralAllowed(address)":"cb067320","isNullifierBlacklisted(uint256)":"b7f69163","lendOffers(uint256)":"eef964fa","liquidatePosition(uint256)":"cdddd4e5","liquidationThreshold()":"4031234c","loans(uint256)":"e1ec3c68","markets(uint256)":"b1283e77","nextLoanId()":"87c51459","nextOfferId()":"5f5d0655","nextRequestId()":"6a84a985","owner()":"8da5cb5b","ownerAddToBlacklist(uint256)":"52494c9b","ownerRemoveFromBlacklist(uint256)":"9f110576","poolKey()":"182148ef","poolManager()":"dc4c90d3","quoteToken()":"217a4b70","renounceOwnership()":"715018a6","repayLoan(uint256)":"ab7b1c89","runAuction(uint256)":"7d40d0f8","setCollateralAllowed(address,bool)":"deed34db","setLTVParams(uint256,uint256)":"7f21bc62","submitBorrowRequest(address,uint256,uint256,uint256,uint256,address,uint256,uint256,uint256[8])":"9e2214c2","submitLendOffer(uint256,uint256,uint256,address,uint256,uint256,uint256[8])":"aa23dd43","transferOwnership(address)":"f2fde38b","worldIdRouter()":"9f50b66d"}}}}}