{"contracts/LendingRepoMVPHook.sol":{"LendingRepoMVP_Hook":{"abi":[{"inputs":[{"internalType":"contract IPoolManager","name":"_poolManager","type":"address"},{"internalType":"contract IWorldID","name":"_worldIdRouter","type":"address"},{"internalType":"address","name":"_quoteToken","type":"address"},{"internalType":"address","name":"_initialOwner","type":"address"}],"stateMutability":"nonpayable","type":"constructor"},{"inputs":[{"internalType":"address","name":"owner","type":"address"}],"name":"OwnableInvalidOwner","type":"error"},{"inputs":[{"internalType":"address","name":"account","type":"address"}],"name":"OwnableUnauthorizedAccount","type":"error"},{"anonymous":false,"inputs":[{"indexed":true,"internalType":"address","name":"token","type":"address"},{"indexed":false,"internalType":"bool","name":"allowed","type":"bool"}],"name":"CollateralAllowed","type":"event"},{"anonymous":false,"inputs":[{"indexed":true,"internalType":"uint256","name":"loanId","type":"uint256"}],"name":"LoanDefaultDeclared","type":"event"},{"anonymous":false,"inputs":[{"indexed":true,"internalType":"uint256","name":"loanId","type":"uint256"},{"indexed":true,"internalType":"uint256","name":"requestId","type":"uint256"},{"indexed":true,"internalType":"address","name":"lender","type":"address"},{"indexed":false,"internalType":"address","name":"borrower","type":"address"},{"indexed":false,"internalType":"uint256","name":"quoteAmount","type":"uint256"},{"indexed":false,"internalType":"uint256","name":"maturityTimestamp","type":"uint256"},{"indexed":false,"internalType":"uint256","name":"lenderNullifier","type":"uint256"}],"name":"LoanFunded","type":"event"},{"anonymous":false,"inputs":[{"indexed":true,"internalType":"uint256","name":"loanId","type":"uint256"}],"name":"LoanRepaid","type":"event"},{"anonymous":false,"inputs":[{"indexed":true,"internalType":"uint256","name":"requestId","type":"uint256"}],"name":"LoanRequestCancelled","type":"event"},{"anonymous":false,"inputs":[{"indexed":true,"internalType":"uint256","name":"requestId","type":"uint256"},{"indexed":true,"internalType":"address","name":"borrower","type":"address"},{"indexed":false,"internalType":"address","name":"collateralToken","type":"address"},{"indexed":false,"internalType":"uint256","name":"collateralAmount","type":"uint256"},{"indexed":false,"internalType":"uint256","name":"quoteAmount","type":"uint256"},{"indexed":false,"internalType":"uint256","name":"maturityTimestamp","type":"uint256"},{"indexed":false,"internalType":"uint256","name":"borrowerNullifier","type":"uint256"}],"name":"LoanRequested","type":"event"},{"anonymous":false,"inputs":[{"indexed":true,"internalType":"address","name":"previousOwner","type":"address"},{"indexed":true,"internalType":"address","name":"newOwner","type":"address"}],"name":"OwnershipTransferred","type":"event"},{"anonymous":false,"inputs":[{"components":[{"internalType":"address","name":"poolDeployer","type":"address"},{"internalType":"address","name":"hooks","type":"address"},{"internalType":"Currency","name":"currency0","type":"address"},{"internalType":"Currency","name":"currency1","type":"address"},{"internalType":"uint24","name":"fee","type":"uint24"},{"internalType":"int24","name":"tickSpacing","type":"int24"}],"indexed":false,"internalType":"struct PoolKey","name":"key","type":"tuple"}],"name":"PoolKeySet","type":"event"},{"anonymous":false,"inputs":[{"indexed":true,"internalType":"uint256","name":"nullifierHash","type":"uint256"}],"name":"UserBlacklisted","type":"event"},{"anonymous":false,"inputs":[{"indexed":true,"internalType":"uint256","name":"nullifierHash","type":"uint256"}],"name":"UserUnblacklisted","type":"event"},{"inputs":[{"internalType":"uint256","name":"","type":"uint256"}],"name":"activeLoans","outputs":[{"internalType":"uint256","name":"loanId","type":"uint256"},{"internalType":"uint256","name":"requestId","type":"uint256"},{"internalType":"address","name":"lender","type":"address"},{"internalType":"address","name":"borrower","type":"address"},{"internalType":"address","name":"collateralToken","type":"address"},{"internalType":"uint256","name":"collateralAmountDeposited","type":"uint256"},{"internalType":"uint256","name":"quoteAmountLent","type":"uint256"},{"internalType":"uint256","name":"maturityTimestamp","type":"uint256"},{"internalType":"uint256","name":"borrowerNullifier","type":"uint256"},{"internalType":"uint256","name":"lenderNullifier","type":"uint256"},{"internalType":"enum LendingRepoMVP_Hook.LoanStatus","name":"status","type":"uint8"}],"stateMutability":"view","type":"function"},{"inputs":[{"internalType":"address","name":"","type":"address"},{"components":[{"internalType":"address","name":"poolDeployer","type":"address"},{"internalType":"address","name":"hooks","type":"address"},{"internalType":"Currency","name":"currency0","type":"address"},{"internalType":"Currency","name":"currency1","type":"address"},{"internalType":"uint24","name":"fee","type":"uint24"},{"internalType":"int24","name":"tickSpacing","type":"int24"}],"internalType":"struct PoolKey","name":"","type":"tuple"},{"internalType":"uint256","name":"","type":"uint256"},{"internalType":"uint256","name":"","type":"uint256"},{"internalType":"bytes","name":"","type":"bytes"}],"name":"afterDonate","outputs":[{"internalType":"bytes4","name":"","type":"bytes4"}],"stateMutability":"nonpayable","type":"function"},{"inputs":[{"components":[{"internalType":"address","name":"poolDeployer","type":"address"},{"internalType":"address","name":"hooks","type":"address"},{"internalType":"Currency","name":"currency0","type":"address"},{"internalType":"Currency","name":"currency1","type":"address"},{"internalType":"uint24","name":"fee","type":"uint24"},{"internalType":"int24","name":"tickSpacing","type":"int24"}],"internalType":"struct PoolKey","name":"key","type":"tuple"},{"internalType":"uint160","name":"","type":"uint160"},{"internalType":"int24","name":"","type":"int24"},{"internalType":"bytes","name":"","type":"bytes"}],"name":"afterInitialize","outputs":[{"internalType":"bytes4","name":"","type":"bytes4"}],"stateMutability":"nonpayable","type":"function"},{"inputs":[{"internalType":"address","name":"","type":"address"},{"components":[{"internalType":"address","name":"poolDeployer","type":"address"},{"internalType":"address","name":"hooks","type":"address"},{"internalType":"Currency","name":"currency0","type":"address"},{"internalType":"Currency","name":"currency1","type":"address"},{"internalType":"uint24","name":"fee","type":"uint24"},{"internalType":"int24","name":"tickSpacing","type":"int24"}],"internalType":"struct PoolKey","name":"","type":"tuple"},{"components":[{"internalType":"int24","name":"tickLower","type":"int24"},{"internalType":"int24","name":"tickUpper","type":"int24"},{"internalType":"int256","name":"liquidityDelta","type":"int256"}],"internalType":"struct IPoolManager.ModifyPositionParams","name":"","type":"tuple"},{"internalType":"BalanceDelta","name":"","type":"int256"},{"internalType":"bytes","name":"","type":"bytes"}],"name":"afterModifyPosition","outputs":[{"internalType":"bytes4","name":"","type":"bytes4"}],"stateMutability":"nonpayable","type":"function"},{"inputs":[{"internalType":"address","name":"","type":"address"},{"components":[{"internalType":"address","name":"poolDeployer","type":"address"},{"internalType":"address","name":"hooks","type":"address"},{"internalType":"Currency","name":"currency0","type":"address"},{"internalType":"Currency","name":"currency1","type":"address"},{"internalType":"uint24","name":"fee","type":"uint24"},{"internalType":"int24","name":"tickSpacing","type":"int24"}],"internalType":"struct PoolKey","name":"","type":"tuple"},{"components":[{"internalType":"bool","name":"zeroForOne","type":"bool"},{"internalType":"int256","name":"amountSpecified","type":"int256"},{"internalType":"uint160","name":"sqrtPriceLimitX96","type":"uint160"}],"internalType":"struct IPoolManager.SwapParams","name":"","type":"tuple"},{"internalType":"BalanceDelta","name":"","type":"int256"},{"internalType":"bytes","name":"","type":"bytes"}],"name":"afterSwap","outputs":[{"internalType":"bytes4","name":"","type":"bytes4"}],"stateMutability":"nonpayable","type":"function"},{"inputs":[{"internalType":"address","name":"","type":"address"},{"components":[{"internalType":"address","name":"poolDeployer","type":"address"},{"internalType":"address","name":"hooks","type":"address"},{"internalType":"Currency","name":"currency0","type":"address"},{"internalType":"Currency","name":"currency1","type":"address"},{"internalType":"uint24","name":"fee","type":"uint24"},{"internalType":"int24","name":"tickSpacing","type":"int24"}],"internalType":"struct PoolKey","name":"","type":"tuple"},{"internalType":"uint256","name":"","type":"uint256"},{"internalType":"uint256","name":"","type":"uint256"},{"internalType":"bytes","name":"","type":"bytes"}],"name":"beforeDonate","outputs":[{"internalType":"bytes4","name":"","type":"bytes4"}],"stateMutability":"nonpayable","type":"function"},{"inputs":[{"internalType":"address","name":"","type":"address"},{"components":[{"internalType":"address","name":"poolDeployer","type":"address"},{"internalType":"address","name":"hooks","type":"address"},{"internalType":"Currency","name":"currency0","type":"address"},{"internalType":"Currency","name":"currency1","type":"address"},{"internalType":"uint24","name":"fee","type":"uint24"},{"internalType":"int24","name":"tickSpacing","type":"int24"}],"internalType":"struct PoolKey","name":"","type":"tuple"},{"internalType":"uint160","name":"","type":"uint160"},{"internalType":"bytes","name":"","type":"bytes"}],"name":"beforeInitialize","outputs":[{"internalType":"bytes4","name":"","type":"bytes4"}],"stateMutability":"nonpayable","type":"function"},{"inputs":[{"internalType":"address","name":"","type":"address"},{"components":[{"internalType":"address","name":"poolDeployer","type":"address"},{"internalType":"address","name":"hooks","type":"address"},{"internalType":"Currency","name":"currency0","type":"address"},{"internalType":"Currency","name":"currency1","type":"address"},{"internalType":"uint24","name":"fee","type":"uint24"},{"internalType":"int24","name":"tickSpacing","type":"int24"}],"internalType":"struct PoolKey","name":"","type":"tuple"},{"components":[{"internalType":"int24","name":"tickLower","type":"int24"},{"internalType":"int24","name":"tickUpper","type":"int24"},{"internalType":"int256","name":"liquidityDelta","type":"int256"}],"internalType":"struct IPoolManager.ModifyPositionParams","name":"","type":"tuple"},{"internalType":"bytes","name":"","type":"bytes"}],"name":"beforeModifyPosition","outputs":[{"internalType":"bytes4","name":"","type":"bytes4"}],"stateMutability":"nonpayable","type":"function"},{"inputs":[{"internalType":"address","name":"","type":"address"},{"components":[{"internalType":"address","name":"poolDeployer","type":"address"},{"internalType":"address","name":"hooks","type":"address"},{"internalType":"Currency","name":"currency0","type":"address"},{"internalType":"Currency","name":"currency1","type":"address"},{"internalType":"uint24","name":"fee","type":"uint24"},{"internalType":"int24","name":"tickSpacing","type":"int24"}],"internalType":"struct PoolKey","name":"","type":"tuple"},{"components":[{"internalType":"bool","name":"zeroForOne","type":"bool"},{"internalType":"int256","name":"amountSpecified","type":"int256"},{"internalType":"uint160","name":"sqrtPriceLimitX96","type":"uint160"}],"internalType":"struct IPoolManager.SwapParams","name":"","type":"tuple"},{"internalType":"bytes","name":"","type":"bytes"}],"name":"beforeSwap","outputs":[{"internalType":"bytes4","name":"","type":"bytes4"}],"stateMutability":"nonpayable","type":"function"},{"inputs":[{"internalType":"uint256","name":"loanId","type":"uint256"}],"name":"declareDefault","outputs":[],"stateMutability":"nonpayable","type":"function"},{"inputs":[{"internalType":"uint256","name":"requestId","type":"uint256"},{"internalType":"address","name":"signal","type":"address"},{"internalType":"uint256","name":"root","type":"uint256"},{"internalType":"uint256","name":"nullifierHash","type":"uint256"},{"internalType":"uint256[8]","name":"proof","type":"uint256[8]"}],"name":"fundLoanRequest","outputs":[],"stateMutability":"nonpayable","type":"function"},{"inputs":[],"name":"getHookPermissions","outputs":[{"components":[{"internalType":"bool","name":"beforeInitialize","type":"bool"},{"internalType":"bool","name":"afterInitialize","type":"bool"},{"internalType":"bool","name":"beforeModifyPosition","type":"bool"},{"internalType":"bool","name":"afterModifyPosition","type":"bool"},{"internalType":"bool","name":"beforeSwap","type":"bool"},{"internalType":"bool","name":"afterSwap","type":"bool"},{"internalType":"bool","name":"beforeDonate","type":"bool"},{"internalType":"bool","name":"afterDonate","type":"bool"}],"internalType":"struct Hooks.Permissions","name":"","type":"tuple"}],"stateMutability":"pure","type":"function"},{"inputs":[{"internalType":"address","name":"","type":"address"}],"name":"isCollateralAllowed","outputs":[{"internalType":"bool","name":"","type":"bool"}],"stateMutability":"view","type":"function"},{"inputs":[{"internalType":"uint256","name":"","type":"uint256"}],"name":"isNullifierBlacklisted","outputs":[{"internalType":"bool","name":"","type":"bool"}],"stateMutability":"view","type":"function"},{"inputs":[{"internalType":"uint256","name":"","type":"uint256"}],"name":"loanRequests","outputs":[{"internalType":"uint256","name":"requestId","type":"uint256"},{"internalType":"address","name":"borrower","type":"address"},{"internalType":"address","name":"collateralToken","type":"address"},{"internalType":"uint256","name":"collateralAmount","type":"uint256"},{"internalType":"uint256","name":"quoteAmountRequested","type":"uint256"},{"internalType":"uint256","name":"maturityTimestamp","type":"uint256"},{"internalType":"uint256","name":"borrowerNullifier","type":"uint256"},{"internalType":"enum LendingRepoMVP_Hook.RequestStatus","name":"status","type":"uint8"}],"stateMutability":"view","type":"function"},{"inputs":[],"name":"nextLoanId","outputs":[{"internalType":"uint256","name":"","type":"uint256"}],"stateMutability":"view","type":"function"},{"inputs":[],"name":"nextRequestId","outputs":[{"internalType":"uint256","name":"","type":"uint256"}],"stateMutability":"view","type":"function"},{"inputs":[],"name":"owner","outputs":[{"internalType":"address","name":"","type":"address"}],"stateMutability":"view","type":"function"},{"inputs":[{"internalType":"uint256","name":"_nullifierHash","type":"uint256"}],"name":"ownerAddToBlacklist","outputs":[],"stateMutability":"nonpayable","type":"function"},{"inputs":[{"internalType":"address","name":"token","type":"address"},{"internalType":"bool","name":"allowed","type":"bool"}],"name":"ownerAllowCollateral","outputs":[],"stateMutability":"nonpayable","type":"function"},{"inputs":[{"internalType":"uint256","name":"_nullifierHash","type":"uint256"}],"name":"ownerRemoveFromBlacklist","outputs":[],"stateMutability":"nonpayable","type":"function"},{"inputs":[],"name":"poolKey","outputs":[{"internalType":"address","name":"poolDeployer","type":"address"},{"internalType":"address","name":"hooks","type":"address"},{"internalType":"Currency","name":"currency0","type":"address"},{"internalType":"Currency","name":"currency1","type":"address"},{"internalType":"uint24","name":"fee","type":"uint24"},{"internalType":"int24","name":"tickSpacing","type":"int24"}],"stateMutability":"view","type":"function"},{"inputs":[],"name":"poolManager","outputs":[{"internalType":"contract IPoolManager","name":"","type":"address"}],"stateMutability":"view","type":"function"},{"inputs":[],"name":"quoteToken","outputs":[{"internalType":"address","name":"","type":"address"}],"stateMutability":"view","type":"function"},{"inputs":[],"name":"renounceOwnership","outputs":[],"stateMutability":"nonpayable","type":"function"},{"inputs":[{"internalType":"uint256","name":"loanId","type":"uint256"}],"name":"repayLoan","outputs":[],"stateMutability":"nonpayable","type":"function"},{"inputs":[{"internalType":"address","name":"collateralToken","type":"address"},{"internalType":"uint256","name":"collateralAmount","type":"uint256"},{"internalType":"uint256","name":"quoteAmountRequested","type":"uint256"},{"internalType":"uint256","name":"maturityTimestamp","type":"uint256"},{"internalType":"address","name":"signal","type":"address"},{"internalType":"uint256","name":"root","type":"uint256"},{"internalType":"uint256","name":"nullifierHash","type":"uint256"},{"internalType":"uint256[8]","name":"proof","type":"uint256[8]"}],"name":"requestLoan","outputs":[],"stateMutability":"nonpayable","type":"function"},{"inputs":[{"internalType":"address","name":"newOwner","type":"address"}],"name":"transferOwnership","outputs":[],"stateMutability":"nonpayable","type":"function"},{"inputs":[],"name":"worldIdRouter","outputs":[{"internalType":"contract IWorldID","name":"","type":"address"}],"stateMutability":"view","type":"function"}],"evm":{"bytecode":{"linkReferences":{},"object":"60e034620001a557601f6200215638819003918201601f19168301916001600160401b03831184841017620001aa57808492608094604052833981010312620001a55780516001600160a01b038082168203620001a5576020830151918183168303620001a55781906200008460606200007c60408801620001c0565b9601620001c0565b90608052169081156200018c57600080546001600160a01b03198116841782556040519391908316907f8be0079c531659141344cd1fd0a4f28419497f9722a3daafe3b4186f6b6457e09080a3600160035560016005558316156200013f575060a05260c052604051611f809081620001d68239608051816102dc015260a051818181610b4a01528181610c9f01528181610d0c01526116d0015260c0518181816105b401528181610dbd01528181610e4101526116140152f35b62461bcd60e51b815260206004820152602260248201527f51756f746520746f6b656e2063616e6e6f74206265207a65726f206164647265604482015261737360f01b6064820152608490fd5b604051631e4fbdf760e01b815260006004820152602490fd5b600080fd5b634e487b7160e01b600052604160045260246000fd5b51906001600160a01b0382168203620001a55756fe608080604052600436101561001357600080fd5b60003560e01c9081630127e45614611b3857508063182148ef14611ad65780631e48c0cb14611638578063217a4b70146115f457806323962ace1461156e57806344577bea1461153157806344b94efc146114b157806347126f62146113fb57806352494c9b146113d557806355e1172d146113015780636a84a985146112e3578063715018a61461128a57806387c514591461126c5780638da5cb5b1461124557806390cef53c14610c2d5780639f11057614610b6e5780639f50b66d14610b2a578063a17bbfbc146108c5578063ab7b1c891461051a578063b7f69163146104e9578063c1ef3c4b146104ab578063c4e833ce146103d0578063cb06732014610391578063d1b332f414610300578063dc4c90d3146102bc578063df5796811461027e578063df991fd914610240578063f2fde38b146101a15763fc8060031461015e57600080fd5b3461019c5761016c36611c51565b50505050505060206040517ffc806003000000000000000000000000000000000000000000000000000000008152f35b600080fd5b3461019c57602036600319011261019c576101ba611b73565b6101c2611d0e565b6001600160a01b0380911690811561020f57600054826001600160a01b0319821617600055167f8be0079c531659141344cd1fd0a4f28419497f9722a3daafe3b4186f6b6457e0600080a3005b60246040517f1e4fbdf700000000000000000000000000000000000000000000000000000000815260006004820152fd5b3461019c5761024e36611cb5565b50505050505060206040517fdf991fd9000000000000000000000000000000000000000000000000000000008152f35b3461019c5761028c36611cb5565b50505050505060206040517fdf579681000000000000000000000000000000000000000000000000000000008152f35b3461019c57600036600319011261019c5760206040516001600160a01b037f0000000000000000000000000000000000000000000000000000000000000000168152f35b3461019c57602036600319011261019c57600435600052600260205261010060406000208054906001600160a01b03908160018201541691600282015416600382015460048301549060058401549260ff600760068701549601541695604051978852602088015260408701526060860152608085015260a084015260c083015261038a81611c31565b60e0820152f35b3461019c57602036600319011261019c576001600160a01b036103b2611b73565b166000526006602052602060ff604060002054166040519015158152f35b3461019c57600036600319011261019c57600060e06040516103f181611d52565b8281528260208201528260408201528260608201528260808201528260a08201528260c0820152015261010060405161042981611d52565b600081526020810190600182526040810190600082526060810160008152608082016000815260a08301916000835260e060c0850194600086520194600086526040519660008852511515602088015251151560408701525115156060860152511515608085015251151560a084015251151560c083015251151560e0820152f35b3461019c576104b936611c51565b50505050505060206040517fc1ef3c4b000000000000000000000000000000000000000000000000000000008152f35b3461019c57602036600319011261019c576004356000526001602052602060ff604060002054166040519015158152f35b3461019c5760208060031936011261019c5760043590816000526004815260406000209061054a82541515611e10565b600382016001600160a01b039081815416330361088157600a84019361057d60ff86541661057781611c31565b15611e5b565b60078101544211610817576006810180546040516323b872dd60e01b815233600482015230602482015260448101919091529093907f000000000000000000000000000000000000000000000000000000000000000082169086816064816000865af190811561073f576000916107fa575b50156107ab576002830154945460405163a9059cbb60e01b8082529684166001600160a01b0316600482015260248101919091529086908290816000816044810103925af190811561073f5760009161078e575b501561074b5760048281015493546005909301546040519586529282166001600160a01b03169085015260248401919091528391839116816000816044810103925af190811561073f57600091610712575b50156106ce5750805460ff191660011790557f9a7851747cd7ffb3fe0a32caf3da48b31f27cebe131267051640f8b72fc47186600080a2005b6064906040519062461bcd60e51b82526004820152601860248201527f436f6c6c61746572616c2072657475726e206661696c656400000000000000006044820152fd5b6107329150823d8411610738575b61072a8183611d83565b810190611dbb565b84610695565b503d610720565b6040513d6000823e3d90fd5b6064856040519062461bcd60e51b825280600483015260248201527f4c656e646572207072696e636970616c207472616e73666572206661696c65646044820152fd5b6107a59150863d88116107385761072a8183611d83565b88610643565b6084866040519062461bcd60e51b82526004820152602260248201527f426f72726f7765722072657061796d656e74207472616e73666572206661696c604482015261195960f21b6064820152fd5b6108119150873d89116107385761072a8183611d83565b896105ef565b6084846040519062461bcd60e51b82526004820152603860248201527f52657061796d656e742070617374206d61747572697479206e6f7420616c6c6f60448201527f7765642028757365206465636c61726544656661756c742900000000000000006064820152fd5b6064836040519062461bcd60e51b82526004820152601760248201527f4f6e6c7920626f72726f7765722063616e2072657061790000000000000000006044820152fd5b3461019c573660031901610120811261019c5760c01361019c576001600160a01b0360c4358181160361019c5760e4358060020b0361019c576101043567ffffffffffffffff811161019c5761091f903690600401611b9f565b5050610929611da5565b8130911603610ae657600854818116610aa2576004359082821680920361019c576001600160a01b0319918260075416176007558183610967611da5565b169116176008556044359082821680920361019c57819060095416176009556064359180831680930361019c57600a54926084359062ffffff82169081830361019c5760a435948560020b9384870361019c577f50610696e9fe8816208f4f19f070f264b06b4ad02c040485c0e5fa4ef433208a97837fffffffffffff000000000000000000000000000000000000000000000000000076ffffff000000000000000000000000000000000000000060c09a60b81b79ffffff0000000000000000000000000000000000000000000000169460a01b169216171717600a556040519480610a52611b73565b168652610a5d611b89565b16602086015260408501526060840152608083015260a0820152a160206040517fa17bbfbc000000000000000000000000000000000000000000000000000000008152f35b606460405162461bcd60e51b815260206004820152601360248201527f506f6f6c4b657920616c726561647920736574000000000000000000000000006044820152fd5b606460405162461bcd60e51b815260206004820152601460248201527f496e76616c696420686f6f6b20616464726573730000000000000000000000006044820152fd5b3461019c57600036600319011261019c5760206040516001600160a01b037f0000000000000000000000000000000000000000000000000000000000000000168152f35b3461019c57602036600319011261019c57600435610b8a611d0e565b610b95811515611ea6565b80600052600160205260ff6040600020541615610be957806000526001602052604060002060ff1981541690557f31c881e4e925d1768cc34e510541d44008b23b46a60e3027463f39c50658c163600080a2005b606460405162461bcd60e51b815260206004820152600f60248201527f4e6f7420626c61636b6c697374656400000000000000000000000000000000006044820152fd5b3461019c5761018036600319011261019c57610c47611b89565b366101841161019c5760043560005260026020526040600020908154156112015760ff600783015416610c7981611c31565b6111bd57606435600052600160205260ff6040600020541661116d576001600160a01b037f0000000000000000000000000000000000000000000000000000000000000000163b1561019c576001600160a01b036040519163fa0795fb60e01b83521660048201526044356024820152606435604482015261010060846064830137600081610164816001600160a01b037f0000000000000000000000000000000000000000000000000000000000000000165afa908161115e575b50610d8d57608460405162461bcd60e51b815260206004820152602660248201527f4c656e64696e675265706f4d56503a20496e76616c696420576f726c6420494460448201526510383937b7b360d11b6064820152fd5b6004818101546040516323b872dd60e01b81523392810192909252306024830152604482015260208160648160007f00000000000000000000000000000000000000000000000000000000000000006001600160a01b03165af190811561073f5760009161113f575b50156110f057600181015460048083015460405163a9059cbb60e01b81526001600160a01b039093169183019190915260248201526020818060448101038160006001600160a01b037f0000000000000000000000000000000000000000000000000000000000000000165af190811561073f576000916110d1575b50156110685760078101805460ff1916600117905560055490610e9482611dd3565b6005556001600160a01b036001820154166001600160a01b0360028301541660038301546004840154600585015490600686015492604051948561016081011067ffffffffffffffff6101608801111761105257610ff496610160870160405289875260043560208801523360408801526060870152608086015260a085015260c084015260e08301526101008201526064356101208201526000610140820152836000526004602052600a6101406040600020928051845560208101516001850155600284016001600160a01b03604083015116906001600160a01b03199182825416179055600385016001600160a01b036060840151168282541617905560048501906001600160a01b036080840151169082541617905560a0810151600585015560c0810151600685015560e0810151600785015561010081015160088501556101208101516009850155015191610fee83611c31565b01611df8565b6001600160a01b0360018201541690600560048201549101549060405192835260208301526040820152606435606082015233917f1c6136bab484edb34e6d2c2248d3e3fabe9a15aa087ed9ad287f76a1d20e6b43608060043593a4005b634e487b7160e01b600052604160045260246000fd5b608460405162461bcd60e51b8152602060048201526024808201527f426f72726f7765722071756f746520746f6b656e207472616e7366657220666160448201527f696c6564000000000000000000000000000000000000000000000000000000006064820152fd5b6110ea915060203d6020116107385761072a8183611d83565b82610e72565b608460405162461bcd60e51b815260206004820152602260248201527f4c656e6465722071756f746520746f6b656e207472616e73666572206661696c604482015261195960f21b6064820152fd5b611158915060203d6020116107385761072a8183611d83565b82610df6565b61116790611d6f565b82610d35565b608460405162461bcd60e51b815260206004820152602360248201527f4c656e64696e675265706f4d56503a205573657220697320626c61636b6c69736044820152621d195960ea1b6064820152fd5b606460405162461bcd60e51b815260206004820152601360248201527f52657175657374206e6f742070656e64696e67000000000000000000000000006044820152fd5b606460405162461bcd60e51b815260206004820152601160248201527f52657175657374206e6f7420666f756e640000000000000000000000000000006044820152fd5b3461019c57600036600319011261019c5760206001600160a01b0360005416604051908152f35b3461019c57600036600319011261019c576020600554604051908152f35b3461019c57600036600319011261019c576112a3611d0e565b60006001600160a01b0381546001600160a01b031981168355167f8be0079c531659141344cd1fd0a4f28419497f9722a3daafe3b4186f6b6457e08280a3005b3461019c57600036600319011261019c576020600354604051908152f35b3461019c57602036600319011261019c57600435806000526004602052604060002061132f81541515611e10565b600a81019081549061134760ff831661057781611c31565b60078101544211156113915761136a92600260089360ff19161790550154611ef1565b7f92662650c03ca1104869b8299de9e1d536c446dcf9a58e5097696a74fc4c21fc600080a2005b606460405162461bcd60e51b815260206004820152601660248201527f4c6f616e206e6f742070617374206d61747572697479000000000000000000006044820152fd5b3461019c57602036600319011261019c576113ee611d0e565b6113f9600435611ef1565b005b3461019c57602036600319011261019c57600435600052600460205261016060406000208054906001810154906001600160a01b0380600283015416908060038401541690600484015416600584015460068501549160078601549360088701549560ff600a60098a015499015416986040519a8b5260208b015260408a01526060890152608088015260a087015260c086015260e08501526101008401526101208301526114a981611c31565b610140820152f35b3461019c57604036600319011261019c576114ca611b73565b6024359081151580920361019c5760206001600160a01b037fe7b5ed3c2b0c67f2d4e8978e894ef5549cf69733dec0d3bcd515c7ddb03da7679261150c611d0e565b16928360005260068252604060002060ff1981541660ff8316179055604051908152a2005b3461019c5761153f36611bcd565b505050505060206040517f44577bea000000000000000000000000000000000000000000000000000000008152f35b3461019c5761012036600319011261019c57611588611b73565b5060c036602319011261019c5760e4356001600160a01b0381160361019c576101043567ffffffffffffffff811161019c576115c8903690600401611b9f565b505060206040517f23962ace000000000000000000000000000000000000000000000000000000008152f35b3461019c57600036600319011261019c5760206040516001600160a01b037f0000000000000000000000000000000000000000000000000000000000000000168152f35b3461019c576101e036600319011261019c57611652611b73565b602490813591604490813593606494853594608435956001600160a01b039283881680980361019c5760c43592366101e41161019c578416948560005260209860068a5260ff6040600020541615611a95578115611a2e5782156119c75742841115611986578460005260018a5260ff6040600020541661193957857f000000000000000000000000000000000000000000000000000000000000000016803b1561019c57886101648b936000938f60e4610100918c604051998a98899763fa0795fb60e01b8952600489015260a435908801528601528401375afa908161192a575b5061178a576084896510383937b7b360d11b8c7f4c656e64696e675265706f4d56503a20496e76616c696420576f726c642049448c60268d6040519662461bcd60e51b88526004880152860152840152820152fd5b6040516323b872dd60e01b81523360048201523060248201526044810182905289908b908a908a90848160648160008f5af190811561073f5760009161190d575b50156118cd5750505061188d600354966117e488611dd3565b6003556007888888604051946117f986611d52565b8386528d888701903382526040880190815260608801918b835260808901938d855260a08a0195865260c08a0196875260e08a01976000895260005260028c52604060002099518a558060018b01925116916001600160a01b0319928382541617905560028a01925116908254161790555160038701555160048601555160058501555160068401555191610fee83611c31565b6040519687528601526040850152606084015260808301527fd2a896618b1b3a967d51dc24f18c1b5bc4a37f8707366201b290aadda6ff5bcc60a03393a3005b8391601a7f436f6c6c61746572616c207472616e73666572206661696c6564000000000000926040519462461bcd60e51b86526004860152840152820152fd5b6119249150853d87116107385761072a8183611d83565b8b6117cb565b61193390611d6f565b8b611735565b60848a621d195960ea1b8d7f4c656e64696e675265706f4d56503a205573657220697320626c61636b6c69738d60238e6040519662461bcd60e51b88526004880152860152840152820152fd5b8a8a7f4d61747572697479206d75737420626520696e207468652066757475726500008b601e8c6040519462461bcd60e51b86526004860152840152820152fd5b60848a7f65000000000000000000000000000000000000000000000000000000000000008d7f52657175657374656420616d6f756e74206d75737420626520706f73697469768d60218e6040519662461bcd60e51b88526004880152860152840152820152fd5b60848a7f76650000000000000000000000000000000000000000000000000000000000008d7f436f6c6c61746572616c20616d6f756e74206d75737420626520706f736974698d60228e6040519662461bcd60e51b88526004880152860152840152820152fd5b8a8a7f436f6c6c61746572616c206e6f7420616c6c6f776564000000000000000000008b60168c6040519462461bcd60e51b86526004860152840152820152fd5b3461019c57600036600319011261019c5760c06001600160a01b038060075416908060085416908060095416600a5492604051948552602085015260408401528116606083015262ffffff8160a01c16608083015260b81c60020b60a0820152f35b3461019c57602090611b4936611bcd565b50505050507f0127e456000000000000000000000000000000000000000000000000000000008152f35b600435906001600160a01b038216820361019c57565b602435906001600160a01b038216820361019c57565b9181601f8401121561019c5782359167ffffffffffffffff831161019c576020838186019501011161019c57565b9061016060031983011261019c576004356001600160a01b038116810361019c579160c060231982011261019c57602491606060e31983011261019c5760e491610144359067ffffffffffffffff821161019c57611c2d91600401611b9f565b9091565b60031115611c3b57565b634e487b7160e01b600052602160045260246000fd5b61018060031982011261019c576004356001600160a01b038116810361019c579160c060231983011261019c57602491606060e31982011261019c5760e4916101443591610164359067ffffffffffffffff821161019c57611c2d91600401611b9f565b61014060031982011261019c576004356001600160a01b038116810361019c579160c060231983011261019c5760249160e435916101043591610124359067ffffffffffffffff821161019c57611c2d91600401611b9f565b6001600160a01b03600054163303611d2257565b60246040517f118cdaa7000000000000000000000000000000000000000000000000000000008152336004820152fd5b610100810190811067ffffffffffffffff82111761105257604052565b67ffffffffffffffff811161105257604052565b90601f8019910116810190811067ffffffffffffffff82111761105257604052565b6024356001600160a01b038116810361019c5790565b9081602091031261019c5751801515810361019c5790565b6000198114611de25760010190565b634e487b7160e01b600052601160045260246000fd5b90611e0281611c31565b60ff80198354169116179055565b15611e1757565b606460405162461bcd60e51b815260206004820152600e60248201527f4c6f616e206e6f7420666f756e640000000000000000000000000000000000006044820152fd5b15611e6257565b606460405162461bcd60e51b815260206004820152600f60248201527f4c6f616e206e6f742061637469766500000000000000000000000000000000006044820152fd5b15611ead57565b606460405162461bcd60e51b815260206004820152601160248201527f496e76616c6964206e756c6c69666965720000000000000000000000000000006044820152fd5b611efc811515611ea6565b8060005260016020526040600020805460ff811615611f1a57505050565b60ff191660011790557f4e15c89d8486414c833534db84b7ce2dc7c8efdb204e4ca8912299ed0629e4c7600080a256fea2646970667358221220c8c8e155f0bcd327e0f4f19308b21abc50ebcba3f652a72342ef4d9954c1441164736f6c63430008140033","opcodes":"PUSH1 0xE0 CALLVALUE PUSH3 0x1A5 JUMPI PUSH1 0x1F PUSH3 0x2156 CODESIZE DUP2 SWAP1 SUB SWAP2 DUP3 ADD PUSH1 0x1F NOT AND DUP4 ADD SWAP2 PUSH1 0x1 PUSH1 0x1 PUSH1 0x40 SHL SUB DUP4 GT DUP5 DUP5 LT OR PUSH3 0x1AA JUMPI DUP1 DUP5 SWAP3 PUSH1 0x80 SWAP5 PUSH1 0x40 MSTORE DUP4 CODECOPY DUP2 ADD SUB SLT PUSH3 0x1A5 JUMPI DUP1 MLOAD PUSH1 0x1 PUSH1 0x1 PUSH1 0xA0 SHL SUB DUP1 DUP3 AND DUP3 SUB PUSH3 0x1A5 JUMPI PUSH1 0x20 DUP4 ADD MLOAD SWAP2 DUP2 DUP4 AND DUP4 SUB PUSH3 0x1A5 JUMPI DUP2 SWAP1 PUSH3 0x84 PUSH1 0x60 PUSH3 0x7C PUSH1 0x40 DUP9 ADD PUSH3 0x1C0 JUMP JUMPDEST SWAP7 ADD PUSH3 0x1C0 JUMP JUMPDEST SWAP1 PUSH1 0x80 MSTORE AND SWAP1 DUP2 ISZERO PUSH3 0x18C JUMPI PUSH1 0x0 DUP1 SLOAD PUSH1 0x1 PUSH1 0x1 PUSH1 0xA0 SHL SUB NOT DUP2 AND DUP5 OR DUP3 SSTORE PUSH1 0x40 MLOAD SWAP4 SWAP2 SWAP1 DUP4 AND SWAP1 PUSH32 0x8BE0079C531659141344CD1FD0A4F28419497F9722A3DAAFE3B4186F6B6457E0 SWAP1 DUP1 LOG3 PUSH1 0x1 PUSH1 0x3 SSTORE PUSH1 0x1 PUSH1 0x5 SSTORE DUP4 AND ISZERO PUSH3 0x13F JUMPI POP PUSH1 0xA0 MSTORE PUSH1 0xC0 MSTORE PUSH1 0x40 MLOAD PUSH2 0x1F80 SWAP1 DUP2 PUSH3 0x1D6 DUP3 CODECOPY PUSH1 0x80 MLOAD DUP2 PUSH2 0x2DC ADD MSTORE PUSH1 0xA0 MLOAD DUP2 DUP2 DUP2 PUSH2 0xB4A ADD MSTORE DUP2 DUP2 PUSH2 0xC9F ADD MSTORE DUP2 DUP2 PUSH2 0xD0C ADD MSTORE PUSH2 0x16D0 ADD MSTORE PUSH1 0xC0 MLOAD DUP2 DUP2 DUP2 PUSH2 0x5B4 ADD MSTORE DUP2 DUP2 PUSH2 0xDBD ADD MSTORE DUP2 DUP2 PUSH2 0xE41 ADD MSTORE PUSH2 0x1614 ADD MSTORE RETURN JUMPDEST PUSH3 0x461BCD PUSH1 0xE5 SHL DUP2 MSTORE PUSH1 0x20 PUSH1 0x4 DUP3 ADD MSTORE PUSH1 0x22 PUSH1 0x24 DUP3 ADD MSTORE PUSH32 0x51756F746520746F6B656E2063616E6E6F74206265207A65726F206164647265 PUSH1 0x44 DUP3 ADD MSTORE PUSH2 0x7373 PUSH1 0xF0 SHL PUSH1 0x64 DUP3 ADD MSTORE PUSH1 0x84 SWAP1 REVERT JUMPDEST PUSH1 0x40 MLOAD PUSH4 0x1E4FBDF7 PUSH1 0xE0 SHL DUP2 MSTORE PUSH1 0x0 PUSH1 0x4 DUP3 ADD MSTORE PUSH1 0x24 SWAP1 REVERT JUMPDEST PUSH1 0x0 DUP1 REVERT JUMPDEST PUSH4 0x4E487B71 PUSH1 0xE0 SHL PUSH1 0x0 MSTORE PUSH1 0x41 PUSH1 0x4 MSTORE PUSH1 0x24 PUSH1 0x0 REVERT JUMPDEST MLOAD SWAP1 PUSH1 0x1 PUSH1 0x1 PUSH1 0xA0 SHL SUB DUP3 AND DUP3 SUB PUSH3 0x1A5 JUMPI JUMP INVALID PUSH1 0x80 DUP1 PUSH1 0x40 MSTORE PUSH1 0x4 CALLDATASIZE LT ISZERO PUSH2 0x13 JUMPI PUSH1 0x0 DUP1 REVERT JUMPDEST PUSH1 0x0 CALLDATALOAD PUSH1 0xE0 SHR SWAP1 DUP2 PUSH4 0x127E456 EQ PUSH2 0x1B38 JUMPI POP DUP1 PUSH4 0x182148EF EQ PUSH2 0x1AD6 JUMPI DUP1 PUSH4 0x1E48C0CB EQ PUSH2 0x1638 JUMPI DUP1 PUSH4 0x217A4B70 EQ PUSH2 0x15F4 JUMPI DUP1 PUSH4 0x23962ACE EQ PUSH2 0x156E JUMPI DUP1 PUSH4 0x44577BEA EQ PUSH2 0x1531 JUMPI DUP1 PUSH4 0x44B94EFC EQ PUSH2 0x14B1 JUMPI DUP1 PUSH4 0x47126F62 EQ PUSH2 0x13FB JUMPI DUP1 PUSH4 0x52494C9B EQ PUSH2 0x13D5 JUMPI DUP1 PUSH4 0x55E1172D EQ PUSH2 0x1301 JUMPI DUP1 PUSH4 0x6A84A985 EQ PUSH2 0x12E3 JUMPI DUP1 PUSH4 0x715018A6 EQ PUSH2 0x128A JUMPI DUP1 PUSH4 0x87C51459 EQ PUSH2 0x126C JUMPI DUP1 PUSH4 0x8DA5CB5B EQ PUSH2 0x1245 JUMPI DUP1 PUSH4 0x90CEF53C EQ PUSH2 0xC2D JUMPI DUP1 PUSH4 0x9F110576 EQ PUSH2 0xB6E JUMPI DUP1 PUSH4 0x9F50B66D EQ PUSH2 0xB2A JUMPI DUP1 PUSH4 0xA17BBFBC EQ PUSH2 0x8C5 JUMPI DUP1 PUSH4 0xAB7B1C89 EQ PUSH2 0x51A JUMPI DUP1 PUSH4 0xB7F69163 EQ PUSH2 0x4E9 JUMPI DUP1 PUSH4 0xC1EF3C4B EQ PUSH2 0x4AB JUMPI DUP1 PUSH4 0xC4E833CE EQ PUSH2 0x3D0 JUMPI DUP1 PUSH4 0xCB067320 EQ PUSH2 0x391 JUMPI DUP1 PUSH4 0xD1B332F4 EQ PUSH2 0x300 JUMPI DUP1 PUSH4 0xDC4C90D3 EQ PUSH2 0x2BC JUMPI DUP1 PUSH4 0xDF579681 EQ PUSH2 0x27E JUMPI DUP1 PUSH4 0xDF991FD9 EQ PUSH2 0x240 JUMPI DUP1 PUSH4 0xF2FDE38B EQ PUSH2 0x1A1 JUMPI PUSH4 0xFC806003 EQ PUSH2 0x15E JUMPI PUSH1 0x0 DUP1 REVERT JUMPDEST CALLVALUE PUSH2 0x19C JUMPI PUSH2 0x16C CALLDATASIZE PUSH2 0x1C51 JUMP JUMPDEST POP POP POP POP POP POP PUSH1 0x20 PUSH1 0x40 MLOAD PUSH32 0xFC80600300000000000000000000000000000000000000000000000000000000 DUP2 MSTORE RETURN JUMPDEST PUSH1 0x0 DUP1 REVERT JUMPDEST CALLVALUE PUSH2 0x19C JUMPI PUSH1 0x20 CALLDATASIZE PUSH1 0x3 NOT ADD SLT PUSH2 0x19C JUMPI PUSH2 0x1BA PUSH2 0x1B73 JUMP JUMPDEST PUSH2 0x1C2 PUSH2 0x1D0E JUMP JUMPDEST PUSH1 0x1 PUSH1 0x1 PUSH1 0xA0 SHL SUB DUP1 SWAP2 AND SWAP1 DUP2 ISZERO PUSH2 0x20F JUMPI PUSH1 0x0 SLOAD DUP3 PUSH1 0x1 PUSH1 0x1 PUSH1 0xA0 SHL SUB NOT DUP3 AND OR PUSH1 0x0 SSTORE AND PUSH32 0x8BE0079C531659141344CD1FD0A4F28419497F9722A3DAAFE3B4186F6B6457E0 PUSH1 0x0 DUP1 LOG3 STOP JUMPDEST PUSH1 0x24 PUSH1 0x40 MLOAD PUSH32 0x1E4FBDF700000000000000000000000000000000000000000000000000000000 DUP2 MSTORE PUSH1 0x0 PUSH1 0x4 DUP3 ADD MSTORE REVERT JUMPDEST CALLVALUE PUSH2 0x19C JUMPI PUSH2 0x24E CALLDATASIZE PUSH2 0x1CB5 JUMP JUMPDEST POP POP POP POP POP POP PUSH1 0x20 PUSH1 0x40 MLOAD PUSH32 0xDF991FD900000000000000000000000000000000000000000000000000000000 DUP2 MSTORE RETURN JUMPDEST CALLVALUE PUSH2 0x19C JUMPI PUSH2 0x28C CALLDATASIZE PUSH2 0x1CB5 JUMP JUMPDEST POP POP POP POP POP POP PUSH1 0x20 PUSH1 0x40 MLOAD PUSH32 0xDF57968100000000000000000000000000000000000000000000000000000000 DUP2 MSTORE RETURN JUMPDEST CALLVALUE PUSH2 0x19C JUMPI PUSH1 0x0 CALLDATASIZE PUSH1 0x3 NOT ADD SLT PUSH2 0x19C JUMPI PUSH1 0x20 PUSH1 0x40 MLOAD PUSH1 0x1 PUSH1 0x1 PUSH1 0xA0 SHL SUB PUSH32 0x0 AND DUP2 MSTORE RETURN JUMPDEST CALLVALUE PUSH2 0x19C JUMPI PUSH1 0x20 CALLDATASIZE PUSH1 0x3 NOT ADD SLT PUSH2 0x19C JUMPI PUSH1 0x4 CALLDATALOAD PUSH1 0x0 MSTORE PUSH1 0x2 PUSH1 0x20 MSTORE PUSH2 0x100 PUSH1 0x40 PUSH1 0x0 KECCAK256 DUP1 SLOAD SWAP1 PUSH1 0x1 PUSH1 0x1 PUSH1 0xA0 SHL SUB SWAP1 DUP2 PUSH1 0x1 DUP3 ADD SLOAD AND SWAP2 PUSH1 0x2 DUP3 ADD SLOAD AND PUSH1 0x3 DUP3 ADD SLOAD PUSH1 0x4 DUP4 ADD SLOAD SWAP1 PUSH1 0x5 DUP5 ADD SLOAD SWAP3 PUSH1 0xFF PUSH1 0x7 PUSH1 0x6 DUP8 ADD SLOAD SWAP7 ADD SLOAD AND SWAP6 PUSH1 0x40 MLOAD SWAP8 DUP9 MSTORE PUSH1 0x20 DUP9 ADD MSTORE PUSH1 0x40 DUP8 ADD MSTORE PUSH1 0x60 DUP7 ADD MSTORE PUSH1 0x80 DUP6 ADD MSTORE PUSH1 0xA0 DUP5 ADD MSTORE PUSH1 0xC0 DUP4 ADD MSTORE PUSH2 0x38A DUP2 PUSH2 0x1C31 JUMP JUMPDEST PUSH1 0xE0 DUP3 ADD MSTORE RETURN JUMPDEST CALLVALUE PUSH2 0x19C JUMPI PUSH1 0x20 CALLDATASIZE PUSH1 0x3 NOT ADD SLT PUSH2 0x19C JUMPI PUSH1 0x1 PUSH1 0x1 PUSH1 0xA0 SHL SUB PUSH2 0x3B2 PUSH2 0x1B73 JUMP JUMPDEST AND PUSH1 0x0 MSTORE PUSH1 0x6 PUSH1 0x20 MSTORE PUSH1 0x20 PUSH1 0xFF PUSH1 0x40 PUSH1 0x0 KECCAK256 SLOAD AND PUSH1 0x40 MLOAD SWAP1 ISZERO ISZERO DUP2 MSTORE RETURN JUMPDEST CALLVALUE PUSH2 0x19C JUMPI PUSH1 0x0 CALLDATASIZE PUSH1 0x3 NOT ADD SLT PUSH2 0x19C JUMPI PUSH1 0x0 PUSH1 0xE0 PUSH1 0x40 MLOAD PUSH2 0x3F1 DUP2 PUSH2 0x1D52 JUMP JUMPDEST DUP3 DUP2 MSTORE DUP3 PUSH1 0x20 DUP3 ADD MSTORE DUP3 PUSH1 0x40 DUP3 ADD MSTORE DUP3 PUSH1 0x60 DUP3 ADD MSTORE DUP3 PUSH1 0x80 DUP3 ADD MSTORE DUP3 PUSH1 0xA0 DUP3 ADD MSTORE DUP3 PUSH1 0xC0 DUP3 ADD MSTORE ADD MSTORE PUSH2 0x100 PUSH1 0x40 MLOAD PUSH2 0x429 DUP2 PUSH2 0x1D52 JUMP JUMPDEST PUSH1 0x0 DUP2 MSTORE PUSH1 0x20 DUP2 ADD SWAP1 PUSH1 0x1 DUP3 MSTORE PUSH1 0x40 DUP2 ADD SWAP1 PUSH1 0x0 DUP3 MSTORE PUSH1 0x60 DUP2 ADD PUSH1 0x0 DUP2 MSTORE PUSH1 0x80 DUP3 ADD PUSH1 0x0 DUP2 MSTORE PUSH1 0xA0 DUP4 ADD SWAP2 PUSH1 0x0 DUP4 MSTORE PUSH1 0xE0 PUSH1 0xC0 DUP6 ADD SWAP5 PUSH1 0x0 DUP7 MSTORE ADD SWAP5 PUSH1 0x0 DUP7 MSTORE PUSH1 0x40 MLOAD SWAP7 PUSH1 0x0 DUP9 MSTORE MLOAD ISZERO ISZERO PUSH1 0x20 DUP9 ADD MSTORE MLOAD ISZERO ISZERO PUSH1 0x40 DUP8 ADD MSTORE MLOAD ISZERO ISZERO PUSH1 0x60 DUP7 ADD MSTORE MLOAD ISZERO ISZERO PUSH1 0x80 DUP6 ADD MSTORE MLOAD ISZERO ISZERO PUSH1 0xA0 DUP5 ADD MSTORE MLOAD ISZERO ISZERO PUSH1 0xC0 DUP4 ADD MSTORE MLOAD ISZERO ISZERO PUSH1 0xE0 DUP3 ADD MSTORE RETURN JUMPDEST CALLVALUE PUSH2 0x19C JUMPI PUSH2 0x4B9 CALLDATASIZE PUSH2 0x1C51 JUMP JUMPDEST POP POP POP POP POP POP PUSH1 0x20 PUSH1 0x40 MLOAD PUSH32 0xC1EF3C4B00000000000000000000000000000000000000000000000000000000 DUP2 MSTORE RETURN JUMPDEST CALLVALUE PUSH2 0x19C JUMPI PUSH1 0x20 CALLDATASIZE PUSH1 0x3 NOT ADD SLT PUSH2 0x19C JUMPI PUSH1 0x4 CALLDATALOAD PUSH1 0x0 MSTORE PUSH1 0x1 PUSH1 0x20 MSTORE PUSH1 0x20 PUSH1 0xFF PUSH1 0x40 PUSH1 0x0 KECCAK256 SLOAD AND PUSH1 0x40 MLOAD SWAP1 ISZERO ISZERO DUP2 MSTORE RETURN JUMPDEST CALLVALUE PUSH2 0x19C JUMPI PUSH1 0x20 DUP1 PUSH1 0x3 NOT CALLDATASIZE ADD SLT PUSH2 0x19C JUMPI PUSH1 0x4 CALLDATALOAD SWAP1 DUP2 PUSH1 0x0 MSTORE PUSH1 0x4 DUP2 MSTORE PUSH1 0x40 PUSH1 0x0 KECCAK256 SWAP1 PUSH2 0x54A DUP3 SLOAD ISZERO ISZERO PUSH2 0x1E10 JUMP JUMPDEST PUSH1 0x3 DUP3 ADD PUSH1 0x1 PUSH1 0x1 PUSH1 0xA0 SHL SUB SWAP1 DUP2 DUP2 SLOAD AND CALLER SUB PUSH2 0x881 JUMPI PUSH1 0xA DUP5 ADD SWAP4 PUSH2 0x57D PUSH1 0xFF DUP7 SLOAD AND PUSH2 0x577 DUP2 PUSH2 0x1C31 JUMP JUMPDEST ISZERO PUSH2 0x1E5B JUMP JUMPDEST PUSH1 0x7 DUP2 ADD SLOAD TIMESTAMP GT PUSH2 0x817 JUMPI PUSH1 0x6 DUP2 ADD DUP1 SLOAD PUSH1 0x40 MLOAD PUSH4 0x23B872DD PUSH1 0xE0 SHL DUP2 MSTORE CALLER PUSH1 0x4 DUP3 ADD MSTORE ADDRESS PUSH1 0x24 DUP3 ADD MSTORE PUSH1 0x44 DUP2 ADD SWAP2 SWAP1 SWAP2 MSTORE SWAP1 SWAP4 SWAP1 PUSH32 0x0 DUP3 AND SWAP1 DUP7 DUP2 PUSH1 0x64 DUP2 PUSH1 0x0 DUP7 GAS CALL SWAP1 DUP2 ISZERO PUSH2 0x73F JUMPI PUSH1 0x0 SWAP2 PUSH2 0x7FA JUMPI JUMPDEST POP ISZERO PUSH2 0x7AB JUMPI PUSH1 0x2 DUP4 ADD SLOAD SWAP5 SLOAD PUSH1 0x40 MLOAD PUSH4 0xA9059CBB PUSH1 0xE0 SHL DUP1 DUP3 MSTORE SWAP7 DUP5 AND PUSH1 0x1 PUSH1 0x1 PUSH1 0xA0 SHL SUB AND PUSH1 0x4 DUP3 ADD MSTORE PUSH1 0x24 DUP2 ADD SWAP2 SWAP1 SWAP2 MSTORE SWAP1 DUP7 SWAP1 DUP3 SWAP1 DUP2 PUSH1 0x0 DUP2 PUSH1 0x44 DUP2 ADD SUB SWAP3 GAS CALL SWAP1 DUP2 ISZERO PUSH2 0x73F JUMPI PUSH1 0x0 SWAP2 PUSH2 0x78E JUMPI JUMPDEST POP ISZERO PUSH2 0x74B JUMPI PUSH1 0x4 DUP3 DUP2 ADD SLOAD SWAP4 SLOAD PUSH1 0x5 SWAP1 SWAP4 ADD SLOAD PUSH1 0x40 MLOAD SWAP6 DUP7 MSTORE SWAP3 DUP3 AND PUSH1 0x1 PUSH1 0x1 PUSH1 0xA0 SHL SUB AND SWAP1 DUP6 ADD MSTORE PUSH1 0x24 DUP5 ADD SWAP2 SWAP1 SWAP2 MSTORE DUP4 SWAP2 DUP4 SWAP2 AND DUP2 PUSH1 0x0 DUP2 PUSH1 0x44 DUP2 ADD SUB SWAP3 GAS CALL SWAP1 DUP2 ISZERO PUSH2 0x73F JUMPI PUSH1 0x0 SWAP2 PUSH2 0x712 JUMPI JUMPDEST POP ISZERO PUSH2 0x6CE JUMPI POP DUP1 SLOAD PUSH1 0xFF NOT AND PUSH1 0x1 OR SWAP1 SSTORE PUSH32 0x9A7851747CD7FFB3FE0A32CAF3DA48B31F27CEBE131267051640F8B72FC47186 PUSH1 0x0 DUP1 LOG2 STOP JUMPDEST PUSH1 0x64 SWAP1 PUSH1 0x40 MLOAD SWAP1 PUSH3 0x461BCD PUSH1 0xE5 SHL DUP3 MSTORE PUSH1 0x4 DUP3 ADD MSTORE PUSH1 0x18 PUSH1 0x24 DUP3 ADD MSTORE PUSH32 0x436F6C6C61746572616C2072657475726E206661696C65640000000000000000 PUSH1 0x44 DUP3 ADD MSTORE REVERT JUMPDEST PUSH2 0x732 SWAP2 POP DUP3 RETURNDATASIZE DUP5 GT PUSH2 0x738 JUMPI JUMPDEST PUSH2 0x72A DUP2 DUP4 PUSH2 0x1D83 JUMP JUMPDEST DUP2 ADD SWAP1 PUSH2 0x1DBB JUMP JUMPDEST DUP5 PUSH2 0x695 JUMP JUMPDEST POP RETURNDATASIZE PUSH2 0x720 JUMP JUMPDEST PUSH1 0x40 MLOAD RETURNDATASIZE PUSH1 0x0 DUP3 RETURNDATACOPY RETURNDATASIZE SWAP1 REVERT JUMPDEST PUSH1 0x64 DUP6 PUSH1 0x40 MLOAD SWAP1 PUSH3 0x461BCD PUSH1 0xE5 SHL DUP3 MSTORE DUP1 PUSH1 0x4 DUP4 ADD MSTORE PUSH1 0x24 DUP3 ADD MSTORE PUSH32 0x4C656E646572207072696E636970616C207472616E73666572206661696C6564 PUSH1 0x44 DUP3 ADD MSTORE REVERT JUMPDEST PUSH2 0x7A5 SWAP2 POP DUP7 RETURNDATASIZE DUP9 GT PUSH2 0x738 JUMPI PUSH2 0x72A DUP2 DUP4 PUSH2 0x1D83 JUMP JUMPDEST DUP9 PUSH2 0x643 JUMP JUMPDEST PUSH1 0x84 DUP7 PUSH1 0x40 MLOAD SWAP1 PUSH3 0x461BCD PUSH1 0xE5 SHL DUP3 MSTORE PUSH1 0x4 DUP3 ADD MSTORE PUSH1 0x22 PUSH1 0x24 DUP3 ADD MSTORE PUSH32 0x426F72726F7765722072657061796D656E74207472616E73666572206661696C PUSH1 0x44 DUP3 ADD MSTORE PUSH2 0x1959 PUSH1 0xF2 SHL PUSH1 0x64 DUP3 ADD MSTORE REVERT JUMPDEST PUSH2 0x811 SWAP2 POP DUP8 RETURNDATASIZE DUP10 GT PUSH2 0x738 JUMPI PUSH2 0x72A DUP2 DUP4 PUSH2 0x1D83 JUMP JUMPDEST DUP10 PUSH2 0x5EF JUMP JUMPDEST PUSH1 0x84 DUP5 PUSH1 0x40 MLOAD SWAP1 PUSH3 0x461BCD PUSH1 0xE5 SHL DUP3 MSTORE PUSH1 0x4 DUP3 ADD MSTORE PUSH1 0x38 PUSH1 0x24 DUP3 ADD MSTORE PUSH32 0x52657061796D656E742070617374206D61747572697479206E6F7420616C6C6F PUSH1 0x44 DUP3 ADD MSTORE PUSH32 0x7765642028757365206465636C61726544656661756C74290000000000000000 PUSH1 0x64 DUP3 ADD MSTORE REVERT JUMPDEST PUSH1 0x64 DUP4 PUSH1 0x40 MLOAD SWAP1 PUSH3 0x461BCD PUSH1 0xE5 SHL DUP3 MSTORE PUSH1 0x4 DUP3 ADD MSTORE PUSH1 0x17 PUSH1 0x24 DUP3 ADD MSTORE PUSH32 0x4F6E6C7920626F72726F7765722063616E207265706179000000000000000000 PUSH1 0x44 DUP3 ADD MSTORE REVERT JUMPDEST CALLVALUE PUSH2 0x19C JUMPI CALLDATASIZE PUSH1 0x3 NOT ADD PUSH2 0x120 DUP2 SLT PUSH2 0x19C JUMPI PUSH1 0xC0 SGT PUSH2 0x19C JUMPI PUSH1 0x1 PUSH1 0x1 PUSH1 0xA0 SHL SUB PUSH1 0xC4 CALLDATALOAD DUP2 DUP2 AND SUB PUSH2 0x19C JUMPI PUSH1 0xE4 CALLDATALOAD DUP1 PUSH1 0x2 SIGNEXTEND SUB PUSH2 0x19C JUMPI PUSH2 0x104 CALLDATALOAD PUSH8 0xFFFFFFFFFFFFFFFF DUP2 GT PUSH2 0x19C JUMPI PUSH2 0x91F SWAP1 CALLDATASIZE SWAP1 PUSH1 0x4 ADD PUSH2 0x1B9F JUMP JUMPDEST POP POP PUSH2 0x929 PUSH2 0x1DA5 JUMP JUMPDEST DUP2 ADDRESS SWAP2 AND SUB PUSH2 0xAE6 JUMPI PUSH1 0x8 SLOAD DUP2 DUP2 AND PUSH2 0xAA2 JUMPI PUSH1 0x4 CALLDATALOAD SWAP1 DUP3 DUP3 AND DUP1 SWAP3 SUB PUSH2 0x19C JUMPI PUSH1 0x1 PUSH1 0x1 PUSH1 0xA0 SHL SUB NOT SWAP2 DUP3 PUSH1 0x7 SLOAD AND OR PUSH1 0x7 SSTORE DUP2 DUP4 PUSH2 0x967 PUSH2 0x1DA5 JUMP JUMPDEST AND SWAP2 AND OR PUSH1 0x8 SSTORE PUSH1 0x44 CALLDATALOAD SWAP1 DUP3 DUP3 AND DUP1 SWAP3 SUB PUSH2 0x19C JUMPI DUP2 SWAP1 PUSH1 0x9 SLOAD AND OR PUSH1 0x9 SSTORE PUSH1 0x64 CALLDATALOAD SWAP2 DUP1 DUP4 AND DUP1 SWAP4 SUB PUSH2 0x19C JUMPI PUSH1 0xA SLOAD SWAP3 PUSH1 0x84 CALLDATALOAD SWAP1 PUSH3 0xFFFFFF DUP3 AND SWAP1 DUP2 DUP4 SUB PUSH2 0x19C JUMPI PUSH1 0xA4 CALLDATALOAD SWAP5 DUP6 PUSH1 0x2 SIGNEXTEND SWAP4 DUP5 DUP8 SUB PUSH2 0x19C JUMPI PUSH32 0x50610696E9FE8816208F4F19F070F264B06B4AD02C040485C0E5FA4EF433208A SWAP8 DUP4 PUSH32 0xFFFFFFFFFFFF0000000000000000000000000000000000000000000000000000 PUSH23 0xFFFFFF0000000000000000000000000000000000000000 PUSH1 0xC0 SWAP11 PUSH1 0xB8 SHL PUSH26 0xFFFFFF0000000000000000000000000000000000000000000000 AND SWAP5 PUSH1 0xA0 SHL AND SWAP3 AND OR OR OR PUSH1 0xA SSTORE PUSH1 0x40 MLOAD SWAP5 DUP1 PUSH2 0xA52 PUSH2 0x1B73 JUMP JUMPDEST AND DUP7 MSTORE PUSH2 0xA5D PUSH2 0x1B89 JUMP JUMPDEST AND PUSH1 0x20 DUP7 ADD MSTORE PUSH1 0x40 DUP6 ADD MSTORE PUSH1 0x60 DUP5 ADD MSTORE PUSH1 0x80 DUP4 ADD MSTORE PUSH1 0xA0 DUP3 ADD MSTORE LOG1 PUSH1 0x20 PUSH1 0x40 MLOAD PUSH32 0xA17BBFBC00000000000000000000000000000000000000000000000000000000 DUP2 MSTORE RETURN JUMPDEST PUSH1 0x64 PUSH1 0x40 MLOAD PUSH3 0x461BCD PUSH1 0xE5 SHL DUP2 MSTORE PUSH1 0x20 PUSH1 0x4 DUP3 ADD MSTORE PUSH1 0x13 PUSH1 0x24 DUP3 ADD MSTORE PUSH32 0x506F6F6C4B657920616C72656164792073657400000000000000000000000000 PUSH1 0x44 DUP3 ADD MSTORE REVERT JUMPDEST PUSH1 0x64 PUSH1 0x40 MLOAD PUSH3 0x461BCD PUSH1 0xE5 SHL DUP2 MSTORE PUSH1 0x20 PUSH1 0x4 DUP3 ADD MSTORE PUSH1 0x14 PUSH1 0x24 DUP3 ADD MSTORE PUSH32 0x496E76616C696420686F6F6B2061646472657373000000000000000000000000 PUSH1 0x44 DUP3 ADD MSTORE REVERT JUMPDEST CALLVALUE PUSH2 0x19C JUMPI PUSH1 0x0 CALLDATASIZE PUSH1 0x3 NOT ADD SLT PUSH2 0x19C JUMPI PUSH1 0x20 PUSH1 0x40 MLOAD PUSH1 0x1 PUSH1 0x1 PUSH1 0xA0 SHL SUB PUSH32 0x0 AND DUP2 MSTORE RETURN JUMPDEST CALLVALUE PUSH2 0x19C JUMPI PUSH1 0x20 CALLDATASIZE PUSH1 0x3 NOT ADD SLT PUSH2 0x19C JUMPI PUSH1 0x4 CALLDATALOAD PUSH2 0xB8A PUSH2 0x1D0E JUMP JUMPDEST PUSH2 0xB95 DUP2 ISZERO ISZERO PUSH2 0x1EA6 JUMP JUMPDEST DUP1 PUSH1 0x0 MSTORE PUSH1 0x1 PUSH1 0x20 MSTORE PUSH1 0xFF PUSH1 0x40 PUSH1 0x0 KECCAK256 SLOAD AND ISZERO PUSH2 0xBE9 JUMPI DUP1 PUSH1 0x0 MSTORE PUSH1 0x1 PUSH1 0x20 MSTORE PUSH1 0x40 PUSH1 0x0 KECCAK256 PUSH1 0xFF NOT DUP2 SLOAD AND SWAP1 SSTORE PUSH32 0x31C881E4E925D1768CC34E510541D44008B23B46A60E3027463F39C50658C163 PUSH1 0x0 DUP1 LOG2 STOP JUMPDEST PUSH1 0x64 PUSH1 0x40 MLOAD PUSH3 0x461BCD PUSH1 0xE5 SHL DUP2 MSTORE PUSH1 0x20 PUSH1 0x4 DUP3 ADD MSTORE PUSH1 0xF PUSH1 0x24 DUP3 ADD MSTORE PUSH32 0x4E6F7420626C61636B6C69737465640000000000000000000000000000000000 PUSH1 0x44 DUP3 ADD MSTORE REVERT JUMPDEST CALLVALUE PUSH2 0x19C JUMPI PUSH2 0x180 CALLDATASIZE PUSH1 0x3 NOT ADD SLT PUSH2 0x19C JUMPI PUSH2 0xC47 PUSH2 0x1B89 JUMP JUMPDEST CALLDATASIZE PUSH2 0x184 GT PUSH2 0x19C JUMPI PUSH1 0x4 CALLDATALOAD PUSH1 0x0 MSTORE PUSH1 0x2 PUSH1 0x20 MSTORE PUSH1 0x40 PUSH1 0x0 KECCAK256 SWAP1 DUP2 SLOAD ISZERO PUSH2 0x1201 JUMPI PUSH1 0xFF PUSH1 0x7 DUP4 ADD SLOAD AND PUSH2 0xC79 DUP2 PUSH2 0x1C31 JUMP JUMPDEST PUSH2 0x11BD JUMPI PUSH1 0x64 CALLDATALOAD PUSH1 0x0 MSTORE PUSH1 0x1 PUSH1 0x20 MSTORE PUSH1 0xFF PUSH1 0x40 PUSH1 0x0 KECCAK256 SLOAD AND PUSH2 0x116D JUMPI PUSH1 0x1 PUSH1 0x1 PUSH1 0xA0 SHL SUB PUSH32 0x0 AND EXTCODESIZE ISZERO PUSH2 0x19C JUMPI PUSH1 0x1 PUSH1 0x1 PUSH1 0xA0 SHL SUB PUSH1 0x40 MLOAD SWAP2 PUSH4 0xFA0795FB PUSH1 0xE0 SHL DUP4 MSTORE AND PUSH1 0x4 DUP3 ADD MSTORE PUSH1 0x44 CALLDATALOAD PUSH1 0x24 DUP3 ADD MSTORE PUSH1 0x64 CALLDATALOAD PUSH1 0x44 DUP3 ADD MSTORE PUSH2 0x100 PUSH1 0x84 PUSH1 0x64 DUP4 ADD CALLDATACOPY PUSH1 0x0 DUP2 PUSH2 0x164 DUP2 PUSH1 0x1 PUSH1 0x1 PUSH1 0xA0 SHL SUB PUSH32 0x0 AND GAS STATICCALL SWAP1 DUP2 PUSH2 0x115E JUMPI JUMPDEST POP PUSH2 0xD8D JUMPI PUSH1 0x84 PUSH1 0x40 MLOAD PUSH3 0x461BCD PUSH1 0xE5 SHL DUP2 MSTORE PUSH1 0x20 PUSH1 0x4 DUP3 ADD MSTORE PUSH1 0x26 PUSH1 0x24 DUP3 ADD MSTORE PUSH32 0x4C656E64696E675265706F4D56503A20496E76616C696420576F726C64204944 PUSH1 0x44 DUP3 ADD MSTORE PUSH6 0x10383937B7B3 PUSH1 0xD1 SHL PUSH1 0x64 DUP3 ADD MSTORE REVERT JUMPDEST PUSH1 0x4 DUP2 DUP2 ADD SLOAD PUSH1 0x40 MLOAD PUSH4 0x23B872DD PUSH1 0xE0 SHL DUP2 MSTORE CALLER SWAP3 DUP2 ADD SWAP3 SWAP1 SWAP3 MSTORE ADDRESS PUSH1 0x24 DUP4 ADD MSTORE PUSH1 0x44 DUP3 ADD MSTORE PUSH1 0x20 DUP2 PUSH1 0x64 DUP2 PUSH1 0x0 PUSH32 0x0 PUSH1 0x1 PUSH1 0x1 PUSH1 0xA0 SHL SUB AND GAS CALL SWAP1 DUP2 ISZERO PUSH2 0x73F JUMPI PUSH1 0x0 SWAP2 PUSH2 0x113F JUMPI JUMPDEST POP ISZERO PUSH2 0x10F0 JUMPI PUSH1 0x1 DUP2 ADD SLOAD PUSH1 0x4 DUP1 DUP4 ADD SLOAD PUSH1 0x40 MLOAD PUSH4 0xA9059CBB PUSH1 0xE0 SHL DUP2 MSTORE PUSH1 0x1 PUSH1 0x1 PUSH1 0xA0 SHL SUB SWAP1 SWAP4 AND SWAP2 DUP4 ADD SWAP2 SWAP1 SWAP2 MSTORE PUSH1 0x24 DUP3 ADD MSTORE PUSH1 0x20 DUP2 DUP1 PUSH1 0x44 DUP2 ADD SUB DUP2 PUSH1 0x0 PUSH1 0x1 PUSH1 0x1 PUSH1 0xA0 SHL SUB PUSH32 0x0 AND GAS CALL SWAP1 DUP2 ISZERO PUSH2 0x73F JUMPI PUSH1 0x0 SWAP2 PUSH2 0x10D1 JUMPI JUMPDEST POP ISZERO PUSH2 0x1068 JUMPI PUSH1 0x7 DUP2 ADD DUP1 SLOAD PUSH1 0xFF NOT AND PUSH1 0x1 OR SWAP1 SSTORE PUSH1 0x5 SLOAD SWAP1 PUSH2 0xE94 DUP3 PUSH2 0x1DD3 JUMP JUMPDEST PUSH1 0x5 SSTORE PUSH1 0x1 PUSH1 0x1 PUSH1 0xA0 SHL SUB PUSH1 0x1 DUP3 ADD SLOAD AND PUSH1 0x1 PUSH1 0x1 PUSH1 0xA0 SHL SUB PUSH1 0x2 DUP4 ADD SLOAD AND PUSH1 0x3 DUP4 ADD SLOAD PUSH1 0x4 DUP5 ADD SLOAD PUSH1 0x5 DUP6 ADD SLOAD SWAP1 PUSH1 0x6 DUP7 ADD SLOAD SWAP3 PUSH1 0x40 MLOAD SWAP5 DUP6 PUSH2 0x160 DUP2 ADD LT PUSH8 0xFFFFFFFFFFFFFFFF PUSH2 0x160 DUP9 ADD GT OR PUSH2 0x1052 JUMPI PUSH2 0xFF4 SWAP7 PUSH2 0x160 DUP8 ADD PUSH1 0x40 MSTORE DUP10 DUP8 MSTORE PUSH1 0x4 CALLDATALOAD PUSH1 0x20 DUP9 ADD MSTORE CALLER PUSH1 0x40 DUP9 ADD MSTORE PUSH1 0x60 DUP8 ADD MSTORE PUSH1 0x80 DUP7 ADD MSTORE PUSH1 0xA0 DUP6 ADD MSTORE PUSH1 0xC0 DUP5 ADD MSTORE PUSH1 0xE0 DUP4 ADD MSTORE PUSH2 0x100 DUP3 ADD MSTORE PUSH1 0x64 CALLDATALOAD PUSH2 0x120 DUP3 ADD MSTORE PUSH1 0x0 PUSH2 0x140 DUP3 ADD MSTORE DUP4 PUSH1 0x0 MSTORE PUSH1 0x4 PUSH1 0x20 MSTORE PUSH1 0xA PUSH2 0x140 PUSH1 0x40 PUSH1 0x0 KECCAK256 SWAP3 DUP1 MLOAD DUP5 SSTORE PUSH1 0x20 DUP2 ADD MLOAD PUSH1 0x1 DUP6 ADD SSTORE PUSH1 0x2 DUP5 ADD PUSH1 0x1 PUSH1 0x1 PUSH1 0xA0 SHL SUB PUSH1 0x40 DUP4 ADD MLOAD AND SWAP1 PUSH1 0x1 PUSH1 0x1 PUSH1 0xA0 SHL SUB NOT SWAP2 DUP3 DUP3 SLOAD AND OR SWAP1 SSTORE PUSH1 0x3 DUP6 ADD PUSH1 0x1 PUSH1 0x1 PUSH1 0xA0 SHL SUB PUSH1 0x60 DUP5 ADD MLOAD AND DUP3 DUP3 SLOAD AND OR SWAP1 SSTORE PUSH1 0x4 DUP6 ADD SWAP1 PUSH1 0x1 PUSH1 0x1 PUSH1 0xA0 SHL SUB PUSH1 0x80 DUP5 ADD MLOAD AND SWAP1 DUP3 SLOAD AND OR SWAP1 SSTORE PUSH1 0xA0 DUP2 ADD MLOAD PUSH1 0x5 DUP6 ADD SSTORE PUSH1 0xC0 DUP2 ADD MLOAD PUSH1 0x6 DUP6 ADD SSTORE PUSH1 0xE0 DUP2 ADD MLOAD PUSH1 0x7 DUP6 ADD SSTORE PUSH2 0x100 DUP2 ADD MLOAD PUSH1 0x8 DUP6 ADD SSTORE PUSH2 0x120 DUP2 ADD MLOAD PUSH1 0x9 DUP6 ADD SSTORE ADD MLOAD SWAP2 PUSH2 0xFEE DUP4 PUSH2 0x1C31 JUMP JUMPDEST ADD PUSH2 0x1DF8 JUMP JUMPDEST PUSH1 0x1 PUSH1 0x1 PUSH1 0xA0 SHL SUB PUSH1 0x1 DUP3 ADD SLOAD AND SWAP1 PUSH1 0x5 PUSH1 0x4 DUP3 ADD SLOAD SWAP2 ADD SLOAD SWAP1 PUSH1 0x40 MLOAD SWAP3 DUP4 MSTORE PUSH1 0x20 DUP4 ADD MSTORE PUSH1 0x40 DUP3 ADD MSTORE PUSH1 0x64 CALLDATALOAD PUSH1 0x60 DUP3 ADD MSTORE CALLER SWAP2 PUSH32 0x1C6136BAB484EDB34E6D2C2248D3E3FABE9A15AA087ED9AD287F76A1D20E6B43 PUSH1 0x80 PUSH1 0x4 CALLDATALOAD SWAP4 LOG4 STOP JUMPDEST PUSH4 0x4E487B71 PUSH1 0xE0 SHL PUSH1 0x0 MSTORE PUSH1 0x41 PUSH1 0x4 MSTORE PUSH1 0x24 PUSH1 0x0 REVERT JUMPDEST PUSH1 0x84 PUSH1 0x40 MLOAD PUSH3 0x461BCD PUSH1 0xE5 SHL DUP2 MSTORE PUSH1 0x20 PUSH1 0x4 DUP3 ADD MSTORE PUSH1 0x24 DUP1 DUP3 ADD MSTORE PUSH32 0x426F72726F7765722071756F746520746F6B656E207472616E73666572206661 PUSH1 0x44 DUP3 ADD MSTORE PUSH32 0x696C656400000000000000000000000000000000000000000000000000000000 PUSH1 0x64 DUP3 ADD MSTORE REVERT JUMPDEST PUSH2 0x10EA SWAP2 POP PUSH1 0x20 RETURNDATASIZE PUSH1 0x20 GT PUSH2 0x738 JUMPI PUSH2 0x72A DUP2 DUP4 PUSH2 0x1D83 JUMP JUMPDEST DUP3 PUSH2 0xE72 JUMP JUMPDEST PUSH1 0x84 PUSH1 0x40 MLOAD PUSH3 0x461BCD PUSH1 0xE5 SHL DUP2 MSTORE PUSH1 0x20 PUSH1 0x4 DUP3 ADD MSTORE PUSH1 0x22 PUSH1 0x24 DUP3 ADD MSTORE PUSH32 0x4C656E6465722071756F746520746F6B656E207472616E73666572206661696C PUSH1 0x44 DUP3 ADD MSTORE PUSH2 0x1959 PUSH1 0xF2 SHL PUSH1 0x64 DUP3 ADD MSTORE REVERT JUMPDEST PUSH2 0x1158 SWAP2 POP PUSH1 0x20 RETURNDATASIZE PUSH1 0x20 GT PUSH2 0x738 JUMPI PUSH2 0x72A DUP2 DUP4 PUSH2 0x1D83 JUMP JUMPDEST DUP3 PUSH2 0xDF6 JUMP JUMPDEST PUSH2 0x1167 SWAP1 PUSH2 0x1D6F JUMP JUMPDEST DUP3 PUSH2 0xD35 JUMP JUMPDEST PUSH1 0x84 PUSH1 0x40 MLOAD PUSH3 0x461BCD PUSH1 0xE5 SHL DUP2 MSTORE PUSH1 0x20 PUSH1 0x4 DUP3 ADD MSTORE PUSH1 0x23 PUSH1 0x24 DUP3 ADD MSTORE PUSH32 0x4C656E64696E675265706F4D56503A205573657220697320626C61636B6C6973 PUSH1 0x44 DUP3 ADD MSTORE PUSH3 0x1D1959 PUSH1 0xEA SHL PUSH1 0x64 DUP3 ADD MSTORE REVERT JUMPDEST PUSH1 0x64 PUSH1 0x40 MLOAD PUSH3 0x461BCD PUSH1 0xE5 SHL DUP2 MSTORE PUSH1 0x20 PUSH1 0x4 DUP3 ADD MSTORE PUSH1 0x13 PUSH1 0x24 DUP3 ADD MSTORE PUSH32 0x52657175657374206E6F742070656E64696E6700000000000000000000000000 PUSH1 0x44 DUP3 ADD MSTORE REVERT JUMPDEST PUSH1 0x64 PUSH1 0x40 MLOAD PUSH3 0x461BCD PUSH1 0xE5 SHL DUP2 MSTORE PUSH1 0x20 PUSH1 0x4 DUP3 ADD MSTORE PUSH1 0x11 PUSH1 0x24 DUP3 ADD MSTORE PUSH32 0x52657175657374206E6F7420666F756E64000000000000000000000000000000 PUSH1 0x44 DUP3 ADD MSTORE REVERT JUMPDEST CALLVALUE PUSH2 0x19C JUMPI PUSH1 0x0 CALLDATASIZE PUSH1 0x3 NOT ADD SLT PUSH2 0x19C JUMPI PUSH1 0x20 PUSH1 0x1 PUSH1 0x1 PUSH1 0xA0 SHL SUB PUSH1 0x0 SLOAD AND PUSH1 0x40 MLOAD SWAP1 DUP2 MSTORE RETURN JUMPDEST CALLVALUE PUSH2 0x19C JUMPI PUSH1 0x0 CALLDATASIZE PUSH1 0x3 NOT ADD SLT PUSH2 0x19C JUMPI PUSH1 0x20 PUSH1 0x5 SLOAD PUSH1 0x40 MLOAD SWAP1 DUP2 MSTORE RETURN JUMPDEST CALLVALUE PUSH2 0x19C JUMPI PUSH1 0x0 CALLDATASIZE PUSH1 0x3 NOT ADD SLT PUSH2 0x19C JUMPI PUSH2 0x12A3 PUSH2 0x1D0E JUMP JUMPDEST PUSH1 0x0 PUSH1 0x1 PUSH1 0x1 PUSH1 0xA0 SHL SUB DUP2 SLOAD PUSH1 0x1 PUSH1 0x1 PUSH1 0xA0 SHL SUB NOT DUP2 AND DUP4 SSTORE AND PUSH32 0x8BE0079C531659141344CD1FD0A4F28419497F9722A3DAAFE3B4186F6B6457E0 DUP3 DUP1 LOG3 STOP JUMPDEST CALLVALUE PUSH2 0x19C JUMPI PUSH1 0x0 CALLDATASIZE PUSH1 0x3 NOT ADD SLT PUSH2 0x19C JUMPI PUSH1 0x20 PUSH1 0x3 SLOAD PUSH1 0x40 MLOAD SWAP1 DUP2 MSTORE RETURN JUMPDEST CALLVALUE PUSH2 0x19C JUMPI PUSH1 0x20 CALLDATASIZE PUSH1 0x3 NOT ADD SLT PUSH2 0x19C JUMPI PUSH1 0x4 CALLDATALOAD DUP1 PUSH1 0x0 MSTORE PUSH1 0x4 PUSH1 0x20 MSTORE PUSH1 0x40 PUSH1 0x0 KECCAK256 PUSH2 0x132F DUP2 SLOAD ISZERO ISZERO PUSH2 0x1E10 JUMP JUMPDEST PUSH1 0xA DUP2 ADD SWAP1 DUP2 SLOAD SWAP1 PUSH2 0x1347 PUSH1 0xFF DUP4 AND PUSH2 0x577 DUP2 PUSH2 0x1C31 JUMP JUMPDEST PUSH1 0x7 DUP2 ADD SLOAD TIMESTAMP GT ISZERO PUSH2 0x1391 JUMPI PUSH2 0x136A SWAP3 PUSH1 0x2 PUSH1 0x8 SWAP4 PUSH1 0xFF NOT AND OR SWAP1 SSTORE ADD SLOAD PUSH2 0x1EF1 JUMP JUMPDEST PUSH32 0x92662650C03CA1104869B8299DE9E1D536C446DCF9A58E5097696A74FC4C21FC PUSH1 0x0 DUP1 LOG2 STOP JUMPDEST PUSH1 0x64 PUSH1 0x40 MLOAD PUSH3 0x461BCD PUSH1 0xE5 SHL DUP2 MSTORE PUSH1 0x20 PUSH1 0x4 DUP3 ADD MSTORE PUSH1 0x16 PUSH1 0x24 DUP3 ADD MSTORE PUSH32 0x4C6F616E206E6F742070617374206D6174757269747900000000000000000000 PUSH1 0x44 DUP3 ADD MSTORE REVERT JUMPDEST CALLVALUE PUSH2 0x19C JUMPI PUSH1 0x20 CALLDATASIZE PUSH1 0x3 NOT ADD SLT PUSH2 0x19C JUMPI PUSH2 0x13EE PUSH2 0x1D0E JUMP JUMPDEST PUSH2 0x13F9 PUSH1 0x4 CALLDATALOAD PUSH2 0x1EF1 JUMP JUMPDEST STOP JUMPDEST CALLVALUE PUSH2 0x19C JUMPI PUSH1 0x20 CALLDATASIZE PUSH1 0x3 NOT ADD SLT PUSH2 0x19C JUMPI PUSH1 0x4 CALLDATALOAD PUSH1 0x0 MSTORE PUSH1 0x4 PUSH1 0x20 MSTORE PUSH2 0x160 PUSH1 0x40 PUSH1 0x0 KECCAK256 DUP1 SLOAD SWAP1 PUSH1 0x1 DUP2 ADD SLOAD SWAP1 PUSH1 0x1 PUSH1 0x1 PUSH1 0xA0 SHL SUB DUP1 PUSH1 0x2 DUP4 ADD SLOAD AND SWAP1 DUP1 PUSH1 0x3 DUP5 ADD SLOAD AND SWAP1 PUSH1 0x4 DUP5 ADD SLOAD AND PUSH1 0x5 DUP5 ADD SLOAD PUSH1 0x6 DUP6 ADD SLOAD SWAP2 PUSH1 0x7 DUP7 ADD SLOAD SWAP4 PUSH1 0x8 DUP8 ADD SLOAD SWAP6 PUSH1 0xFF PUSH1 0xA PUSH1 0x9 DUP11 ADD SLOAD SWAP10 ADD SLOAD AND SWAP9 PUSH1 0x40 MLOAD SWAP11 DUP12 MSTORE PUSH1 0x20 DUP12 ADD MSTORE PUSH1 0x40 DUP11 ADD MSTORE PUSH1 0x60 DUP10 ADD MSTORE PUSH1 0x80 DUP9 ADD MSTORE PUSH1 0xA0 DUP8 ADD MSTORE PUSH1 0xC0 DUP7 ADD MSTORE PUSH1 0xE0 DUP6 ADD MSTORE PUSH2 0x100 DUP5 ADD MSTORE PUSH2 0x120 DUP4 ADD MSTORE PUSH2 0x14A9 DUP2 PUSH2 0x1C31 JUMP JUMPDEST PUSH2 0x140 DUP3 ADD MSTORE RETURN JUMPDEST CALLVALUE PUSH2 0x19C JUMPI PUSH1 0x40 CALLDATASIZE PUSH1 0x3 NOT ADD SLT PUSH2 0x19C JUMPI PUSH2 0x14CA PUSH2 0x1B73 JUMP JUMPDEST PUSH1 0x24 CALLDATALOAD SWAP1 DUP2 ISZERO ISZERO DUP1 SWAP3 SUB PUSH2 0x19C JUMPI PUSH1 0x20 PUSH1 0x1 PUSH1 0x1 PUSH1 0xA0 SHL SUB PUSH32 0xE7B5ED3C2B0C67F2D4E8978E894EF5549CF69733DEC0D3BCD515C7DDB03DA767 SWAP3 PUSH2 0x150C PUSH2 0x1D0E JUMP JUMPDEST AND SWAP3 DUP4 PUSH1 0x0 MSTORE PUSH1 0x6 DUP3 MSTORE PUSH1 0x40 PUSH1 0x0 KECCAK256 PUSH1 0xFF NOT DUP2 SLOAD AND PUSH1 0xFF DUP4 AND OR SWAP1 SSTORE PUSH1 0x40 MLOAD SWAP1 DUP2 MSTORE LOG2 STOP JUMPDEST CALLVALUE PUSH2 0x19C JUMPI PUSH2 0x153F CALLDATASIZE PUSH2 0x1BCD JUMP JUMPDEST POP POP POP POP POP PUSH1 0x20 PUSH1 0x40 MLOAD PUSH32 0x44577BEA00000000000000000000000000000000000000000000000000000000 DUP2 MSTORE RETURN JUMPDEST CALLVALUE PUSH2 0x19C JUMPI PUSH2 0x120 CALLDATASIZE PUSH1 0x3 NOT ADD SLT PUSH2 0x19C JUMPI PUSH2 0x1588 PUSH2 0x1B73 JUMP JUMPDEST POP PUSH1 0xC0 CALLDATASIZE PUSH1 0x23 NOT ADD SLT PUSH2 0x19C JUMPI PUSH1 0xE4 CALLDATALOAD PUSH1 0x1 PUSH1 0x1 PUSH1 0xA0 SHL SUB DUP2 AND SUB PUSH2 0x19C JUMPI PUSH2 0x104 CALLDATALOAD PUSH8 0xFFFFFFFFFFFFFFFF DUP2 GT PUSH2 0x19C JUMPI PUSH2 0x15C8 SWAP1 CALLDATASIZE SWAP1 PUSH1 0x4 ADD PUSH2 0x1B9F JUMP JUMPDEST POP POP PUSH1 0x20 PUSH1 0x40 MLOAD PUSH32 0x23962ACE00000000000000000000000000000000000000000000000000000000 DUP2 MSTORE RETURN JUMPDEST CALLVALUE PUSH2 0x19C JUMPI PUSH1 0x0 CALLDATASIZE PUSH1 0x3 NOT ADD SLT PUSH2 0x19C JUMPI PUSH1 0x20 PUSH1 0x40 MLOAD PUSH1 0x1 PUSH1 0x1 PUSH1 0xA0 SHL SUB PUSH32 0x0 AND DUP2 MSTORE RETURN JUMPDEST CALLVALUE PUSH2 0x19C JUMPI PUSH2 0x1E0 CALLDATASIZE PUSH1 0x3 NOT ADD SLT PUSH2 0x19C JUMPI PUSH2 0x1652 PUSH2 0x1B73 JUMP JUMPDEST PUSH1 0x24 SWAP1 DUP2 CALLDATALOAD SWAP2 PUSH1 0x44 SWAP1 DUP2 CALLDATALOAD SWAP4 PUSH1 0x64 SWAP5 DUP6 CALLDATALOAD SWAP5 PUSH1 0x84 CALLDATALOAD SWAP6 PUSH1 0x1 PUSH1 0x1 PUSH1 0xA0 SHL SUB SWAP3 DUP4 DUP9 AND DUP1 SWAP9 SUB PUSH2 0x19C JUMPI PUSH1 0xC4 CALLDATALOAD SWAP3 CALLDATASIZE PUSH2 0x1E4 GT PUSH2 0x19C JUMPI DUP5 AND SWAP5 DUP6 PUSH1 0x0 MSTORE PUSH1 0x20 SWAP9 PUSH1 0x6 DUP11 MSTORE PUSH1 0xFF PUSH1 0x40 PUSH1 0x0 KECCAK256 SLOAD AND ISZERO PUSH2 0x1A95 JUMPI DUP2 ISZERO PUSH2 0x1A2E JUMPI DUP3 ISZERO PUSH2 0x19C7 JUMPI TIMESTAMP DUP5 GT ISZERO PUSH2 0x1986 JUMPI DUP5 PUSH1 0x0 MSTORE PUSH1 0x1 DUP11 MSTORE PUSH1 0xFF PUSH1 0x40 PUSH1 0x0 KECCAK256 SLOAD AND PUSH2 0x1939 JUMPI DUP6 PUSH32 0x0 AND DUP1 EXTCODESIZE ISZERO PUSH2 0x19C JUMPI DUP9 PUSH2 0x164 DUP12 SWAP4 PUSH1 0x0 SWAP4 DUP16 PUSH1 0xE4 PUSH2 0x100 SWAP2 DUP13 PUSH1 0x40 MLOAD SWAP10 DUP11 SWAP9 DUP10 SWAP8 PUSH4 0xFA0795FB PUSH1 0xE0 SHL DUP10 MSTORE PUSH1 0x4 DUP10 ADD MSTORE PUSH1 0xA4 CALLDATALOAD SWAP1 DUP9 ADD MSTORE DUP7 ADD MSTORE DUP5 ADD CALLDATACOPY GAS STATICCALL SWAP1 DUP2 PUSH2 0x192A JUMPI JUMPDEST POP PUSH2 0x178A JUMPI PUSH1 0x84 DUP10 PUSH6 0x10383937B7B3 PUSH1 0xD1 SHL DUP13 PUSH32 0x4C656E64696E675265706F4D56503A20496E76616C696420576F726C64204944 DUP13 PUSH1 0x26 DUP14 PUSH1 0x40 MLOAD SWAP7 PUSH3 0x461BCD PUSH1 0xE5 SHL DUP9 MSTORE PUSH1 0x4 DUP9 ADD MSTORE DUP7 ADD MSTORE DUP5 ADD MSTORE DUP3 ADD MSTORE REVERT JUMPDEST PUSH1 0x40 MLOAD PUSH4 0x23B872DD PUSH1 0xE0 SHL DUP2 MSTORE CALLER PUSH1 0x4 DUP3 ADD MSTORE ADDRESS PUSH1 0x24 DUP3 ADD MSTORE PUSH1 0x44 DUP2 ADD DUP3 SWAP1 MSTORE DUP10 SWAP1 DUP12 SWAP1 DUP11 SWAP1 DUP11 SWAP1 DUP5 DUP2 PUSH1 0x64 DUP2 PUSH1 0x0 DUP16 GAS CALL SWAP1 DUP2 ISZERO PUSH2 0x73F JUMPI PUSH1 0x0 SWAP2 PUSH2 0x190D JUMPI JUMPDEST POP ISZERO PUSH2 0x18CD JUMPI POP POP POP PUSH2 0x188D PUSH1 0x3 SLOAD SWAP7 PUSH2 0x17E4 DUP9 PUSH2 0x1DD3 JUMP JUMPDEST PUSH1 0x3 SSTORE PUSH1 0x7 DUP9 DUP9 DUP9 PUSH1 0x40 MLOAD SWAP5 PUSH2 0x17F9 DUP7 PUSH2 0x1D52 JUMP JUMPDEST DUP4 DUP7 MSTORE DUP14 DUP9 DUP8 ADD SWAP1 CALLER DUP3 MSTORE PUSH1 0x40 DUP9 ADD SWAP1 DUP2 MSTORE PUSH1 0x60 DUP9 ADD SWAP2 DUP12 DUP4 MSTORE PUSH1 0x80 DUP10 ADD SWAP4 DUP14 DUP6 MSTORE PUSH1 0xA0 DUP11 ADD SWAP6 DUP7 MSTORE PUSH1 0xC0 DUP11 ADD SWAP7 DUP8 MSTORE PUSH1 0xE0 DUP11 ADD SWAP8 PUSH1 0x0 DUP10 MSTORE PUSH1 0x0 MSTORE PUSH1 0x2 DUP13 MSTORE PUSH1 0x40 PUSH1 0x0 KECCAK256 SWAP10 MLOAD DUP11 SSTORE DUP1 PUSH1 0x1 DUP12 ADD SWAP3 MLOAD AND SWAP2 PUSH1 0x1 PUSH1 0x1 PUSH1 0xA0 SHL SUB NOT SWAP3 DUP4 DUP3 SLOAD AND OR SWAP1 SSTORE PUSH1 0x2 DUP11 ADD SWAP3 MLOAD AND SWAP1 DUP3 SLOAD AND OR SWAP1 SSTORE MLOAD PUSH1 0x3 DUP8 ADD SSTORE MLOAD PUSH1 0x4 DUP7 ADD SSTORE MLOAD PUSH1 0x5 DUP6 ADD SSTORE MLOAD PUSH1 0x6 DUP5 ADD SSTORE MLOAD SWAP2 PUSH2 0xFEE DUP4 PUSH2 0x1C31 JUMP JUMPDEST PUSH1 0x40 MLOAD SWAP7 DUP8 MSTORE DUP7 ADD MSTORE PUSH1 0x40 DUP6 ADD MSTORE PUSH1 0x60 DUP5 ADD MSTORE PUSH1 0x80 DUP4 ADD MSTORE PUSH32 0xD2A896618B1B3A967D51DC24F18C1B5BC4A37F8707366201B290AADDA6FF5BCC PUSH1 0xA0 CALLER SWAP4 LOG3 STOP JUMPDEST DUP4 SWAP2 PUSH1 0x1A PUSH32 0x436F6C6C61746572616C207472616E73666572206661696C6564000000000000 SWAP3 PUSH1 0x40 MLOAD SWAP5 PUSH3 0x461BCD PUSH1 0xE5 SHL DUP7 MSTORE PUSH1 0x4 DUP7 ADD MSTORE DUP5 ADD MSTORE DUP3 ADD MSTORE REVERT JUMPDEST PUSH2 0x1924 SWAP2 POP DUP6 RETURNDATASIZE DUP8 GT PUSH2 0x738 JUMPI PUSH2 0x72A DUP2 DUP4 PUSH2 0x1D83 JUMP JUMPDEST DUP12 PUSH2 0x17CB JUMP JUMPDEST PUSH2 0x1933 SWAP1 PUSH2 0x1D6F JUMP JUMPDEST DUP12 PUSH2 0x1735 JUMP JUMPDEST PUSH1 0x84 DUP11 PUSH3 0x1D1959 PUSH1 0xEA SHL DUP14 PUSH32 0x4C656E64696E675265706F4D56503A205573657220697320626C61636B6C6973 DUP14 PUSH1 0x23 DUP15 PUSH1 0x40 MLOAD SWAP7 PUSH3 0x461BCD PUSH1 0xE5 SHL DUP9 MSTORE PUSH1 0x4 DUP9 ADD MSTORE DUP7 ADD MSTORE DUP5 ADD MSTORE DUP3 ADD MSTORE REVERT JUMPDEST DUP11 DUP11 PUSH32 0x4D61747572697479206D75737420626520696E20746865206675747572650000 DUP12 PUSH1 0x1E DUP13 PUSH1 0x40 MLOAD SWAP5 PUSH3 0x461BCD PUSH1 0xE5 SHL DUP7 MSTORE PUSH1 0x4 DUP7 ADD MSTORE DUP5 ADD MSTORE DUP3 ADD MSTORE REVERT JUMPDEST PUSH1 0x84 DUP11 PUSH32 0x6500000000000000000000000000000000000000000000000000000000000000 DUP14 PUSH32 0x52657175657374656420616D6F756E74206D75737420626520706F7369746976 DUP14 PUSH1 0x21 DUP15 PUSH1 0x40 MLOAD SWAP7 PUSH3 0x461BCD PUSH1 0xE5 SHL DUP9 MSTORE PUSH1 0x4 DUP9 ADD MSTORE DUP7 ADD MSTORE DUP5 ADD MSTORE DUP3 ADD MSTORE REVERT JUMPDEST PUSH1 0x84 DUP11 PUSH32 0x7665000000000000000000000000000000000000000000000000000000000000 DUP14 PUSH32 0x436F6C6C61746572616C20616D6F756E74206D75737420626520706F73697469 DUP14 PUSH1 0x22 DUP15 PUSH1 0x40 MLOAD SWAP7 PUSH3 0x461BCD PUSH1 0xE5 SHL DUP9 MSTORE PUSH1 0x4 DUP9 ADD MSTORE DUP7 ADD MSTORE DUP5 ADD MSTORE DUP3 ADD MSTORE REVERT JUMPDEST DUP11 DUP11 PUSH32 0x436F6C6C61746572616C206E6F7420616C6C6F77656400000000000000000000 DUP12 PUSH1 0x16 DUP13 PUSH1 0x40 MLOAD SWAP5 PUSH3 0x461BCD PUSH1 0xE5 SHL DUP7 MSTORE PUSH1 0x4 DUP7 ADD MSTORE DUP5 ADD MSTORE DUP3 ADD MSTORE REVERT JUMPDEST CALLVALUE PUSH2 0x19C JUMPI PUSH1 0x0 CALLDATASIZE PUSH1 0x3 NOT ADD SLT PUSH2 0x19C JUMPI PUSH1 0xC0 PUSH1 0x1 PUSH1 0x1 PUSH1 0xA0 SHL SUB DUP1 PUSH1 0x7 SLOAD AND SWAP1 DUP1 PUSH1 0x8 SLOAD AND SWAP1 DUP1 PUSH1 0x9 SLOAD AND PUSH1 0xA SLOAD SWAP3 PUSH1 0x40 MLOAD SWAP5 DUP6 MSTORE PUSH1 0x20 DUP6 ADD MSTORE PUSH1 0x40 DUP5 ADD MSTORE DUP2 AND PUSH1 0x60 DUP4 ADD MSTORE PUSH3 0xFFFFFF DUP2 PUSH1 0xA0 SHR AND PUSH1 0x80 DUP4 ADD MSTORE PUSH1 0xB8 SHR PUSH1 0x2 SIGNEXTEND PUSH1 0xA0 DUP3 ADD MSTORE RETURN JUMPDEST CALLVALUE PUSH2 0x19C JUMPI PUSH1 0x20 SWAP1 PUSH2 0x1B49 CALLDATASIZE PUSH2 0x1BCD JUMP JUMPDEST POP POP POP POP POP PUSH32 0x127E45600000000000000000000000000000000000000000000000000000000 DUP2 MSTORE RETURN JUMPDEST PUSH1 0x4 CALLDATALOAD SWAP1 PUSH1 0x1 PUSH1 0x1 PUSH1 0xA0 SHL SUB DUP3 AND DUP3 SUB PUSH2 0x19C JUMPI JUMP JUMPDEST PUSH1 0x24 CALLDATALOAD SWAP1 PUSH1 0x1 PUSH1 0x1 PUSH1 0xA0 SHL SUB DUP3 AND DUP3 SUB PUSH2 0x19C JUMPI JUMP JUMPDEST SWAP2 DUP2 PUSH1 0x1F DUP5 ADD SLT ISZERO PUSH2 0x19C JUMPI DUP3 CALLDATALOAD SWAP2 PUSH8 0xFFFFFFFFFFFFFFFF DUP4 GT PUSH2 0x19C JUMPI PUSH1 0x20 DUP4 DUP2 DUP7 ADD SWAP6 ADD ADD GT PUSH2 0x19C JUMPI JUMP JUMPDEST SWAP1 PUSH2 0x160 PUSH1 0x3 NOT DUP4 ADD SLT PUSH2 0x19C JUMPI PUSH1 0x4 CALLDATALOAD PUSH1 0x1 PUSH1 0x1 PUSH1 0xA0 SHL SUB DUP2 AND DUP2 SUB PUSH2 0x19C JUMPI SWAP2 PUSH1 0xC0 PUSH1 0x23 NOT DUP3 ADD SLT PUSH2 0x19C JUMPI PUSH1 0x24 SWAP2 PUSH1 0x60 PUSH1 0xE3 NOT DUP4 ADD SLT PUSH2 0x19C JUMPI PUSH1 0xE4 SWAP2 PUSH2 0x144 CALLDATALOAD SWAP1 PUSH8 0xFFFFFFFFFFFFFFFF DUP3 GT PUSH2 0x19C JUMPI PUSH2 0x1C2D SWAP2 PUSH1 0x4 ADD PUSH2 0x1B9F JUMP JUMPDEST SWAP1 SWAP2 JUMP JUMPDEST PUSH1 0x3 GT ISZERO PUSH2 0x1C3B JUMPI JUMP JUMPDEST PUSH4 0x4E487B71 PUSH1 0xE0 SHL PUSH1 0x0 MSTORE PUSH1 0x21 PUSH1 0x4 MSTORE PUSH1 0x24 PUSH1 0x0 REVERT JUMPDEST PUSH2 0x180 PUSH1 0x3 NOT DUP3 ADD SLT PUSH2 0x19C JUMPI PUSH1 0x4 CALLDATALOAD PUSH1 0x1 PUSH1 0x1 PUSH1 0xA0 SHL SUB DUP2 AND DUP2 SUB PUSH2 0x19C JUMPI SWAP2 PUSH1 0xC0 PUSH1 0x23 NOT DUP4 ADD SLT PUSH2 0x19C JUMPI PUSH1 0x24 SWAP2 PUSH1 0x60 PUSH1 0xE3 NOT DUP3 ADD SLT PUSH2 0x19C JUMPI PUSH1 0xE4 SWAP2 PUSH2 0x144 CALLDATALOAD SWAP2 PUSH2 0x164 CALLDATALOAD SWAP1 PUSH8 0xFFFFFFFFFFFFFFFF DUP3 GT PUSH2 0x19C JUMPI PUSH2 0x1C2D SWAP2 PUSH1 0x4 ADD PUSH2 0x1B9F JUMP JUMPDEST PUSH2 0x140 PUSH1 0x3 NOT DUP3 ADD SLT PUSH2 0x19C JUMPI PUSH1 0x4 CALLDATALOAD PUSH1 0x1 PUSH1 0x1 PUSH1 0xA0 SHL SUB DUP2 AND DUP2 SUB PUSH2 0x19C JUMPI SWAP2 PUSH1 0xC0 PUSH1 0x23 NOT DUP4 ADD SLT PUSH2 0x19C JUMPI PUSH1 0x24 SWAP2 PUSH1 0xE4 CALLDATALOAD SWAP2 PUSH2 0x104 CALLDATALOAD SWAP2 PUSH2 0x124 CALLDATALOAD SWAP1 PUSH8 0xFFFFFFFFFFFFFFFF DUP3 GT PUSH2 0x19C JUMPI PUSH2 0x1C2D SWAP2 PUSH1 0x4 ADD PUSH2 0x1B9F JUMP JUMPDEST PUSH1 0x1 PUSH1 0x1 PUSH1 0xA0 SHL SUB PUSH1 0x0 SLOAD AND CALLER SUB PUSH2 0x1D22 JUMPI JUMP JUMPDEST PUSH1 0x24 PUSH1 0x40 MLOAD PUSH32 0x118CDAA700000000000000000000000000000000000000000000000000000000 DUP2 MSTORE CALLER PUSH1 0x4 DUP3 ADD MSTORE REVERT JUMPDEST PUSH2 0x100 DUP2 ADD SWAP1 DUP2 LT PUSH8 0xFFFFFFFFFFFFFFFF DUP3 GT OR PUSH2 0x1052 JUMPI PUSH1 0x40 MSTORE JUMP JUMPDEST PUSH8 0xFFFFFFFFFFFFFFFF DUP2 GT PUSH2 0x1052 JUMPI PUSH1 0x40 MSTORE JUMP JUMPDEST SWAP1 PUSH1 0x1F DUP1 NOT SWAP2 ADD AND DUP2 ADD SWAP1 DUP2 LT PUSH8 0xFFFFFFFFFFFFFFFF DUP3 GT OR PUSH2 0x1052 JUMPI PUSH1 0x40 MSTORE JUMP JUMPDEST PUSH1 0x24 CALLDATALOAD PUSH1 0x1 PUSH1 0x1 PUSH1 0xA0 SHL SUB DUP2 AND DUP2 SUB PUSH2 0x19C JUMPI SWAP1 JUMP JUMPDEST SWAP1 DUP2 PUSH1 0x20 SWAP2 SUB SLT PUSH2 0x19C JUMPI MLOAD DUP1 ISZERO ISZERO DUP2 SUB PUSH2 0x19C JUMPI SWAP1 JUMP JUMPDEST PUSH1 0x0 NOT DUP2 EQ PUSH2 0x1DE2 JUMPI PUSH1 0x1 ADD SWAP1 JUMP JUMPDEST PUSH4 0x4E487B71 PUSH1 0xE0 SHL PUSH1 0x0 MSTORE PUSH1 0x11 PUSH1 0x4 MSTORE PUSH1 0x24 PUSH1 0x0 REVERT JUMPDEST SWAP1 PUSH2 0x1E02 DUP2 PUSH2 0x1C31 JUMP JUMPDEST PUSH1 0xFF DUP1 NOT DUP4 SLOAD AND SWAP2 AND OR SWAP1 SSTORE JUMP JUMPDEST ISZERO PUSH2 0x1E17 JUMPI JUMP JUMPDEST PUSH1 0x64 PUSH1 0x40 MLOAD PUSH3 0x461BCD PUSH1 0xE5 SHL DUP2 MSTORE PUSH1 0x20 PUSH1 0x4 DUP3 ADD MSTORE PUSH1 0xE PUSH1 0x24 DUP3 ADD MSTORE PUSH32 0x4C6F616E206E6F7420666F756E64000000000000000000000000000000000000 PUSH1 0x44 DUP3 ADD MSTORE REVERT JUMPDEST ISZERO PUSH2 0x1E62 JUMPI JUMP JUMPDEST PUSH1 0x64 PUSH1 0x40 MLOAD PUSH3 0x461BCD PUSH1 0xE5 SHL DUP2 MSTORE PUSH1 0x20 PUSH1 0x4 DUP3 ADD MSTORE PUSH1 0xF PUSH1 0x24 DUP3 ADD MSTORE PUSH32 0x4C6F616E206E6F74206163746976650000000000000000000000000000000000 PUSH1 0x44 DUP3 ADD MSTORE REVERT JUMPDEST ISZERO PUSH2 0x1EAD JUMPI JUMP JUMPDEST PUSH1 0x64 PUSH1 0x40 MLOAD PUSH3 0x461BCD PUSH1 0xE5 SHL DUP2 MSTORE PUSH1 0x20 PUSH1 0x4 DUP3 ADD MSTORE PUSH1 0x11 PUSH1 0x24 DUP3 ADD MSTORE PUSH32 0x496E76616C6964206E756C6C6966696572000000000000000000000000000000 PUSH1 0x44 DUP3 ADD MSTORE REVERT JUMPDEST PUSH2 0x1EFC DUP2 ISZERO ISZERO PUSH2 0x1EA6 JUMP JUMPDEST DUP1 PUSH1 0x0 MSTORE PUSH1 0x1 PUSH1 0x20 MSTORE PUSH1 0x40 PUSH1 0x0 KECCAK256 DUP1 SLOAD PUSH1 0xFF DUP2 AND ISZERO PUSH2 0x1F1A JUMPI POP POP POP JUMP JUMPDEST PUSH1 0xFF NOT AND PUSH1 0x1 OR SWAP1 SSTORE PUSH32 0x4E15C89D8486414C833534DB84B7CE2DC7C8EFDB204E4CA8912299ED0629E4C7 PUSH1 0x0 DUP1 LOG2 JUMP INVALID LOG2 PUSH5 0x6970667358 0x22 SLT KECCAK256 0xC8 0xC8 0xE1 SSTORE CREATE 0xBC 0xD3 0x27 0xE0 DELEGATECALL CALL SWAP4 ADDMOD 0xB2 BYTE 0xBC POP 0xEB 0xCB LOG3 0xF6 MSTORE 0xA7 0x23 TIMESTAMP 0xEF 0x4D SWAP10 SLOAD 0xC1 PREVRANDAO GT PUSH5 0x736F6C6343 STOP ADDMOD EQ STOP CALLER "},"methodIdentifiers":{"activeLoans(uint256)":"47126f62","afterDonate(address,(address,address,address,address,uint24,int24),uint256,uint256,bytes)":"df579681","afterInitialize((address,address,address,address,uint24,int24),uint160,int24,bytes)":"a17bbfbc","afterModifyPosition(address,(address,address,address,address,uint24,int24),(int24,int24,int256),int256,bytes)":"c1ef3c4b","afterSwap(address,(address,address,address,address,uint24,int24),(bool,int256,uint160),int256,bytes)":"fc806003","beforeDonate(address,(address,address,address,address,uint24,int24),uint256,uint256,bytes)":"df991fd9","beforeInitialize(address,(address,address,address,address,uint24,int24),uint160,bytes)":"23962ace","beforeModifyPosition(address,(address,address,address,address,uint24,int24),(int24,int24,int256),bytes)":"0127e456","beforeSwap(address,(address,address,address,address,uint24,int24),(bool,int256,uint160),bytes)":"44577bea","declareDefault(uint256)":"55e1172d","fundLoanRequest(uint256,address,uint256,uint256,uint256[8])":"90cef53c","getHookPermissions()":"c4e833ce","isCollateralAllowed(address)":"cb067320","isNullifierBlacklisted(uint256)":"b7f69163","loanRequests(uint256)":"d1b332f4","nextLoanId()":"87c51459","nextRequestId()":"6a84a985","owner()":"8da5cb5b","ownerAddToBlacklist(uint256)":"52494c9b","ownerAllowCollateral(address,bool)":"44b94efc","ownerRemoveFromBlacklist(uint256)":"9f110576","poolKey()":"182148ef","poolManager()":"dc4c90d3","quoteToken()":"217a4b70","renounceOwnership()":"715018a6","repayLoan(uint256)":"ab7b1c89","requestLoan(address,uint256,uint256,uint256,address,uint256,uint256,uint256[8])":"1e48c0cb","transferOwnership(address)":"f2fde38b","worldIdRouter()":"9f50b66d"}}}}}