{"contracts/mocks/MockWorldID.sol":{"MockWorldID":{"abi":[{"inputs":[{"internalType":"address","name":"signal","type":"address"},{"internalType":"uint256","name":"root","type":"uint256"},{"internalType":"uint256","name":"nullifierHash","type":"uint256"},{"internalType":"uint256[8]","name":"proof","type":"uint256[8]"}],"name":"verifyProof","outputs":[],"stateMutability":"pure","type":"function"}],"evm":{"bytecode":{"linkReferences":{},"object":"6080806040523461001657610187908161001c8239f35b600080fdfe608080604052600436101561001357600080fd5b600090813560e01c63fa0795fb1461002a57600080fd5b3461014d5761016036600319011261014d5760043573ffffffffffffffffffffffffffffffffffffffff811680910361014957366101641161014957156100e15750604435156100775780f35b608460405162461bcd60e51b815260206004820152602960248201527f4d6f636b576f726c6449443a206e756c6c6966696572486173682063616e6e6f60448201527f74206265207a65726f00000000000000000000000000000000000000000000006064820152fd5b8062461bcd60e51b6084925260206004820152602a60248201527f4d6f636b576f726c6449443a207369676e616c2063616e6e6f74206265207a6560448201527f726f2061646472657373000000000000000000000000000000000000000000006064820152fd5b8280fd5b5080fdfea264697066735822122093011157f026f468c9d1465d06ee406f212adee6647835bee342f1489ad4864164736f6c63430008140033","opcodes":"PUSH1 0x80 DUP1 PUSH1 0x40 MSTORE CALLVALUE PUSH2 0x16 JUMPI PUSH2 0x187 SWAP1 DUP2 PUSH2 0x1C DUP3 CODECOPY RETURN JUMPDEST PUSH1 0x0 DUP1 REVERT INVALID PUSH1 0x80 DUP1 PUSH1 0x40 MSTORE PUSH1 0x4 CALLDATASIZE LT ISZERO PUSH2 0x13 JUMPI PUSH1 0x0 DUP1 REVERT JUMPDEST PUSH1 0x0 SWAP1 DUP2 CALLDATALOAD PUSH1 0xE0 SHR PUSH4 0xFA0795FB EQ PUSH2 0x2A JUMPI PUSH1 0x0 DUP1 REVERT JUMPDEST CALLVALUE PUSH2 0x14D JUMPI PUSH2 0x160 CALLDATASIZE PUSH1 0x3 NOT ADD SLT PUSH2 0x14D JUMPI PUSH1 0x4 CALLDATALOAD PUSH20 0xFFFFFFFFFFFFFFFFFFFFFFFFFFFFFFFFFFFFFFFF DUP2 AND DUP1 SWAP2 SUB PUSH2 0x149 JUMPI CALLDATASIZE PUSH2 0x164 GT PUSH2 0x149 JUMPI ISZERO PUSH2 0xE1 JUMPI POP PUSH1 0x44 CALLDATALOAD ISZERO PUSH2 0x77 JUMPI DUP1 RETURN JUMPDEST PUSH1 0x84 PUSH1 0x40 MLOAD PUSH3 0x461BCD PUSH1 0xE5 SHL DUP2 MSTORE PUSH1 0x20 PUSH1 0x4 DUP3 ADD MSTORE PUSH1 0x29 PUSH1 0x24 DUP3 ADD MSTORE PUSH32 0x4D6F636B576F726C6449443A206E756C6C6966696572486173682063616E6E6F PUSH1 0x44 DUP3 ADD MSTORE PUSH32 0x74206265207A65726F0000000000000000000000000000000000000000000000 PUSH1 0x64 DUP3 ADD MSTORE REVERT JUMPDEST DUP1 PUSH3 0x461BCD PUSH1 0xE5 SHL PUSH1 0x84 SWAP3 MSTORE PUSH1 0x20 PUSH1 0x4 DUP3 ADD MSTORE PUSH1 0x2A PUSH1 0x24 DUP3 ADD MSTORE PUSH32 0x4D6F636B576F726C6449443A207369676E616C2063616E6E6F74206265207A65 PUSH1 0x44 DUP3 ADD MSTORE PUSH32 0x726F206164647265737300000000000000000000000000000000000000000000 PUSH1 0x64 DUP3 ADD MSTORE REVERT JUMPDEST DUP3 DUP1 REVERT JUMPDEST POP DUP1 REVERT INVALID LOG2 PUSH5 0x6970667358 0x22 SLT KECCAK256 SWAP4 ADD GT JUMPI CREATE 0x26 DELEGATECALL PUSH9 0xC9D1465D06EE406F21 0x2A 0xDE 0xE6 PUSH5 0x7835BEE342 CALL BASEFEE SWAP11 0xD4 DUP7 COINBASE PUSH5 0x736F6C6343 STOP ADDMOD EQ STOP CALLER "},"methodIdentifiers":{"verifyProof(address,uint256,uint256,uint256[8])":"fa0795fb"}}}}}