{"contracts/VerifiedActionHook.sol":{"VerifiedActionHook":{"abi":[{"inputs":[{"internalType":"contract IPoolManager","name":"_poolManager","type":"address"},{"internalType":"contract IWorldID","name":"_worldIdRouter","type":"address"},{"internalType":"address","name":"_quoteToken","type":"address"},{"internalType":"address","name":"_initialOwner","type":"address"}],"stateMutability":"nonpayable","type":"constructor"},{"inputs":[{"internalType":"address","name":"owner","type":"address"}],"name":"OwnableInvalidOwner","type":"error"},{"inputs":[{"internalType":"address","name":"account","type":"address"}],"name":"OwnableUnauthorizedAccount","type":"error"},{"anonymous":false,"inputs":[{"indexed":true,"internalType":"address","name":"previousOwner","type":"address"},{"indexed":true,"internalType":"address","name":"newOwner","type":"address"}],"name":"OwnershipTransferred","type":"event"},{"anonymous":false,"inputs":[{"components":[{"internalType":"address","name":"poolDeployer","type":"address"},{"internalType":"address","name":"hooks","type":"address"},{"internalType":"Currency","name":"currency0","type":"address"},{"internalType":"Currency","name":"currency1","type":"address"},{"internalType":"uint24","name":"fee","type":"uint24"},{"internalType":"int24","name":"tickSpacing","type":"int24"}],"indexed":false,"internalType":"struct PoolKey","name":"key","type":"tuple"}],"name":"PoolKeySet","type":"event"},{"anonymous":false,"inputs":[{"indexed":true,"internalType":"uint256","name":"nullifierHash","type":"uint256"}],"name":"UserBlacklisted","type":"event"},{"anonymous":false,"inputs":[{"indexed":true,"internalType":"uint256","name":"nullifierHash","type":"uint256"}],"name":"UserUnblacklisted","type":"event"},{"anonymous":false,"inputs":[{"indexed":true,"internalType":"address","name":"user","type":"address"},{"indexed":true,"internalType":"uint256","name":"nullifierHash","type":"uint256"},{"indexed":false,"internalType":"uint256","name":"amount","type":"uint256"}],"name":"VerifiedDepositMade","type":"event"},{"inputs":[{"internalType":"address","name":"","type":"address"},{"components":[{"internalType":"address","name":"poolDeployer","type":"address"},{"internalType":"address","name":"hooks","type":"address"},{"internalType":"Currency","name":"currency0","type":"address"},{"internalType":"Currency","name":"currency1","type":"address"},{"internalType":"uint24","name":"fee","type":"uint24"},{"internalType":"int24","name":"tickSpacing","type":"int24"}],"internalType":"struct PoolKey","name":"","type":"tuple"},{"internalType":"uint256","name":"","type":"uint256"},{"internalType":"uint256","name":"","type":"uint256"},{"internalType":"bytes","name":"","type":"bytes"}],"name":"afterDonate","outputs":[{"internalType":"bytes4","name":"","type":"bytes4"}],"stateMutability":"nonpayable","type":"function"},{"inputs":[{"components":[{"internalType":"address","name":"poolDeployer","type":"address"},{"internalType":"address","name":"hooks","type":"address"},{"internalType":"Currency","name":"currency0","type":"address"},{"internalType":"Currency","name":"currency1","type":"address"},{"internalType":"uint24","name":"fee","type":"uint24"},{"internalType":"int24","name":"tickSpacing","type":"int24"}],"internalType":"struct PoolKey","name":"key","type":"tuple"},{"internalType":"uint160","name":"","type":"uint160"},{"internalType":"int24","name":"","type":"int24"},{"internalType":"bytes","name":"","type":"bytes"}],"name":"afterInitialize","outputs":[{"internalType":"bytes4","name":"","type":"bytes4"}],"stateMutability":"nonpayable","type":"function"},{"inputs":[{"internalType":"address","name":"","type":"address"},{"components":[{"internalType":"address","name":"poolDeployer","type":"address"},{"internalType":"address","name":"hooks","type":"address"},{"internalType":"Currency","name":"currency0","type":"address"},{"internalType":"Currency","name":"currency1","type":"address"},{"internalType":"uint24","name":"fee","type":"uint24"},{"internalType":"int24","name":"tickSpacing","type":"int24"}],"internalType":"struct PoolKey","name":"","type":"tuple"},{"components":[{"internalType":"int24","name":"tickLower","type":"int24"},{"internalType":"int24","name":"tickUpper","type":"int24"},{"internalType":"int256","name":"liquidityDelta","type":"int256"}],"internalType":"struct IPoolManager.ModifyPositionParams","name":"","type":"tuple"},{"internalType":"BalanceDelta","name":"","type":"int256"},{"internalType":"bytes","name":"","type":"bytes"}],"name":"afterModifyPosition","outputs":[{"internalType":"bytes4","name":"","type":"bytes4"}],"stateMutability":"nonpayable","type":"function"},{"inputs":[{"internalType":"address","name":"","type":"address"},{"components":[{"internalType":"address","name":"poolDeployer","type":"address"},{"internalType":"address","name":"hooks","type":"address"},{"internalType":"Currency","name":"currency0","type":"address"},{"internalType":"Currency","name":"currency1","type":"address"},{"internalType":"uint24","name":"fee","type":"uint24"},{"internalType":"int24","name":"tickSpacing","type":"int24"}],"internalType":"struct PoolKey","name":"","type":"tuple"},{"components":[{"internalType":"bool","name":"zeroForOne","type":"bool"},{"internalType":"int256","name":"amountSpecified","type":"int256"},{"internalType":"uint160","name":"sqrtPriceLimitX96","type":"uint160"}],"internalType":"struct IPoolManager.SwapParams","name":"","type":"tuple"},{"internalType":"BalanceDelta","name":"","type":"int256"},{"internalType":"bytes","name":"","type":"bytes"}],"name":"afterSwap","outputs":[{"internalType":"bytes4","name":"","type":"bytes4"}],"stateMutability":"nonpayable","type":"function"},{"inputs":[{"internalType":"address","name":"","type":"address"},{"components":[{"internalType":"address","name":"poolDeployer","type":"address"},{"internalType":"address","name":"hooks","type":"address"},{"internalType":"Currency","name":"currency0","type":"address"},{"internalType":"Currency","name":"currency1","type":"address"},{"internalType":"uint24","name":"fee","type":"uint24"},{"internalType":"int24","name":"tickSpacing","type":"int24"}],"internalType":"struct PoolKey","name":"","type":"tuple"},{"internalType":"uint256","name":"","type":"uint256"},{"internalType":"uint256","name":"","type":"uint256"},{"internalType":"bytes","name":"","type":"bytes"}],"name":"beforeDonate","outputs":[{"internalType":"bytes4","name":"","type":"bytes4"}],"stateMutability":"nonpayable","type":"function"},{"inputs":[{"internalType":"address","name":"","type":"address"},{"components":[{"internalType":"address","name":"poolDeployer","type":"address"},{"internalType":"address","name":"hooks","type":"address"},{"internalType":"Currency","name":"currency0","type":"address"},{"internalType":"Currency","name":"currency1","type":"address"},{"internalType":"uint24","name":"fee","type":"uint24"},{"internalType":"int24","name":"tickSpacing","type":"int24"}],"internalType":"struct PoolKey","name":"","type":"tuple"},{"internalType":"uint160","name":"","type":"uint160"},{"internalType":"bytes","name":"","type":"bytes"}],"name":"beforeInitialize","outputs":[{"internalType":"bytes4","name":"","type":"bytes4"}],"stateMutability":"nonpayable","type":"function"},{"inputs":[{"internalType":"address","name":"","type":"address"},{"components":[{"internalType":"address","name":"poolDeployer","type":"address"},{"internalType":"address","name":"hooks","type":"address"},{"internalType":"Currency","name":"currency0","type":"address"},{"internalType":"Currency","name":"currency1","type":"address"},{"internalType":"uint24","name":"fee","type":"uint24"},{"internalType":"int24","name":"tickSpacing","type":"int24"}],"internalType":"struct PoolKey","name":"","type":"tuple"},{"components":[{"internalType":"int24","name":"tickLower","type":"int24"},{"internalType":"int24","name":"tickUpper","type":"int24"},{"internalType":"int256","name":"liquidityDelta","type":"int256"}],"internalType":"struct IPoolManager.ModifyPositionParams","name":"","type":"tuple"},{"internalType":"bytes","name":"","type":"bytes"}],"name":"beforeModifyPosition","outputs":[{"internalType":"bytes4","name":"","type":"bytes4"}],"stateMutability":"nonpayable","type":"function"},{"inputs":[{"internalType":"address","name":"","type":"address"},{"components":[{"internalType":"address","name":"poolDeployer","type":"address"},{"internalType":"address","name":"hooks","type":"address"},{"internalType":"Currency","name":"currency0","type":"address"},{"internalType":"Currency","name":"currency1","type":"address"},{"internalType":"uint24","name":"fee","type":"uint24"},{"internalType":"int24","name":"tickSpacing","type":"int24"}],"internalType":"struct PoolKey","name":"","type":"tuple"},{"components":[{"internalType":"bool","name":"zeroForOne","type":"bool"},{"internalType":"int256","name":"amountSpecified","type":"int256"},{"internalType":"uint160","name":"sqrtPriceLimitX96","type":"uint160"}],"internalType":"struct IPoolManager.SwapParams","name":"","type":"tuple"},{"internalType":"bytes","name":"","type":"bytes"}],"name":"beforeSwap","outputs":[{"internalType":"bytes4","name":"","type":"bytes4"}],"stateMutability":"nonpayable","type":"function"},{"inputs":[],"name":"getHookPermissions","outputs":[{"components":[{"internalType":"bool","name":"beforeInitialize","type":"bool"},{"internalType":"bool","name":"afterInitialize","type":"bool"},{"internalType":"bool","name":"beforeModifyPosition","type":"bool"},{"internalType":"bool","name":"afterModifyPosition","type":"bool"},{"internalType":"bool","name":"beforeSwap","type":"bool"},{"internalType":"bool","name":"afterSwap","type":"bool"},{"internalType":"bool","name":"beforeDonate","type":"bool"},{"internalType":"bool","name":"afterDonate","type":"bool"}],"internalType":"struct Hooks.Permissions","name":"","type":"tuple"}],"stateMutability":"pure","type":"function"},{"inputs":[{"internalType":"uint256","name":"","type":"uint256"}],"name":"isNullifierBlacklisted","outputs":[{"internalType":"bool","name":"","type":"bool"}],"stateMutability":"view","type":"function"},{"inputs":[],"name":"owner","outputs":[{"internalType":"address","name":"","type":"address"}],"stateMutability":"view","type":"function"},{"inputs":[{"internalType":"uint256","name":"_nullifierHash","type":"uint256"}],"name":"ownerAddToBlacklist","outputs":[],"stateMutability":"nonpayable","type":"function"},{"inputs":[{"internalType":"uint256","name":"_nullifierHash","type":"uint256"}],"name":"ownerRemoveFromBlacklist","outputs":[],"stateMutability":"nonpayable","type":"function"},{"inputs":[],"name":"poolKey","outputs":[{"internalType":"address","name":"poolDeployer","type":"address"},{"internalType":"address","name":"hooks","type":"address"},{"internalType":"Currency","name":"currency0","type":"address"},{"internalType":"Currency","name":"currency1","type":"address"},{"internalType":"uint24","name":"fee","type":"uint24"},{"internalType":"int24","name":"tickSpacing","type":"int24"}],"stateMutability":"view","type":"function"},{"inputs":[],"name":"poolManager","outputs":[{"internalType":"contract IPoolManager","name":"","type":"address"}],"stateMutability":"view","type":"function"},{"inputs":[],"name":"quoteToken","outputs":[{"internalType":"address","name":"","type":"address"}],"stateMutability":"view","type":"function"},{"inputs":[{"internalType":"uint256","name":"amount","type":"uint256"},{"internalType":"address","name":"signal","type":"address"},{"internalType":"uint256","name":"root","type":"uint256"},{"internalType":"uint256","name":"nullifierHash","type":"uint256"},{"internalType":"uint256[8]","name":"proof","type":"uint256[8]"}],"name":"registerVerifiedDeposit","outputs":[],"stateMutability":"nonpayable","type":"function"},{"inputs":[],"name":"renounceOwnership","outputs":[],"stateMutability":"nonpayable","type":"function"},{"inputs":[{"internalType":"address","name":"newOwner","type":"address"}],"name":"transferOwnership","outputs":[],"stateMutability":"nonpayable","type":"function"},{"inputs":[{"internalType":"address","name":"","type":"address"}],"name":"userVerifiedDeposits","outputs":[{"internalType":"uint256","name":"","type":"uint256"}],"stateMutability":"view","type":"function"},{"inputs":[],"name":"worldIdRouter","outputs":[{"internalType":"contract IWorldID","name":"","type":"address"}],"stateMutability":"view","type":"function"}],"evm":{"bytecode":{"linkReferences":{},"object":"60e03461017257601f6111b438819003918201601f19168301916001600160401b03831184841017610177578084926080946040528339810103126101725780516001600160a01b03808216820361017257602083015191818316830361017257819061007a60606100736040880161018d565b960161018d565b906080521690811561015957600080546001600160a01b03198116841782556040519391908316907f8be0079c531659141344cd1fd0a4f28419497f9722a3daafe3b4186f6b6457e09080a383161561010c575060a05260c05260405161101290816101a282396080518161029f015260a0518181816106d001526108d8015260c051818181610a080152610cc60152f35b62461bcd60e51b815260206004820152602260248201527f51756f746520746f6b656e2063616e6e6f74206265207a65726f206164647265604482015261737360f01b6064820152608490fd5b604051631e4fbdf760e01b815260006004820152602490fd5b600080fd5b634e487b7160e01b600052604160045260246000fd5b51906001600160a01b03821682036101725756fe608060408181526004918236101561001657600080fd5b600092833560e01c9182630127e45614610d4c57508163182148ef14610cea578163217a4b7014610ca657816323962ace14610c1f5781633fe87da41461088457816344577bea1461084657816352494c9b146107e2578163715018a61461077b5781638da5cb5b146107555781639f110576146106f45781639f50b66d146106b0578163a17bbfbc14610435578163b7f6916314610408578163c12db167146103d1578163c1ef3c4b14610392578163c4e833ce146102c3578163dc4c90d31461027f578163df57968114610240578163df991fd914610201578163f2fde38b1461014d575063fc8060031461010c57600080fd5b346101495760209061011d36610e47565b505050505050517ffc806003000000000000000000000000000000000000000000000000000000008152f35b5080fd5b9050346101fd5760203660031901126101fd57610168610d89565b90610171610f04565b6001600160a01b038092169283156101ce5750506000548273ffffffffffffffffffffffffffffffffffffffff19821617600055167f8be0079c531659141344cd1fd0a4f28419497f9722a3daafe3b4186f6b6457e0600080a380f35b908460249251917f1e4fbdf7000000000000000000000000000000000000000000000000000000008352820152fd5b8280fd5b5050346101495760209061021436610eab565b505050505050517fdf991fd9000000000000000000000000000000000000000000000000000000008152f35b5050346101495760209061025336610eab565b505050505050517fdf579681000000000000000000000000000000000000000000000000000000008152f35b505034610149578160031936011261014957602090516001600160a01b037f0000000000000000000000000000000000000000000000000000000000000000168152f35b50503461014957816003193601126101495790818160e061010094516102e881610f48565b82815282602082015282848201528260608201528260808201528260a08201528260c08201520152805161031b81610f48565b8281526020810191600183528082019084825260608301858152608084019186835260a085019387855260e060c0870196898852019688885282519889525115156020890152511515908701525115156060860152511515608085015251151560a084015251151560c083015251151560e0820152f35b505034610149576020906103a536610e47565b505050505050517fc1ef3c4b000000000000000000000000000000000000000000000000000000008152f35b50503461014957602036600319011261014957806020926001600160a01b036103f8610d89565b1681526002845220549051908152f35b9050346101fd5760203660031901126101fd578160209360ff923581526001855220541690519015158152f35b82843461061e57366003190161012081126101495760c01361061e576001600160a01b039260c435848116036106255760e4358060020b03610625576101043567ffffffffffffffff81116101fd576104919036908301610db5565b505061049b610f7b565b843091160361066d5780549084821661062a578035918583168093036106255773ffffffffffffffffffffffffffffffffffffffff199283600354161760035582866104e5610f7b565b169116179055604435908482168092036106255781906005541617600555606435848116809103610625576006549160843562ffffff8116938482036106215760a4358060020b9687820361061e57509260c09592859260209a967fffffffffffff000000000000000000000000000000000000000000000000000076ffffff00000000000000000000000000000000000000007f50610696e9fe8816208f4f19f070f264b06b4ad02c040485c0e5fa4ef433208a9b9860b81b79ffffff0000000000000000000000000000000000000000000000169460a01b169216171717600655875194806105d4610d89565b1686526105df610d9f565b1689860152878501526060840152608083015260a0820152a1517fa17bbfbc000000000000000000000000000000000000000000000000000000008152f35b80fd5b8580fd5b600080fd5b606490602085519162461bcd60e51b8352820152601360248201527f506f6f6c4b657920616c726561647920736574000000000000000000000000006044820152fd5b606490602084519162461bcd60e51b8352820152601b60248201527f496e76616c696420686f6f6b206164647265737320696e206b657900000000006044820152fd5b505034610149578160031936011261014957602090516001600160a01b037f0000000000000000000000000000000000000000000000000000000000000000168152f35b9050346101fd5760203660031901126101fd573590610711610f04565b61071c821515610f91565b81835260016020528220805460ff191690557f31c881e4e925d1768cc34e510541d44008b23b46a60e3027463f39c50658c1638280a280f35b5050346101495781600319360112610149576001600160a01b0360209254169051908152f35b833461061e578060031936011261061e57610794610f04565b60006001600160a01b03815473ffffffffffffffffffffffffffffffffffffffff1981168355167f8be0079c531659141344cd1fd0a4f28419497f9722a3daafe3b4186f6b6457e08280a380f35b9050346101fd5760203660031901126101fd5735906107ff610f04565b61080a821515610f91565b81835260016020528220600160ff198254161790557f4e15c89d8486414c833534db84b7ce2dc7c8efdb204e4ca8912299ed0629e4c78280a280f35b5050346101495760209061085936610de3565b5050505050517f44577bea000000000000000000000000000000000000000000000000000000008152f35b9050823461061e5761018036600319011261061e5781356108a3610d9f565b9360649283353661018411610149578315610bdd578082526020936001855260ff8484205416610b76576001600160a01b03807f00000000000000000000000000000000000000000000000000000000000000001698893b15610b7257818651917ffa0795fb0000000000000000000000000000000000000000000000000000000083521689820152848160249b6044358d8301528660448301528a820160846101009137815a9161016492fa9081610b45575b506109c2576084887f642049442070726f6f660000000000000000000000000000000000000000000089602a8d8b8b519562461bcd60e51b87528601528401527f5665726966696564416374696f6e486f6f6b3a20496e76616c696420576f726c6044840152820152fd5b8894888886898095838b875194859384927f23b872dd000000000000000000000000000000000000000000000000000000008452338a85015230908401528b60448401527f0000000000000000000000000000000000000000000000000000000000000000165af1908115610b3b578891610ad6575b5015610a97575033865260028352818620805491858301809311610a855750555191825233917fc5739d67a97a90be372b6f883369469caa3e703e6cb1816f6c2e46d1c3a656039190a380f35b8760118a92634e487b7160e01b835252fd5b918784601592519362461bcd60e51b85528401528201527f546f6b656e207472616e73666572206661696c656400000000000000000000006044820152fd5b9050843d8611610b34575b601f8101601f1916820167ffffffffffffffff811183821017610b205786918391875281010312610b1c57518015158103610b1c5789610a38565b8780fd5b8a604186634e487b7160e01b600052526000fd5b503d610ae1565b84513d8a823e3d90fd5b67ffffffffffffffff8196929611610b60578652938a610957565b8a8260418c634e487b7160e01b835252fd5b8480fd5b6084877f6b6c697374656400000000000000000000000000000000000000000000000000888888519362461bcd60e51b8552840152602760248401527f5665726966696564416374696f6e486f6f6b3a205573657220697320626c61636044840152820152fd5b8486602085519162461bcd60e51b8352820152601f60248201527f4465706f73697420616d6f756e74206d75737420626520706f736974697665006044820152fd5b82843461061e5761012036600319011261061e57610c3b610d89565b5060c036602319011261061e5760e4356001600160a01b0381160361061e57610104359067ffffffffffffffff821161061e5750602092610c7e91369101610db5565b5050517f23962ace000000000000000000000000000000000000000000000000000000008152f35b505034610149578160031936011261014957602090516001600160a01b037f0000000000000000000000000000000000000000000000000000000000000000168152f35b919050346101fd57826003193601126101fd5760c092506001600160a01b038080600354169354169181600554169060065493815195865260208601528401528116606083015262ffffff8160a01c16608083015260b81c60020b60a0820152f35b84903461014957602090610d5f36610de3565b50505050507f0127e456000000000000000000000000000000000000000000000000000000008152f35b600435906001600160a01b038216820361062557565b602435906001600160a01b038216820361062557565b9181601f840112156106255782359167ffffffffffffffff8311610625576020838186019501011161062557565b90610160600319830112610625576004356001600160a01b0381168103610625579160c060231982011261062557602491606060e3198301126106255760e491610144359067ffffffffffffffff821161062557610e4391600401610db5565b9091565b610180600319820112610625576004356001600160a01b0381168103610625579160c060231983011261062557602491606060e3198201126106255760e4916101443591610164359067ffffffffffffffff821161062557610e4391600401610db5565b610140600319820112610625576004356001600160a01b0381168103610625579160c06023198301126106255760249160e435916101043591610124359067ffffffffffffffff821161062557610e4391600401610db5565b6001600160a01b03600054163303610f1857565b60246040517f118cdaa7000000000000000000000000000000000000000000000000000000008152336004820152fd5b610100810190811067ffffffffffffffff821117610f6557604052565b634e487b7160e01b600052604160045260246000fd5b6024356001600160a01b03811681036106255790565b15610f9857565b606460405162461bcd60e51b815260206004820152601160248201527f496e76616c6964206e756c6c69666965720000000000000000000000000000006044820152fdfea26469706673582212207982c24859c24e8a0cab3a40cbc36e4eb21128788ef9ebd64c0ce3158828bd6c64736f6c63430008140033","opcodes":"PUSH1 0xE0 CALLVALUE PUSH2 0x172 JUMPI PUSH1 0x1F PUSH2 0x11B4 CODESIZE DUP2 SWAP1 SUB SWAP2 DUP3 ADD PUSH1 0x1F NOT AND DUP4 ADD SWAP2 PUSH1 0x1 PUSH1 0x1 PUSH1 0x40 SHL SUB DUP4 GT DUP5 DUP5 LT OR PUSH2 0x177 JUMPI DUP1 DUP5 SWAP3 PUSH1 0x80 SWAP5 PUSH1 0x40 MSTORE DUP4 CODECOPY DUP2 ADD SUB SLT PUSH2 0x172 JUMPI DUP1 MLOAD PUSH1 0x1 PUSH1 0x1 PUSH1 0xA0 SHL SUB DUP1 DUP3 AND DUP3 SUB PUSH2 0x172 JUMPI PUSH1 0x20 DUP4 ADD MLOAD SWAP2 DUP2 DUP4 AND DUP4 SUB PUSH2 0x172 JUMPI DUP2 SWAP1 PUSH2 0x7A PUSH1 0x60 PUSH2 0x73 PUSH1 0x40 DUP9 ADD PUSH2 0x18D JUMP JUMPDEST SWAP7 ADD PUSH2 0x18D JUMP JUMPDEST SWAP1 PUSH1 0x80 MSTORE AND SWAP1 DUP2 ISZERO PUSH2 0x159 JUMPI PUSH1 0x0 DUP1 SLOAD PUSH1 0x1 PUSH1 0x1 PUSH1 0xA0 SHL SUB NOT DUP2 AND DUP5 OR DUP3 SSTORE PUSH1 0x40 MLOAD SWAP4 SWAP2 SWAP1 DUP4 AND SWAP1 PUSH32 0x8BE0079C531659141344CD1FD0A4F28419497F9722A3DAAFE3B4186F6B6457E0 SWAP1 DUP1 LOG3 DUP4 AND ISZERO PUSH2 0x10C JUMPI POP PUSH1 0xA0 MSTORE PUSH1 0xC0 MSTORE PUSH1 0x40 MLOAD PUSH2 0x1012 SWAP1 DUP2 PUSH2 0x1A2 DUP3 CODECOPY PUSH1 0x80 MLOAD DUP2 PUSH2 0x29F ADD MSTORE PUSH1 0xA0 MLOAD DUP2 DUP2 DUP2 PUSH2 0x6D0 ADD MSTORE PUSH2 0x8D8 ADD MSTORE PUSH1 0xC0 MLOAD DUP2 DUP2 DUP2 PUSH2 0xA08 ADD MSTORE PUSH2 0xCC6 ADD MSTORE RETURN JUMPDEST PUSH3 0x461BCD PUSH1 0xE5 SHL DUP2 MSTORE PUSH1 0x20 PUSH1 0x4 DUP3 ADD MSTORE PUSH1 0x22 PUSH1 0x24 DUP3 ADD MSTORE PUSH32 0x51756F746520746F6B656E2063616E6E6F74206265207A65726F206164647265 PUSH1 0x44 DUP3 ADD MSTORE PUSH2 0x7373 PUSH1 0xF0 SHL PUSH1 0x64 DUP3 ADD MSTORE PUSH1 0x84 SWAP1 REVERT JUMPDEST PUSH1 0x40 MLOAD PUSH4 0x1E4FBDF7 PUSH1 0xE0 SHL DUP2 MSTORE PUSH1 0x0 PUSH1 0x4 DUP3 ADD MSTORE PUSH1 0x24 SWAP1 REVERT JUMPDEST PUSH1 0x0 DUP1 REVERT JUMPDEST PUSH4 0x4E487B71 PUSH1 0xE0 SHL PUSH1 0x0 MSTORE PUSH1 0x41 PUSH1 0x4 MSTORE PUSH1 0x24 PUSH1 0x0 REVERT JUMPDEST MLOAD SWAP1 PUSH1 0x1 PUSH1 0x1 PUSH1 0xA0 SHL SUB DUP3 AND DUP3 SUB PUSH2 0x172 JUMPI JUMP INVALID PUSH1 0x80 PUSH1 0x40 DUP2 DUP2 MSTORE PUSH1 0x4 SWAP2 DUP3 CALLDATASIZE LT ISZERO PUSH2 0x16 JUMPI PUSH1 0x0 DUP1 REVERT JUMPDEST PUSH1 0x0 SWAP3 DUP4 CALLDATALOAD PUSH1 0xE0 SHR SWAP2 DUP3 PUSH4 0x127E456 EQ PUSH2 0xD4C JUMPI POP DUP2 PUSH4 0x182148EF EQ PUSH2 0xCEA JUMPI DUP2 PUSH4 0x217A4B70 EQ PUSH2 0xCA6 JUMPI DUP2 PUSH4 0x23962ACE EQ PUSH2 0xC1F JUMPI DUP2 PUSH4 0x3FE87DA4 EQ PUSH2 0x884 JUMPI DUP2 PUSH4 0x44577BEA EQ PUSH2 0x846 JUMPI DUP2 PUSH4 0x52494C9B EQ PUSH2 0x7E2 JUMPI DUP2 PUSH4 0x715018A6 EQ PUSH2 0x77B JUMPI DUP2 PUSH4 0x8DA5CB5B EQ PUSH2 0x755 JUMPI DUP2 PUSH4 0x9F110576 EQ PUSH2 0x6F4 JUMPI DUP2 PUSH4 0x9F50B66D EQ PUSH2 0x6B0 JUMPI DUP2 PUSH4 0xA17BBFBC EQ PUSH2 0x435 JUMPI DUP2 PUSH4 0xB7F69163 EQ PUSH2 0x408 JUMPI DUP2 PUSH4 0xC12DB167 EQ PUSH2 0x3D1 JUMPI DUP2 PUSH4 0xC1EF3C4B EQ PUSH2 0x392 JUMPI DUP2 PUSH4 0xC4E833CE EQ PUSH2 0x2C3 JUMPI DUP2 PUSH4 0xDC4C90D3 EQ PUSH2 0x27F JUMPI DUP2 PUSH4 0xDF579681 EQ PUSH2 0x240 JUMPI DUP2 PUSH4 0xDF991FD9 EQ PUSH2 0x201 JUMPI DUP2 PUSH4 0xF2FDE38B EQ PUSH2 0x14D JUMPI POP PUSH4 0xFC806003 EQ PUSH2 0x10C JUMPI PUSH1 0x0 DUP1 REVERT JUMPDEST CALLVALUE PUSH2 0x149 JUMPI PUSH1 0x20 SWAP1 PUSH2 0x11D CALLDATASIZE PUSH2 0xE47 JUMP JUMPDEST POP POP POP POP POP POP MLOAD PUSH32 0xFC80600300000000000000000000000000000000000000000000000000000000 DUP2 MSTORE RETURN JUMPDEST POP DUP1 REVERT JUMPDEST SWAP1 POP CALLVALUE PUSH2 0x1FD JUMPI PUSH1 0x20 CALLDATASIZE PUSH1 0x3 NOT ADD SLT PUSH2 0x1FD JUMPI PUSH2 0x168 PUSH2 0xD89 JUMP JUMPDEST SWAP1 PUSH2 0x171 PUSH2 0xF04 JUMP JUMPDEST PUSH1 0x1 PUSH1 0x1 PUSH1 0xA0 SHL SUB DUP1 SWAP3 AND SWAP3 DUP4 ISZERO PUSH2 0x1CE JUMPI POP POP PUSH1 0x0 SLOAD DUP3 PUSH20 0xFFFFFFFFFFFFFFFFFFFFFFFFFFFFFFFFFFFFFFFF NOT DUP3 AND OR PUSH1 0x0 SSTORE AND PUSH32 0x8BE0079C531659141344CD1FD0A4F28419497F9722A3DAAFE3B4186F6B6457E0 PUSH1 0x0 DUP1 LOG3 DUP1 RETURN JUMPDEST SWAP1 DUP5 PUSH1 0x24 SWAP3 MLOAD SWAP2 PUSH32 0x1E4FBDF700000000000000000000000000000000000000000000000000000000 DUP4 MSTORE DUP3 ADD MSTORE REVERT JUMPDEST DUP3 DUP1 REVERT JUMPDEST POP POP CALLVALUE PUSH2 0x149 JUMPI PUSH1 0x20 SWAP1 PUSH2 0x214 CALLDATASIZE PUSH2 0xEAB JUMP JUMPDEST POP POP POP POP POP POP MLOAD PUSH32 0xDF991FD900000000000000000000000000000000000000000000000000000000 DUP2 MSTORE RETURN JUMPDEST POP POP CALLVALUE PUSH2 0x149 JUMPI PUSH1 0x20 SWAP1 PUSH2 0x253 CALLDATASIZE PUSH2 0xEAB JUMP JUMPDEST POP POP POP POP POP POP MLOAD PUSH32 0xDF57968100000000000000000000000000000000000000000000000000000000 DUP2 MSTORE RETURN JUMPDEST POP POP CALLVALUE PUSH2 0x149 JUMPI DUP2 PUSH1 0x3 NOT CALLDATASIZE ADD SLT PUSH2 0x149 JUMPI PUSH1 0x20 SWAP1 MLOAD PUSH1 0x1 PUSH1 0x1 PUSH1 0xA0 SHL SUB PUSH32 0x0 AND DUP2 MSTORE RETURN JUMPDEST POP POP CALLVALUE PUSH2 0x149 JUMPI DUP2 PUSH1 0x3 NOT CALLDATASIZE ADD SLT PUSH2 0x149 JUMPI SWAP1 DUP2 DUP2 PUSH1 0xE0 PUSH2 0x100 SWAP5 MLOAD PUSH2 0x2E8 DUP2 PUSH2 0xF48 JUMP JUMPDEST DUP3 DUP2 MSTORE DUP3 PUSH1 0x20 DUP3 ADD MSTORE DUP3 DUP5 DUP3 ADD MSTORE DUP3 PUSH1 0x60 DUP3 ADD MSTORE DUP3 PUSH1 0x80 DUP3 ADD MSTORE DUP3 PUSH1 0xA0 DUP3 ADD MSTORE DUP3 PUSH1 0xC0 DUP3 ADD MSTORE ADD MSTORE DUP1 MLOAD PUSH2 0x31B DUP2 PUSH2 0xF48 JUMP JUMPDEST DUP3 DUP2 MSTORE PUSH1 0x20 DUP2 ADD SWAP2 PUSH1 0x1 DUP4 MSTORE DUP1 DUP3 ADD SWAP1 DUP5 DUP3 MSTORE PUSH1 0x60 DUP4 ADD DUP6 DUP2 MSTORE PUSH1 0x80 DUP5 ADD SWAP2 DUP7 DUP4 MSTORE PUSH1 0xA0 DUP6 ADD SWAP4 DUP8 DUP6 MSTORE PUSH1 0xE0 PUSH1 0xC0 DUP8 ADD SWAP7 DUP10 DUP9 MSTORE ADD SWAP7 DUP9 DUP9 MSTORE DUP3 MLOAD SWAP9 DUP10 MSTORE MLOAD ISZERO ISZERO PUSH1 0x20 DUP10 ADD MSTORE MLOAD ISZERO ISZERO SWAP1 DUP8 ADD MSTORE MLOAD ISZERO ISZERO PUSH1 0x60 DUP7 ADD MSTORE MLOAD ISZERO ISZERO PUSH1 0x80 DUP6 ADD MSTORE MLOAD ISZERO ISZERO PUSH1 0xA0 DUP5 ADD MSTORE MLOAD ISZERO ISZERO PUSH1 0xC0 DUP4 ADD MSTORE MLOAD ISZERO ISZERO PUSH1 0xE0 DUP3 ADD MSTORE RETURN JUMPDEST POP POP CALLVALUE PUSH2 0x149 JUMPI PUSH1 0x20 SWAP1 PUSH2 0x3A5 CALLDATASIZE PUSH2 0xE47 JUMP JUMPDEST POP POP POP POP POP POP MLOAD PUSH32 0xC1EF3C4B00000000000000000000000000000000000000000000000000000000 DUP2 MSTORE RETURN JUMPDEST POP POP CALLVALUE PUSH2 0x149 JUMPI PUSH1 0x20 CALLDATASIZE PUSH1 0x3 NOT ADD SLT PUSH2 0x149 JUMPI DUP1 PUSH1 0x20 SWAP3 PUSH1 0x1 PUSH1 0x1 PUSH1 0xA0 SHL SUB PUSH2 0x3F8 PUSH2 0xD89 JUMP JUMPDEST AND DUP2 MSTORE PUSH1 0x2 DUP5 MSTORE KECCAK256 SLOAD SWAP1 MLOAD SWAP1 DUP2 MSTORE RETURN JUMPDEST SWAP1 POP CALLVALUE PUSH2 0x1FD JUMPI PUSH1 0x20 CALLDATASIZE PUSH1 0x3 NOT ADD SLT PUSH2 0x1FD JUMPI DUP2 PUSH1 0x20 SWAP4 PUSH1 0xFF SWAP3 CALLDATALOAD DUP2 MSTORE PUSH1 0x1 DUP6 MSTORE KECCAK256 SLOAD AND SWAP1 MLOAD SWAP1 ISZERO ISZERO DUP2 MSTORE RETURN JUMPDEST DUP3 DUP5 CALLVALUE PUSH2 0x61E JUMPI CALLDATASIZE PUSH1 0x3 NOT ADD PUSH2 0x120 DUP2 SLT PUSH2 0x149 JUMPI PUSH1 0xC0 SGT PUSH2 0x61E JUMPI PUSH1 0x1 PUSH1 0x1 PUSH1 0xA0 SHL SUB SWAP3 PUSH1 0xC4 CALLDATALOAD DUP5 DUP2 AND SUB PUSH2 0x625 JUMPI PUSH1 0xE4 CALLDATALOAD DUP1 PUSH1 0x2 SIGNEXTEND SUB PUSH2 0x625 JUMPI PUSH2 0x104 CALLDATALOAD PUSH8 0xFFFFFFFFFFFFFFFF DUP2 GT PUSH2 0x1FD JUMPI PUSH2 0x491 SWAP1 CALLDATASIZE SWAP1 DUP4 ADD PUSH2 0xDB5 JUMP JUMPDEST POP POP PUSH2 0x49B PUSH2 0xF7B JUMP JUMPDEST DUP5 ADDRESS SWAP2 AND SUB PUSH2 0x66D JUMPI DUP1 SLOAD SWAP1 DUP5 DUP3 AND PUSH2 0x62A JUMPI DUP1 CALLDATALOAD SWAP2 DUP6 DUP4 AND DUP1 SWAP4 SUB PUSH2 0x625 JUMPI PUSH20 0xFFFFFFFFFFFFFFFFFFFFFFFFFFFFFFFFFFFFFFFF NOT SWAP3 DUP4 PUSH1 0x3 SLOAD AND OR PUSH1 0x3 SSTORE DUP3 DUP7 PUSH2 0x4E5 PUSH2 0xF7B JUMP JUMPDEST AND SWAP2 AND OR SWAP1 SSTORE PUSH1 0x44 CALLDATALOAD SWAP1 DUP5 DUP3 AND DUP1 SWAP3 SUB PUSH2 0x625 JUMPI DUP2 SWAP1 PUSH1 0x5 SLOAD AND OR PUSH1 0x5 SSTORE PUSH1 0x64 CALLDATALOAD DUP5 DUP2 AND DUP1 SWAP2 SUB PUSH2 0x625 JUMPI PUSH1 0x6 SLOAD SWAP2 PUSH1 0x84 CALLDATALOAD PUSH3 0xFFFFFF DUP2 AND SWAP4 DUP5 DUP3 SUB PUSH2 0x621 JUMPI PUSH1 0xA4 CALLDATALOAD DUP1 PUSH1 0x2 SIGNEXTEND SWAP7 DUP8 DUP3 SUB PUSH2 0x61E JUMPI POP SWAP3 PUSH1 0xC0 SWAP6 SWAP3 DUP6 SWAP3 PUSH1 0x20 SWAP11 SWAP7 PUSH32 0xFFFFFFFFFFFF0000000000000000000000000000000000000000000000000000 PUSH23 0xFFFFFF0000000000000000000000000000000000000000 PUSH32 0x50610696E9FE8816208F4F19F070F264B06B4AD02C040485C0E5FA4EF433208A SWAP12 SWAP9 PUSH1 0xB8 SHL PUSH26 0xFFFFFF0000000000000000000000000000000000000000000000 AND SWAP5 PUSH1 0xA0 SHL AND SWAP3 AND OR OR OR PUSH1 0x6 SSTORE DUP8 MLOAD SWAP5 DUP1 PUSH2 0x5D4 PUSH2 0xD89 JUMP JUMPDEST AND DUP7 MSTORE PUSH2 0x5DF PUSH2 0xD9F JUMP JUMPDEST AND DUP10 DUP7 ADD MSTORE DUP8 DUP6 ADD MSTORE PUSH1 0x60 DUP5 ADD MSTORE PUSH1 0x80 DUP4 ADD MSTORE PUSH1 0xA0 DUP3 ADD MSTORE LOG1 MLOAD PUSH32 0xA17BBFBC00000000000000000000000000000000000000000000000000000000 DUP2 MSTORE RETURN JUMPDEST DUP1 REVERT JUMPDEST DUP6 DUP1 REVERT JUMPDEST PUSH1 0x0 DUP1 REVERT JUMPDEST PUSH1 0x64 SWAP1 PUSH1 0x20 DUP6 MLOAD SWAP2 PUSH3 0x461BCD PUSH1 0xE5 SHL DUP4 MSTORE DUP3 ADD MSTORE PUSH1 0x13 PUSH1 0x24 DUP3 ADD MSTORE PUSH32 0x506F6F6C4B657920616C72656164792073657400000000000000000000000000 PUSH1 0x44 DUP3 ADD MSTORE REVERT JUMPDEST PUSH1 0x64 SWAP1 PUSH1 0x20 DUP5 MLOAD SWAP2 PUSH3 0x461BCD PUSH1 0xE5 SHL DUP4 MSTORE DUP3 ADD MSTORE PUSH1 0x1B PUSH1 0x24 DUP3 ADD MSTORE PUSH32 0x496E76616C696420686F6F6B206164647265737320696E206B65790000000000 PUSH1 0x44 DUP3 ADD MSTORE REVERT JUMPDEST POP POP CALLVALUE PUSH2 0x149 JUMPI DUP2 PUSH1 0x3 NOT CALLDATASIZE ADD SLT PUSH2 0x149 JUMPI PUSH1 0x20 SWAP1 MLOAD PUSH1 0x1 PUSH1 0x1 PUSH1 0xA0 SHL SUB PUSH32 0x0 AND DUP2 MSTORE RETURN JUMPDEST SWAP1 POP CALLVALUE PUSH2 0x1FD JUMPI PUSH1 0x20 CALLDATASIZE PUSH1 0x3 NOT ADD SLT PUSH2 0x1FD JUMPI CALLDATALOAD SWAP1 PUSH2 0x711 PUSH2 0xF04 JUMP JUMPDEST PUSH2 0x71C DUP3 ISZERO ISZERO PUSH2 0xF91 JUMP JUMPDEST DUP2 DUP4 MSTORE PUSH1 0x1 PUSH1 0x20 MSTORE DUP3 KECCAK256 DUP1 SLOAD PUSH1 0xFF NOT AND SWAP1 SSTORE PUSH32 0x31C881E4E925D1768CC34E510541D44008B23B46A60E3027463F39C50658C163 DUP3 DUP1 LOG2 DUP1 RETURN JUMPDEST POP POP CALLVALUE PUSH2 0x149 JUMPI DUP2 PUSH1 0x3 NOT CALLDATASIZE ADD SLT PUSH2 0x149 JUMPI PUSH1 0x1 PUSH1 0x1 PUSH1 0xA0 SHL SUB PUSH1 0x20 SWAP3 SLOAD AND SWAP1 MLOAD SWAP1 DUP2 MSTORE RETURN JUMPDEST DUP4 CALLVALUE PUSH2 0x61E JUMPI DUP1 PUSH1 0x3 NOT CALLDATASIZE ADD SLT PUSH2 0x61E JUMPI PUSH2 0x794 PUSH2 0xF04 JUMP JUMPDEST PUSH1 0x0 PUSH1 0x1 PUSH1 0x1 PUSH1 0xA0 SHL SUB DUP2 SLOAD PUSH20 0xFFFFFFFFFFFFFFFFFFFFFFFFFFFFFFFFFFFFFFFF NOT DUP2 AND DUP4 SSTORE AND PUSH32 0x8BE0079C531659141344CD1FD0A4F28419497F9722A3DAAFE3B4186F6B6457E0 DUP3 DUP1 LOG3 DUP1 RETURN JUMPDEST SWAP1 POP CALLVALUE PUSH2 0x1FD JUMPI PUSH1 0x20 CALLDATASIZE PUSH1 0x3 NOT ADD SLT PUSH2 0x1FD JUMPI CALLDATALOAD SWAP1 PUSH2 0x7FF PUSH2 0xF04 JUMP JUMPDEST PUSH2 0x80A DUP3 ISZERO ISZERO PUSH2 0xF91 JUMP JUMPDEST DUP2 DUP4 MSTORE PUSH1 0x1 PUSH1 0x20 MSTORE DUP3 KECCAK256 PUSH1 0x1 PUSH1 0xFF NOT DUP3 SLOAD AND OR SWAP1 SSTORE PUSH32 0x4E15C89D8486414C833534DB84B7CE2DC7C8EFDB204E4CA8912299ED0629E4C7 DUP3 DUP1 LOG2 DUP1 RETURN JUMPDEST POP POP CALLVALUE PUSH2 0x149 JUMPI PUSH1 0x20 SWAP1 PUSH2 0x859 CALLDATASIZE PUSH2 0xDE3 JUMP JUMPDEST POP POP POP POP POP MLOAD PUSH32 0x44577BEA00000000000000000000000000000000000000000000000000000000 DUP2 MSTORE RETURN JUMPDEST SWAP1 POP DUP3 CALLVALUE PUSH2 0x61E JUMPI PUSH2 0x180 CALLDATASIZE PUSH1 0x3 NOT ADD SLT PUSH2 0x61E JUMPI DUP2 CALLDATALOAD PUSH2 0x8A3 PUSH2 0xD9F JUMP JUMPDEST SWAP4 PUSH1 0x64 SWAP3 DUP4 CALLDATALOAD CALLDATASIZE PUSH2 0x184 GT PUSH2 0x149 JUMPI DUP4 ISZERO PUSH2 0xBDD JUMPI DUP1 DUP3 MSTORE PUSH1 0x20 SWAP4 PUSH1 0x1 DUP6 MSTORE PUSH1 0xFF DUP5 DUP5 KECCAK256 SLOAD AND PUSH2 0xB76 JUMPI PUSH1 0x1 PUSH1 0x1 PUSH1 0xA0 SHL SUB DUP1 PUSH32 0x0 AND SWAP9 DUP10 EXTCODESIZE ISZERO PUSH2 0xB72 JUMPI DUP2 DUP7 MLOAD SWAP2 PUSH32 0xFA0795FB00000000000000000000000000000000000000000000000000000000 DUP4 MSTORE AND DUP10 DUP3 ADD MSTORE DUP5 DUP2 PUSH1 0x24 SWAP12 PUSH1 0x44 CALLDATALOAD DUP14 DUP4 ADD MSTORE DUP7 PUSH1 0x44 DUP4 ADD MSTORE DUP11 DUP3 ADD PUSH1 0x84 PUSH2 0x100 SWAP2 CALLDATACOPY DUP2 GAS SWAP2 PUSH2 0x164 SWAP3 STATICCALL SWAP1 DUP2 PUSH2 0xB45 JUMPI JUMPDEST POP PUSH2 0x9C2 JUMPI PUSH1 0x84 DUP9 PUSH32 0x642049442070726F6F6600000000000000000000000000000000000000000000 DUP10 PUSH1 0x2A DUP14 DUP12 DUP12 MLOAD SWAP6 PUSH3 0x461BCD PUSH1 0xE5 SHL DUP8 MSTORE DUP7 ADD MSTORE DUP5 ADD MSTORE PUSH32 0x5665726966696564416374696F6E486F6F6B3A20496E76616C696420576F726C PUSH1 0x44 DUP5 ADD MSTORE DUP3 ADD MSTORE REVERT JUMPDEST DUP9 SWAP5 DUP9 DUP9 DUP7 DUP10 DUP1 SWAP6 DUP4 DUP12 DUP8 MLOAD SWAP5 DUP6 SWAP4 DUP5 SWAP3 PUSH32 0x23B872DD00000000000000000000000000000000000000000000000000000000 DUP5 MSTORE CALLER DUP11 DUP6 ADD MSTORE ADDRESS SWAP1 DUP5 ADD MSTORE DUP12 PUSH1 0x44 DUP5 ADD MSTORE PUSH32 0x0 AND GAS CALL SWAP1 DUP2 ISZERO PUSH2 0xB3B JUMPI DUP9 SWAP2 PUSH2 0xAD6 JUMPI JUMPDEST POP ISZERO PUSH2 0xA97 JUMPI POP CALLER DUP7 MSTORE PUSH1 0x2 DUP4 MSTORE DUP2 DUP7 KECCAK256 DUP1 SLOAD SWAP2 DUP6 DUP4 ADD DUP1 SWAP4 GT PUSH2 0xA85 JUMPI POP SSTORE MLOAD SWAP2 DUP3 MSTORE CALLER SWAP2 PUSH32 0xC5739D67A97A90BE372B6F883369469CAA3E703E6CB1816F6C2E46D1C3A65603 SWAP2 SWAP1 LOG3 DUP1 RETURN JUMPDEST DUP8 PUSH1 0x11 DUP11 SWAP3 PUSH4 0x4E487B71 PUSH1 0xE0 SHL DUP4 MSTORE MSTORE REVERT JUMPDEST SWAP2 DUP8 DUP5 PUSH1 0x15 SWAP3 MLOAD SWAP4 PUSH3 0x461BCD PUSH1 0xE5 SHL DUP6 MSTORE DUP5 ADD MSTORE DUP3 ADD MSTORE PUSH32 0x546F6B656E207472616E73666572206661696C65640000000000000000000000 PUSH1 0x44 DUP3 ADD MSTORE REVERT JUMPDEST SWAP1 POP DUP5 RETURNDATASIZE DUP7 GT PUSH2 0xB34 JUMPI JUMPDEST PUSH1 0x1F DUP2 ADD PUSH1 0x1F NOT AND DUP3 ADD PUSH8 0xFFFFFFFFFFFFFFFF DUP2 GT DUP4 DUP3 LT OR PUSH2 0xB20 JUMPI DUP7 SWAP2 DUP4 SWAP2 DUP8 MSTORE DUP2 ADD SUB SLT PUSH2 0xB1C JUMPI MLOAD DUP1 ISZERO ISZERO DUP2 SUB PUSH2 0xB1C JUMPI DUP10 PUSH2 0xA38 JUMP JUMPDEST DUP8 DUP1 REVERT JUMPDEST DUP11 PUSH1 0x41 DUP7 PUSH4 0x4E487B71 PUSH1 0xE0 SHL PUSH1 0x0 MSTORE MSTORE PUSH1 0x0 REVERT JUMPDEST POP RETURNDATASIZE PUSH2 0xAE1 JUMP JUMPDEST DUP5 MLOAD RETURNDATASIZE DUP11 DUP3 RETURNDATACOPY RETURNDATASIZE SWAP1 REVERT JUMPDEST PUSH8 0xFFFFFFFFFFFFFFFF DUP2 SWAP7 SWAP3 SWAP7 GT PUSH2 0xB60 JUMPI DUP7 MSTORE SWAP4 DUP11 PUSH2 0x957 JUMP JUMPDEST DUP11 DUP3 PUSH1 0x41 DUP13 PUSH4 0x4E487B71 PUSH1 0xE0 SHL DUP4 MSTORE MSTORE REVERT JUMPDEST DUP5 DUP1 REVERT JUMPDEST PUSH1 0x84 DUP8 PUSH32 0x6B6C697374656400000000000000000000000000000000000000000000000000 DUP9 DUP9 DUP9 MLOAD SWAP4 PUSH3 0x461BCD PUSH1 0xE5 SHL DUP6 MSTORE DUP5 ADD MSTORE PUSH1 0x27 PUSH1 0x24 DUP5 ADD MSTORE PUSH32 0x5665726966696564416374696F6E486F6F6B3A205573657220697320626C6163 PUSH1 0x44 DUP5 ADD MSTORE DUP3 ADD MSTORE REVERT JUMPDEST DUP5 DUP7 PUSH1 0x20 DUP6 MLOAD SWAP2 PUSH3 0x461BCD PUSH1 0xE5 SHL DUP4 MSTORE DUP3 ADD MSTORE PUSH1 0x1F PUSH1 0x24 DUP3 ADD MSTORE PUSH32 0x4465706F73697420616D6F756E74206D75737420626520706F73697469766500 PUSH1 0x44 DUP3 ADD MSTORE REVERT JUMPDEST DUP3 DUP5 CALLVALUE PUSH2 0x61E JUMPI PUSH2 0x120 CALLDATASIZE PUSH1 0x3 NOT ADD SLT PUSH2 0x61E JUMPI PUSH2 0xC3B PUSH2 0xD89 JUMP JUMPDEST POP PUSH1 0xC0 CALLDATASIZE PUSH1 0x23 NOT ADD SLT PUSH2 0x61E JUMPI PUSH1 0xE4 CALLDATALOAD PUSH1 0x1 PUSH1 0x1 PUSH1 0xA0 SHL SUB DUP2 AND SUB PUSH2 0x61E JUMPI PUSH2 0x104 CALLDATALOAD SWAP1 PUSH8 0xFFFFFFFFFFFFFFFF DUP3 GT PUSH2 0x61E JUMPI POP PUSH1 0x20 SWAP3 PUSH2 0xC7E SWAP2 CALLDATASIZE SWAP2 ADD PUSH2 0xDB5 JUMP JUMPDEST POP POP MLOAD PUSH32 0x23962ACE00000000000000000000000000000000000000000000000000000000 DUP2 MSTORE RETURN JUMPDEST POP POP CALLVALUE PUSH2 0x149 JUMPI DUP2 PUSH1 0x3 NOT CALLDATASIZE ADD SLT PUSH2 0x149 JUMPI PUSH1 0x20 SWAP1 MLOAD PUSH1 0x1 PUSH1 0x1 PUSH1 0xA0 SHL SUB PUSH32 0x0 AND DUP2 MSTORE RETURN JUMPDEST SWAP2 SWAP1 POP CALLVALUE PUSH2 0x1FD JUMPI DUP3 PUSH1 0x3 NOT CALLDATASIZE ADD SLT PUSH2 0x1FD JUMPI PUSH1 0xC0 SWAP3 POP PUSH1 0x1 PUSH1 0x1 PUSH1 0xA0 SHL SUB DUP1 DUP1 PUSH1 0x3 SLOAD AND SWAP4 SLOAD AND SWAP2 DUP2 PUSH1 0x5 SLOAD AND SWAP1 PUSH1 0x6 SLOAD SWAP4 DUP2 MLOAD SWAP6 DUP7 MSTORE PUSH1 0x20 DUP7 ADD MSTORE DUP5 ADD MSTORE DUP2 AND PUSH1 0x60 DUP4 ADD MSTORE PUSH3 0xFFFFFF DUP2 PUSH1 0xA0 SHR AND PUSH1 0x80 DUP4 ADD MSTORE PUSH1 0xB8 SHR PUSH1 0x2 SIGNEXTEND PUSH1 0xA0 DUP3 ADD MSTORE RETURN JUMPDEST DUP5 SWAP1 CALLVALUE PUSH2 0x149 JUMPI PUSH1 0x20 SWAP1 PUSH2 0xD5F CALLDATASIZE PUSH2 0xDE3 JUMP JUMPDEST POP POP POP POP POP PUSH32 0x127E45600000000000000000000000000000000000000000000000000000000 DUP2 MSTORE RETURN JUMPDEST PUSH1 0x4 CALLDATALOAD SWAP1 PUSH1 0x1 PUSH1 0x1 PUSH1 0xA0 SHL SUB DUP3 AND DUP3 SUB PUSH2 0x625 JUMPI JUMP JUMPDEST PUSH1 0x24 CALLDATALOAD SWAP1 PUSH1 0x1 PUSH1 0x1 PUSH1 0xA0 SHL SUB DUP3 AND DUP3 SUB PUSH2 0x625 JUMPI JUMP JUMPDEST SWAP2 DUP2 PUSH1 0x1F DUP5 ADD SLT ISZERO PUSH2 0x625 JUMPI DUP3 CALLDATALOAD SWAP2 PUSH8 0xFFFFFFFFFFFFFFFF DUP4 GT PUSH2 0x625 JUMPI PUSH1 0x20 DUP4 DUP2 DUP7 ADD SWAP6 ADD ADD GT PUSH2 0x625 JUMPI JUMP JUMPDEST SWAP1 PUSH2 0x160 PUSH1 0x3 NOT DUP4 ADD SLT PUSH2 0x625 JUMPI PUSH1 0x4 CALLDATALOAD PUSH1 0x1 PUSH1 0x1 PUSH1 0xA0 SHL SUB DUP2 AND DUP2 SUB PUSH2 0x625 JUMPI SWAP2 PUSH1 0xC0 PUSH1 0x23 NOT DUP3 ADD SLT PUSH2 0x625 JUMPI PUSH1 0x24 SWAP2 PUSH1 0x60 PUSH1 0xE3 NOT DUP4 ADD SLT PUSH2 0x625 JUMPI PUSH1 0xE4 SWAP2 PUSH2 0x144 CALLDATALOAD SWAP1 PUSH8 0xFFFFFFFFFFFFFFFF DUP3 GT PUSH2 0x625 JUMPI PUSH2 0xE43 SWAP2 PUSH1 0x4 ADD PUSH2 0xDB5 JUMP JUMPDEST SWAP1 SWAP2 JUMP JUMPDEST PUSH2 0x180 PUSH1 0x3 NOT DUP3 ADD SLT PUSH2 0x625 JUMPI PUSH1 0x4 CALLDATALOAD PUSH1 0x1 PUSH1 0x1 PUSH1 0xA0 SHL SUB DUP2 AND DUP2 SUB PUSH2 0x625 JUMPI SWAP2 PUSH1 0xC0 PUSH1 0x23 NOT DUP4 ADD SLT PUSH2 0x625 JUMPI PUSH1 0x24 SWAP2 PUSH1 0x60 PUSH1 0xE3 NOT DUP3 ADD SLT PUSH2 0x625 JUMPI PUSH1 0xE4 SWAP2 PUSH2 0x144 CALLDATALOAD SWAP2 PUSH2 0x164 CALLDATALOAD SWAP1 PUSH8 0xFFFFFFFFFFFFFFFF DUP3 GT PUSH2 0x625 JUMPI PUSH2 0xE43 SWAP2 PUSH1 0x4 ADD PUSH2 0xDB5 JUMP JUMPDEST PUSH2 0x140 PUSH1 0x3 NOT DUP3 ADD SLT PUSH2 0x625 JUMPI PUSH1 0x4 CALLDATALOAD PUSH1 0x1 PUSH1 0x1 PUSH1 0xA0 SHL SUB DUP2 AND DUP2 SUB PUSH2 0x625 JUMPI SWAP2 PUSH1 0xC0 PUSH1 0x23 NOT DUP4 ADD SLT PUSH2 0x625 JUMPI PUSH1 0x24 SWAP2 PUSH1 0xE4 CALLDATALOAD SWAP2 PUSH2 0x104 CALLDATALOAD SWAP2 PUSH2 0x124 CALLDATALOAD SWAP1 PUSH8 0xFFFFFFFFFFFFFFFF DUP3 GT PUSH2 0x625 JUMPI PUSH2 0xE43 SWAP2 PUSH1 0x4 ADD PUSH2 0xDB5 JUMP JUMPDEST PUSH1 0x1 PUSH1 0x1 PUSH1 0xA0 SHL SUB PUSH1 0x0 SLOAD AND CALLER SUB PUSH2 0xF18 JUMPI JUMP JUMPDEST PUSH1 0x24 PUSH1 0x40 MLOAD PUSH32 0x118CDAA700000000000000000000000000000000000000000000000000000000 DUP2 MSTORE CALLER PUSH1 0x4 DUP3 ADD MSTORE REVERT JUMPDEST PUSH2 0x100 DUP2 ADD SWAP1 DUP2 LT PUSH8 0xFFFFFFFFFFFFFFFF DUP3 GT OR PUSH2 0xF65 JUMPI PUSH1 0x40 MSTORE JUMP JUMPDEST PUSH4 0x4E487B71 PUSH1 0xE0 SHL PUSH1 0x0 MSTORE PUSH1 0x41 PUSH1 0x4 MSTORE PUSH1 0x24 PUSH1 0x0 REVERT JUMPDEST PUSH1 0x24 CALLDATALOAD PUSH1 0x1 PUSH1 0x1 PUSH1 0xA0 SHL SUB DUP2 AND DUP2 SUB PUSH2 0x625 JUMPI SWAP1 JUMP JUMPDEST ISZERO PUSH2 0xF98 JUMPI JUMP JUMPDEST PUSH1 0x64 PUSH1 0x40 MLOAD PUSH3 0x461BCD PUSH1 0xE5 SHL DUP2 MSTORE PUSH1 0x20 PUSH1 0x4 DUP3 ADD MSTORE PUSH1 0x11 PUSH1 0x24 DUP3 ADD MSTORE PUSH32 0x496E76616C6964206E756C6C6966696572000000000000000000000000000000 PUSH1 0x44 DUP3 ADD MSTORE REVERT INVALID LOG2 PUSH5 0x6970667358 0x22 SLT KECCAK256 PUSH26 0x82C24859C24E8A0CAB3A40CBC36E4EB21128788EF9EBD64C0CE3 ISZERO DUP9 0x28 0xBD PUSH13 0x64736F6C634300081400330000 "},"methodIdentifiers":{"afterDonate(address,(address,address,address,address,uint24,int24),uint256,uint256,bytes)":"df579681","afterInitialize((address,address,address,address,uint24,int24),uint160,int24,bytes)":"a17bbfbc","afterModifyPosition(address,(address,address,address,address,uint24,int24),(int24,int24,int256),int256,bytes)":"c1ef3c4b","afterSwap(address,(address,address,address,address,uint24,int24),(bool,int256,uint160),int256,bytes)":"fc806003","beforeDonate(address,(address,address,address,address,uint24,int24),uint256,uint256,bytes)":"df991fd9","beforeInitialize(address,(address,address,address,address,uint24,int24),uint160,bytes)":"23962ace","beforeModifyPosition(address,(address,address,address,address,uint24,int24),(int24,int24,int256),bytes)":"0127e456","beforeSwap(address,(address,address,address,address,uint24,int24),(bool,int256,uint160),bytes)":"44577bea","getHookPermissions()":"c4e833ce","isNullifierBlacklisted(uint256)":"b7f69163","owner()":"8da5cb5b","ownerAddToBlacklist(uint256)":"52494c9b","ownerRemoveFromBlacklist(uint256)":"9f110576","poolKey()":"182148ef","poolManager()":"dc4c90d3","quoteToken()":"217a4b70","registerVerifiedDeposit(uint256,address,uint256,uint256,uint256[8])":"3fe87da4","renounceOwnership()":"715018a6","transferOwnership(address)":"f2fde38b","userVerifiedDeposits(address)":"c12db167","worldIdRouter()":"9f50b66d"}}}}}