{"mocks/MockPoolManager.sol":{"MockPoolManager":{"abi":[{"inputs":[{"components":[{"internalType":"address","name":"poolDeployer","type":"address"},{"internalType":"address","name":"hooks","type":"address"},{"internalType":"Currency","name":"currency0","type":"address"},{"internalType":"Currency","name":"currency1","type":"address"},{"internalType":"uint24","name":"fee","type":"uint24"},{"internalType":"int24","name":"tickSpacing","type":"int24"}],"internalType":"struct PoolKey","name":"key","type":"tuple"},{"internalType":"uint32","name":"twapInterval","type":"uint32"}],"name":"getOracleData","outputs":[{"internalType":"bytes","name":"","type":"bytes"}],"stateMutability":"view","type":"function"},{"inputs":[{"internalType":"bytes32","name":"","type":"bytes32"}],"name":"mockPrices","outputs":[{"internalType":"uint256","name":"","type":"uint256"}],"stateMutability":"view","type":"function"},{"inputs":[{"internalType":"address","name":"token0","type":"address"},{"internalType":"address","name":"token1","type":"address"},{"internalType":"uint256","name":"price","type":"uint256"}],"name":"setMockPrice","outputs":[],"stateMutability":"nonpayable","type":"function"},{"inputs":[{"components":[{"internalType":"address","name":"poolDeployer","type":"address"},{"internalType":"address","name":"hooks","type":"address"},{"internalType":"Currency","name":"currency0","type":"address"},{"internalType":"Currency","name":"currency1","type":"address"},{"internalType":"uint24","name":"fee","type":"uint24"},{"internalType":"int24","name":"tickSpacing","type":"int24"}],"internalType":"struct PoolKey","name":"key","type":"tuple"},{"components":[{"internalType":"bool","name":"zeroForOne","type":"bool"},{"internalType":"int256","name":"amountSpecified","type":"int256"},{"internalType":"uint160","name":"sqrtPriceLimitX96","type":"uint160"}],"internalType":"struct IPoolManager.SwapParams","name":"params","type":"tuple"},{"internalType":"bytes","name":"data","type":"bytes"}],"name":"swap","outputs":[{"internalType":"BalanceDelta","name":"","type":"int256"}],"stateMutability":"nonpayable","type":"function"}],"evm":{"bytecode":{"linkReferences":{},"object":"6080806040523461001657610284908161001c8239f35b600080fdfe608060408181526004918236101561001657600080fd5b600090813560e01c908163121395ba1461019f575080631b13f9061461012f578063eacb0366146101045763f5dcc3f31461005057600080fd5b346100fd57366003190160e081126101005760c0136100fd5760c43563ffffffff8116036100fd5781519060209068056bc75e2d63100000828401528183528383019483861067ffffffffffffffff8711176100ea5750848452818552825191826060850152815b8381106100d657505082820160800152601f01601f19168101030190f35b8082918601608083820151910152016100b8565b906041602492634e487b7160e01b835252fd5b80fd5b5080fd5b50913461012b57602036600319011261012b57602092829135815280845220549051908152f35b8280fd5b50913461012b57366003190161014081126101975760c01361012b5760603660c319011261012b57610124359067ffffffffffffffff9081831161019b573660238401121561019b578201359081116101975736910160240111610100576020905160018152f35b8380fd5b8480fd5b83858492346101975760603660031901126101975773ffffffffffffffffffffffffffffffffffffffff918035838116810361024a57602435938416840361024a5760208301936bffffffffffffffffffffffff19809260601b16855260601b16603483015260288252606082019082821067ffffffffffffffff831117610237575083525190208252816020526044359082205580f35b856041602492634e487b7160e01b835252fd5b8580fdfea26469706673582212204962a1f0002c9d2676bacdb4f10b4267127561eb3a75ff8ea2390cd4c3d9a54d64736f6c63430008140033","opcodes":"PUSH1 0x80 DUP1 PUSH1 0x40 MSTORE CALLVALUE PUSH2 0x16 JUMPI PUSH2 0x284 SWAP1 DUP2 PUSH2 0x1C DUP3 CODECOPY RETURN JUMPDEST PUSH1 0x0 DUP1 REVERT INVALID PUSH1 0x80 PUSH1 0x40 DUP2 DUP2 MSTORE PUSH1 0x4 SWAP2 DUP3 CALLDATASIZE LT ISZERO PUSH2 0x16 JUMPI PUSH1 0x0 DUP1 REVERT JUMPDEST PUSH1 0x0 SWAP1 DUP2 CALLDATALOAD PUSH1 0xE0 SHR SWAP1 DUP2 PUSH4 0x121395BA EQ PUSH2 0x19F JUMPI POP DUP1 PUSH4 0x1B13F906 EQ PUSH2 0x12F JUMPI DUP1 PUSH4 0xEACB0366 EQ PUSH2 0x104 JUMPI PUSH4 0xF5DCC3F3 EQ PUSH2 0x50 JUMPI PUSH1 0x0 DUP1 REVERT JUMPDEST CALLVALUE PUSH2 0xFD JUMPI CALLDATASIZE PUSH1 0x3 NOT ADD PUSH1 0xE0 DUP2 SLT PUSH2 0x100 JUMPI PUSH1 0xC0 SGT PUSH2 0xFD JUMPI PUSH1 0xC4 CALLDATALOAD PUSH4 0xFFFFFFFF DUP2 AND SUB PUSH2 0xFD JUMPI DUP2 MLOAD SWAP1 PUSH1 0x20 SWAP1 PUSH9 0x56BC75E2D63100000 DUP3 DUP5 ADD MSTORE DUP2 DUP4 MSTORE DUP4 DUP4 ADD SWAP5 DUP4 DUP7 LT PUSH8 0xFFFFFFFFFFFFFFFF DUP8 GT OR PUSH2 0xEA JUMPI POP DUP5 DUP5 MSTORE DUP2 DUP6 MSTORE DUP3 MLOAD SWAP2 DUP3 PUSH1 0x60 DUP6 ADD MSTORE DUP2 JUMPDEST DUP4 DUP2 LT PUSH2 0xD6 JUMPI POP POP DUP3 DUP3 ADD PUSH1 0x80 ADD MSTORE PUSH1 0x1F ADD PUSH1 0x1F NOT AND DUP2 ADD SUB ADD SWAP1 RETURN JUMPDEST DUP1 DUP3 SWAP2 DUP7 ADD PUSH1 0x80 DUP4 DUP3 ADD MLOAD SWAP2 ADD MSTORE ADD PUSH2 0xB8 JUMP JUMPDEST SWAP1 PUSH1 0x41 PUSH1 0x24 SWAP3 PUSH4 0x4E487B71 PUSH1 0xE0 SHL DUP4 MSTORE MSTORE REVERT JUMPDEST DUP1 REVERT JUMPDEST POP DUP1 REVERT JUMPDEST POP SWAP2 CALLVALUE PUSH2 0x12B JUMPI PUSH1 0x20 CALLDATASIZE PUSH1 0x3 NOT ADD SLT PUSH2 0x12B JUMPI PUSH1 0x20 SWAP3 DUP3 SWAP2 CALLDATALOAD DUP2 MSTORE DUP1 DUP5 MSTORE KECCAK256 SLOAD SWAP1 MLOAD SWAP1 DUP2 MSTORE RETURN JUMPDEST DUP3 DUP1 REVERT JUMPDEST POP SWAP2 CALLVALUE PUSH2 0x12B JUMPI CALLDATASIZE PUSH1 0x3 NOT ADD PUSH2 0x140 DUP2 SLT PUSH2 0x197 JUMPI PUSH1 0xC0 SGT PUSH2 0x12B JUMPI PUSH1 0x60 CALLDATASIZE PUSH1 0xC3 NOT ADD SLT PUSH2 0x12B JUMPI PUSH2 0x124 CALLDATALOAD SWAP1 PUSH8 0xFFFFFFFFFFFFFFFF SWAP1 DUP2 DUP4 GT PUSH2 0x19B JUMPI CALLDATASIZE PUSH1 0x23 DUP5 ADD SLT ISZERO PUSH2 0x19B JUMPI DUP3 ADD CALLDATALOAD SWAP1 DUP2 GT PUSH2 0x197 JUMPI CALLDATASIZE SWAP2 ADD PUSH1 0x24 ADD GT PUSH2 0x100 JUMPI PUSH1 0x20 SWAP1 MLOAD PUSH1 0x1 DUP2 MSTORE RETURN JUMPDEST DUP4 DUP1 REVERT JUMPDEST DUP5 DUP1 REVERT JUMPDEST DUP4 DUP6 DUP5 SWAP3 CALLVALUE PUSH2 0x197 JUMPI PUSH1 0x60 CALLDATASIZE PUSH1 0x3 NOT ADD SLT PUSH2 0x197 JUMPI PUSH20 0xFFFFFFFFFFFFFFFFFFFFFFFFFFFFFFFFFFFFFFFF SWAP2 DUP1 CALLDATALOAD DUP4 DUP2 AND DUP2 SUB PUSH2 0x24A JUMPI PUSH1 0x24 CALLDATALOAD SWAP4 DUP5 AND DUP5 SUB PUSH2 0x24A JUMPI PUSH1 0x20 DUP4 ADD SWAP4 PUSH12 0xFFFFFFFFFFFFFFFFFFFFFFFF NOT DUP1 SWAP3 PUSH1 0x60 SHL AND DUP6 MSTORE PUSH1 0x60 SHL AND PUSH1 0x34 DUP4 ADD MSTORE PUSH1 0x28 DUP3 MSTORE PUSH1 0x60 DUP3 ADD SWAP1 DUP3 DUP3 LT PUSH8 0xFFFFFFFFFFFFFFFF DUP4 GT OR PUSH2 0x237 JUMPI POP DUP4 MSTORE MLOAD SWAP1 KECCAK256 DUP3 MSTORE DUP2 PUSH1 0x20 MSTORE PUSH1 0x44 CALLDATALOAD SWAP1 DUP3 KECCAK256 SSTORE DUP1 RETURN JUMPDEST DUP6 PUSH1 0x41 PUSH1 0x24 SWAP3 PUSH4 0x4E487B71 PUSH1 0xE0 SHL DUP4 MSTORE MSTORE REVERT JUMPDEST DUP6 DUP1 REVERT INVALID LOG2 PUSH5 0x6970667358 0x22 SLT KECCAK256 0x49 PUSH3 0xA1F000 0x2C SWAP14 0x26 PUSH23 0xBACDB4F10B4267127561EB3A75FF8EA2390CD4C3D9A54D PUSH5 0x736F6C6343 STOP ADDMOD EQ STOP CALLER "},"methodIdentifiers":{"getOracleData((address,address,address,address,uint24,int24),uint32)":"f5dcc3f3","mockPrices(bytes32)":"eacb0366","setMockPrice(address,address,uint256)":"121395ba","swap((address,address,address,address,uint24,int24),(bool,int256,uint160),bytes)":"1b13f906"}}}}}