{
  "_format": "hh-sol-artifact-1",
  "contractName": "LendingRepoMVP_Hook",
  "sourceName": "contracts/LendingRepoMVPHook.sol",
  "abi": [
    {
      "inputs": [
        {
          "internalType": "contract IPoolManager",
          "name": "_poolManager",
          "type": "address"
        },
        {
          "internalType": "contract IWorldID",
          "name": "_worldIdRouter",
          "type": "address"
        },
        {
          "internalType": "address",
          "name": "_quoteToken",
          "type": "address"
        },
        {
          "internalType": "address",
          "name": "_initialOwner",
          "type": "address"
        }
      ],
      "stateMutability": "nonpayable",
      "type": "constructor"
    },
    {
      "inputs": [
        {
          "internalType": "address",
          "name": "owner",
          "type": "address"
        }
      ],
      "name": "OwnableInvalidOwner",
      "type": "error"
    },
    {
      "inputs": [
        {
          "internalType": "address",
          "name": "account",
          "type": "address"
        }
      ],
      "name": "OwnableUnauthorizedAccount",
      "type": "error"
    },
    {
      "anonymous": false,
      "inputs": [
        {
          "indexed": true,
          "internalType": "address",
          "name": "token",
          "type": "address"
        },
        {
          "indexed": false,
          "internalType": "bool",
          "name": "allowed",
          "type": "bool"
        }
      ],
      "name": "CollateralAllowed",
      "type": "event"
    },
    {
      "anonymous": false,
      "inputs": [
        {
          "indexed": true,
          "internalType": "uint256",
          "name": "loanId",
          "type": "uint256"
        }
      ],
      "name": "LoanDefaultDeclared",
      "type": "event"
    },
    {
      "anonymous": false,
      "inputs": [
        {
          "indexed": true,
          "internalType": "uint256",
          "name": "loanId",
          "type": "uint256"
        },
        {
          "indexed": true,
          "internalType": "uint256",
          "name": "requestId",
          "type": "uint256"
        },
        {
          "indexed": true,
          "internalType": "address",
          "name": "lender",
          "type": "address"
        },
        {
          "indexed": false,
          "internalType": "address",
          "name": "borrower",
          "type": "address"
        },
        {
          "indexed": false,
          "internalType": "uint256",
          "name": "quoteAmount",
          "type": "uint256"
        },
        {
          "indexed": false,
          "internalType": "uint256",
          "name": "maturityTimestamp",
          "type": "uint256"
        },
        {
          "indexed": false,
          "internalType": "uint256",
          "name": "lenderNullifier",
          "type": "uint256"
        }
      ],
      "name": "LoanFunded",
      "type": "event"
    },
    {
      "anonymous": false,
      "inputs": [
        {
          "indexed": true,
          "internalType": "uint256",
          "name": "loanId",
          "type": "uint256"
        }
      ],
      "name": "LoanRepaid",
      "type": "event"
    },
    {
      "anonymous": false,
      "inputs": [
        {
          "indexed": true,
          "internalType": "uint256",
          "name": "requestId",
          "type": "uint256"
        }
      ],
      "name": "LoanRequestCancelled",
      "type": "event"
    },
    {
      "anonymous": false,
      "inputs": [
        {
          "indexed": true,
          "internalType": "uint256",
          "name": "requestId",
          "type": "uint256"
        },
        {
          "indexed": true,
          "internalType": "address",
          "name": "borrower",
          "type": "address"
        },
        {
          "indexed": false,
          "internalType": "address",
          "name": "collateralToken",
          "type": "address"
        },
        {
          "indexed": false,
          "internalType": "uint256",
          "name": "collateralAmount",
          "type": "uint256"
        },
        {
          "indexed": false,
          "internalType": "uint256",
          "name": "quoteAmount",
          "type": "uint256"
        },
        {
          "indexed": false,
          "internalType": "uint256",
          "name": "maturityTimestamp",
          "type": "uint256"
        },
        {
          "indexed": false,
          "internalType": "uint256",
          "name": "borrowerNullifier",
          "type": "uint256"
        }
      ],
      "name": "LoanRequested",
      "type": "event"
    },
    {
      "anonymous": false,
      "inputs": [
        {
          "indexed": true,
          "internalType": "address",
          "name": "previousOwner",
          "type": "address"
        },
        {
          "indexed": true,
          "internalType": "address",
          "name": "newOwner",
          "type": "address"
        }
      ],
      "name": "OwnershipTransferred",
      "type": "event"
    },
    {
      "anonymous": false,
      "inputs": [
        {
          "components": [
            {
              "internalType": "address",
              "name": "poolDeployer",
              "type": "address"
            },
            {
              "internalType": "address",
              "name": "hooks",
              "type": "address"
            },
            {
              "internalType": "Currency",
              "name": "currency0",
              "type": "address"
            },
            {
              "internalType": "Currency",
              "name": "currency1",
              "type": "address"
            },
            {
              "internalType": "uint24",
              "name": "fee",
              "type": "uint24"
            },
            {
              "internalType": "int24",
              "name": "tickSpacing",
              "type": "int24"
            }
          ],
          "indexed": false,
          "internalType": "struct PoolKey",
          "name": "key",
          "type": "tuple"
        }
      ],
      "name": "PoolKeySet",
      "type": "event"
    },
    {
      "anonymous": false,
      "inputs": [
        {
          "indexed": true,
          "internalType": "uint256",
          "name": "nullifierHash",
          "type": "uint256"
        }
      ],
      "name": "UserBlacklisted",
      "type": "event"
    },
    {
      "anonymous": false,
      "inputs": [
        {
          "indexed": true,
          "internalType": "uint256",
          "name": "nullifierHash",
          "type": "uint256"
        }
      ],
      "name": "UserUnblacklisted",
      "type": "event"
    },
    {
      "inputs": [
        {
          "internalType": "uint256",
          "name": "",
          "type": "uint256"
        }
      ],
      "name": "activeLoans",
      "outputs": [
        {
          "internalType": "uint256",
          "name": "loanId",
          "type": "uint256"
        },
        {
          "internalType": "uint256",
          "name": "requestId",
          "type": "uint256"
        },
        {
          "internalType": "address",
          "name": "lender",
          "type": "address"
        },
        {
          "internalType": "address",
          "name": "borrower",
          "type": "address"
        },
        {
          "internalType": "address",
          "name": "collateralToken",
          "type": "address"
        },
        {
          "internalType": "uint256",
          "name": "collateralAmountDeposited",
          "type": "uint256"
        },
        {
          "internalType": "uint256",
          "name": "quoteAmountLent",
          "type": "uint256"
        },
        {
          "internalType": "uint256",
          "name": "maturityTimestamp",
          "type": "uint256"
        },
        {
          "internalType": "uint256",
          "name": "borrowerNullifier",
          "type": "uint256"
        },
        {
          "internalType": "uint256",
          "name": "lenderNullifier",
          "type": "uint256"
        },
        {
          "internalType": "enum LendingRepoMVP_Hook.LoanStatus",
          "name": "status",
          "type": "uint8"
        }
      ],
      "stateMutability": "view",
      "type": "function"
    },
    {
      "inputs": [
        {
          "internalType": "address",
          "name": "",
          "type": "address"
        },
        {
          "components": [
            {
              "internalType": "address",
              "name": "poolDeployer",
              "type": "address"
            },
            {
              "internalType": "address",
              "name": "hooks",
              "type": "address"
            },
            {
              "internalType": "Currency",
              "name": "currency0",
              "type": "address"
            },
            {
              "internalType": "Currency",
              "name": "currency1",
              "type": "address"
            },
            {
              "internalType": "uint24",
              "name": "fee",
              "type": "uint24"
            },
            {
              "internalType": "int24",
              "name": "tickSpacing",
              "type": "int24"
            }
          ],
          "internalType": "struct PoolKey",
          "name": "",
          "type": "tuple"
        },
        {
          "internalType": "uint256",
          "name": "",
          "type": "uint256"
        },
        {
          "internalType": "uint256",
          "name": "",
          "type": "uint256"
        },
        {
          "internalType": "bytes",
          "name": "",
          "type": "bytes"
        }
      ],
      "name": "afterDonate",
      "outputs": [
        {
          "internalType": "bytes4",
          "name": "",
          "type": "bytes4"
        }
      ],
      "stateMutability": "nonpayable",
      "type": "function"
    },
    {
      "inputs": [
        {
          "components": [
            {
              "internalType": "address",
              "name": "poolDeployer",
              "type": "address"
            },
            {
              "internalType": "address",
              "name": "hooks",
              "type": "address"
            },
            {
              "internalType": "Currency",
              "name": "currency0",
              "type": "address"
            },
            {
              "internalType": "Currency",
              "name": "currency1",
              "type": "address"
            },
            {
              "internalType": "uint24",
              "name": "fee",
              "type": "uint24"
            },
            {
              "internalType": "int24",
              "name": "tickSpacing",
              "type": "int24"
            }
          ],
          "internalType": "struct PoolKey",
          "name": "key",
          "type": "tuple"
        },
        {
          "internalType": "uint160",
          "name": "",
          "type": "uint160"
        },
        {
          "internalType": "int24",
          "name": "",
          "type": "int24"
        },
        {
          "internalType": "bytes",
          "name": "",
          "type": "bytes"
        }
      ],
      "name": "afterInitialize",
      "outputs": [
        {
          "internalType": "bytes4",
          "name": "",
          "type": "bytes4"
        }
      ],
      "stateMutability": "nonpayable",
      "type": "function"
    },
    {
      "inputs": [
        {
          "internalType": "address",
          "name": "",
          "type": "address"
        },
        {
          "components": [
            {
              "internalType": "address",
              "name": "poolDeployer",
              "type": "address"
            },
            {
              "internalType": "address",
              "name": "hooks",
              "type": "address"
            },
            {
              "internalType": "Currency",
              "name": "currency0",
              "type": "address"
            },
            {
              "internalType": "Currency",
              "name": "currency1",
              "type": "address"
            },
            {
              "internalType": "uint24",
              "name": "fee",
              "type": "uint24"
            },
            {
              "internalType": "int24",
              "name": "tickSpacing",
              "type": "int24"
            }
          ],
          "internalType": "struct PoolKey",
          "name": "",
          "type": "tuple"
        },
        {
          "components": [
            {
              "internalType": "int24",
              "name": "tickLower",
              "type": "int24"
            },
            {
              "internalType": "int24",
              "name": "tickUpper",
              "type": "int24"
            },
            {
              "internalType": "int256",
              "name": "liquidityDelta",
              "type": "int256"
            }
          ],
          "internalType": "struct IPoolManager.ModifyPositionParams",
          "name": "",
          "type": "tuple"
        },
        {
          "internalType": "BalanceDelta",
          "name": "",
          "type": "int256"
        },
        {
          "internalType": "bytes",
          "name": "",
          "type": "bytes"
        }
      ],
      "name": "afterModifyPosition",
      "outputs": [
        {
          "internalType": "bytes4",
          "name": "",
          "type": "bytes4"
        }
      ],
      "stateMutability": "nonpayable",
      "type": "function"
    },
    {
      "inputs": [
        {
          "internalType": "address",
          "name": "",
          "type": "address"
        },
        {
          "components": [
            {
              "internalType": "address",
              "name": "poolDeployer",
              "type": "address"
            },
            {
              "internalType": "address",
              "name": "hooks",
              "type": "address"
            },
            {
              "internalType": "Currency",
              "name": "currency0",
              "type": "address"
            },
            {
              "internalType": "Currency",
              "name": "currency1",
              "type": "address"
            },
            {
              "internalType": "uint24",
              "name": "fee",
              "type": "uint24"
            },
            {
              "internalType": "int24",
              "name": "tickSpacing",
              "type": "int24"
            }
          ],
          "internalType": "struct PoolKey",
          "name": "",
          "type": "tuple"
        },
        {
          "components": [
            {
              "internalType": "bool",
              "name": "zeroForOne",
              "type": "bool"
            },
            {
              "internalType": "int256",
              "name": "amountSpecified",
              "type": "int256"
            },
            {
              "internalType": "uint160",
              "name": "sqrtPriceLimitX96",
              "type": "uint160"
            }
          ],
          "internalType": "struct IPoolManager.SwapParams",
          "name": "",
          "type": "tuple"
        },
        {
          "internalType": "BalanceDelta",
          "name": "",
          "type": "int256"
        },
        {
          "internalType": "bytes",
          "name": "",
          "type": "bytes"
        }
      ],
      "name": "afterSwap",
      "outputs": [
        {
          "internalType": "bytes4",
          "name": "",
          "type": "bytes4"
        }
      ],
      "stateMutability": "nonpayable",
      "type": "function"
    },
    {
      "inputs": [
        {
          "internalType": "address",
          "name": "",
          "type": "address"
        },
        {
          "components": [
            {
              "internalType": "address",
              "name": "poolDeployer",
              "type": "address"
            },
            {
              "internalType": "address",
              "name": "hooks",
              "type": "address"
            },
            {
              "internalType": "Currency",
              "name": "currency0",
              "type": "address"
            },
            {
              "internalType": "Currency",
              "name": "currency1",
              "type": "address"
            },
            {
              "internalType": "uint24",
              "name": "fee",
              "type": "uint24"
            },
            {
              "internalType": "int24",
              "name": "tickSpacing",
              "type": "int24"
            }
          ],
          "internalType": "struct PoolKey",
          "name": "",
          "type": "tuple"
        },
        {
          "internalType": "uint256",
          "name": "",
          "type": "uint256"
        },
        {
          "internalType": "uint256",
          "name": "",
          "type": "uint256"
        },
        {
          "internalType": "bytes",
          "name": "",
          "type": "bytes"
        }
      ],
      "name": "beforeDonate",
      "outputs": [
        {
          "internalType": "bytes4",
          "name": "",
          "type": "bytes4"
        }
      ],
      "stateMutability": "nonpayable",
      "type": "function"
    },
    {
      "inputs": [
        {
          "internalType": "address",
          "name": "",
          "type": "address"
        },
        {
          "components": [
            {
              "internalType": "address",
              "name": "poolDeployer",
              "type": "address"
            },
            {
              "internalType": "address",
              "name": "hooks",
              "type": "address"
            },
            {
              "internalType": "Currency",
              "name": "currency0",
              "type": "address"
            },
            {
              "internalType": "Currency",
              "name": "currency1",
              "type": "address"
            },
            {
              "internalType": "uint24",
              "name": "fee",
              "type": "uint24"
            },
            {
              "internalType": "int24",
              "name": "tickSpacing",
              "type": "int24"
            }
          ],
          "internalType": "struct PoolKey",
          "name": "",
          "type": "tuple"
        },
        {
          "internalType": "uint160",
          "name": "",
          "type": "uint160"
        },
        {
          "internalType": "bytes",
          "name": "",
          "type": "bytes"
        }
      ],
      "name": "beforeInitialize",
      "outputs": [
        {
          "internalType": "bytes4",
          "name": "",
          "type": "bytes4"
        }
      ],
      "stateMutability": "nonpayable",
      "type": "function"
    },
    {
      "inputs": [
        {
          "internalType": "address",
          "name": "",
          "type": "address"
        },
        {
          "components": [
            {
              "internalType": "address",
              "name": "poolDeployer",
              "type": "address"
            },
            {
              "internalType": "address",
              "name": "hooks",
              "type": "address"
            },
            {
              "internalType": "Currency",
              "name": "currency0",
              "type": "address"
            },
            {
              "internalType": "Currency",
              "name": "currency1",
              "type": "address"
            },
            {
              "internalType": "uint24",
              "name": "fee",
              "type": "uint24"
            },
            {
              "internalType": "int24",
              "name": "tickSpacing",
              "type": "int24"
            }
          ],
          "internalType": "struct PoolKey",
          "name": "",
          "type": "tuple"
        },
        {
          "components": [
            {
              "internalType": "int24",
              "name": "tickLower",
              "type": "int24"
            },
            {
              "internalType": "int24",
              "name": "tickUpper",
              "type": "int24"
            },
            {
              "internalType": "int256",
              "name": "liquidityDelta",
              "type": "int256"
            }
          ],
          "internalType": "struct IPoolManager.ModifyPositionParams",
          "name": "",
          "type": "tuple"
        },
        {
          "internalType": "bytes",
          "name": "",
          "type": "bytes"
        }
      ],
      "name": "beforeModifyPosition",
      "outputs": [
        {
          "internalType": "bytes4",
          "name": "",
          "type": "bytes4"
        }
      ],
      "stateMutability": "nonpayable",
      "type": "function"
    },
    {
      "inputs": [
        {
          "internalType": "address",
          "name": "",
          "type": "address"
        },
        {
          "components": [
            {
              "internalType": "address",
              "name": "poolDeployer",
              "type": "address"
            },
            {
              "internalType": "address",
              "name": "hooks",
              "type": "address"
            },
            {
              "internalType": "Currency",
              "name": "currency0",
              "type": "address"
            },
            {
              "internalType": "Currency",
              "name": "currency1",
              "type": "address"
            },
            {
              "internalType": "uint24",
              "name": "fee",
              "type": "uint24"
            },
            {
              "internalType": "int24",
              "name": "tickSpacing",
              "type": "int24"
            }
          ],
          "internalType": "struct PoolKey",
          "name": "",
          "type": "tuple"
        },
        {
          "components": [
            {
              "internalType": "bool",
              "name": "zeroForOne",
              "type": "bool"
            },
            {
              "internalType": "int256",
              "name": "amountSpecified",
              "type": "int256"
            },
            {
              "internalType": "uint160",
              "name": "sqrtPriceLimitX96",
              "type": "uint160"
            }
          ],
          "internalType": "struct IPoolManager.SwapParams",
          "name": "",
          "type": "tuple"
        },
        {
          "internalType": "bytes",
          "name": "",
          "type": "bytes"
        }
      ],
      "name": "beforeSwap",
      "outputs": [
        {
          "internalType": "bytes4",
          "name": "",
          "type": "bytes4"
        }
      ],
      "stateMutability": "nonpayable",
      "type": "function"
    },
    {
      "inputs": [
        {
          "internalType": "uint256",
          "name": "loanId",
          "type": "uint256"
        }
      ],
      "name": "declareDefault",
      "outputs": [],
      "stateMutability": "nonpayable",
      "type": "function"
    },
    {
      "inputs": [
        {
          "internalType": "uint256",
          "name": "requestId",
          "type": "uint256"
        },
        {
          "internalType": "address",
          "name": "signal",
          "type": "address"
        },
        {
          "internalType": "uint256",
          "name": "root",
          "type": "uint256"
        },
        {
          "internalType": "uint256",
          "name": "nullifierHash",
          "type": "uint256"
        },
        {
          "internalType": "uint256[8]",
          "name": "proof",
          "type": "uint256[8]"
        }
      ],
      "name": "fundLoanRequest",
      "outputs": [],
      "stateMutability": "nonpayable",
      "type": "function"
    },
    {
      "inputs": [],
      "name": "getHookPermissions",
      "outputs": [
        {
          "components": [
            {
              "internalType": "bool",
              "name": "beforeInitialize",
              "type": "bool"
            },
            {
              "internalType": "bool",
              "name": "afterInitialize",
              "type": "bool"
            },
            {
              "internalType": "bool",
              "name": "beforeModifyPosition",
              "type": "bool"
            },
            {
              "internalType": "bool",
              "name": "afterModifyPosition",
              "type": "bool"
            },
            {
              "internalType": "bool",
              "name": "beforeSwap",
              "type": "bool"
            },
            {
              "internalType": "bool",
              "name": "afterSwap",
              "type": "bool"
            },
            {
              "internalType": "bool",
              "name": "beforeDonate",
              "type": "bool"
            },
            {
              "internalType": "bool",
              "name": "afterDonate",
              "type": "bool"
            }
          ],
          "internalType": "struct Hooks.Permissions",
          "name": "",
          "type": "tuple"
        }
      ],
      "stateMutability": "pure",
      "type": "function"
    },
    {
      "inputs": [
        {
          "internalType": "address",
          "name": "",
          "type": "address"
        }
      ],
      "name": "isCollateralAllowed",
      "outputs": [
        {
          "internalType": "bool",
          "name": "",
          "type": "bool"
        }
      ],
      "stateMutability": "view",
      "type": "function"
    },
    {
      "inputs": [
        {
          "internalType": "uint256",
          "name": "",
          "type": "uint256"
        }
      ],
      "name": "isNullifierBlacklisted",
      "outputs": [
        {
          "internalType": "bool",
          "name": "",
          "type": "bool"
        }
      ],
      "stateMutability": "view",
      "type": "function"
    },
    {
      "inputs": [
        {
          "internalType": "uint256",
          "name": "",
          "type": "uint256"
        }
      ],
      "name": "loanRequests",
      "outputs": [
        {
          "internalType": "uint256",
          "name": "requestId",
          "type": "uint256"
        },
        {
          "internalType": "address",
          "name": "borrower",
          "type": "address"
        },
        {
          "internalType": "address",
          "name": "collateralToken",
          "type": "address"
        },
        {
          "internalType": "uint256",
          "name": "collateralAmount",
          "type": "uint256"
        },
        {
          "internalType": "uint256",
          "name": "quoteAmountRequested",
          "type": "uint256"
        },
        {
          "internalType": "uint256",
          "name": "maturityTimestamp",
          "type": "uint256"
        },
        {
          "internalType": "uint256",
          "name": "borrowerNullifier",
          "type": "uint256"
        },
        {
          "internalType": "enum LendingRepoMVP_Hook.RequestStatus",
          "name": "status",
          "type": "uint8"
        }
      ],
      "stateMutability": "view",
      "type": "function"
    },
    {
      "inputs": [],
      "name": "nextLoanId",
      "outputs": [
        {
          "internalType": "uint256",
          "name": "",
          "type": "uint256"
        }
      ],
      "stateMutability": "view",
      "type": "function"
    },
    {
      "inputs": [],
      "name": "nextRequestId",
      "outputs": [
        {
          "internalType": "uint256",
          "name": "",
          "type": "uint256"
        }
      ],
      "stateMutability": "view",
      "type": "function"
    },
    {
      "inputs": [],
      "name": "owner",
      "outputs": [
        {
          "internalType": "address",
          "name": "",
          "type": "address"
        }
      ],
      "stateMutability": "view",
      "type": "function"
    },
    {
      "inputs": [
        {
          "internalType": "uint256",
          "name": "_nullifierHash",
          "type": "uint256"
        }
      ],
      "name": "ownerAddToBlacklist",
      "outputs": [],
      "stateMutability": "nonpayable",
      "type": "function"
    },
    {
      "inputs": [
        {
          "internalType": "address",
          "name": "token",
          "type": "address"
        },
        {
          "internalType": "bool",
          "name": "allowed",
          "type": "bool"
        }
      ],
      "name": "ownerAllowCollateral",
      "outputs": [],
      "stateMutability": "nonpayable",
      "type": "function"
    },
    {
      "inputs": [
        {
          "internalType": "uint256",
          "name": "_nullifierHash",
          "type": "uint256"
        }
      ],
      "name": "ownerRemoveFromBlacklist",
      "outputs": [],
      "stateMutability": "nonpayable",
      "type": "function"
    },
    {
      "inputs": [],
      "name": "poolKey",
      "outputs": [
        {
          "internalType": "address",
          "name": "poolDeployer",
          "type": "address"
        },
        {
          "internalType": "address",
          "name": "hooks",
          "type": "address"
        },
        {
          "internalType": "Currency",
          "name": "currency0",
          "type": "address"
        },
        {
          "internalType": "Currency",
          "name": "currency1",
          "type": "address"
        },
        {
          "internalType": "uint24",
          "name": "fee",
          "type": "uint24"
        },
        {
          "internalType": "int24",
          "name": "tickSpacing",
          "type": "int24"
        }
      ],
      "stateMutability": "view",
      "type": "function"
    },
    {
      "inputs": [],
      "name": "poolManager",
      "outputs": [
        {
          "internalType": "contract IPoolManager",
          "name": "",
          "type": "address"
        }
      ],
      "stateMutability": "view",
      "type": "function"
    },
    {
      "inputs": [],
      "name": "quoteToken",
      "outputs": [
        {
          "internalType": "address",
          "name": "",
          "type": "address"
        }
      ],
      "stateMutability": "view",
      "type": "function"
    },
    {
      "inputs": [],
      "name": "renounceOwnership",
      "outputs": [],
      "stateMutability": "nonpayable",
      "type": "function"
    },
    {
      "inputs": [
        {
          "internalType": "uint256",
          "name": "loanId",
          "type": "uint256"
        }
      ],
      "name": "repayLoan",
      "outputs": [],
      "stateMutability": "nonpayable",
      "type": "function"
    },
    {
      "inputs": [
        {
          "internalType": "address",
          "name": "collateralToken",
          "type": "address"
        },
        {
          "internalType": "uint256",
          "name": "collateralAmount",
          "type": "uint256"
        },
        {
          "internalType": "uint256",
          "name": "quoteAmountRequested",
          "type": "uint256"
        },
        {
          "internalType": "uint256",
          "name": "maturityTimestamp",
          "type": "uint256"
        },
        {
          "internalType": "address",
          "name": "signal",
          "type": "address"
        },
        {
          "internalType": "uint256",
          "name": "root",
          "type": "uint256"
        },
        {
          "internalType": "uint256",
          "name": "nullifierHash",
          "type": "uint256"
        },
        {
          "internalType": "uint256[8]",
          "name": "proof",
          "type": "uint256[8]"
        }
      ],
      "name": "requestLoan",
      "outputs": [],
      "stateMutability": "nonpayable",
      "type": "function"
    },
    {
      "inputs": [
        {
          "internalType": "address",
          "name": "newOwner",
          "type": "address"
        }
      ],
      "name": "transferOwnership",
      "outputs": [],
      "stateMutability": "nonpayable",
      "type": "function"
    },
    {
      "inputs": [],
      "name": "worldIdRouter",
      "outputs": [
        {
          "internalType": "contract IWorldID",
          "name": "",
          "type": "address"
        }
      ],
      "stateMutability": "view",
      "type": "function"
    }
  ],
  "bytecode": "0x60e034620001a557601f6200215638819003918201601f19168301916001600160401b03831184841017620001aa57808492608094604052833981010312620001a55780516001600160a01b038082168203620001a5576020830151918183168303620001a55781906200008460606200007c60408801620001c0565b9601620001c0565b90608052169081156200018c57600080546001600160a01b03198116841782556040519391908316907f8be0079c531659141344cd1fd0a4f28419497f9722a3daafe3b4186f6b6457e09080a3600160035560016005558316156200013f575060a05260c052604051611f809081620001d68239608051816102dc015260a051818181610b4a01528181610c9f01528181610d0c01526116d0015260c0518181816105b401528181610dbd01528181610e4101526116140152f35b62461bcd60e51b815260206004820152602260248201527f51756f746520746f6b656e2063616e6e6f74206265207a65726f206164647265604482015261737360f01b6064820152608490fd5b604051631e4fbdf760e01b815260006004820152602490fd5b600080fd5b634e487b7160e01b600052604160045260246000fd5b51906001600160a01b0382168203620001a55756fe608080604052600436101561001357600080fd5b60003560e01c9081630127e45614611b3857508063182148ef14611ad65780631e48c0cb14611638578063217a4b70146115f457806323962ace1461156e57806344577bea1461153157806344b94efc146114b157806347126f62146113fb57806352494c9b146113d557806355e1172d146113015780636a84a985146112e3578063715018a61461128a57806387c514591461126c5780638da5cb5b1461124557806390cef53c14610c2d5780639f11057614610b6e5780639f50b66d14610b2a578063a17bbfbc146108c5578063ab7b1c891461051a578063b7f69163146104e9578063c1ef3c4b146104ab578063c4e833ce146103d0578063cb06732014610391578063d1b332f414610300578063dc4c90d3146102bc578063df5796811461027e578063df991fd914610240578063f2fde38b146101a15763fc8060031461015e57600080fd5b3461019c5761016c36611c51565b50505050505060206040517ffc806003000000000000000000000000000000000000000000000000000000008152f35b600080fd5b3461019c57602036600319011261019c576101ba611b73565b6101c2611d0e565b6001600160a01b0380911690811561020f57600054826001600160a01b0319821617600055167f8be0079c531659141344cd1fd0a4f28419497f9722a3daafe3b4186f6b6457e0600080a3005b60246040517f1e4fbdf700000000000000000000000000000000000000000000000000000000815260006004820152fd5b3461019c5761024e36611cb5565b50505050505060206040517fdf991fd9000000000000000000000000000000000000000000000000000000008152f35b3461019c5761028c36611cb5565b50505050505060206040517fdf579681000000000000000000000000000000000000000000000000000000008152f35b3461019c57600036600319011261019c5760206040516001600160a01b037f0000000000000000000000000000000000000000000000000000000000000000168152f35b3461019c57602036600319011261019c57600435600052600260205261010060406000208054906001600160a01b03908160018201541691600282015416600382015460048301549060058401549260ff600760068701549601541695604051978852602088015260408701526060860152608085015260a084015260c083015261038a81611c31565b60e0820152f35b3461019c57602036600319011261019c576001600160a01b036103b2611b73565b166000526006602052602060ff604060002054166040519015158152f35b3461019c57600036600319011261019c57600060e06040516103f181611d52565b8281528260208201528260408201528260608201528260808201528260a08201528260c0820152015261010060405161042981611d52565b600081526020810190600182526040810190600082526060810160008152608082016000815260a08301916000835260e060c0850194600086520194600086526040519660008852511515602088015251151560408701525115156060860152511515608085015251151560a084015251151560c083015251151560e0820152f35b3461019c576104b936611c51565b50505050505060206040517fc1ef3c4b000000000000000000000000000000000000000000000000000000008152f35b3461019c57602036600319011261019c576004356000526001602052602060ff604060002054166040519015158152f35b3461019c5760208060031936011261019c5760043590816000526004815260406000209061054a82541515611e10565b600382016001600160a01b039081815416330361088157600a84019361057d60ff86541661057781611c31565b15611e5b565b60078101544211610817576006810180546040516323b872dd60e01b815233600482015230602482015260448101919091529093907f000000000000000000000000000000000000000000000000000000000000000082169086816064816000865af190811561073f576000916107fa575b50156107ab576002830154945460405163a9059cbb60e01b8082529684166001600160a01b0316600482015260248101919091529086908290816000816044810103925af190811561073f5760009161078e575b501561074b5760048281015493546005909301546040519586529282166001600160a01b03169085015260248401919091528391839116816000816044810103925af190811561073f57600091610712575b50156106ce5750805460ff191660011790557f9a7851747cd7ffb3fe0a32caf3da48b31f27cebe131267051640f8b72fc47186600080a2005b6064906040519062461bcd60e51b82526004820152601860248201527f436f6c6c61746572616c2072657475726e206661696c656400000000000000006044820152fd5b6107329150823d8411610738575b61072a8183611d83565b810190611dbb565b84610695565b503d610720565b6040513d6000823e3d90fd5b6064856040519062461bcd60e51b825280600483015260248201527f4c656e646572207072696e636970616c207472616e73666572206661696c65646044820152fd5b6107a59150863d88116107385761072a8183611d83565b88610643565b6084866040519062461bcd60e51b82526004820152602260248201527f426f72726f7765722072657061796d656e74207472616e73666572206661696c604482015261195960f21b6064820152fd5b6108119150873d89116107385761072a8183611d83565b896105ef565b6084846040519062461bcd60e51b82526004820152603860248201527f52657061796d656e742070617374206d61747572697479206e6f7420616c6c6f60448201527f7765642028757365206465636c61726544656661756c742900000000000000006064820152fd5b6064836040519062461bcd60e51b82526004820152601760248201527f4f6e6c7920626f72726f7765722063616e2072657061790000000000000000006044820152fd5b3461019c573660031901610120811261019c5760c01361019c576001600160a01b0360c4358181160361019c5760e4358060020b0361019c576101043567ffffffffffffffff811161019c5761091f903690600401611b9f565b5050610929611da5565b8130911603610ae657600854818116610aa2576004359082821680920361019c576001600160a01b0319918260075416176007558183610967611da5565b169116176008556044359082821680920361019c57819060095416176009556064359180831680930361019c57600a54926084359062ffffff82169081830361019c5760a435948560020b9384870361019c577f50610696e9fe8816208f4f19f070f264b06b4ad02c040485c0e5fa4ef433208a97837fffffffffffff000000000000000000000000000000000000000000000000000076ffffff000000000000000000000000000000000000000060c09a60b81b79ffffff0000000000000000000000000000000000000000000000169460a01b169216171717600a556040519480610a52611b73565b168652610a5d611b89565b16602086015260408501526060840152608083015260a0820152a160206040517fa17bbfbc000000000000000000000000000000000000000000000000000000008152f35b606460405162461bcd60e51b815260206004820152601360248201527f506f6f6c4b657920616c726561647920736574000000000000000000000000006044820152fd5b606460405162461bcd60e51b815260206004820152601460248201527f496e76616c696420686f6f6b20616464726573730000000000000000000000006044820152fd5b3461019c57600036600319011261019c5760206040516001600160a01b037f0000000000000000000000000000000000000000000000000000000000000000168152f35b3461019c57602036600319011261019c57600435610b8a611d0e565b610b95811515611ea6565b80600052600160205260ff6040600020541615610be957806000526001602052604060002060ff1981541690557f31c881e4e925d1768cc34e510541d44008b23b46a60e3027463f39c50658c163600080a2005b606460405162461bcd60e51b815260206004820152600f60248201527f4e6f7420626c61636b6c697374656400000000000000000000000000000000006044820152fd5b3461019c5761018036600319011261019c57610c47611b89565b366101841161019c5760043560005260026020526040600020908154156112015760ff600783015416610c7981611c31565b6111bd57606435600052600160205260ff6040600020541661116d576001600160a01b037f0000000000000000000000000000000000000000000000000000000000000000163b1561019c576001600160a01b036040519163fa0795fb60e01b83521660048201526044356024820152606435604482015261010060846064830137600081610164816001600160a01b037f0000000000000000000000000000000000000000000000000000000000000000165afa908161115e575b50610d8d57608460405162461bcd60e51b815260206004820152602660248201527f4c656e64696e675265706f4d56503a20496e76616c696420576f726c6420494460448201526510383937b7b360d11b6064820152fd5b6004818101546040516323b872dd60e01b81523392810192909252306024830152604482015260208160648160007f00000000000000000000000000000000000000000000000000000000000000006001600160a01b03165af190811561073f5760009161113f575b50156110f057600181015460048083015460405163a9059cbb60e01b81526001600160a01b039093169183019190915260248201526020818060448101038160006001600160a01b037f0000000000000000000000000000000000000000000000000000000000000000165af190811561073f576000916110d1575b50156110685760078101805460ff1916600117905560055490610e9482611dd3565b6005556001600160a01b036001820154166001600160a01b0360028301541660038301546004840154600585015490600686015492604051948561016081011067ffffffffffffffff6101608801111761105257610ff496610160870160405289875260043560208801523360408801526060870152608086015260a085015260c084015260e08301526101008201526064356101208201526000610140820152836000526004602052600a6101406040600020928051845560208101516001850155600284016001600160a01b03604083015116906001600160a01b03199182825416179055600385016001600160a01b036060840151168282541617905560048501906001600160a01b036080840151169082541617905560a0810151600585015560c0810151600685015560e0810151600785015561010081015160088501556101208101516009850155015191610fee83611c31565b01611df8565b6001600160a01b0360018201541690600560048201549101549060405192835260208301526040820152606435606082015233917f1c6136bab484edb34e6d2c2248d3e3fabe9a15aa087ed9ad287f76a1d20e6b43608060043593a4005b634e487b7160e01b600052604160045260246000fd5b608460405162461bcd60e51b8152602060048201526024808201527f426f72726f7765722071756f746520746f6b656e207472616e7366657220666160448201527f696c6564000000000000000000000000000000000000000000000000000000006064820152fd5b6110ea915060203d6020116107385761072a8183611d83565b82610e72565b608460405162461bcd60e51b815260206004820152602260248201527f4c656e6465722071756f746520746f6b656e207472616e73666572206661696c604482015261195960f21b6064820152fd5b611158915060203d6020116107385761072a8183611d83565b82610df6565b61116790611d6f565b82610d35565b608460405162461bcd60e51b815260206004820152602360248201527f4c656e64696e675265706f4d56503a205573657220697320626c61636b6c69736044820152621d195960ea1b6064820152fd5b606460405162461bcd60e51b815260206004820152601360248201527f52657175657374206e6f742070656e64696e67000000000000000000000000006044820152fd5b606460405162461bcd60e51b815260206004820152601160248201527f52657175657374206e6f7420666f756e640000000000000000000000000000006044820152fd5b3461019c57600036600319011261019c5760206001600160a01b0360005416604051908152f35b3461019c57600036600319011261019c576020600554604051908152f35b3461019c57600036600319011261019c576112a3611d0e565b60006001600160a01b0381546001600160a01b031981168355167f8be0079c531659141344cd1fd0a4f28419497f9722a3daafe3b4186f6b6457e08280a3005b3461019c57600036600319011261019c576020600354604051908152f35b3461019c57602036600319011261019c57600435806000526004602052604060002061132f81541515611e10565b600a81019081549061134760ff831661057781611c31565b60078101544211156113915761136a92600260089360ff19161790550154611ef1565b7f92662650c03ca1104869b8299de9e1d536c446dcf9a58e5097696a74fc4c21fc600080a2005b606460405162461bcd60e51b815260206004820152601660248201527f4c6f616e206e6f742070617374206d61747572697479000000000000000000006044820152fd5b3461019c57602036600319011261019c576113ee611d0e565b6113f9600435611ef1565b005b3461019c57602036600319011261019c57600435600052600460205261016060406000208054906001810154906001600160a01b0380600283015416908060038401541690600484015416600584015460068501549160078601549360088701549560ff600a60098a015499015416986040519a8b5260208b015260408a01526060890152608088015260a087015260c086015260e08501526101008401526101208301526114a981611c31565b610140820152f35b3461019c57604036600319011261019c576114ca611b73565b6024359081151580920361019c5760206001600160a01b037fe7b5ed3c2b0c67f2d4e8978e894ef5549cf69733dec0d3bcd515c7ddb03da7679261150c611d0e565b16928360005260068252604060002060ff1981541660ff8316179055604051908152a2005b3461019c5761153f36611bcd565b505050505060206040517f44577bea000000000000000000000000000000000000000000000000000000008152f35b3461019c5761012036600319011261019c57611588611b73565b5060c036602319011261019c5760e4356001600160a01b0381160361019c576101043567ffffffffffffffff811161019c576115c8903690600401611b9f565b505060206040517f23962ace000000000000000000000000000000000000000000000000000000008152f35b3461019c57600036600319011261019c5760206040516001600160a01b037f0000000000000000000000000000000000000000000000000000000000000000168152f35b3461019c576101e036600319011261019c57611652611b73565b602490813591604490813593606494853594608435956001600160a01b039283881680980361019c5760c43592366101e41161019c578416948560005260209860068a5260ff6040600020541615611a95578115611a2e5782156119c75742841115611986578460005260018a5260ff6040600020541661193957857f000000000000000000000000000000000000000000000000000000000000000016803b1561019c57886101648b936000938f60e4610100918c604051998a98899763fa0795fb60e01b8952600489015260a435908801528601528401375afa908161192a575b5061178a576084896510383937b7b360d11b8c7f4c656e64696e675265706f4d56503a20496e76616c696420576f726c642049448c60268d6040519662461bcd60e51b88526004880152860152840152820152fd5b6040516323b872dd60e01b81523360048201523060248201526044810182905289908b908a908a90848160648160008f5af190811561073f5760009161190d575b50156118cd5750505061188d600354966117e488611dd3565b6003556007888888604051946117f986611d52565b8386528d888701903382526040880190815260608801918b835260808901938d855260a08a0195865260c08a0196875260e08a01976000895260005260028c52604060002099518a558060018b01925116916001600160a01b0319928382541617905560028a01925116908254161790555160038701555160048601555160058501555160068401555191610fee83611c31565b6040519687528601526040850152606084015260808301527fd2a896618b1b3a967d51dc24f18c1b5bc4a37f8707366201b290aadda6ff5bcc60a03393a3005b8391601a7f436f6c6c61746572616c207472616e73666572206661696c6564000000000000926040519462461bcd60e51b86526004860152840152820152fd5b6119249150853d87116107385761072a8183611d83565b8b6117cb565b61193390611d6f565b8b611735565b60848a621d195960ea1b8d7f4c656e64696e675265706f4d56503a205573657220697320626c61636b6c69738d60238e6040519662461bcd60e51b88526004880152860152840152820152fd5b8a8a7f4d61747572697479206d75737420626520696e207468652066757475726500008b601e8c6040519462461bcd60e51b86526004860152840152820152fd5b60848a7f65000000000000000000000000000000000000000000000000000000000000008d7f52657175657374656420616d6f756e74206d75737420626520706f73697469768d60218e6040519662461bcd60e51b88526004880152860152840152820152fd5b60848a7f76650000000000000000000000000000000000000000000000000000000000008d7f436f6c6c61746572616c20616d6f756e74206d75737420626520706f736974698d60228e6040519662461bcd60e51b88526004880152860152840152820152fd5b8a8a7f436f6c6c61746572616c206e6f7420616c6c6f776564000000000000000000008b60168c6040519462461bcd60e51b86526004860152840152820152fd5b3461019c57600036600319011261019c5760c06001600160a01b038060075416908060085416908060095416600a5492604051948552602085015260408401528116606083015262ffffff8160a01c16608083015260b81c60020b60a0820152f35b3461019c57602090611b4936611bcd565b50505050507f0127e456000000000000000000000000000000000000000000000000000000008152f35b600435906001600160a01b038216820361019c57565b602435906001600160a01b038216820361019c57565b9181601f8401121561019c5782359167ffffffffffffffff831161019c576020838186019501011161019c57565b9061016060031983011261019c576004356001600160a01b038116810361019c579160c060231982011261019c57602491606060e31983011261019c5760e491610144359067ffffffffffffffff821161019c57611c2d91600401611b9f565b9091565b60031115611c3b57565b634e487b7160e01b600052602160045260246000fd5b61018060031982011261019c576004356001600160a01b038116810361019c579160c060231983011261019c57602491606060e31982011261019c5760e4916101443591610164359067ffffffffffffffff821161019c57611c2d91600401611b9f565b61014060031982011261019c576004356001600160a01b038116810361019c579160c060231983011261019c5760249160e435916101043591610124359067ffffffffffffffff821161019c57611c2d91600401611b9f565b6001600160a01b03600054163303611d2257565b60246040517f118cdaa7000000000000000000000000000000000000000000000000000000008152336004820152fd5b610100810190811067ffffffffffffffff82111761105257604052565b67ffffffffffffffff811161105257604052565b90601f8019910116810190811067ffffffffffffffff82111761105257604052565b6024356001600160a01b038116810361019c5790565b9081602091031261019c5751801515810361019c5790565b6000198114611de25760010190565b634e487b7160e01b600052601160045260246000fd5b90611e0281611c31565b60ff80198354169116179055565b15611e1757565b606460405162461bcd60e51b815260206004820152600e60248201527f4c6f616e206e6f7420666f756e640000000000000000000000000000000000006044820152fd5b15611e6257565b606460405162461bcd60e51b815260206004820152600f60248201527f4c6f616e206e6f742061637469766500000000000000000000000000000000006044820152fd5b15611ead57565b606460405162461bcd60e51b815260206004820152601160248201527f496e76616c6964206e756c6c69666965720000000000000000000000000000006044820152fd5b611efc811515611ea6565b8060005260016020526040600020805460ff811615611f1a57505050565b60ff191660011790557f4e15c89d8486414c833534db84b7ce2dc7c8efdb204e4ca8912299ed0629e4c7600080a256fea2646970667358221220c8c8e155f0bcd327e0f4f19308b21abc50ebcba3f652a72342ef4d9954c1441164736f6c63430008140033",
  "linkReferences": {},
  "deployedLinkReferences": {}
}