{"abi":[{"type":"constructor","inputs":[{"name":"_poolManager","type":"address","internalType":"contract IPoolManager"},{"name":"_worldIdRouter","type":"address","internalType":"contract IWorldID"},{"name":"_quoteToken","type":"address","internalType":"address"},{"name":"_initialOwner","type":"address","internalType":"address"}],"stateMutability":"nonpayable"},{"type":"function","name":"addMarket","inputs":[{"name":"maturityTimestamp","type":"uint256","internalType":"uint256"}],"outputs":[],"stateMutability":"nonpayable"},{"type":"function","name":"afterAddLiquidity","inputs":[{"name":"sender","type":"address","internalType":"address"},{"name":"key","type":"tuple","internalType":"struct PoolKey","components":[{"name":"currency0","type":"address","internalType":"Currency"},{"name":"currency1","type":"address","internalType":"Currency"},{"name":"fee","type":"uint24","internalType":"uint24"},{"name":"tickSpacing","type":"int24","internalType":"int24"},{"name":"hooks","type":"address","internalType":"contract IHooks"}]},{"name":"params","type":"tuple","internalType":"struct IPoolManager.ModifyLiquidityParams","components":[{"name":"tickLower","type":"int24","internalType":"int24"},{"name":"tickUpper","type":"int24","internalType":"int24"},{"name":"liquidityDelta","type":"int256","internalType":"int256"},{"name":"salt","type":"bytes32","internalType":"bytes32"}]},{"name":"delta","type":"int256","internalType":"BalanceDelta"},{"name":"feesAccrued","type":"int256","internalType":"BalanceDelta"},{"name":"hookData","type":"bytes","internalType":"bytes"}],"outputs":[{"name":"","type":"bytes4","internalType":"bytes4"},{"name":"","type":"int256","internalType":"BalanceDelta"}],"stateMutability":"nonpayable"},{"type":"function","name":"afterDonate","inputs":[{"name":"sender","type":"address","internalType":"address"},{"name":"key","type":"tuple","internalType":"struct PoolKey","components":[{"name":"currency0","type":"address","internalType":"Currency"},{"name":"currency1","type":"address","internalType":"Currency"},{"name":"fee","type":"uint24","internalType":"uint24"},{"name":"tickSpacing","type":"int24","internalType":"int24"},{"name":"hooks","type":"address","internalType":"contract IHooks"}]},{"name":"amount0","type":"uint256","internalType":"uint256"},{"name":"amount1","type":"uint256","internalType":"uint256"},{"name":"hookData","type":"bytes","internalType":"bytes"}],"outputs":[{"name":"","type":"bytes4","internalType":"bytes4"}],"stateMutability":"nonpayable"},{"type":"function","name":"afterInitialize","inputs":[{"name":"sender","type":"address","internalType":"address"},{"name":"key","type":"tuple","internalType":"struct PoolKey","components":[{"name":"currency0","type":"address","internalType":"Currency"},{"name":"currency1","type":"address","internalType":"Currency"},{"name":"fee","type":"uint24","internalType":"uint24"},{"name":"tickSpacing","type":"int24","internalType":"int24"},{"name":"hooks","type":"address","internalType":"contract IHooks"}]},{"name":"sqrtPriceX96","type":"uint160","internalType":"uint160"},{"name":"tick","type":"int24","internalType":"int24"}],"outputs":[{"name":"","type":"bytes4","internalType":"bytes4"}],"stateMutability":"nonpayable"},{"type":"function","name":"afterRemoveLiquidity","inputs":[{"name":"sender","type":"address","internalType":"address"},{"name":"key","type":"tuple","internalType":"struct PoolKey","components":[{"name":"currency0","type":"address","internalType":"Currency"},{"name":"currency1","type":"address","internalType":"Currency"},{"name":"fee","type":"uint24","internalType":"uint24"},{"name":"tickSpacing","type":"int24","internalType":"int24"},{"name":"hooks","type":"address","internalType":"contract IHooks"}]},{"name":"params","type":"tuple","internalType":"struct IPoolManager.ModifyLiquidityParams","components":[{"name":"tickLower","type":"int24","internalType":"int24"},{"name":"tickUpper","type":"int24","internalType":"int24"},{"name":"liquidityDelta","type":"int256","internalType":"int256"},{"name":"salt","type":"bytes32","internalType":"bytes32"}]},{"name":"delta","type":"int256","internalType":"BalanceDelta"},{"name":"feesAccrued","type":"int256","internalType":"BalanceDelta"},{"name":"hookData","type":"bytes","internalType":"bytes"}],"outputs":[{"name":"","type":"bytes4","internalType":"bytes4"},{"name":"","type":"int256","internalType":"BalanceDelta"}],"stateMutability":"nonpayable"},{"type":"function","name":"afterSwap","inputs":[{"name":"sender","type":"address","internalType":"address"},{"name":"key","type":"tuple","internalType":"struct PoolKey","components":[{"name":"currency0","type":"address","internalType":"Currency"},{"name":"currency1","type":"address","internalType":"Currency"},{"name":"fee","type":"uint24","internalType":"uint24"},{"name":"tickSpacing","type":"int24","internalType":"int24"},{"name":"hooks","type":"address","internalType":"contract IHooks"}]},{"name":"params","type":"tuple","internalType":"struct IPoolManager.SwapParams","components":[{"name":"zeroForOne","type":"bool","internalType":"bool"},{"name":"amountSpecified","type":"int256","internalType":"int256"},{"name":"sqrtPriceLimitX96","type":"uint160","internalType":"uint160"}]},{"name":"delta","type":"int256","internalType":"BalanceDelta"},{"name":"hookData","type":"bytes","internalType":"bytes"}],"outputs":[{"name":"","type":"bytes4","internalType":"bytes4"},{"name":"","type":"int128","internalType":"int128"}],"stateMutability":"nonpayable"},{"type":"function","name":"beforeAddLiquidity","inputs":[{"name":"sender","type":"address","internalType":"address"},{"name":"key","type":"tuple","internalType":"struct PoolKey","components":[{"name":"currency0","type":"address","internalType":"Currency"},{"name":"currency1","type":"address","internalType":"Currency"},{"name":"fee","type":"uint24","internalType":"uint24"},{"name":"tickSpacing","type":"int24","internalType":"int24"},{"name":"hooks","type":"address","internalType":"contract IHooks"}]},{"name":"params","type":"tuple","internalType":"struct IPoolManager.ModifyLiquidityParams","components":[{"name":"tickLower","type":"int24","internalType":"int24"},{"name":"tickUpper","type":"int24","internalType":"int24"},{"name":"liquidityDelta","type":"int256","internalType":"int256"},{"name":"salt","type":"bytes32","internalType":"bytes32"}]},{"name":"hookData","type":"bytes","internalType":"bytes"}],"outputs":[{"name":"","type":"bytes4","internalType":"bytes4"}],"stateMutability":"nonpayable"},{"type":"function","name":"beforeDonate","inputs":[{"name":"sender","type":"address","internalType":"address"},{"name":"key","type":"tuple","internalType":"struct PoolKey","components":[{"name":"currency0","type":"address","internalType":"Currency"},{"name":"currency1","type":"address","internalType":"Currency"},{"name":"fee","type":"uint24","internalType":"uint24"},{"name":"tickSpacing","type":"int24","internalType":"int24"},{"name":"hooks","type":"address","internalType":"contract IHooks"}]},{"name":"amount0","type":"uint256","internalType":"uint256"},{"name":"amount1","type":"uint256","internalType":"uint256"},{"name":"hookData","type":"bytes","internalType":"bytes"}],"outputs":[{"name":"","type":"bytes4","internalType":"bytes4"}],"stateMutability":"nonpayable"},{"type":"function","name":"beforeInitialize","inputs":[{"name":"sender","type":"address","internalType":"address"},{"name":"key","type":"tuple","internalType":"struct PoolKey","components":[{"name":"currency0","type":"address","internalType":"Currency"},{"name":"currency1","type":"address","internalType":"Currency"},{"name":"fee","type":"uint24","internalType":"uint24"},{"name":"tickSpacing","type":"int24","internalType":"int24"},{"name":"hooks","type":"address","internalType":"contract IHooks"}]},{"name":"sqrtPriceX96","type":"uint160","internalType":"uint160"}],"outputs":[{"name":"","type":"bytes4","internalType":"bytes4"}],"stateMutability":"nonpayable"},{"type":"function","name":"beforeRemoveLiquidity","inputs":[{"name":"sender","type":"address","internalType":"address"},{"name":"key","type":"tuple","internalType":"struct PoolKey","components":[{"name":"currency0","type":"address","internalType":"Currency"},{"name":"currency1","type":"address","internalType":"Currency"},{"name":"fee","type":"uint24","internalType":"uint24"},{"name":"tickSpacing","type":"int24","internalType":"int24"},{"name":"hooks","type":"address","internalType":"contract IHooks"}]},{"name":"params","type":"tuple","internalType":"struct IPoolManager.ModifyLiquidityParams","components":[{"name":"tickLower","type":"int24","internalType":"int24"},{"name":"tickUpper","type":"int24","internalType":"int24"},{"name":"liquidityDelta","type":"int256","internalType":"int256"},{"name":"salt","type":"bytes32","internalType":"bytes32"}]},{"name":"hookData","type":"bytes","internalType":"bytes"}],"outputs":[{"name":"","type":"bytes4","internalType":"bytes4"}],"stateMutability":"nonpayable"},{"type":"function","name":"beforeSwap","inputs":[{"name":"sender","type":"address","internalType":"address"},{"name":"key","type":"tuple","internalType":"struct PoolKey","components":[{"name":"currency0","type":"address","internalType":"Currency"},{"name":"currency1","type":"address","internalType":"Currency"},{"name":"fee","type":"uint24","internalType":"uint24"},{"name":"tickSpacing","type":"int24","internalType":"int24"},{"name":"hooks","type":"address","internalType":"contract IHooks"}]},{"name":"params","type":"tuple","internalType":"struct IPoolManager.SwapParams","components":[{"name":"zeroForOne","type":"bool","internalType":"bool"},{"name":"amountSpecified","type":"int256","internalType":"int256"},{"name":"sqrtPriceLimitX96","type":"uint160","internalType":"uint160"}]},{"name":"hookData","type":"bytes","internalType":"bytes"}],"outputs":[{"name":"","type":"bytes4","internalType":"bytes4"},{"name":"","type":"int256","internalType":"BeforeSwapDelta"},{"name":"","type":"uint24","internalType":"uint24"}],"stateMutability":"nonpayable"},{"type":"function","name":"getHookPermissions","inputs":[],"outputs":[{"name":"","type":"tuple","internalType":"struct Hooks.Permissions","components":[{"name":"beforeInitialize","type":"bool","internalType":"bool"},{"name":"afterInitialize","type":"bool","internalType":"bool"},{"name":"beforeAddLiquidity","type":"bool","internalType":"bool"},{"name":"afterAddLiquidity","type":"bool","internalType":"bool"},{"name":"beforeRemoveLiquidity","type":"bool","internalType":"bool"},{"name":"afterRemoveLiquidity","type":"bool","internalType":"bool"},{"name":"beforeSwap","type":"bool","internalType":"bool"},{"name":"afterSwap","type":"bool","internalType":"bool"},{"name":"beforeDonate","type":"bool","internalType":"bool"},{"name":"afterDonate","type":"bool","internalType":"bool"},{"name":"beforeSwapReturnDelta","type":"bool","internalType":"bool"},{"name":"afterSwapReturnDelta","type":"bool","internalType":"bool"},{"name":"afterAddLiquidityReturnDelta","type":"bool","internalType":"bool"},{"name":"afterRemoveLiquidityReturnDelta","type":"bool","internalType":"bool"}]}],"stateMutability":"pure"},{"type":"function","name":"isCollateralAllowed","inputs":[{"name":"","type":"address","internalType":"address"}],"outputs":[{"name":"","type":"bool","internalType":"bool"}],"stateMutability":"view"},{"type":"function","name":"owner","inputs":[],"outputs":[{"name":"","type":"address","internalType":"address"}],"stateMutability":"view"},{"type":"function","name":"poolKey","inputs":[],"outputs":[{"name":"currency0","type":"address","internalType":"Currency"},{"name":"currency1","type":"address","internalType":"Currency"},{"name":"fee","type":"uint24","internalType":"uint24"},{"name":"tickSpacing","type":"int24","internalType":"int24"},{"name":"hooks","type":"address","internalType":"contract IHooks"}],"stateMutability":"view"},{"type":"function","name":"poolManager","inputs":[],"outputs":[{"name":"","type":"address","internalType":"contract IPoolManager"}],"stateMutability":"view"},{"type":"function","name":"quoteToken","inputs":[],"outputs":[{"name":"","type":"address","internalType":"address"}],"stateMutability":"view"},{"type":"function","name":"renounceOwnership","inputs":[],"outputs":[],"stateMutability":"nonpayable"},{"type":"function","name":"setCollateralAllowed","inputs":[{"name":"token","type":"address","internalType":"address"},{"name":"allowed","type":"bool","internalType":"bool"}],"outputs":[],"stateMutability":"nonpayable"},{"type":"function","name":"transferOwnership","inputs":[{"name":"newOwner","type":"address","internalType":"address"}],"outputs":[],"stateMutability":"nonpayable"},{"type":"function","name":"worldIdRouter","inputs":[],"outputs":[{"name":"","type":"address","internalType":"contract IWorldID"}],"stateMutability":"view"},{"type":"event","name":"CollateralAllowed","inputs":[{"name":"token","type":"address","indexed":true,"internalType":"address"},{"name":"allowed","type":"bool","indexed":false,"internalType":"bool"}],"anonymous":false},{"type":"event","name":"MarketAdded","inputs":[{"name":"maturityTimestamp","type":"uint256","indexed":false,"internalType":"uint256"}],"anonymous":false},{"type":"event","name":"OwnershipTransferred","inputs":[{"name":"previousOwner","type":"address","indexed":true,"internalType":"address"},{"name":"newOwner","type":"address","indexed":true,"internalType":"address"}],"anonymous":false},{"type":"event","name":"PoolKeySet","inputs":[{"name":"key","type":"tuple","indexed":false,"internalType":"struct PoolKey","components":[{"name":"currency0","type":"address","internalType":"Currency"},{"name":"currency1","type":"address","internalType":"Currency"},{"name":"fee","type":"uint24","internalType":"uint24"},{"name":"tickSpacing","type":"int24","internalType":"int24"},{"name":"hooks","type":"address","internalType":"contract IHooks"}]}],"anonymous":false},{"type":"error","name":"OwnableInvalidOwner","inputs":[{"name":"owner","type":"address","internalType":"address"}]},{"type":"error","name":"OwnableUnauthorizedAccount","inputs":[{"name":"account","type":"address","internalType":"address"}]}],"bytecode":{"object":"0x60e03461018157601f61109338819003918201601f19168301916001600160401b03831184841017610185578084926080946040528339810103126101815780516001600160a01b0381168103610181576020820151906001600160a01b03821682036101815761007e606061007760408601610199565b9401610199565b6080919091526001600160a01b0316801561016e575f80546001600160a01b031981168317825560405192916001600160a01b03909116907f8be0079c531659141344cd1fd0a4f28419497f9722a3daafe3b4186f6b6457e09080a36001600160a01b03831615610121575060a05260c052604051610ee590816101ae823960805181610322015260a05181610657015260c0518181816107b60152610bcd0152f35b62461bcd60e51b815260206004820152602260248201527f51756f746520746f6b656e2063616e6e6f74206265207a65726f206164647265604482015261737360f01b6064820152608490fd5b631e4fbdf760e01b5f525f60045260245ffd5b5f80fd5b634e487b7160e01b5f52604160045260245ffd5b51906001600160a01b03821682036101815756fe6080806040526004361015610012575f80fd5b5f3560e01c908163182148ef14610bf157508063217a4b7014610bae57806321d0ee7014610b71578063259982e514610b34578063575e24b414610aa85780636c2bbe7e14610a645780636fe7e6eb1461073b578063715018a6146106e45780638da5cb5b146106bf5780639f063efc1461067b5780639f50b66d14610638578063b47b2fb1146105b3578063b6a8b0fa14610575578063c4e833ce14610418578063cb067320146103db578063d06bf8a514610346578063dc4c90d314610303578063dc98354e146102aa578063deed34db146101e1578063e1b4af69146101a35763f2fde38b14610103575f80fd5b3461019f57602036600319011261019f576001600160a01b03610124610c50565b61012c610e70565b168015610173576001600160a01b035f54826001600160a01b03198216175f55167f8be0079c531659141344cd1fd0a4f28419497f9722a3daafe3b4186f6b6457e05f80a3005b7f1e4fbdf7000000000000000000000000000000000000000000000000000000005f525f60045260245ffd5b5f80fd5b3461019f576101b136610d88565b50505050505060206040517fe1b4af69000000000000000000000000000000000000000000000000000000008152f35b3461019f57604036600319011261019f576101fa610c50565b6024359081151580920361019f576001600160a01b0390610219610e70565b169081156102665760207fe7b5ed3c2b0c67f2d4e8978e894ef5549cf69733dec0d3bcd515c7ddb03da76791835f526001825260405f2060ff1981541660ff8316179055604051908152a2005b606460405162461bcd60e51b815260206004820152601560248201527f496e76616c696420746f6b656e206164647265737300000000000000000000006044820152fd5b3461019f5760e036600319011261019f576102c3610c50565b5060a036602319011261019f576102d8610d62565b5060206040517fdc98354e000000000000000000000000000000000000000000000000000000008152f35b3461019f575f36600319011261019f5760206040516001600160a01b037f0000000000000000000000000000000000000000000000000000000000000000168152f35b3461019f57602036600319011261019f57600435610362610e70565b428111156103975760207fe9628085f7f14effecb9d76beea18cca6c1a2e6e92c301968a994d4070d5cdcf91604051908152a1005b606460405162461bcd60e51b815260206004820152601e60248201527f4d61747572697479206d75737420626520696e207468652066757475726500006044820152fd5b3461019f57602036600319011261019f576001600160a01b036103fc610c50565b165f526001602052602060ff60405f2054166040519015158152f35b3461019f575f36600319011261019f575f6101a0610434610e22565b8281528260208201528260408201528260608201528260808201528260a08201528260c08201528260e0820152826101008201528261012082015282610140820152826101608201528261018082015201526101c06020610493610e22565b5f81528181019060018252604081015f8152606082015f8152608083015f815260a084015f815260c085015f815260e08601905f82526101008701925f84526101208801945f86526101408901965f88526101608a01985f8a526101a06101808c019b5f8d52019b5f8d526040519d8e915f835251151591015251151560408d015251151560608c015251151560808b015251151560a08a015251151560c089015251151560e08801525115156101008701525115156101208601525115156101408501525115156101608401525115156101808301525115156101a0820152f35b3461019f5761058336610d88565b50505050505060206040517fb6a8b0fa000000000000000000000000000000000000000000000000000000008152f35b3461019f5761016036600319011261019f576105cd610c50565b5060a036602319011261019f5760603660c319011261019f576101443567ffffffffffffffff811161019f57610607903690600401610c66565b5050604080517fb47b2fb10000000000000000000000000000000000000000000000000000000081525f6020820152f35b3461019f575f36600319011261019f5760206040516001600160a01b037f0000000000000000000000000000000000000000000000000000000000000000168152f35b3461019f5761068936610cf8565b50505050505050604080517f9f063efc0000000000000000000000000000000000000000000000000000000081525f6020820152f35b3461019f575f36600319011261019f5760206001600160a01b035f5416604051908152f35b3461019f575f36600319011261019f576106fc610e70565b5f6001600160a01b0381546001600160a01b031981168355167f8be0079c531659141344cd1fd0a4f28419497f9722a3daafe3b4186f6b6457e08280a3005b3461019f5761010036600319011261019f57610755610c50565b5060a036602319011261019f5761076a610d62565b50610773610d78565b506001600160a01b03610784610de0565b163003610a20576001600160a01b03600454166109dc576001600160a01b036107ab610df6565b166001600160a01b037f0000000000000000000000000000000000000000000000000000000000000000168091149081156109c2575b501561097e576001600160a01b036107f7610df6565b166001600160a01b031960025416176002556001600160a01b03610819610e0c565b166001600160a01b0319600354161760035560643562ffffff81169081810361019f5760035490608435908160020b9283830361019f577fffffffffffff000000000000ffffffffffffffffffffffffffffffffffffffff76ffffff00000000000000000000000000000000000000008460b81b79ffffff0000000000000000000000000000000000000000000000169360a01b16911617176003556001600160a01b036108c5610de0565b166001600160a01b03196004541617600455604051926024356001600160a01b03811680910361019f5784526044356001600160a01b03811680910361019f576020850152604084015250606082015260a4356001600160a01b03811680910361019f578160a09160807fe54330d463931a9c09a3a8aa62426498212833c904ea12e3fdbc1c463523ec25940152a160206040517f6fe7e6eb000000000000000000000000000000000000000000000000000000008152f35b606460405162461bcd60e51b815260206004820152601d60248201527f506f6f6c206d75737420696e636c7564652071756f746520746f6b656e0000006044820152fd5b90506001600160a01b036109d4610e0c565b1614816107e1565b606460405162461bcd60e51b815260206004820152601360248201527f506f6f6c4b657920616c726561647920736574000000000000000000000000006044820152fd5b606460405162461bcd60e51b815260206004820152601b60248201527f496e76616c696420686f6f6b206164647265737320696e206b657900000000006044820152fd5b3461019f57610a7236610cf8565b50505050505050604080517f6c2bbe7e0000000000000000000000000000000000000000000000000000000081525f6020820152f35b3461019f5761014036600319011261019f57610ac2610c50565b5060a036602319011261019f5760603660c319011261019f576101243567ffffffffffffffff811161019f57610afc903690600401610c66565b505060606040517f575e24b40000000000000000000000000000000000000000000000000000000081525f60208201525f6040820152f35b3461019f57610b4236610c94565b505050505060206040517f259982e5000000000000000000000000000000000000000000000000000000008152f35b3461019f57610b7f36610c94565b505050505060206040517f21d0ee70000000000000000000000000000000000000000000000000000000008152f35b3461019f575f36600319011261019f5760206040516001600160a01b037f0000000000000000000000000000000000000000000000000000000000000000168152f35b3461019f575f36600319011261019f5760a0906001600160a01b03600254166003546001600160a01b03600454169183526001600160a01b038116602084015262ffffff81851c16604084015260b81c60020b60608301526080820152f35b600435906001600160a01b038216820361019f57565b9181601f8401121561019f5782359167ffffffffffffffff831161019f576020838186019501011161019f57565b9061016060031983011261019f576004356001600160a01b038116810361019f579160a060231982011261019f57602491608060c31983011261019f5760c491610144359067ffffffffffffffff821161019f57610cf491600401610c66565b9091565b906101a060031983011261019f576004356001600160a01b038116810361019f579160a060231982011261019f57602491608060c31983011261019f5760c49161014435916101643591610184359067ffffffffffffffff821161019f57610cf491600401610c66565b60c435906001600160a01b038216820361019f57565b60e435908160020b820361019f57565b61012060031982011261019f576004356001600160a01b038116810361019f579160a060231983011261019f5760249160c4359160e43591610104359067ffffffffffffffff821161019f57610cf491600401610c66565b60a4356001600160a01b038116810361019f5790565b6024356001600160a01b038116810361019f5790565b6044356001600160a01b038116810361019f5790565b604051906101c0820182811067ffffffffffffffff821117610e4357604052565b7f4e487b71000000000000000000000000000000000000000000000000000000005f52604160045260245ffd5b6001600160a01b035f54163303610e8357565b7f118cdaa7000000000000000000000000000000000000000000000000000000005f523360045260245ffdfea2646970667358221220b9415a29613cdb1be69160ef7a368c57b7039fa2590ee3bcafa392b82e6a689b64736f6c634300081a0033","linkReferences":{}},"methodIdentifiers":{"addMarket(uint256)":"d06bf8a5","afterAddLiquidity(address,(address,address,uint24,int24,address),(int24,int24,int256,bytes32),int256,int256,bytes)":"9f063efc","afterDonate(address,(address,address,uint24,int24,address),uint256,uint256,bytes)":"e1b4af69","afterInitialize(address,(address,address,uint24,int24,address),uint160,int24)":"6fe7e6eb","afterRemoveLiquidity(address,(address,address,uint24,int24,address),(int24,int24,int256,bytes32),int256,int256,bytes)":"6c2bbe7e","afterSwap(address,(address,address,uint24,int24,address),(bool,int256,uint160),int256,bytes)":"b47b2fb1","beforeAddLiquidity(address,(address,address,uint24,int24,address),(int24,int24,int256,bytes32),bytes)":"259982e5","beforeDonate(address,(address,address,uint24,int24,address),uint256,uint256,bytes)":"b6a8b0fa","beforeInitialize(address,(address,address,uint24,int24,address),uint160)":"dc98354e","beforeRemoveLiquidity(address,(address,address,uint24,int24,address),(int24,int24,int256,bytes32),bytes)":"21d0ee70","beforeSwap(address,(address,address,uint24,int24,address),(bool,int256,uint160),bytes)":"575e24b4","getHookPermissions()":"c4e833ce","isCollateralAllowed(address)":"cb067320","owner()":"8da5cb5b","poolKey()":"182148ef","poolManager()":"dc4c90d3","quoteToken()":"217a4b70","renounceOwnership()":"715018a6","setCollateralAllowed(address,bool)":"deed34db","transferOwnership(address)":"f2fde38b","worldIdRouter()":"9f50b66d"},"id":0}