{
  "_format": "hh-sol-artifact-1",
  "contractName": "MockWorldID",
  "sourceName": "contracts/mocks/MockWorldID.sol",
  "abi": [
    {
      "inputs": [
        {
          "internalType": "address",
          "name": "signal",
          "type": "address"
        },
        {
          "internalType": "uint256",
          "name": "root",
          "type": "uint256"
        },
        {
          "internalType": "uint256",
          "name": "nullifierHash",
          "type": "uint256"
        },
        {
          "internalType": "uint256[8]",
          "name": "proof",
          "type": "uint256[8]"
        }
      ],
      "name": "verifyProof",
      "outputs": [],
      "stateMutability": "pure",
      "type": "function"
    }
  ],
  "bytecode": "0x6080806040523461001657610187908161001c8239f35b600080fdfe608080604052600436101561001357600080fd5b600090813560e01c63fa0795fb1461002a57600080fd5b3461014d5761016036600319011261014d5760043573ffffffffffffffffffffffffffffffffffffffff811680910361014957366101641161014957156100e15750604435156100775780f35b608460405162461bcd60e51b815260206004820152602960248201527f4d6f636b576f726c6449443a206e756c6c6966696572486173682063616e6e6f60448201527f74206265207a65726f00000000000000000000000000000000000000000000006064820152fd5b8062461bcd60e51b6084925260206004820152602a60248201527f4d6f636b576f726c6449443a207369676e616c2063616e6e6f74206265207a6560448201527f726f2061646472657373000000000000000000000000000000000000000000006064820152fd5b8280fd5b5080fdfea264697066735822122093011157f026f468c9d1465d06ee406f212adee6647835bee342f1489ad4864164736f6c63430008140033",
  "linkReferences": {},
  "deployedLinkReferences": {}
}