{
  "_format": "hh-sol-artifact-1",
  "contractName": "AuctionRepoHook",
  "sourceName": "contracts/AuctionRepoHook.sol",
  "abi": [
    {
      "inputs": [
        {
          "internalType": "contract IPoolManager",
          "name": "_poolManager",
          "type": "address"
        },
        {
          "internalType": "contract IWorldID",
          "name": "_worldIdRouter",
          "type": "address"
        },
        {
          "internalType": "address",
          "name": "_quoteToken",
          "type": "address"
        },
        {
          "internalType": "address",
          "name": "_initialOwner",
          "type": "address"
        }
      ],
      "stateMutability": "nonpayable",
      "type": "constructor"
    },
    {
      "inputs": [
        {
          "internalType": "address",
          "name": "owner",
          "type": "address"
        }
      ],
      "name": "OwnableInvalidOwner",
      "type": "error"
    },
    {
      "inputs": [
        {
          "internalType": "address",
          "name": "account",
          "type": "address"
        }
      ],
      "name": "OwnableUnauthorizedAccount",
      "type": "error"
    },
    {
      "inputs": [],
      "name": "ReentrancyGuardReentrantCall",
      "type": "error"
    },
    {
      "inputs": [
        {
          "internalType": "address",
          "name": "token",
          "type": "address"
        }
      ],
      "name": "SafeERC20FailedOperation",
      "type": "error"
    },
    {
      "anonymous": false,
      "inputs": [
        {
          "indexed": false,
          "internalType": "uint256",
          "name": "maturityTimestamp",
          "type": "uint256"
        },
        {
          "indexed": false,
          "internalType": "uint256",
          "name": "clearingRateBPS",
          "type": "uint256"
        },
        {
          "indexed": false,
          "internalType": "uint256",
          "name": "matchedVolume",
          "type": "uint256"
        },
        {
          "indexed": false,
          "internalType": "uint256",
          "name": "matchedRequestCount",
          "type": "uint256"
        },
        {
          "indexed": false,
          "internalType": "uint256",
          "name": "matchedOfferCount",
          "type": "uint256"
        }
      ],
      "name": "AuctionExecuted",
      "type": "event"
    },
    {
      "anonymous": false,
      "inputs": [
        {
          "indexed": true,
          "internalType": "uint256",
          "name": "requestId",
          "type": "uint256"
        },
        {
          "indexed": true,
          "internalType": "address",
          "name": "borrower",
          "type": "address"
        },
        {
          "indexed": false,
          "internalType": "address",
          "name": "collateralToken",
          "type": "address"
        },
        {
          "indexed": false,
          "internalType": "uint256",
          "name": "collateralAmount",
          "type": "uint256"
        },
        {
          "indexed": false,
          "internalType": "uint256",
          "name": "quoteAmountRequested",
          "type": "uint256"
        },
        {
          "indexed": false,
          "internalType": "uint256",
          "name": "maxRateBPS",
          "type": "uint256"
        },
        {
          "indexed": false,
          "internalType": "uint256",
          "name": "maturityTimestamp",
          "type": "uint256"
        },
        {
          "indexed": false,
          "internalType": "uint256",
          "name": "borrowerNullifier",
          "type": "uint256"
        }
      ],
      "name": "BorrowRequestSubmitted",
      "type": "event"
    },
    {
      "anonymous": false,
      "inputs": [
        {
          "indexed": true,
          "internalType": "address",
          "name": "token",
          "type": "address"
        },
        {
          "indexed": false,
          "internalType": "bool",
          "name": "allowed",
          "type": "bool"
        }
      ],
      "name": "CollateralAllowed",
      "type": "event"
    },
    {
      "anonymous": false,
      "inputs": [
        {
          "indexed": true,
          "internalType": "uint256",
          "name": "nullifierHash",
          "type": "uint256"
        }
      ],
      "name": "DefaulterBlacklisted",
      "type": "event"
    },
    {
      "anonymous": false,
      "inputs": [
        {
          "indexed": false,
          "internalType": "uint256",
          "name": "initialLTV",
          "type": "uint256"
        },
        {
          "indexed": false,
          "internalType": "uint256",
          "name": "liquidationThreshold",
          "type": "uint256"
        }
      ],
      "name": "LTVUpdated",
      "type": "event"
    },
    {
      "anonymous": false,
      "inputs": [
        {
          "indexed": true,
          "internalType": "uint256",
          "name": "offerId",
          "type": "uint256"
        },
        {
          "indexed": true,
          "internalType": "address",
          "name": "lender",
          "type": "address"
        },
        {
          "indexed": false,
          "internalType": "uint256",
          "name": "quoteAmount",
          "type": "uint256"
        },
        {
          "indexed": false,
          "internalType": "uint256",
          "name": "minRateBPS",
          "type": "uint256"
        },
        {
          "indexed": false,
          "internalType": "uint256",
          "name": "maturityTimestamp",
          "type": "uint256"
        },
        {
          "indexed": false,
          "internalType": "uint256",
          "name": "lenderNullifier",
          "type": "uint256"
        }
      ],
      "name": "LendOfferSubmitted",
      "type": "event"
    },
    {
      "anonymous": false,
      "inputs": [
        {
          "indexed": true,
          "internalType": "uint256",
          "name": "loanId",
          "type": "uint256"
        },
        {
          "indexed": false,
          "internalType": "uint256",
          "name": "startTimestamp",
          "type": "uint256"
        }
      ],
      "name": "LoanClaimed",
      "type": "event"
    },
    {
      "anonymous": false,
      "inputs": [
        {
          "indexed": true,
          "internalType": "uint256",
          "name": "loanId",
          "type": "uint256"
        },
        {
          "indexed": true,
          "internalType": "address",
          "name": "lender",
          "type": "address"
        },
        {
          "indexed": true,
          "internalType": "address",
          "name": "borrower",
          "type": "address"
        },
        {
          "indexed": false,
          "internalType": "uint256",
          "name": "quoteAmount",
          "type": "uint256"
        },
        {
          "indexed": false,
          "internalType": "uint256",
          "name": "rateBPS",
          "type": "uint256"
        },
        {
          "indexed": false,
          "internalType": "uint256",
          "name": "maturityTimestamp",
          "type": "uint256"
        }
      ],
      "name": "LoanCreated",
      "type": "event"
    },
    {
      "anonymous": false,
      "inputs": [
        {
          "indexed": true,
          "internalType": "uint256",
          "name": "loanId",
          "type": "uint256"
        },
        {
          "indexed": false,
          "internalType": "uint256",
          "name": "collateralSold",
          "type": "uint256"
        },
        {
          "indexed": false,
          "internalType": "uint256",
          "name": "quoteReceived",
          "type": "uint256"
        }
      ],
      "name": "LoanLiquidated",
      "type": "event"
    },
    {
      "anonymous": false,
      "inputs": [
        {
          "indexed": true,
          "internalType": "uint256",
          "name": "loanId",
          "type": "uint256"
        },
        {
          "indexed": false,
          "internalType": "uint256",
          "name": "repaymentAmount",
          "type": "uint256"
        }
      ],
      "name": "LoanRepaid",
      "type": "event"
    },
    {
      "anonymous": false,
      "inputs": [
        {
          "indexed": false,
          "internalType": "uint256",
          "name": "maturityTimestamp",
          "type": "uint256"
        }
      ],
      "name": "MarketAdded",
      "type": "event"
    },
    {
      "anonymous": false,
      "inputs": [
        {
          "indexed": true,
          "internalType": "address",
          "name": "previousOwner",
          "type": "address"
        },
        {
          "indexed": true,
          "internalType": "address",
          "name": "newOwner",
          "type": "address"
        }
      ],
      "name": "OwnershipTransferred",
      "type": "event"
    },
    {
      "anonymous": false,
      "inputs": [
        {
          "components": [
            {
              "internalType": "address",
              "name": "poolDeployer",
              "type": "address"
            },
            {
              "internalType": "address",
              "name": "hooks",
              "type": "address"
            },
            {
              "internalType": "Currency",
              "name": "currency0",
              "type": "address"
            },
            {
              "internalType": "Currency",
              "name": "currency1",
              "type": "address"
            },
            {
              "internalType": "uint24",
              "name": "fee",
              "type": "uint24"
            },
            {
              "internalType": "int24",
              "name": "tickSpacing",
              "type": "int24"
            }
          ],
          "indexed": false,
          "internalType": "struct PoolKey",
          "name": "key",
          "type": "tuple"
        }
      ],
      "name": "PoolKeySet",
      "type": "event"
    },
    {
      "anonymous": false,
      "inputs": [
        {
          "indexed": true,
          "internalType": "uint256",
          "name": "nullifierHash",
          "type": "uint256"
        }
      ],
      "name": "UserUnblacklisted",
      "type": "event"
    },
    {
      "inputs": [],
      "name": "BPS_DENOMINATOR",
      "outputs": [
        {
          "internalType": "uint256",
          "name": "",
          "type": "uint256"
        }
      ],
      "stateMutability": "view",
      "type": "function"
    },
    {
      "inputs": [],
      "name": "MAX_RATE_BPS",
      "outputs": [
        {
          "internalType": "uint256",
          "name": "",
          "type": "uint256"
        }
      ],
      "stateMutability": "view",
      "type": "function"
    },
    {
      "inputs": [],
      "name": "MIN_AUCTION_INTERVAL",
      "outputs": [
        {
          "internalType": "uint256",
          "name": "",
          "type": "uint256"
        }
      ],
      "stateMutability": "view",
      "type": "function"
    },
    {
      "inputs": [],
      "name": "TWAP_INTERVAL",
      "outputs": [
        {
          "internalType": "uint256",
          "name": "",
          "type": "uint256"
        }
      ],
      "stateMutability": "view",
      "type": "function"
    },
    {
      "inputs": [],
      "name": "YEAR_IN_SECONDS",
      "outputs": [
        {
          "internalType": "uint256",
          "name": "",
          "type": "uint256"
        }
      ],
      "stateMutability": "view",
      "type": "function"
    },
    {
      "inputs": [
        {
          "internalType": "uint256",
          "name": "",
          "type": "uint256"
        }
      ],
      "name": "activeMarkets",
      "outputs": [
        {
          "internalType": "uint256",
          "name": "",
          "type": "uint256"
        }
      ],
      "stateMutability": "view",
      "type": "function"
    },
    {
      "inputs": [
        {
          "internalType": "uint256",
          "name": "maturityTimestamp",
          "type": "uint256"
        }
      ],
      "name": "addMarket",
      "outputs": [],
      "stateMutability": "nonpayable",
      "type": "function"
    },
    {
      "inputs": [
        {
          "internalType": "address",
          "name": "",
          "type": "address"
        },
        {
          "components": [
            {
              "internalType": "address",
              "name": "poolDeployer",
              "type": "address"
            },
            {
              "internalType": "address",
              "name": "hooks",
              "type": "address"
            },
            {
              "internalType": "Currency",
              "name": "currency0",
              "type": "address"
            },
            {
              "internalType": "Currency",
              "name": "currency1",
              "type": "address"
            },
            {
              "internalType": "uint24",
              "name": "fee",
              "type": "uint24"
            },
            {
              "internalType": "int24",
              "name": "tickSpacing",
              "type": "int24"
            }
          ],
          "internalType": "struct PoolKey",
          "name": "",
          "type": "tuple"
        },
        {
          "internalType": "uint256",
          "name": "",
          "type": "uint256"
        },
        {
          "internalType": "uint256",
          "name": "",
          "type": "uint256"
        },
        {
          "internalType": "bytes",
          "name": "",
          "type": "bytes"
        }
      ],
      "name": "afterDonate",
      "outputs": [
        {
          "internalType": "bytes4",
          "name": "",
          "type": "bytes4"
        }
      ],
      "stateMutability": "nonpayable",
      "type": "function"
    },
    {
      "inputs": [
        {
          "components": [
            {
              "internalType": "address",
              "name": "poolDeployer",
              "type": "address"
            },
            {
              "internalType": "address",
              "name": "hooks",
              "type": "address"
            },
            {
              "internalType": "Currency",
              "name": "currency0",
              "type": "address"
            },
            {
              "internalType": "Currency",
              "name": "currency1",
              "type": "address"
            },
            {
              "internalType": "uint24",
              "name": "fee",
              "type": "uint24"
            },
            {
              "internalType": "int24",
              "name": "tickSpacing",
              "type": "int24"
            }
          ],
          "internalType": "struct PoolKey",
          "name": "key",
          "type": "tuple"
        },
        {
          "internalType": "uint160",
          "name": "",
          "type": "uint160"
        },
        {
          "internalType": "int24",
          "name": "",
          "type": "int24"
        },
        {
          "internalType": "bytes",
          "name": "",
          "type": "bytes"
        }
      ],
      "name": "afterInitialize",
      "outputs": [
        {
          "internalType": "bytes4",
          "name": "",
          "type": "bytes4"
        }
      ],
      "stateMutability": "nonpayable",
      "type": "function"
    },
    {
      "inputs": [
        {
          "internalType": "address",
          "name": "",
          "type": "address"
        },
        {
          "components": [
            {
              "internalType": "address",
              "name": "poolDeployer",
              "type": "address"
            },
            {
              "internalType": "address",
              "name": "hooks",
              "type": "address"
            },
            {
              "internalType": "Currency",
              "name": "currency0",
              "type": "address"
            },
            {
              "internalType": "Currency",
              "name": "currency1",
              "type": "address"
            },
            {
              "internalType": "uint24",
              "name": "fee",
              "type": "uint24"
            },
            {
              "internalType": "int24",
              "name": "tickSpacing",
              "type": "int24"
            }
          ],
          "internalType": "struct PoolKey",
          "name": "",
          "type": "tuple"
        },
        {
          "components": [
            {
              "internalType": "int24",
              "name": "tickLower",
              "type": "int24"
            },
            {
              "internalType": "int24",
              "name": "tickUpper",
              "type": "int24"
            },
            {
              "internalType": "int256",
              "name": "liquidityDelta",
              "type": "int256"
            }
          ],
          "internalType": "struct IPoolManager.ModifyPositionParams",
          "name": "",
          "type": "tuple"
        },
        {
          "internalType": "BalanceDelta",
          "name": "",
          "type": "int256"
        },
        {
          "internalType": "bytes",
          "name": "",
          "type": "bytes"
        }
      ],
      "name": "afterModifyPosition",
      "outputs": [
        {
          "internalType": "bytes4",
          "name": "",
          "type": "bytes4"
        }
      ],
      "stateMutability": "nonpayable",
      "type": "function"
    },
    {
      "inputs": [
        {
          "internalType": "address",
          "name": "",
          "type": "address"
        },
        {
          "components": [
            {
              "internalType": "address",
              "name": "poolDeployer",
              "type": "address"
            },
            {
              "internalType": "address",
              "name": "hooks",
              "type": "address"
            },
            {
              "internalType": "Currency",
              "name": "currency0",
              "type": "address"
            },
            {
              "internalType": "Currency",
              "name": "currency1",
              "type": "address"
            },
            {
              "internalType": "uint24",
              "name": "fee",
              "type": "uint24"
            },
            {
              "internalType": "int24",
              "name": "tickSpacing",
              "type": "int24"
            }
          ],
          "internalType": "struct PoolKey",
          "name": "",
          "type": "tuple"
        },
        {
          "components": [
            {
              "internalType": "bool",
              "name": "zeroForOne",
              "type": "bool"
            },
            {
              "internalType": "int256",
              "name": "amountSpecified",
              "type": "int256"
            },
            {
              "internalType": "uint160",
              "name": "sqrtPriceLimitX96",
              "type": "uint160"
            }
          ],
          "internalType": "struct IPoolManager.SwapParams",
          "name": "",
          "type": "tuple"
        },
        {
          "internalType": "BalanceDelta",
          "name": "",
          "type": "int256"
        },
        {
          "internalType": "bytes",
          "name": "",
          "type": "bytes"
        }
      ],
      "name": "afterSwap",
      "outputs": [
        {
          "internalType": "bytes4",
          "name": "",
          "type": "bytes4"
        }
      ],
      "stateMutability": "nonpayable",
      "type": "function"
    },
    {
      "inputs": [
        {
          "internalType": "address",
          "name": "",
          "type": "address"
        },
        {
          "components": [
            {
              "internalType": "address",
              "name": "poolDeployer",
              "type": "address"
            },
            {
              "internalType": "address",
              "name": "hooks",
              "type": "address"
            },
            {
              "internalType": "Currency",
              "name": "currency0",
              "type": "address"
            },
            {
              "internalType": "Currency",
              "name": "currency1",
              "type": "address"
            },
            {
              "internalType": "uint24",
              "name": "fee",
              "type": "uint24"
            },
            {
              "internalType": "int24",
              "name": "tickSpacing",
              "type": "int24"
            }
          ],
          "internalType": "struct PoolKey",
          "name": "",
          "type": "tuple"
        },
        {
          "internalType": "uint256",
          "name": "",
          "type": "uint256"
        },
        {
          "internalType": "uint256",
          "name": "",
          "type": "uint256"
        },
        {
          "internalType": "bytes",
          "name": "",
          "type": "bytes"
        }
      ],
      "name": "beforeDonate",
      "outputs": [
        {
          "internalType": "bytes4",
          "name": "",
          "type": "bytes4"
        }
      ],
      "stateMutability": "nonpayable",
      "type": "function"
    },
    {
      "inputs": [
        {
          "internalType": "address",
          "name": "",
          "type": "address"
        },
        {
          "components": [
            {
              "internalType": "address",
              "name": "poolDeployer",
              "type": "address"
            },
            {
              "internalType": "address",
              "name": "hooks",
              "type": "address"
            },
            {
              "internalType": "Currency",
              "name": "currency0",
              "type": "address"
            },
            {
              "internalType": "Currency",
              "name": "currency1",
              "type": "address"
            },
            {
              "internalType": "uint24",
              "name": "fee",
              "type": "uint24"
            },
            {
              "internalType": "int24",
              "name": "tickSpacing",
              "type": "int24"
            }
          ],
          "internalType": "struct PoolKey",
          "name": "",
          "type": "tuple"
        },
        {
          "internalType": "uint160",
          "name": "",
          "type": "uint160"
        },
        {
          "internalType": "bytes",
          "name": "",
          "type": "bytes"
        }
      ],
      "name": "beforeInitialize",
      "outputs": [
        {
          "internalType": "bytes4",
          "name": "",
          "type": "bytes4"
        }
      ],
      "stateMutability": "nonpayable",
      "type": "function"
    },
    {
      "inputs": [
        {
          "internalType": "address",
          "name": "",
          "type": "address"
        },
        {
          "components": [
            {
              "internalType": "address",
              "name": "poolDeployer",
              "type": "address"
            },
            {
              "internalType": "address",
              "name": "hooks",
              "type": "address"
            },
            {
              "internalType": "Currency",
              "name": "currency0",
              "type": "address"
            },
            {
              "internalType": "Currency",
              "name": "currency1",
              "type": "address"
            },
            {
              "internalType": "uint24",
              "name": "fee",
              "type": "uint24"
            },
            {
              "internalType": "int24",
              "name": "tickSpacing",
              "type": "int24"
            }
          ],
          "internalType": "struct PoolKey",
          "name": "",
          "type": "tuple"
        },
        {
          "components": [
            {
              "internalType": "int24",
              "name": "tickLower",
              "type": "int24"
            },
            {
              "internalType": "int24",
              "name": "tickUpper",
              "type": "int24"
            },
            {
              "internalType": "int256",
              "name": "liquidityDelta",
              "type": "int256"
            }
          ],
          "internalType": "struct IPoolManager.ModifyPositionParams",
          "name": "",
          "type": "tuple"
        },
        {
          "internalType": "bytes",
          "name": "",
          "type": "bytes"
        }
      ],
      "name": "beforeModifyPosition",
      "outputs": [
        {
          "internalType": "bytes4",
          "name": "",
          "type": "bytes4"
        }
      ],
      "stateMutability": "nonpayable",
      "type": "function"
    },
    {
      "inputs": [
        {
          "internalType": "address",
          "name": "",
          "type": "address"
        },
        {
          "components": [
            {
              "internalType": "address",
              "name": "poolDeployer",
              "type": "address"
            },
            {
              "internalType": "address",
              "name": "hooks",
              "type": "address"
            },
            {
              "internalType": "Currency",
              "name": "currency0",
              "type": "address"
            },
            {
              "internalType": "Currency",
              "name": "currency1",
              "type": "address"
            },
            {
              "internalType": "uint24",
              "name": "fee",
              "type": "uint24"
            },
            {
              "internalType": "int24",
              "name": "tickSpacing",
              "type": "int24"
            }
          ],
          "internalType": "struct PoolKey",
          "name": "",
          "type": "tuple"
        },
        {
          "components": [
            {
              "internalType": "bool",
              "name": "zeroForOne",
              "type": "bool"
            },
            {
              "internalType": "int256",
              "name": "amountSpecified",
              "type": "int256"
            },
            {
              "internalType": "uint160",
              "name": "sqrtPriceLimitX96",
              "type": "uint160"
            }
          ],
          "internalType": "struct IPoolManager.SwapParams",
          "name": "",
          "type": "tuple"
        },
        {
          "internalType": "bytes",
          "name": "",
          "type": "bytes"
        }
      ],
      "name": "beforeSwap",
      "outputs": [
        {
          "internalType": "bytes4",
          "name": "",
          "type": "bytes4"
        }
      ],
      "stateMutability": "nonpayable",
      "type": "function"
    },
    {
      "inputs": [
        {
          "internalType": "uint256",
          "name": "",
          "type": "uint256"
        }
      ],
      "name": "borrowRequests",
      "outputs": [
        {
          "internalType": "uint256",
          "name": "requestId",
          "type": "uint256"
        },
        {
          "internalType": "address",
          "name": "borrower",
          "type": "address"
        },
        {
          "internalType": "address",
          "name": "collateralToken",
          "type": "address"
        },
        {
          "internalType": "uint256",
          "name": "collateralAmount",
          "type": "uint256"
        },
        {
          "internalType": "uint256",
          "name": "quoteAmountRequested",
          "type": "uint256"
        },
        {
          "internalType": "uint256",
          "name": "maxRateBPS",
          "type": "uint256"
        },
        {
          "internalType": "uint256",
          "name": "maturityTimestamp",
          "type": "uint256"
        },
        {
          "internalType": "uint256",
          "name": "borrowerNullifier",
          "type": "uint256"
        },
        {
          "internalType": "bool",
          "name": "matched",
          "type": "bool"
        }
      ],
      "stateMutability": "view",
      "type": "function"
    },
    {
      "inputs": [
        {
          "internalType": "uint256",
          "name": "loanId",
          "type": "uint256"
        }
      ],
      "name": "claimLoan",
      "outputs": [],
      "stateMutability": "nonpayable",
      "type": "function"
    },
    {
      "inputs": [],
      "name": "getHookPermissions",
      "outputs": [
        {
          "components": [
            {
              "internalType": "bool",
              "name": "beforeInitialize",
              "type": "bool"
            },
            {
              "internalType": "bool",
              "name": "afterInitialize",
              "type": "bool"
            },
            {
              "internalType": "bool",
              "name": "beforeModifyPosition",
              "type": "bool"
            },
            {
              "internalType": "bool",
              "name": "afterModifyPosition",
              "type": "bool"
            },
            {
              "internalType": "bool",
              "name": "beforeSwap",
              "type": "bool"
            },
            {
              "internalType": "bool",
              "name": "afterSwap",
              "type": "bool"
            },
            {
              "internalType": "bool",
              "name": "beforeDonate",
              "type": "bool"
            },
            {
              "internalType": "bool",
              "name": "afterDonate",
              "type": "bool"
            }
          ],
          "internalType": "struct Hooks.Permissions",
          "name": "",
          "type": "tuple"
        }
      ],
      "stateMutability": "pure",
      "type": "function"
    },
    {
      "inputs": [],
      "name": "initialLTV",
      "outputs": [
        {
          "internalType": "uint256",
          "name": "",
          "type": "uint256"
        }
      ],
      "stateMutability": "view",
      "type": "function"
    },
    {
      "inputs": [
        {
          "internalType": "address",
          "name": "",
          "type": "address"
        }
      ],
      "name": "isCollateralAllowed",
      "outputs": [
        {
          "internalType": "bool",
          "name": "",
          "type": "bool"
        }
      ],
      "stateMutability": "view",
      "type": "function"
    },
    {
      "inputs": [
        {
          "internalType": "uint256",
          "name": "",
          "type": "uint256"
        }
      ],
      "name": "isNullifierBlacklisted",
      "outputs": [
        {
          "internalType": "bool",
          "name": "",
          "type": "bool"
        }
      ],
      "stateMutability": "view",
      "type": "function"
    },
    {
      "inputs": [
        {
          "internalType": "uint256",
          "name": "",
          "type": "uint256"
        }
      ],
      "name": "lendOffers",
      "outputs": [
        {
          "internalType": "uint256",
          "name": "offerId",
          "type": "uint256"
        },
        {
          "internalType": "address",
          "name": "lender",
          "type": "address"
        },
        {
          "internalType": "uint256",
          "name": "quoteAmount",
          "type": "uint256"
        },
        {
          "internalType": "uint256",
          "name": "minRateBPS",
          "type": "uint256"
        },
        {
          "internalType": "uint256",
          "name": "maturityTimestamp",
          "type": "uint256"
        },
        {
          "internalType": "uint256",
          "name": "lenderNullifier",
          "type": "uint256"
        },
        {
          "internalType": "bool",
          "name": "matched",
          "type": "bool"
        }
      ],
      "stateMutability": "view",
      "type": "function"
    },
    {
      "inputs": [
        {
          "internalType": "uint256",
          "name": "loanId",
          "type": "uint256"
        }
      ],
      "name": "liquidatePosition",
      "outputs": [],
      "stateMutability": "nonpayable",
      "type": "function"
    },
    {
      "inputs": [],
      "name": "liquidationThreshold",
      "outputs": [
        {
          "internalType": "uint256",
          "name": "",
          "type": "uint256"
        }
      ],
      "stateMutability": "view",
      "type": "function"
    },
    {
      "inputs": [
        {
          "internalType": "uint256",
          "name": "",
          "type": "uint256"
        }
      ],
      "name": "loans",
      "outputs": [
        {
          "internalType": "uint256",
          "name": "loanId",
          "type": "uint256"
        },
        {
          "internalType": "address",
          "name": "lender",
          "type": "address"
        },
        {
          "internalType": "address",
          "name": "borrower",
          "type": "address"
        },
        {
          "internalType": "address",
          "name": "collateralToken",
          "type": "address"
        },
        {
          "internalType": "uint256",
          "name": "collateralAmount",
          "type": "uint256"
        },
        {
          "internalType": "uint256",
          "name": "quoteAmount",
          "type": "uint256"
        },
        {
          "internalType": "uint256",
          "name": "rateBPS",
          "type": "uint256"
        },
        {
          "internalType": "uint256",
          "name": "startTimestamp",
          "type": "uint256"
        },
        {
          "internalType": "uint256",
          "name": "maturityTimestamp",
          "type": "uint256"
        },
        {
          "internalType": "uint256",
          "name": "lenderNullifier",
          "type": "uint256"
        },
        {
          "internalType": "uint256",
          "name": "borrowerNullifier",
          "type": "uint256"
        },
        {
          "internalType": "enum AuctionRepoHook.LoanStatus",
          "name": "status",
          "type": "uint8"
        }
      ],
      "stateMutability": "view",
      "type": "function"
    },
    {
      "inputs": [
        {
          "internalType": "uint256",
          "name": "",
          "type": "uint256"
        }
      ],
      "name": "markets",
      "outputs": [
        {
          "internalType": "uint256",
          "name": "lastAuctionTimestamp",
          "type": "uint256"
        },
        {
          "internalType": "uint256",
          "name": "lastClearingRateBPS",
          "type": "uint256"
        },
        {
          "internalType": "uint256",
          "name": "totalOfferedAmount",
          "type": "uint256"
        },
        {
          "internalType": "uint256",
          "name": "totalRequestedAmount",
          "type": "uint256"
        },
        {
          "internalType": "uint256",
          "name": "activeLoanCount",
          "type": "uint256"
        },
        {
          "internalType": "uint256",
          "name": "totalLoanVolume",
          "type": "uint256"
        },
        {
          "internalType": "uint256",
          "name": "defaultCount",
          "type": "uint256"
        }
      ],
      "stateMutability": "view",
      "type": "function"
    },
    {
      "inputs": [],
      "name": "nextLoanId",
      "outputs": [
        {
          "internalType": "uint256",
          "name": "",
          "type": "uint256"
        }
      ],
      "stateMutability": "view",
      "type": "function"
    },
    {
      "inputs": [],
      "name": "nextOfferId",
      "outputs": [
        {
          "internalType": "uint256",
          "name": "",
          "type": "uint256"
        }
      ],
      "stateMutability": "view",
      "type": "function"
    },
    {
      "inputs": [],
      "name": "nextRequestId",
      "outputs": [
        {
          "internalType": "uint256",
          "name": "",
          "type": "uint256"
        }
      ],
      "stateMutability": "view",
      "type": "function"
    },
    {
      "inputs": [],
      "name": "owner",
      "outputs": [
        {
          "internalType": "address",
          "name": "",
          "type": "address"
        }
      ],
      "stateMutability": "view",
      "type": "function"
    },
    {
      "inputs": [
        {
          "internalType": "uint256",
          "name": "nullifierHash",
          "type": "uint256"
        }
      ],
      "name": "ownerAddToBlacklist",
      "outputs": [],
      "stateMutability": "nonpayable",
      "type": "function"
    },
    {
      "inputs": [
        {
          "internalType": "uint256",
          "name": "nullifierHash",
          "type": "uint256"
        }
      ],
      "name": "ownerRemoveFromBlacklist",
      "outputs": [],
      "stateMutability": "nonpayable",
      "type": "function"
    },
    {
      "inputs": [],
      "name": "poolKey",
      "outputs": [
        {
          "internalType": "address",
          "name": "poolDeployer",
          "type": "address"
        },
        {
          "internalType": "address",
          "name": "hooks",
          "type": "address"
        },
        {
          "internalType": "Currency",
          "name": "currency0",
          "type": "address"
        },
        {
          "internalType": "Currency",
          "name": "currency1",
          "type": "address"
        },
        {
          "internalType": "uint24",
          "name": "fee",
          "type": "uint24"
        },
        {
          "internalType": "int24",
          "name": "tickSpacing",
          "type": "int24"
        }
      ],
      "stateMutability": "view",
      "type": "function"
    },
    {
      "inputs": [],
      "name": "poolManager",
      "outputs": [
        {
          "internalType": "contract IPoolManager",
          "name": "",
          "type": "address"
        }
      ],
      "stateMutability": "view",
      "type": "function"
    },
    {
      "inputs": [],
      "name": "quoteToken",
      "outputs": [
        {
          "internalType": "address",
          "name": "",
          "type": "address"
        }
      ],
      "stateMutability": "view",
      "type": "function"
    },
    {
      "inputs": [],
      "name": "renounceOwnership",
      "outputs": [],
      "stateMutability": "nonpayable",
      "type": "function"
    },
    {
      "inputs": [
        {
          "internalType": "uint256",
          "name": "loanId",
          "type": "uint256"
        }
      ],
      "name": "repayLoan",
      "outputs": [],
      "stateMutability": "nonpayable",
      "type": "function"
    },
    {
      "inputs": [
        {
          "internalType": "uint256",
          "name": "maturityTimestamp",
          "type": "uint256"
        }
      ],
      "name": "runAuction",
      "outputs": [],
      "stateMutability": "nonpayable",
      "type": "function"
    },
    {
      "inputs": [
        {
          "internalType": "address",
          "name": "token",
          "type": "address"
        },
        {
          "internalType": "bool",
          "name": "allowed",
          "type": "bool"
        }
      ],
      "name": "setCollateralAllowed",
      "outputs": [],
      "stateMutability": "nonpayable",
      "type": "function"
    },
    {
      "inputs": [
        {
          "internalType": "uint256",
          "name": "_initialLTV",
          "type": "uint256"
        },
        {
          "internalType": "uint256",
          "name": "_liquidationThreshold",
          "type": "uint256"
        }
      ],
      "name": "setLTVParams",
      "outputs": [],
      "stateMutability": "nonpayable",
      "type": "function"
    },
    {
      "inputs": [
        {
          "internalType": "address",
          "name": "collateralToken",
          "type": "address"
        },
        {
          "internalType": "uint256",
          "name": "collateralAmount",
          "type": "uint256"
        },
        {
          "internalType": "uint256",
          "name": "quoteAmountRequested",
          "type": "uint256"
        },
        {
          "internalType": "uint256",
          "name": "maxRateBPS",
          "type": "uint256"
        },
        {
          "internalType": "uint256",
          "name": "maturityTimestamp",
          "type": "uint256"
        },
        {
          "internalType": "address",
          "name": "signal",
          "type": "address"
        },
        {
          "internalType": "uint256",
          "name": "root",
          "type": "uint256"
        },
        {
          "internalType": "uint256",
          "name": "nullifierHash",
          "type": "uint256"
        },
        {
          "internalType": "uint256[8]",
          "name": "proof",
          "type": "uint256[8]"
        }
      ],
      "name": "submitBorrowRequest",
      "outputs": [],
      "stateMutability": "nonpayable",
      "type": "function"
    },
    {
      "inputs": [
        {
          "internalType": "uint256",
          "name": "quoteAmount",
          "type": "uint256"
        },
        {
          "internalType": "uint256",
          "name": "minRateBPS",
          "type": "uint256"
        },
        {
          "internalType": "uint256",
          "name": "maturityTimestamp",
          "type": "uint256"
        },
        {
          "internalType": "address",
          "name": "signal",
          "type": "address"
        },
        {
          "internalType": "uint256",
          "name": "root",
          "type": "uint256"
        },
        {
          "internalType": "uint256",
          "name": "nullifierHash",
          "type": "uint256"
        },
        {
          "internalType": "uint256[8]",
          "name": "proof",
          "type": "uint256[8]"
        }
      ],
      "name": "submitLendOffer",
      "outputs": [],
      "stateMutability": "nonpayable",
      "type": "function"
    },
    {
      "inputs": [
        {
          "internalType": "address",
          "name": "newOwner",
          "type": "address"
        }
      ],
      "name": "transferOwnership",
      "outputs": [],
      "stateMutability": "nonpayable",
      "type": "function"
    },
    {
      "inputs": [],
      "name": "worldIdRouter",
      "outputs": [
        {
          "internalType": "contract IWorldID",
          "name": "",
          "type": "address"
        }
      ],
      "stateMutability": "view",
      "type": "function"
    }
  ],
  "bytecode": "0x60e034620001cf57601f620034ff38819003918201601f19168301916001600160401b03831184841017620001d457808492608094604052833981010312620001cf5780516001600160a01b038082168203620001cf576020830151918183168303620001cf5781906200008460606200007c60408801620001ea565b9601620001ea565b9060805216908115620001b657600080546001600160a01b03198116841782556040519391908316907f8be0079c531659141344cd1fd0a4f28419497f9722a3daafe3b4186f6b6457e09080a360018055611b586002556121346003556001600d556001600f55600160115583161562000169575060a05260c0526040516132ff9081620002008239608051816105c5015260a051818181610e6501528181611447015281816115f20152611662015260c0518181816108240152818161092f01528181610d0701528181610f21015281816111a0015281816127710152612a6d0152f35b62461bcd60e51b815260206004820152602260248201527f51756f746520746f6b656e2063616e6e6f74206265207a65726f206164647265604482015261737360f01b6064820152608490fd5b604051631e4fbdf760e01b815260006004820152602490fd5b600080fd5b634e487b7160e01b600052604160045260246000fd5b51906001600160a01b0382168203620001cf5756fe60c080604052600436101561001357600080fd5b60003560e01c9081630127e45614612af357508063182148ef14612a91578063217a4b7014612a4d57806323962ace146129c75780633adfe6d0146129905780634031234c1461297257806344577bea1461293557806350d282fc146128a057806352494c9b1461287a57806353a469b3146126d65780635f5d0655146126b85780636a7eb0b11461269b5780636a84a9851461267d578063715018a6146126245780637847ea53146126055780637d40d0f814611bf75780637f21bc6214611ab957806387c5145914611a9b5780638da5cb5b14611a745780639e2214c21461152a5780639f1105761461146b5780639f50b66d14611427578063a17bbfbc1461111c578063a41e1020146110ff578063a880a273146110e1578063aa23dd4314610dd1578063ab7b1c8914610c33578063b0c0c26414610c16578063b1283e7714610ba9578063b7f6916314610b78578063c1ef3c4b14610b3a578063c4e833ce14610a5f578063cb06732014610a20578063cdddd4e514610758578063d06bf8a5146105e9578063dc4c90d3146105a5578063deed34db146104d1578063df57968114610493578063df991fd914610455578063e1a4521814610438578063e1ec3c6814610360578063eef964fa146102e5578063f2fde38b146102465763fc8060031461020357600080fd5b346102415761021136612c39565b50505050505060206040517ffc806003000000000000000000000000000000000000000000000000000000008152f35b600080fd5b346102415760203660031901126102415761025f612b2e565b610267612cf6565b6001600160a01b038091169081156102b457600054826001600160a01b0319821617600055167f8be0079c531659141344cd1fd0a4f28419497f9722a3daafe3b4186f6b6457e0600080a3005b60246040517f1e4fbdf700000000000000000000000000000000000000000000000000000000815260006004820152fd5b3461024157602036600319011261024157600435600052600c60205260e060406000208054906001600160a01b03600182015416906002810154600382015460048301549160ff600660058601549501541694604051968752602087015260408601526060850152608084015260a0830152151560c0820152f35b34610241576020366003190112610241576004356000526010602052604060002080546001600160a01b0391826001820154169280600283015416906003830154166004830154600584015460068501549060078601549260088701549460098801549660ff600b600a8b01549a0154169a6040519a8b5260208b015260408a01526060890152608088015260a087015260c086015260e085015261010084015261012083015261014082015260058210156104225761018091610160820152f35b634e487b7160e01b600052602160045260246000fd5b346102415760003660031901126102415760206040516127108152f35b346102415761046336612c9d565b50505050505060206040517fdf991fd9000000000000000000000000000000000000000000000000000000008152f35b34610241576104a136612c9d565b50505050505060206040517fdf579681000000000000000000000000000000000000000000000000000000008152f35b34610241576040366003190112610241576104ea612b2e565b6024359081151590818303610241576001600160a01b039061050a612cf6565b16918215610561577fe7b5ed3c2b0c67f2d4e8978e894ef5549cf69733dec0d3bcd515c7ddb03da76791610558602092856000526005845260406000209060ff801983541691151516179055565b604051908152a2005b606460405162461bcd60e51b815260206004820152601560248201527f496e76616c696420746f6b656e206164647265737300000000000000000000006044820152fd5b346102415760003660031901126102415760206040516001600160a01b037f0000000000000000000000000000000000000000000000000000000000000000168152f35b34610241576020806003193601126102415760043590610607612cf6565b610612428311612dc9565b81600052600a81526040600020546107145760405161063081612d3a565b4281526006828201600081526040830160008152606084016000815260808501906000825260a08601926000845260c08701946000865289600052600a895260406000209751885551600188015551600287015551600386015551600485015551600584015551910155600b5491680100000000000000008310156106fe576106e08360017fe9628085f7f14effecb9d76beea18cca6c1a2e6e92c301968a994d4070d5cdcf9501600b55612bec565b81549060031b9083821b91600019901b1916179055604051908152a1005b634e487b7160e01b600052604160045260246000fd5b6064906040519062461bcd60e51b82526004820152601560248201527f4d61726b657420616c72656164792065786973747300000000000000000000006044820152fd5b34610241576020806003193601126102415760043590610776612fb7565b8160005260108152604060002061078f81541515613025565b600b81019160ff83541660058110156104225760016107ae91146130d6565b60088201928354421191821561096f575b6107c8846131f8565b946004850194855494606486029486860460641487151715610959577f5398b7a5b8c8e1f6623af066668e947737efd1695f29634f60bba23a20b7ec4198604098888289106109165761086a916001600160a01b039361085c857f00000000000000000000000000000000000000000000000000000000000000001691610856818860018d01541685613070565b8c613121565b806108fe575b505054613121565b806108df575b50505b600460ff198254161790558254600052600a845260048760002001610898815461312e565b90556108b0575b50508351928352820152a260018055005b600a6108bd910154613270565b54600052600a8152600684600020016108d68154612eaa565b9055868061089f565b816108f7926003870154169060028701541690613070565b8a80610870565b61090f918660028b01541690613070565b8e80610862565b505050610954866001600160a01b0380600187015416907f000000000000000000000000000000000000000000000000000000000000000016613070565b610873565b634e487b7160e01b600052601160045260246000fd5b600484015460648102908082046064149015171561095957610990856131f8565b9061271091828102928184041490151715610959576109ae91613005565b600354106107bf576084906040519062461bcd60e51b82526004820152602160248201527f4c6f616e206e6f7420656c696769626c6520666f72206c69717569646174696f60448201527f6e000000000000000000000000000000000000000000000000000000000000006064820152fd5b34610241576020366003190112610241576001600160a01b03610a41612b2e565b166000526005602052602060ff604060002054166040519015158152f35b3461024157600036600319011261024157600060e0604051610a8081612d56565b8281528260208201528260408201528260608201528260808201528260a08201528260c08201520152610100604051610ab881612d56565b600081526020810190600182526040810190600082526060810160008152608082016000815260a08301916000835260e060c0850194600086520194600086526040519660008852511515602088015251151560408701525115156060860152511515608085015251151560a084015251151560c083015251151560e0820152f35b3461024157610b4836612c39565b50505050505060206040517fc1ef3c4b000000000000000000000000000000000000000000000000000000008152f35b34610241576020366003190112610241576004356000526004602052602060ff604060002054166040519015158152f35b3461024157602036600319011261024157600435600052600a60205260e06040600020805490600181015490600281015460038201546004830154916006600585015494015494604051968752602087015260408601526060850152608084015260a083015260c0820152f35b346102415760003660031901126102415760206040516113888152f35b3461024157602036600319011261024157600435610c4f612fb7565b8060005260106020526040600020610c6981541515613025565b600b810160ff8154166005811015610422576001610c8791146130d6565b600882019182544211610d8d577f040cee90ee4799897c30ca04e5feb6fa43dbba9b6d084b4b257cdafd84ba013e92602092610d59610cf6610ccd600786015442613121565b64496cebb800610cef600588015492610cea60068a015485612ff2565b612ff2565b0490612eb9565b936001600160a01b0390610d4086837f000000000000000000000000000000000000000000000000000000000000000016610d3382303384612ec6565b8460018501541690613070565b6004826003830154169260028301541691015491613070565b600260ff1982541617905554600052600a82526004604060002001610d7e815461312e565b9055604051908152a260018055005b606460405162461bcd60e51b815260206004820152601260248201527f4c6f616e2070617374206d6174757269747900000000000000000000000000006044820152fd5b34610241576101c036600319011261024157600435602435604435610df4612b44565b9060a43590366101c41161024157610e0a612fb7565b841561109d57610e1e611388851115612e14565b80600052602093600a8552610e396040600020541515612e5f565b610e44428311612dc9565b826000526004855260ff60406000205416611059576001600160a01b0393847f00000000000000000000000000000000000000000000000000000000000000001690813b156102415785610164600092604051948593849263fa0795fb60e01b8452166004830152608435602483015288604483015261010060c460648401375afa908161104a575b50610f16576064856040519062461bcd60e51b82526004820152601660248201527f496e76616c696420576f726c642049442070726f6f66000000000000000000006044820152fd5b8594610f46863033887f000000000000000000000000000000000000000000000000000000000000000016612ec6565b610fee600d5495610f5687612eaa565b600d5560068760405192610f6984612d3a565b818452858401338152604085018c8152606086019089825260808701928b845260a08801948d865260c089019660008852600052600c8b52604060002098518955600189019151166001600160a01b031982541617905551600287015551600386015551600485015551600584015551151591019060ff801983541691151516179055565b82600052600a81526002604060002001611009878254612eb9565b9055604051958652850152604084015260608301527f101be5bb48fc561c063568755bf3321ec63b4bc6f7ace2d9019a6bde5fb7447f60803393a360018055005b61105390612d73565b87610ecd565b6064856040519062461bcd60e51b82526004820152601360248201527f5573657220697320626c61636b6c6973746564000000000000000000000000006044820152fd5b606460405162461bcd60e51b815260206004820152601760248201527f416d6f756e74206d75737420626520706f7369746976650000000000000000006044820152fd5b34610241576000366003190112610241576020600254604051908152f35b346102415760003660031901126102415760206040516107088152f35b3461024157366003190161012081126102415760c013610241576001600160a01b0360c435818116036102415760e4358060020b03610241576101043567ffffffffffffffff811161024157611176903690600401612b5a565b5050611180612d87565b81309116036113e35760075481811661139f578161119c612d9d565b16827f00000000000000000000000000000000000000000000000000000000000000001680911490811561138c575b50156113485760043590828216809203610241576001600160a01b03199182600654161760065581836111fc612d87565b169116176007558161120c612d9d565b169060085416176008558061121f612db3565b166009549060843562ffffff8116928382036102415760a435928360020b938481036102415776ffffff00000000000000000000000000000000000000007fffffffffffff00000000000000000000000000000000000000000000000000009160b81b79ffffff0000000000000000000000000000000000000000000000169460a01b16921617171760095560405190836112b8612b2e565b16825260243584811680910361024157602083015260443592848416809403610241577f50610696e9fe8816208f4f19f070f264b06b4ad02c040485c0e5fa4ef433208a9460c094604085015261130d612b44565b166060840152608083015260a0820152a160206040517fa17bbfbc000000000000000000000000000000000000000000000000000000008152f35b606460405162461bcd60e51b815260206004820152601d60248201527f506f6f6c206d75737420696e636c7564652071756f746520746f6b656e0000006044820152fd5b905082611397612db3565b1614836111cb565b606460405162461bcd60e51b815260206004820152601360248201527f506f6f6c4b657920616c726561647920736574000000000000000000000000006044820152fd5b606460405162461bcd60e51b815260206004820152601b60248201527f496e76616c696420686f6f6b206164647265737320696e206b657900000000006044820152fd5b346102415760003660031901126102415760206040516001600160a01b037f0000000000000000000000000000000000000000000000000000000000000000168152f35b3461024157602036600319011261024157600435611487612cf6565b61149281151561313b565b80600052600460205260ff60406000205416156114e657806000526004602052604060002060ff1981541690557f31c881e4e925d1768cc34e510541d44008b23b46a60e3027463f39c50658c163600080a2005b606460405162461bcd60e51b815260206004820152600f60248201527f4e6f7420626c61636b6c697374656400000000000000000000000000000000006044820152fd5b346102415761020036600319011261024157611544612b2e565b60a4356001600160a01b038116810361024157366102041161024157611568612fb7565b6001600160a01b038216600052600560205260ff6040600020541615611a3057602435156119c6576044351561195c576115a86113886064351115612e14565b608435600052600a6020526115c36040600020541515612e5f565b6115d04260843511612dc9565b60e435600052600460205260ff60406000205416611918576001600160a01b037f0000000000000000000000000000000000000000000000000000000000000000163b15610241576001600160a01b036040519163fa0795fb60e01b835216600482015260c435602482015260e435604482015261010090816101046064830137600081610164816001600160a01b037f0000000000000000000000000000000000000000000000000000000000000000165afa9081611909575b506116d457606460405162461bcd60e51b815260206004820152601660248201527f496e76616c696420576f726c642049442070726f6f66000000000000000000006044820152fd5b6064602435026024358104606403610959576116f66127109160025490612ff2565b046044351161189f5761171660243530336001600160a01b038616612ec6565b600f549061172382612eaa565b600f55604051610120810181811067ffffffffffffffff8211176106fe5761181a926008916040528483526020830190338252604084016001600160a01b038816815260608501602435815260808601604435815260a0870191606435835260c0880193608435855260e089019560e4358752890196600088528b600052600e602052604060002099518a556001600160a01b0360018b01915116906001600160a01b031991828254161790556001600160a01b0360028b019251169082541617905551600388015551600487015551600586015551600685015551600784015551151591019060ff801983541691151516179055565b608435600052600a602052600360406000200161183a6044358254612eb9565b90556001600160a01b0360405192168252602435602083015260443560408301526064356060830152608435608083015260e43560a08301527f16775be402cdf037bdabd450b0ce3f4a08962decfde296b59dbd1c0221329c0360c03393a360018055005b608460405162461bcd60e51b815260206004820152602a60248201527f496e73756666696369656e7420636f6c6c61746572616c20666f72207265717560448201527f6573746564206c6f616e000000000000000000000000000000000000000000006064820152fd5b61191290612d73565b8361168b565b606460405162461bcd60e51b815260206004820152601360248201527f5573657220697320626c61636b6c6973746564000000000000000000000000006044820152fd5b608460405162461bcd60e51b815260206004820152602160248201527f52657175657374656420616d6f756e74206d75737420626520706f736974697660448201527f65000000000000000000000000000000000000000000000000000000000000006064820152fd5b608460405162461bcd60e51b815260206004820152602260248201527f436f6c6c61746572616c20616d6f756e74206d75737420626520706f7369746960448201527f76650000000000000000000000000000000000000000000000000000000000006064820152fd5b606460405162461bcd60e51b815260206004820152601660248201527f436f6c6c61746572616c206e6f7420616c6c6f776564000000000000000000006044820152fd5b346102415760003660031901126102415760206001600160a01b0360005416604051908152f35b34610241576000366003190112610241576020601154604051908152f35b3461024157604036600319011261024157600435602435611ad8612cf6565b80821015611b8d576127108111611b2357816040917febf7eddb4e03548e462e5c4eea29b2fe5e922ed494fbd1ee2ef8fc337cd55be1936002558060035582519182526020820152a1005b608460405162461bcd60e51b815260206004820152602860248201527f4c69717569646174696f6e207468726573686f6c642063616e6e6f742065786360448201527f65656420313030250000000000000000000000000000000000000000000000006064820152fd5b608460405162461bcd60e51b815260206004820152603360248201527f496e697469616c204c5456206d757374206265206c657373207468616e206c6960448201527f717569646174696f6e207468726573686f6c64000000000000000000000000006064820152fd5b3461024157602036600319011261024157611c10612cf6565b600435600052600a60205260406000208054611c2d811515612e5f565b610e1081018091116109595742106125c15742600435111561257d57600d54906000908160015b8481106125265750600f549060015b8281106124cf5750611c77611c7d9161319e565b9361319e565b936000908160015b82811061247a5750505060015b82811061242557505050815115158061241b575b156123d7576000925b8251841015611d595760018401808511610959575b8351811015611d4857611d1290611cdb86866131e4565b51600052600c806020526003806040600020015491611cfa84896131e4565b516000526020526040600020015410611d1757612eaa565b611cc4565b611d2181866131e4565b51611d2c87876131e4565b51611d3783886131e4565b52611d4287876131e4565b52612eaa565b5092611d5390612eaa565b92611caf565b826000925b8251841015611dd75760018401808511610959575b8351811015611dc657611dc190611d8a86866131e4565b51600052600e806020526005806040600020015491611da984896131e4565b516000526020526040600020015411611d1757612eaa565b611d73565b5092611dd190612eaa565b92611d5e565b826000916000906000946000926000916000945b8151861015611f1857611dfe86836131e4565b51600052600c6020526003604060002001549460009860009460005b89811115611ee357506000955b8a51871015611ecf57611e3a878c6131e4565b51600052600e602052886005604060002001541015600014611e8b57611e7f611e8591611e67898e6131e4565b51600052600e60205260046040600020015490612eb9565b96612eaa565b95611e27565b91969a9095509a939a9792979691965b8180821091180218898111611ec2575b5050611eb690612eaa565b94979097969296611deb565b98509550611eb68a611eab565b91969a9095509a939a979297969196611e9b565b9a611f0d611f1391611ef58e896131e4565b51600052600c60205260026040600020015490612eb9565b9b612eaa565b611e1a565b90879389928882611f76575b7f34570f9fb64342ea477acfdfd825e34c70ea3a3673ad98a12b4e87f2f390805060a0888888888360018f428155015551916040519360043585526020850152604084015260608301526080820152a1005b6000608081905297965087955091935090918491908185845b871515806123cd575b806123c3575b1561236a575b835181108061239f575b15611fc157611fbc90612eaa565b611fa4565b959697835187101561236a575b8751811080612346575b15611feb57611fe690612eaa565b611fce565b979695988651891015612302576120028a856131e4565b51600052600c602052604060002061201a8a896131e4565b51600052600e6020526040600020908c156122f6575b87156122ea575b8c8880821091180288188a808210911802808b1860a0528a0361205d575b505098611f8f565b60119c99979c80549a8b9161207183612eaa565b90556001600160a01b036001840154166001600160a01b036001860154166001600160a01b036002870154166120bb6120b060a05160038a0154612ff2565b600489015490613005565b90600587015492600789015494604051978861018081011067ffffffffffffffff6101808b0111176106fe5761018089016040528852602088015260408701526060860152608085015260a05160a08501528a60c0850152600060e085015260043561010085015261012084015261014083015260006101608301528b600052601060205261016060406000209280518455600184016001600160a01b03602083015116906001600160a01b03199182825416179055600285016001600160a01b036040840151168282541617905560038501906001600160a01b03606084015116908254161790556080810151600485015560a0810151600585015560c0810151600685015560e0810151600785015561010081015160088501556101208101516009850155610140810151600a850155015191600583101561042257600b6122179360ff8019838501541691161791015560a05190613121565b612232612228829f60a05190613121565b9960a05190613121565b9a61223e608051612eaa565b6080526001600160a01b036001840154166001600160a01b03600186015416917f6850239cc8fa897edd78465a234c3240b84bbfb1c55cac4b85364de88ce71095606060405160a05181528d60208201526004356040820152a4156122cb575b5086156122ac575b80612055565b600801805460ff19166001179055976122c490612eaa565b978b6122a6565b600601805460ff19166001179055996122e390612eaa565b998c61229e565b60048201549750612037565b60028101549c50612030565b9550955095509150507f34570f9fb64342ea477acfdfd825e34c70ea3a3673ad98a12b4e87f2f3908050955060a094505b8360016080519495965082939750611f24565b5061235181896131e4565b51600052600e6020528460056040600020015410611fd8565b50955095509150507f34570f9fb64342ea477acfdfd825e34c70ea3a3673ad98a12b4e87f2f3908050955060a0949150612333565b506123aa81856131e4565b51600052600c6020528460036040600020015411611fae565b5086518910611f9e565b5083518110611f98565b606460405162461bcd60e51b815260206004820152601260248201527f4e6f206f726465727320746f206d6174636800000000000000000000000000006044820152fd5b5082511515611ca6565b8061245191600052600e602052604060002060ff60088201541615908161246a575b5061245657612eaa565b611c92565b80611d4261246385612eaa565b94896131e4565b6006015460043514905088612447565b806124a691600052600c602052604060002060ff6006820154161590816124bf575b506124ab57612eaa565b611c85565b80611d426124b885612eaa565b948a6131e4565b905060048035910154148a61249c565b80600052600e602052604060002060ff600882015416159081612516575b50612501575b6124fc90612eaa565b611c63565b9361250e6124fc91612eaa565b9490506124f3565b60060154600435149050876124ed565b80600052600c602052604060002060ff60068201541615908161256d575b50612558575b61255390612eaa565b611c54565b9061256561255391612eaa565b91905061254a565b9050600480359101541486612544565b606460405162461bcd60e51b815260206004820152601660248201527f4d61726b6574206d6174757269747920706173736564000000000000000000006044820152fd5b606460405162461bcd60e51b815260206004820152601c60248201527f41756374696f6e20696e74657276616c206e6f7420656c6170736564000000006044820152fd5b346102415760003660031901126102415760206040516301e133808152f35b346102415760003660031901126102415761263d612cf6565b60006001600160a01b0381546001600160a01b031981168355167f8be0079c531659141344cd1fd0a4f28419497f9722a3daafe3b4186f6b6457e08280a3005b34610241576000366003190112610241576020600f54604051908152f35b34610241576000366003190112610241576020604051610e108152f35b34610241576000366003190112610241576020600d54604051908152f35b346102415760208060031936011261024157600435906126f4612fb7565b8160005260108152604060002061270d81541515613025565b6001600160a01b0390816002820154169133830361283657600b82019060ff8254166005811015610422576127f257916008916127967fa658ab2fd84b9837db23df49b16ad4f921c59b21e0dbd646e9b5b3f25cf4f9bf96959460058401958654917f000000000000000000000000000000000000000000000000000000000000000016613070565b600160ff1982541617905542600782015501908154600052600a835260046040600020016127c48154612eaa565b9055549054600052600a82526127e36005604060002001918254612eb9565b9055604051428152a260018055005b6064856040519062461bcd60e51b82526004820152601a60248201527f4c6f616e206e6f7420696e2070656e64696e67207374617475730000000000006044820152fd5b6064846040519062461bcd60e51b82526004820152601760248201527f4f6e6c7920626f72726f7765722063616e20636c61696d0000000000000000006044820152fd5b3461024157602036600319011261024157612893612cf6565b61289e600435613270565b005b3461024157602036600319011261024157600435600052600e60205261012060406000208054906001600160a01b039081600182015416916002820154166003820154600483015460058401549160068501549360ff600860078801549701541696604051988952602089015260408801526060870152608086015260a085015260c084015260e08301521515610100820152f35b346102415761294336612b88565b505050505060206040517f44577bea000000000000000000000000000000000000000000000000000000008152f35b34610241576000366003190112610241576020600354604051908152f35b3461024157602036600319011261024157600435600b54811015610241576129b9602091612bec565b90546040519160031b1c8152f35b3461024157610120366003190112610241576129e1612b2e565b5060c03660231901126102415760e4356001600160a01b03811603610241576101043567ffffffffffffffff811161024157612a21903690600401612b5a565b505060206040517f23962ace000000000000000000000000000000000000000000000000000000008152f35b346102415760003660031901126102415760206040516001600160a01b037f0000000000000000000000000000000000000000000000000000000000000000168152f35b346102415760003660031901126102415760c06001600160a01b03806006541690806007541690806008541660095492604051948552602085015260408401528116606083015262ffffff8160a01c16608083015260b81c60020b60a0820152f35b3461024157602090612b0436612b88565b50505050507f0127e456000000000000000000000000000000000000000000000000000000008152f35b600435906001600160a01b038216820361024157565b606435906001600160a01b038216820361024157565b9181601f840112156102415782359167ffffffffffffffff8311610241576020838186019501011161024157565b90610160600319830112610241576004356001600160a01b0381168103610241579160c060231982011261024157602491606060e3198301126102415760e491610144359067ffffffffffffffff821161024157612be891600401612b5a565b9091565b600b54811015612c2357600b6000527f0175b7a638427703f0dbe7bb9bbf987a2551717b34e79f33b5b1008d1fa01db90190600090565b634e487b7160e01b600052603260045260246000fd5b610180600319820112610241576004356001600160a01b0381168103610241579160c060231983011261024157602491606060e3198201126102415760e4916101443591610164359067ffffffffffffffff821161024157612be891600401612b5a565b610140600319820112610241576004356001600160a01b0381168103610241579160c06023198301126102415760249160e435916101043591610124359067ffffffffffffffff821161024157612be891600401612b5a565b6001600160a01b03600054163303612d0a57565b60246040517f118cdaa7000000000000000000000000000000000000000000000000000000008152336004820152fd5b60e0810190811067ffffffffffffffff8211176106fe57604052565b610100810190811067ffffffffffffffff8211176106fe57604052565b67ffffffffffffffff81116106fe57604052565b6024356001600160a01b03811681036102415790565b6044356001600160a01b03811681036102415790565b6064356001600160a01b03811681036102415790565b15612dd057565b606460405162461bcd60e51b815260206004820152601e60248201527f4d61747572697479206d75737420626520696e207468652066757475726500006044820152fd5b15612e1b57565b606460405162461bcd60e51b815260206004820152601460248201527f526174652065786365656473206d6178696d756d0000000000000000000000006044820152fd5b15612e6657565b606460405162461bcd60e51b815260206004820152601560248201527f4d61726b657420646f6573206e6f7420657869737400000000000000000000006044820152fd5b60001981146109595760010190565b9190820180921161095957565b9290604051927f23b872dd0000000000000000000000000000000000000000000000000000000060208501526001600160a01b03809216602485015216604483015260648201526064815260a081019181831067ffffffffffffffff8411176106fe57612f3592604052612f37565b565b906000602091828151910182855af115612fab576000513d612fa257506001600160a01b0381163b155b612f685750565b6024906001600160a01b03604051917f5274afe7000000000000000000000000000000000000000000000000000000008352166004820152fd5b60011415612f61565b6040513d6000823e3d90fd5b600260015414612fc8576002600155565b60046040517f3ee5aeb5000000000000000000000000000000000000000000000000000000008152fd5b8181029291811591840414171561095957565b811561300f570490565b634e487b7160e01b600052601260045260246000fd5b1561302c57565b606460405162461bcd60e51b815260206004820152601360248201527f4c6f616e20646f6573206e6f74206578697374000000000000000000000000006044820152fd5b916001600160a01b03604051927fa9059cbb000000000000000000000000000000000000000000000000000000006020850152166024830152604482015260448152608081019181831067ffffffffffffffff8411176106fe57612f3592604052612f37565b156130dd57565b606460405162461bcd60e51b815260206004820152600f60248201527f4c6f616e206e6f742061637469766500000000000000000000000000000000006044820152fd5b9190820391821161095957565b8015610959576000190190565b1561314257565b606460405162461bcd60e51b815260206004820152601160248201527f496e76616c6964206e756c6c69666965720000000000000000000000000000006044820152fd5b67ffffffffffffffff81116106fe5760051b60200190565b906131a882613186565b60405190601f1990601f018116820167ffffffffffffffff8111838210176106fe576040528382526131da8294613186565b0190602036910137565b8051821015612c235760209160051b010190565b600781015480158015613255575b61324e5764496cebb800610cef61324b93610cea60066132346132298742613121565b966008850154613121565b600584015496818082109118021892015485612ff2565b90565b5050600090565b5060ff600b8301541660058110156104225760011415613206565b61327b81151561313b565b8060005260046020526040600020805460ff81161561329957505050565b60ff191660011790557f03422edde3b4dfad5fea7909eebed1b0370e6232a638f83bc4aa4d9b4275598e600080a256fea2646970667358221220046dd886aaf21cbf3028905e4e2c437359bd37bd83cb8d734f1f8a03ee3cfdb264736f6c63430008140033",
  "linkReferences": {},
  "deployedLinkReferences": {}
}